:020000040800F2
:100000000004002011010008E1020008E1020008DC
:10001000E1020008E1020008E1020008E102000834
:10002000E1020008E1020008E102000811030008F3
:10003000E1020008E1020008E1020008E103000813
:10004000E1020008E1020008E1020008E102000804
:10005000E1020008E1020008E1020008E1020008F4
:10006000E1020008E1020008E1020008E1020008E4
:10007000E1020008E1020008E1020008E1020008D4
:10008000E1020008E1020008E1020008E1020008C4
:10009000E1020008E1020008E1020008E1020008B4
:1000A000E1020008E1020008E1020008E1020008A4
:1000B000E1020008E1020008E1020008E102000894
:1000C000E1020008E1020008E1020008E102000884
:1000D000E102000811160008E1020008E102000830
:0C00E000E1020008E1020008E102000853
:1000F000704700BFAFF30080AFF30080AFF3008024
:10010000FEE700BFAFF30080AFF30080AFF30080E5
:1001100072B6634880F30988022383F31488BFF31F
:100120006F8F604A604CA24217D213464FF0553190
:10013000D64343F8041BA519A342C5F380050CD28E
:1001400025B1196002F10803A34206D21A4642F80B
:10015000041B5960131DA342F8D3544A824217D29C
:1001600013464FF05531D54343F8041B44198342DD
:10017000C4F380040CD224B1196002F10803834255
:1001800006D21E4646F8041B5960331D8342F8D33D
:1001900001F036FC464C4749A14222D246480B4664
:1001A000024652F8046BCD4343F8046B04EB050C94
:1001B000A342CCF3800514D23DB1166800F10802C9
:1001C0001E6001F10803A3420BD2104650F8045BF5
:1001D000194641F8045B5668021D5E600B1DA34280
:1001E000F3D3364A3648824217D200211346D4430D
:1001F00043F8041B00EB040E8342CEF380040CD2C0
:1002000024B1196002F10803834206D21A4642F86B
:10021000041B5960131D8342F8D32A4D2A4EFFF761
:1002200067FFB54219D22C4654F8043BE9437718CE
:100230009847B442C7F380070FD22FB1236805F166
:1002400008049847B44208D2254655F8042B904735
:1002500060682C1D8047B442F6D31C4D1C4E01F043
:10026000DFFBB5421AD22C46EF4354F8043B06EBB1
:10027000070CCCF380079847B4420FD22FB1226805
:1002800005F108049047B44208D2254655F8040BFE
:10029000804761682C1D8847B442F6D3FFF730BF12
:1002A00000080020000000200004002000040020BE
:1002B0000008002000080020782500080008002021
:1002C000D0170020EC000008EC000008EC0000084B
:1002D000EC000008AFF30080AFF30080AFF30080C4
:1002E000FEE700BFAFF30080AFF30080AFF3008004
:1002F00072B6FEE7AFF30080AFF30080AFF300808B
:1003000000F06EF900F0D4FB00F08AF900DF00BFC6
:10031000EFF30983203383F30988002383F31188E3
:10032000704700BFAFF30080AFF30080AFF30080F1
:100330000A4B002210B59A60094A07201021DA60A2
:1003400000F0A6F80A204FF4007100F0A1F80B208D
:100350008021BDE8104000F09BB800BF00ED00E038
:100360000000FA05AFF30080AFF30080AFF3008028
:10037000202383F311881648436813F4006316D0D2
:10038000EFF30983203B83F30988124A4FF0807012
:100390009169D86171B11068D2698168926891429F
:1003A00094BF002201227AB10B499961704783F30F
:1003B000118870471068D26981689268914234BF91
:1003C00000220122002AEFD1044A9A61704700BF3F
:1003D00000ED00E02C0D0020010300080C030008D4
:1003E00010B500F07DF9202383F3118800F038F96F
:1003F00000F0AEF800F054F9002383F3118800F008
:100400008FF9BDE81040FFF7B3BF00BFAFF3008026
:100410002DE9F04FC1F80CD0D0F80CD0BDE8F08F2A
:1004200008B500F0FDF8002383F311882846A047A3
:1004300000F056FC08BD00BFAFF30080AFF30080B2
:10044000F0B400F00307FE00FF2313FA06F200F0F9
:100450001F04B1400125A5408608094CC03654F858
:100460002670400927EA020242EA010300F1600710
:1004700044F8263044F8275044F82050F0BC704728
:1004800000E100E0AFF30080AFF30080AFF3008045
:1004900000F0030210B4FF23D40013FA04F2A140C9
:1004A0008008064C063054F8203023EA020242EA63
:1004B000010344F8203010BC704700BF00ED00E09D
:1004C0000248034AC3699A61FEE700BF2C0D002071
:1004D00040210008AFF30080AFF30080AFF300804D
:1004E00030B583B0FFF724FF00F012FA00F0A8F94E
:1004F00000F0DEFE00F064F940210E4800F000FB41
:100500000D4D0E490124E86180F82040C16100F0E2
:100510004FF8002383F3118862B6EA691D46084B41
:10052000C021936107482246074B009500F050FB1D
:1005300003B030BD000800202C0D00200004002076
:100540004821000848080020C1040008AFF30080DB
:1005500070B500F005F9114B9A69002A01DD013AE6
:100560009A61DA690E4C516A2368481C5062E1684E
:10057000481CA342E0600FD09D68013D9D605DB9BD
:1005800026461968DA681869DD604E602160904778
:10059000236898680028F4D070BD00BF2C0D00209F
:1005A0001C0D0020AFF30080AFF30080AFF300809C
:1005B0000548036813B9054A116821B10448054B81
:1005C0001860FFF795BE704708090020140D002041
:1005D00060210008180D0020AFF30080AFF3008009
:1005E000084810B5036853B9074C216821B1074A80
:1005F000074B1A60FFF77CFE0120206010BD024C03
:10060000F5E700BF08090020140D0020682100084C
:10061000180D0020AFF30080AFF30080AFF300802F
:10062000094810B5036833B9084C2168002903DD77
:100630000020206010BD054C054A064B1A60FFF7EC
:1006400057FE0020206010BD08090020140D002076
:1006500070210008180D0020AFF30080AFF3008078
:10066000084810B50368002B0ADD074C216821B14A
:10067000064A074B1A60FFF73BFE0120206010BDC1
:10068000014CF5E708090020140D0020782100082E
:10069000180D0020AFF30080AFF30080AFF30080AF
:1006A0000A4810B50368002B06DD094C21680029B3
:1006B00003DD0020206010BD054C064A064B1A6081
:1006C000FFF716FE0020206010BD00BF08090020C3
:1006D000140D002080210008180D0020AFF30080C9
:1006E00010B5202383F31188094C2368002B02DB0B
:1006F000084802682AB1084B08491960FFF7F8FD5D
:1007000023685A1C2260002383F3118810BD00BFA8
:1007100008090020140D0020180D00208821000871
:1007200010B5202383F31188094C2368002B02DDC8
:10073000084802682AB1084B08491960FFF7D8FD3C
:1007400023685A1E2260002383F3118810BD00BF66
:1007500008090020140D0020180D00209021000829
:1007600006480368002B04DB054A1168002900DDF8
:1007700070470448044B1860FFF7BABD0809002011
:10078000140D002098210008180D0020AFF3008000
:100790000648036823B9064A1168002900DD70473E
:1007A0000448054B1860FFF7A3BD00BF08090020EF
:1007B000140D0020A0210008180D0020AFF30080C8
:1007C000034A4021134643F8081B5360704700BF9B
:1007D0000C090020AFF30080AFF30080AFF300807E
:1007E00010B40D4A0D4C0E495368E468C9691C6089
:1007F0005960846A03F110019C6090F8204002F572
:10080000816081421C7328BF02F10803516028BF38
:10081000536010BC704700BF0C0900201C0D002065
:100820002C0D0020AFF30080AFF30080AFF3008009
:10083000014B1860FFF75CBD180D0020AFF300807E
:10084000044B4FF0FF3000225B601B609860DA6061
:10085000704700BF1C0D0020AFF30080AFF3008095
:10086000F8B504460D4616461F46FFF779FFCCB192
:10087000C6B1BDB10D4927610B68E6609A68954223
:1008800004D91B68AD1A9A68AA42FAD35A688B42F7
:100890002360626014605C60A56002D09868451BAC
:1008A0009D60F8BD0248FFF7C3FFE3E71C0D002081
:1008B000B0210008AFF30080AFF30080AFF30080F9
:1008C00010B50446FFF74CFF84B1E36893B1236889
:1008D0000A4A934203D09968A268881898606068B1
:1008E000002203602368E260586010BD0448FFF7EF
:1008F0009FFFEAE70348FFF79BFFE8E71C0D002096
:10090000C0210008D0210008AFF30080AFF30080C1
:10091000044B002014225B601B6098609A615B614D
:100920001B6170472C0D0020AFF30080AFF30080F7
:1009300010B590F8203004468BB10E2B0FD000225A
:10094000094BA16884F820201B6898688842FBD274
:100950005968236061600C605C60204610BD0348EC
:10096000FFF766FFEBE700BF2C0D0020F021000829
:1009700090F820300D2B11D8DFE803F01510100788
:10098000100B101010101010100B816A8B685A1C7D
:100990008A60416803680B60026851604FF0FF3263
:1009A0008262FFF7C5BF7047AFF30080AFF30080EE
:1009B00070B5114C0646FFF7EBFEE569142085F88B
:1009C0002060236801211A6883F82010A061546018
:1009D00028462260E361FFF703FFEA69ADF12403D3
:1009E0009A4202D90548FFF723FFE0692946BDE88E
:1009F0007040FFF70DBD00BF2C0D00200422000841
:100A000070B50E4686B00546FFF7C2FEB6F1FF3F51
:100A100012D00C4C3146E3690B4A01A8FFF720FFC6
:100A20002846FFF7C5FF049B13B101A8FFF748FF55
:100A3000E069806A06B070BD2846FFF7B9FF014C37
:100A4000F6E700BF2C0D002071090008AFF300800D
:100A500070B5154D04460E46FFF79AFEE869A26888
:100A60008368A6629A4215D9FFF762FF0123142218
:100A7000064684F82030AA61EC61FFF7B1FEF06908
:100A8000ADF1240188420AD820463146BDE87040C5
:100A9000FFF7BEBC2046BDE87040FFF749BF0348E2
:100AA000FFF7C6FEF0E700BF2C0D0020042200086F
:100AB00070B5104C01212368E5691A681420A06103
:100AC00083F82010546028462260E361FFF730FF6E
:100AD0002846FFF785FEEA69ADF124039A4202D960
:100AE0000548FFF7A5FEE0692946BDE87040FFF71D
:100AF0008FBC00BF2C0D002004220008AFF3008043
:100B0000F0B400220E4C022580F8205080F82120FD
:100B1000656900F1300600F12C0C00F14807046112
:100B200081604561416460610264C26342628261C6
:100B30002861C0F82CC046630663C761F0BC7047EB
:100B40002C0D0020AFF30080AFF30080AFF30080E6
:100B5000F8B504460D4616461F46FFF701FE0CB1D8
:100B6000AF2D28D81648FFF763FE243D6119E160D8
:100B700006986751134F0023134A022548600F62FD
:100B800084F8205084F82130506904F1300104F1D8
:100B90002C0704F1480522616061A6606664546117
:100BA00023640461E3636362A361E76261632163B9
:100BB000E5612046F8BD7F2ED4D8002FD5D1D1E7EE
:100BC00020220008210400082C0D0020AFF3008033
:100BD000F0B504460D461F4683B0164648302346FE
:100BE000FF211A4602F8011B5970531C8342F8D1A9
:100BF0006019834215D25521DA4303F8011B00EB3B
:100C0000020C83420CF001020BD01AB103F8011B55
:100C1000834206D01A4602F8011B5970531C8342C6
:100C2000F8D1202383F31188FFF7DAFC2046089CD3
:100C30003B46324629460094FFF78AFF00210446CE
:100C4000FFF706FFFFF7ECFC002383F31188204633
:100C500003B0F0BDAFF30080AFF30080AFF30080CE
:100C600010B5044610B90948FFF7E2FD202383F3CD
:100C70001188FFF7B5FC21460620FFF7C1FEFFF7FC
:100C8000CFFC002383F3118810BD00BF6022000851
:100C9000114B70B5DC69254655F82C3FA062AB427C
:100CA00007D01A681846E262FFF742FEE36AAB42D9
:100CB000F7D194F8210010F0030F04D16369226981
:100CC0001A6121694B610E20FFF772FE0348BDE8EF
:100CD0007040FFF7ADBD00BF2C0D00207022000852
:100CE00010B52023044683F31188FFF779FC2046D2
:100CF000BDE81040FFF7CCBFAFF30080AFF300803A
:100D000010B5044620B1002364602460A36010BDC8
:100D10000348FFF78DFD002364602460A36010BDCD
:100D2000B0220008AFF30080AFF30080AFF3008083
:100D30003B4B2DE9F0410546DC69FFF729FD002D0D
:100D40006AD0A868002836D0A2688168914208D28B
:100D500090F820308260042B46D0052B31D0002B38
:100D60001ED02B461B689D4203D09868A16888421C
:100D7000F8D25A682360626004205C601460A56247
:100D8000FFF716FEAB68A34202D02648FFF750FDDE
:100D9000206CA84213D02448BDE8F041FFF748BDBD
:100DA0004368026801211A60026880F820105360CD
:100DB000FFF7BEFDD5E7216CAC60E9602564BDE8B6
:100DC000F08141680768866A0F600768334679607A
:100DD0001B689E4202D099689142F9D25A6803601A
:100DE000426010605860BCE741680768866A0F601F
:100DF0000768334679601B689E4202D09968914229
:100E0000F9D25A680360426010605860B068A26806
:100E1000836893429CD3A4E70448FFF709FD90E759
:100E20002C0D0020D0220008E4220008C022000877
:100E300010B52023044683F31188FFF7D1FB204629
:100E4000FFF776FFFFF7ECFB002383F3118810BD5B
:100E5000214A70B52023D56983F31188FFF7C0FBC1
:100E60002C6C002C33D0A368AB4203D01B48FFF797
:100E7000DFFC2C6C2368E268A3422A641ED0686CF5
:100E80004AB11168914203D08968884238BF084648
:100E9000D268002AF5D11A681E6CA8600021226071
:100EA00018465460A360E6601C64FFF7D1FDFFF7AD
:100EB000B7FB002383F31188204670BD0020A0609B
:100EC000FFF7AEFB002383F31188204670BD044872
:100ED000FFF7AEFC2C6CC6E72C0D00202023000889
:100EE0000C230008AFF30080AFF30080AFF3008065
:100EF00038B504460D46FFF733FCBCB1E26B94F8FD
:100F000020301543082BE5630CD0092B00D038BDE9
:100F1000A06A0540A842FAD12046FFF709FD00214A
:100F2000816238BDA36A1D42F6D138BD0148FFF782
:100F30007FFCE3E78C230008AFF30080AFF3008071
:100F400070B505460E46FFF70BFC65B12C68AC4248
:100F500008D0A168606846EA0101FFF7C9FF24686C
:100F6000AC42F6D170BD0248FFF762FCEEE700BF6D
:100F7000B0230008AFF30080AFF30080AFF3008030
:100F800010B4034619B94FF0FF3010BC7047064C3F
:100F90000D20E26993625C68136054605A602260BD
:100FA00010BCFFF72DBD00BF2C0D0020AFF300805B
:100FB00010B48A180024406000608460416181613F
:100FC000C1600261C36110BC704700BFAFF3008015
:100FD00038B504460D46FFF7C3FB6369A269934227
:100FE00019D0A268511CA16003F8015B20696361FC
:100FF000834228BFE368206828BF6361A04208D00D
:10100000026822605460FFF793FC00238362184655
:1010100038BD002038BDA268002AE3D06FF003007D
:1010200038BD00BFAFF30080AFF30080AFF30080A6
:10103000F8B504460D46202383F31188FFF7D0FA54
:10104000E3690BB120469847A6682046294656B961
:10105000FFF796FF071EF7DAFFF7E2FA334683F34E
:1010600011883846F8BDA369013EA66013F8017BDC
:101070002269A361934224BFE368A361FFF7D0FA1A
:10108000002383F311883846F8BD00BFAFF300801A
:101090002DE9F0470446904689461D46C769002A57
:1010A00037D0202383F31188FFF79AFA00260FB177
:1010B0002046B847D4F808A020462946BAF1000FC8
:1010C0000BD1FFF75DFF0028F4D0FFF7A9FA5346D4
:1010D00083F311883046BDE8F087A3690AF1FF3138
:1010E000A16013F8010B09F806002269A36193427D
:1010F00024BFE368A361FFF793FA002383F3118809
:1011000001364645E6D0202383F31188FFF768FABD
:10111000CDE70248FFF78CFBC3E700BFF0230008D0
:1011200010B48C1840600060826041618161C160D0
:101130000461C36110BC7047AFF30080AFF300805F
:101140002DE9F041202304460D46164683F311880D
:10115000FFF746FAA7682046314667B9FFF710FF48
:10116000B0F10008F6DAFFF75BFA3B4683F311882B
:101170004046BDE8F0816369013FA76003F8015B69
:1011800022696361934224BFE3686361E3690BB141
:1011900020469847FFF744FA002383F311889846C6
:1011A0004046BDE8F08100BFAFF30080AFF30080A0
:1011B00038B50446FFF7D4FAA36962699A4217D09A
:1011C000A268511CA16013F8015B2069A3618342EE
:1011D00028BFE368206828BFA361A04206D0026848
:1011E00022605460FFF7A4FB00238362284638BDC9
:1011F000A268002AE5D06FF0020038BDAFF300808E
:101200002DE9F047044615460E469946D0F81C8055
:10121000002A40D0202383F31188FFF7E1F900274B
:10122000D4F808A020460AF1FF33BAF1000F24D009
:10123000A3603178636903F8011B226963619342FB
:1012400024BFE3686361B8F1000F00D0C047FFF727
:10125000E7F9002383F311880137013D18D00136E7
:10126000202383F31188FFF7BBF9D4F808A02046A8
:101270000AF1FF33BAF1000FDAD120464946FFF7F1
:101280007FFE0028CCD0FFF7CBF9534683F31188BB
:101290003846BDE8F0870248FFF7CAFABAE700BF50
:1012A00004240008AFF30080AFF30080AFF30080A8
:1012B000054B064A064823F00701064B116020F053
:1012C00007021A60704700BFD7170020500D00209A
:1012D000005000204C0D0020AFF30080AFF30080E1
:1012E00010B500F0EDF8044800F0AAFA00F060F83C
:1012F000BDE8104000F08CBBE0240008AFF3008094
:10130000806BD0F1010038BF00207047AFF3008040
:101310008069D0F1010038BF00207047AFF3008032
:1013200070B52023044683F311880026FFF758F98F
:10133000A568A660FFF774F9334683F31188284641
:1013400070BD00BFAFF30080AFF30080AFF300804B
:101350001030FFF79DBE00BFAFF30080AFF30080F9
:1013600010304FF0FF33FFF793BE00BFAFF30080A4
:101370003030FFF745BF00BFAFF30080AFF3008010
:1013800030304FF0FF33FFF73BBF00BFAFF30080BB
:101390001030FFF74DBE00BFAFF30080AFF3008009
:1013A0003030FFF7CDBE00BFAFF30080AFF3008059
:1013B00000F0EEB9AFF30080AFF30080AFF3008030
:1013C0000B460F4970B50646044646F8041B666096
:1013D0000026A66001261546103004F150014FF496
:1013E00000722673FFF7E4FD04F1300004F5147178
:1013F0004FF400722B46BDE87040FFF791BE00BF6E
:1014000080240008AFF30080AFF30080AFF30080CA
:1014100038B504460D46C0B1202383F31188FFF789
:10142000DFF8217B481EC3B2012B02D90948FFF720
:10143000FFF92046294600F0C3F902222273FFF784
:10144000EFF8002383F3118838BD0348FFF7F0F964
:10145000E2E700BF2C24000820240008AFF300803E
:1014600070B504460D46FFF77BF9002C21D0A16929
:1014700039B104F110002946FFF7AAFD00280EDB60
:1014800070BDA268201D42F00403A360FFF758FD61
:1014900004F110002946FFF79BFD0028F0DAA3684D
:1014A000201D43F08001A1600021BDE87040FFF7DE
:1014B00047BD0248FFF7BCF9D9E700BF5824000830
:1014C000214B00224FF0FF3030B420491C6900F559
:1014D0000C3C18611A61DD68D8600CF52070DA6088
:1014E0001B4C486007208A600860E168194841F099
:1014F0008071E1600468184944F001040460D8690F
:1015000040F08050D861D86940F00060D861086828
:1015100040F480700860186A00F44071B1F5407FB3
:1015200003D04FF4803119621A62074B1A6A12F421
:10153000004F07D1186A40F440721A62196A41F4E8
:101540000040186230BC70470010024010E000E01C
:10155000F0ED00E0001000E000700040AFF300800C
:101560001F4B1868194640F001021A600B681C4AAC
:1015700013F0020FFAD01368002003F0F901116094
:10158000114650604868164A10F00C0FFAD11068E6
:10159000114640F4803313600B68114A13F4003F86
:1015A000FAD05368114643F4E8105060136843F0D2
:1015B0008070106008680A4A10F0007FFAD009486D
:1015C000094B1221506019605068114640F0020327
:1015D00053604A6802F00C0CBCF1080FF9D1704757
:1015E0000010024000641D0000200240AFF30080A4
:1015F000034B998988B240F080029A81704700BFFE
:1016000000380140AFF30080AFF30080AFF30080FB
:101610002DE9F0475A4EFFF763F8D6F85054AF89DA
:101620002C88BFB2A4B214F00F0FB5F8048025D0F7
:1016300014F0080918BF4FF0800914F0010F18BF0B
:1016400049F0200914F0020F18BF49F0400914F0C6
:10165000040F18BF49F48079202383F31188FEF723
:10166000FFFFB168474849EA01030021B360FFF773
:1016700067FCFFF715F8002383F3118814F4807FCB
:101680003FD114F0200F2CD117F0800F02D014F0AE
:10169000800F50D114F0400F1DD0202383F3118808
:1016A000FEF7DEFFB268374842F010030021B36056
:1016B000FFF746FCFEF7F4FF002383F311884FF693
:1016C000BF7007EA0001A981B5F800C02CF0400204
:1016D0001304180C2880FFF723F8BDE8F047FEF745
:1016E00047BE202383F31188FEF7BAFF24485FFA30
:1016F00088F1FFF7B5FEFEF7D3FF002383F31188CF
:10170000C2E7202383F31188FEF7AAFFB1681D48C2
:1017100041F400720021B260FFF712FCFEF7C0FF37
:10172000002383F31188B5F800C02CF480731A04E9
:10173000100C2880A5E7202383F31188DFF8408070
:10174000FEF78EFF08F13000FFF732FD002806DBC0
:10175000A880FEF7A5FF002383F311889AE7D8F845
:10176000081008F1040041F00802C8F80820002120
:10177000FFF7E6FB27F0C00343F04000A881E8E74D
:10178000540D0020580D0020AFF30080AFF300800F
:1017900010B5054C00212046044AFFF711FE044B0A
:1017A000C4F8503410BD00BF540D0020F1150008DE
:1017B00000380140AFF30080AFF30080AFF300804A
:1017C00038B5037B174C0546002918BF0C46012B82
:1017D0001BD02068144AD5F85034B2FBF0F11981BF
:1017E000A288B4F806C0218942F4045040F02C02CB
:1017F0004CF040009A8141F0010C18820020A3F8BF
:1018000014C018801A889B8838BD08498842E0D1E6
:10181000074B25209A69C02142F480429A61FEF765
:101820000FFED6E7B024000800512502540D002019
:1018300000100240AFF30080AFF30080AFF30080F0
:10184000154B30B49A69154D42F07D049C610168D6
:10185000134CE960826813496A604368124A2B603E
:10186000C568124BE5604569656005692560846956
:10187000CC60046A4C60C4690C60416AD160C16A82
:101880005160816A1160026BDA60816B5960426B52
:101890001A6030BC704700BF0010024000080140D1
:1018A000000C0140001001400014014000180140EC
:1018B000032AF0B400F09A80042A08BF41614C4B1F
:1018C00011F080079B5C40F088800F2411F40045E4
:1018D00040F089800F264A002401360139012D018C
:1018E00012F0800F14BF194344F00F0412F4004F9C
:1018F00014BF1D4346F00F065200240136010901B2
:101900002D0112F0800F14BF194344F00F0412F49C
:10191000004F14BF1D4346F00F065200240136014C
:1019200009012D0112F0800F14BF194344F00F0478
:1019300012F4004F14BF1D4346F00F06520024015D
:10194000360109012D0112F0800F14BF194344F034
:101950000F0412F4004F14BF1D4346F00F0652004F
:101960002401360109012D0112F0800F14BF194323
:1019700044F00F0412F4004F14BF1D4346F00F064D
:1019800052002401360109012D0112F0800F14BF0D
:10199000194344F00F0412F4004F14BF1D4346F0E6
:1019A0000F0652002401360109012D0112F0800FAB
:1019B00014BF194344F00F0412F4004F18BF1D4325
:1019C000436808BF46F00F061E4035434560026875
:1019D000144021430160F0BC7047002411F400451D
:1019E0001F463FF477AF1D46002674E7016166E7A6
:1019F000C0240008AFF30080AFF30080AFF3008095
:101A0000FFF7AEBDAFF30080AFF30080AFF300800F
:101A1000704700BFAFF30080AFF30080AFF30080EA
:101A200008B5FFF75DFCFEF75BFD00F0F1F800F094
:101A3000BFF9032000F024FA032000F0E9F900F0D8
:101A40000FF900F00DF9FAE7AFF30080AFF3008073
:101A500000F0A6BAAFF30080AFF30080AFF30080D0
:101A6000017840780B02C01800F052BAAFF3008042
:101A7000014611F8010B00F013BA00BFAFF300806C
:101A8000007800F0C5B900BFAFF30080AFF300806D
:101A900010B5044648B15C2807D0074821464FF0EE
:101AA000FF32BDE81040FFF74BBB5C214FF0FF3227
:101AB0000148FFF745FBF0E7840D0020AFF30080FD
:101AC000024800214FF0FF32FFF73ABB840D00209F
:101AD00030B5264D87B001AC0FCD0FC42A689DF8F4
:101AE00004002270FFF7D4FF9DF80500FFF7D0FF38
:101AF0009DF80600FFF7CCFF9DF80700FFF7C8FF31
:101B00009DF80800FFF7C4FF9DF80900FFF7C0FF2C
:101B10009DF80A00FFF7BCFF9DF80B00FFF7B8FF28
:101B20009DF80C00FFF7B4FF9DF80D00FFF7B0FF24
:101B30009DF80E00FFF7ACFF9DF80F00FFF7A8FF20
:101B40009DF81000FFF7A4FF9DF81100FFF7A0FF1C
:101B50009DF81200FFF79CFF9DF81300FFF798FF18
:101B600007B0BDE83040FFF7ABBF00BF402500081D
:101B700010B5234B84B06C460FCB84E80F009DF862
:101B80000000FFF785FF9DF80100FFF781FF9DF83A
:101B90000200FFF77DFF9DF80300FFF779FF9DF836
:101BA0000400FFF775FF9DF80500FFF771FF9DF832
:101BB0000600FFF76DFF9DF80700FFF769FF9DF82E
:101BC0000800FFF765FF9DF80900FFF761FF9DF82A
:101BD0000A00FFF75DFF9DF80B00FFF759FF9DF826
:101BE0000C00FFF755FF9DF80D00FFF751FF9DF822
:101BF0000E00FFF74DFF04B0BDE81040FFF760BFD7
:101C000054250008AFF30080AFF30080AFF30080ED
:101C100010B50F4C102220464FF40071FFF748FE1C
:101C2000204602224FF48061FFF742FE2046102238
:101C30004FF40061FFF73CFE20464FF48051022232
:101C4000FFF736FE03480021BDE81040FFF7E0BB78
:101C500000080140540D0020AFF30080AFF3008076
:101C600070B535484FF0FF31FFF7E2F9831C012BC7
:101C70000ED9324BC0B21A785AB9B8B9304A314C81
:101C800013782668012B1DD0022B4AD00023236035
:101C900070BD2C4C002522681D70294B511C985496
:101CA0002029B4BF0B4620232360F1E75C282ED007
:101CB000244C23492268531C202BA8BF202388547E
:101CC0002360E5E7012EE1DD511CCB4396199819FD
:101CD00055781D49931CB3420D7000F00100D5D01A
:101CE00030B193F800E0D31CB34201F801EFCDD03E
:101CF0001A4612F8015B481C4D7093F801C0531C42
:101D0000411CB34280F801C0F2D10023BFE70D4C63
:101D10000121206819702028B4BF034620232360C6
:101D2000B6E75378052BB1DC0849074851F8233052
:101D300098470023ABE700BF640D0020A8110020E6
:101D4000AC110020CC110020D0110020202500086B
:101D50001248F8B5124AC369124D134C9A614FF4F8
:101D600080474FF400561148FFF762F8296811F0D8
:101D7000010F17BFE268676182F48042E26011F0F0
:101D8000020F17BFE168666181F40051E160FFF75F
:101D90005FF86420FEF764FFE5E700BF2C0D00202C
:101DA000702500080012002000100140F0110020F2
:101DB00030B5104C4FF480434FF40055636183B04D
:101DC0001946062220466561FFF772FD2946062264
:101DD0002046FFF76DFD0848FEF792FF00244FF400
:101DE000D8714022054B06480094FEF7F1FE03B07F
:101DF00030BD00BF00100140F0110020511D00084F
:101E000008120020AFF30080AFF30080AFF3008032
:101E100010B504460448FFF70BF8044B1C60BDE8FE
:101E20001040FFF715B800BFF0110020001200208D
:101E3000084A0948116808B501EA0003B3F1005FD8
:101E400000D008BD05480368126882F308889847E7
:101E500008BD00BF005000080000FE2F045000081D
:101E60000022034840F2DC511346FEF7F9BC00BFE4
:101E7000B8170020AFF30080AFF30080AFF300800D
:101E80004FF4FA7101FB00F1024A03480023FEF708
:101E9000E7BC00BF311E0008B8170020AFF3008078
:101EA000F8B504460D46FFF7DBFF5CB3DFF85CC016
:101EB0001548DCF8007029467B1EC318013CC61982
:101EC00011F8010BE4B2DA43361903F8010F921945
:101ED000B34202F0010211D02AB111F801EB03F86C
:101EE00001EFB3420AD00A4612F8015B581C5D703C
:101EF000497802334170511CB342F4D101373C1987
:101F0000CCF80040F8BD00BFB8130020CC1700206B
:101F1000F8B5054605F500341434FFF7A1FF1D4D53
:101F2000A402002306E01059AA58904208D1B3F544
:101F3000806F28D01859E9581A1D08338842F2D00A
:101F400000F04EF8204600F0DBF8042817D10026F8
:101F500007E0E95900F09CF804280CD1B6F5806F31
:101F600013D0A959A01900F093F8371D3E1D04287D
:101F700004EB0700EDD000F043F80220F8BD00F0BC
:101F80003FF80120F8BD0020F8BD00F039F800202E
:101F9000F8BD00BFB8130020AFF30080AFF300809E
:101FA00008B5FFF75DFF084A0848116801EA000319
:101FB000B3F1005F00D008BD05480368126882F3E2
:101FC0000888984708BD00BF005000080000FE2F99
:101FD00004500008AFF30080AFF30080AFF300803F
:101FE0000348044B00F1883258605A60704700BFC4
:101FF0002301674500200240AFF30080AFF300806B
:10200000024B186940F080021A61704700200240BC
:10201000094BDA6812F0010F0CD1D86810F0040FE8
:1020200006D1DB6813F0100F0CBF042003207047AB
:10203000022070470120704700200240AFF300806B
:1020400010B50446FFF7E4FF012815D1D4B1FFF71E
:10205000DFFF013C012804F001030DD184B10BB175
:1020600005E06CB1FFF7D4FF013C012804D1FFF774
:10207000CFFF013C0128F4D0002C08BF052010BD83
:10208000052010BD052010BDAFF30080AFF3008028
:1020900070B5002382B004464FF400500D46019302
:1020A000FFF7CEFF042801D002B070BD114E4FF4EF
:1020B0000050316941F0010232612580FFF7C0FF15
:1020C000042806D0336941F6FE7E03EA0E01316131
:1020D000EAE70234019401982D0C05804FF400507A
:1020E000FFF7AEFF326941F6FE7C02EA0C03336172
:1020F000DAE700BF00200240AFF30080AFF30080BA
:1021000038B505464FF43020FFF79AFF042800D079
:1021100038BD0A4C4FF43020236943F0020222619B
:102120006561216941F040032361FFF789FF22695E
:1021300041F6FD7102EA0103236138BD002002402F
:1021400069646C65000000006D61696E000000004C
:102150005356233100000000535623320000000084
:102160005356233300000000535623340000000070
:10217000535623350000000053562336000000005C
:102180005356233700000000535623380000000048
:10219000535623390000000053562331300000000D
:1021A0005356233131000000000000000000000001
:1021B00022636856545365744922282900000000A0
:1021C00022636856545265736574492228290000B9
:1021D0006368565452657365744928292C2023314D
:1021E00000000000000000000000000000000000EF
:1021F000636853636852656164794928292C2023F8
:1022000031000000737461636B206F766572666CD9
:102210006F770000000000000000000000000000D8
:102220002263685468644372656174654922282991
:10223000000000002263685468645365745072693A
:102240006F7269747922282900000000636854685D
:1022500064526573756D6528292C202331000000B8
:10226000226368546864536C6565702228290000F5
:102270006368546864457869745328292C20233195
:102280000000000022636854686457616974222862
:102290002900000063685468645761697428292C18
:1022A00020233100000000000000000000000000BA
:1022B0002263684D7478496E6974222829000000F1
:1022C0002263684D74784C6F636B53222829000099
:1022D00063684D74784C6F636B5328292C2023312D
:1022E0000000000063684D74784C6F636B532829BD
:1022F0002C202332000000002263684D7478547251
:10230000794C6F636B5322282900000063684D7479
:1023100078556E6C6F636B28292C202331000000E8
:1023200063684D7478556E6C6F636B28292C20237D
:102330003200000063684D7478556E6C6F636B53A8
:1023400028292C202331000063684D7478556E6C69
:102350006F636B5328292C202332000000000000FB
:1023600022636845767452656769737465724D615E
:10237000736B222829000000226368457674556E2D
:102380007265676973746572222829002263684543
:1023900076745369676E616C492228290000000039
:1023A0002263684576745369676E616C2228290040
:1023B00022636845767442726F6164636173744D21
:1023C00061736B4922282900226368457674446949
:1023D0007370617463682228290000006368457681
:1023E00074446973706174636828292C2023310058
:1023F00022636849515265616454696D656F7574F3
:10240000222829002263684F515772697465546904
:102410006D656F757422282900000000000000001F
:102420002273645374617274222829007364537494
:1024300061727428292C2023310000002273645318
:10244000746F702228290000736453746F702829F8
:102450002C20233100000000227364496E636F6DED
:10246000696E6744617461492228290022736452AD
:10247000657175657374446174614922282900008F
:1024800081130008611300080113000811130008EC
:10249000A1130008911300087113000851130008DC
:1024A00021130008000000000000000000000000F0
:1024B00000C2010000000040000000000000000019
:1024C00004020408080003070808080808080808A8
:1024D0000B0F0000000000000000000000000000E2
:1024E000FFFFFFFF4444444444444444FFFFFFFFD4
:1024F0004444444444444444FFFFFFFF44444444B0
:1025000044444444FFFFFFFF44444444444444449F
:10251000FFFFFFFF8888888888888888000000007F
:10252000711B0008D11A0008811A0008711A0008EE
:10253000611A0008511A00080000000000000000A5
:10254000626F6F746C6F616465722D312E302E3046
:10255000000000006469676974697A65722D312E24
:10256000302E3000000000000000000000000000DD
:042570006C64000097
:0400000508000111DD
:00000001FF
