:020000040800F2
:1000000000040020E10A0008D10B0008D10B000811
:10001000D10B0008D10B0008D10B0008D10B000850
:10002000D10B0008D10B0008D10B0008210C0008EF
:10003000D10B0008D10B0008D10B0008F10B000810
:10004000D10B000871370008D10B0008D10B000854
:10005000D10B0008D10B00083134000871340008BE
:10006000B1340008F134000831350008612D000872
:10007000C12D0008212E0008812E0008E12E000865
:10008000412F0008A12F0008D10B0008D10B000858
:10009000D10B0008D10B0008D10B00087135000806
:1000A000D10B0008A13B0008D10B0008D10B0008C0
:1000B000D10B0008D10B0008D10B0008E146000865
:1000C00001470008D10B0008D10B0008D10B000834
:1000D000D10B0008814D0008A14D0008D10B00088C
:0C00E00061360008D10B0008B1370008A1
:1000F0004BB942B9002908BF002802D04FF0FF31A8
:10010000084600F03DB882B0EC462DE9005000F002
:100110001FF8DDF804E002B00CBC704700000000DE
:100120002DE970431E4614468046894600F030F89B
:10013000A4FB002304FB01F400FB0644E318069C27
:10014000B8EB020269EB0303C4E90023BDE8708346
:10015000F8B5144606460F461D4600F0D1F900FBDF
:1001600005F5A0FB042304FB0154E318069CB21A16
:1001700067EB0303C4E90023F8BD00BF00000000E3
:10018000704700BF000000000000000000000000F9
:1001900000292DE9F04F1C4685B0A8BF4FF000089C
:1001A000C0F2C980002CC0F2C0800F4694461446AD
:1001B00005460E46002B4BD1BA426AD9B2FA82F3F9
:1001C00053B1C3F1200107FA03F620FA01F20CFA49
:1001D00003F4164300FA03F54FEA14493046494642
:1001E000A7B200F02DFB49468246304600F056FC8F
:1001F000280C07FB0AF340EA014B5B450BD91BEBCC
:10020000040B0AF1FF3205D25B4584BFAAF1020A52
:10021000A34400D89246C3EB0B0B49465846ADB2F7
:1002200000F00EFB49460646584600F037FC07FB37
:1002300006F745EA0145AF4206D9731E2D1902D2D1
:10024000023EAF4200D81E4646EA0A46002703E0B7
:10025000BB420CD900273E4630463946B8F1000F64
:1002600002D0404261EB410105B0BDE8F08FB3FA26
:1002700083F4002C40F0B280BB422CBF0027012742
:10028000824298BF47F00107002FE4D0274601269D
:10029000E2E722B90120114600F0D2FA0446B4FA8E
:1002A00084F3002B4DD1361B4FEA14490127A3B22A
:1002B00002934946304600F0C3FA4946824630462A
:1002C00000F0ECFB02982A0C00FB0AF342EA014B17
:1002D0005B450CD91BEB040B0AF1FF3280F0FF8069
:1002E0005B4584BFAAF1020AA34440F2F880C3EB45
:1002F0000B0B4946584600F0A3FA494606465846B5
:1003000000F0CCFB029B1FFA85FC03FB06F34CEAD2
:100310000145AB4206D9721E2D1902D2023EAB42F4
:1003200000D8164646EA0A4696E7524263EB430374
:100330006FEA080839E7404261EB41014FF0FF38AE
:1003400030E79C40C3F1200126FA01F706FA03FAD0
:100350004FEA144925FA01F23846494642EA0A0BA7
:100360009D4000F06DFA4946A6B28246384600F03C
:1003700095FB4FEA1B4706FB0AF3029647EA014644
:10038000B3420BD936190AF1FF3280F0B080B34284
:1003900084BFAAF1020A361940F2A980F61A49462A
:1003A000304600F04DFA49460746304600F076FBED
:1003B000029B1FFA8BF003FB07F340EA0146B342AE
:1003C00008D97A1E361980F08C80B34240F28980B9
:1003D000023F3619F61A47EA0A476AE7C4F1200BCA
:1003E00003FA04F922FA0BF327FA0BFA43EA090994
:1003F00020FA0BF107FA04F650464FEA194B41EA8E
:100400000607594602FA04FE0397CDF808E000F00B
:1004100017FA59460746504600F040FB039A1FFA68
:1004200089F3160C03FB07F246EA014A524507D945
:10043000791E1AEB090A58D2524556D9023FCA44CE
:10044000C2EB0A0A59465046019300F0F9F95946A1
:100450000646504600F022FB019B039A03FB06F37D
:1004600090B240EA0142934207D9711E12EB090291
:1004700039D2934237D9023E4A44029846EA0746A7
:10048000D21AB3B2370C1FFA80FE4FEA104C0EFBA3
:1004900003F90EFB07F00CFB03010CFB07FE01EB5D
:1004A0001941884288BF0EF5803E0EEB114C624523
:1004B00012D34FEA01411FFA89F914BF002701271F
:1004C00005FA04F401EB090294422CBF002707F05F
:1004D0000107002F3FF4C0AE013E0027BCE6924664
:1004E00005E7174676E70E46C7E70F46A8E79246A8
:1004F00054E700BF00000000000000000000000002
:100500002DE9F04F054683B00C46174680468B46D2
:10051000002B52D18A4264D9B2FA82F353B1C3F1AB
:10052000200401FA03F120FA04F29F4042EA010B91
:1005300000FA03F83C0C58462146BEB200F080F9A0
:1005400021468146584600F0A9FA4FEA184006FBBA
:1005500009F340EA014A53450BD91AEB070A09F19E
:10056000FF3205D2534584BFA9F10209BA4400D82D
:100570009146C3EB0A0A2146504600F061F9214634
:100580000546504600F08AFA1FFA88F306FB05F686
:1005900043EA0148464508D96B1E18EB070880F06E
:1005A0002E81023D464540F22A8145EA0945002652
:1005B0003146284603B0BDE8F08F8B425AD8B3FAD3
:1005C00083F6002E59D18B422CBF00240124824295
:1005D0008CBF254644F00105002D40F016812E46C3
:1005E000E6E722B90120114600F02AF90746B7FADA
:1005F00087F3002B40F0BD80E41B4FEA174B1FFA36
:1006000087F901265946204600F01AF95946054651
:10061000204600F043FA4FEA184009FB05F340EA90
:10062000014A534507D96A1E1AEB070A02D25345FD
:1006300000F201811546C3EB0A0A5946504600F004
:10064000FFF859460446504600F028FA1FFA88F38E
:1006500009FB04F943EA0148C14508D9631E18EBB8
:10066000070880F0CE80023CC14540F2CA8044EACF
:1006700005459DE7002635469AE7C6F1200E03FAA8
:1006800006F722FA0EFC21FA0EFB4CEA070720FAC5
:100690000EFA01FA06F358464FEA17484AEA0301F0
:1006A0000191414602FA06F4009400F0C9F841466F
:1006B000BCB28246584600F0F1F9019804FB0AF3F7
:1006C000020C42EA014B5B4506D91BEB070B0AF112
:1006D000FF32C0F0A4809246C3EB0B0B4146584654
:1006E00000F0AEF841468146584600F0D7F901982F
:1006F00004FB09F482B242EA01439C4205D9DB19AA
:1007000009F1FF32C0F083809146009F49EA0A490F
:100710001C1B1FFA89F31FFA87FE3A0C4FEA194790
:100720000EFB03FC0EFB07F002FB030102FB07FEBE
:1007300001EB1C41884288BF0EF5803E0EEB114351
:100740009C4212D34FEA01411FFA8CF205FA06F5DA
:1007500014BF002001208E18B5422CBF002600F0E7
:1007600001064D46002E3FF423AF09F1FF35002668
:100770001EE79F40C3F1200124FA01F904FA03F2B5
:100780004FEA174B25FA01F64846594646EA020A4F
:1007900005FA03F800F054F859464FEA1A450646A0
:1007A000484600F07BF91FFA87F909FB06F345EA92
:1007B0000144A34206D9721EE41938D2A34236D9A5
:1007C000023EE419E41A5946204600F039F8594629
:1007D0000546204600F062F91FFA8AF409FB05F38A
:1007E00044EA0144A34206D96A1EE41921D2A34275
:1007F0001FD9023DE419E41A45EA064602E71D4600
:10080000D3E61C4644EA0545D2E60125D0E69C42E3
:1008100084BFA9F10209DB193FF677AF74E75B45A6
:1008200084BFAAF1020ABB443FF656AF53E716460F
:10083000C8E71546DFE7023DBA44FCE600000000C9
:100840004A1E08BF7047C0F02481884240F21681DA
:10085000114200F01781B0FA80F3B1FA81F2A2EBF5
:100860000303C3F11F0304A202EB03134FF00002C2
:100870009F4600BFAFF30080B0EBC17F00BF42EBEB
:10088000020228BFA0EBC170B0EB817F00BF42EB3A
:10089000020228BFA0EB8170B0EB417F00BF42EBAA
:1008A000020228BFA0EB4170B0EB017F00BF42EB1A
:1008B000020228BFA0EB0170B0EBC16F00BF42EB9A
:1008C000020228BFA0EBC160B0EB816F00BF42EB1A
:1008D000020228BFA0EB8160B0EB416F00BF42EB8A
:1008E000020228BFA0EB4160B0EB016F00BF42EBFA
:1008F000020228BFA0EB0160B0EBC15F00BF42EB7A
:10090000020228BFA0EBC150B0EB815F00BF42EBF9
:10091000020228BFA0EB8150B0EB415F00BF42EB69
:10092000020228BFA0EB4150B0EB015F00BF42EBD9
:10093000020228BFA0EB0150B0EBC14F00BF42EB59
:10094000020228BFA0EBC140B0EB814F00BF42EBD9
:10095000020228BFA0EB8140B0EB414F00BF42EB49
:10096000020228BFA0EB4140B0EB014F00BF42EBB9
:10097000020228BFA0EB0140B0EBC13F00BF42EB39
:10098000020228BFA0EBC130B0EB813F00BF42EBB9
:10099000020228BFA0EB8130B0EB413F00BF42EB29
:1009A000020228BFA0EB4130B0EB013F00BF42EB99
:1009B000020228BFA0EB0130B0EBC12F00BF42EB19
:1009C000020228BFA0EBC120B0EB812F00BF42EB99
:1009D000020228BFA0EB8120B0EB412F00BF42EB09
:1009E000020228BFA0EB4120B0EB012F00BF42EB79
:1009F000020228BFA0EB0120B0EBC11F00BF42EBF9
:100A0000020228BFA0EBC110B0EB811F00BF42EB78
:100A1000020228BFA0EB8110B0EB411F00BF42EBE8
:100A2000020228BFA0EB4110B0EB011F00BF42EB58
:100A3000020228BFA0EB0110B0EBC10F00BF42EBD8
:100A4000020228BFA0EBC100B0EB810F00BF42EB58
:100A5000020228BFA0EB8100B0EB410F00BF42EBC8
:100A6000020228BFA0EB4100B0EB010F00BF42EB38
:100A7000020228BFA0EB0100104670470CBF012006
:100A800000207047B1FA81F2C2F11F0220FA02F091
:100A9000704708B14FF0FF30FFF772BB0029F8D064
:100AA0002DE90340FFF7CCFEBDE8064002FB00F352
:100AB000A1EB0301704700BF000000000000000030
:100AC000704700BFAFF30080AFF30080AFF300804A
:100AD000FEE700BFAFF30080AFF30080AFF300800C
:100AE00072B640F60004C2F2000484F309884FF0A5
:100AF000020484F31488BFF36F8F40F20004C2F243
:100B0000000440F20045C2F2000504E04FF0553306
:100B1000236004F10404AC42F8D340F20044C2F272
:100B2000000440F60005C2F2000504E04FF0553322
:100B3000236004F10404AC42F8D304F0F9FC47F656
:100B40009835C0F6000540F60004C2F2000405E046
:100B50002B68236004F1040405F1040540F68803C2
:100B6000C2F200039C42F3D340F68804C2F20004B0
:100B700041F6E845C2F2000504E04FF000032360AF
:100B800004F10404AC42F8D3FFF79AFF40F2EC04FE
:100B9000C0F6000403E02368984704F1040440F21F
:100BA000EC03C0F600039C42F5D304F0D1FC40F204
:100BB000EC04C0F6000403E02368984704F1040441
:100BC00040F2EC03C0F600039C42F5D3FFF780FF30
:100BD000FEE700BFAFF30080AFF30080AFF300800B
:100BE00072B6FEE7AFF30080AFF30080AFF3008092
:100BF00008B500F0CDFA4FF0200383F3118800F020
:100C000087FA00F0C5F900F0A3FA4FF0000383F370
:100C1000118800F0EDFA00F043F808BDAFF3008052
:100C200010B483B0EFF309840194019B03F1200316
:100C30000193019B83F309884FF0000383F311882C
:100C400003B010BC704700BFAFF30080AFF300806B
:100C500008B54FF46D43CEF200034FF000029A60E6
:100C60004FF46D43CEF200034FF00002C0F2FA528F
:100C7000DA604FF007004FF0100100F0F1F84FF08C
:100C80000A004FF4007100F0EBF84FF00B004FF04A
:100C9000800100F0E5F808BDAFF30080AFF30080FD
:100CA00010B483B04FF0200383F311884FF46D43E9
:100CB000CEF200035B6803F40063002B47D0EFF330
:100CC00009840194019BA3F120030193019B83F309
:100CD0000988019B4FF08072DA6140F6B453C2F28A
:100CE00000039B69002B11D040F6B453C2F20003FD
:100CF0001B689A6840F6B453C2F20003DB699B6834
:100D00009A4294BF00230123DBB210E040F6B453B3
:100D1000C2F200031B689A6840F6B453C2F20003A3
:100D2000DB699B689A4234BF00230123DBB2002BAE
:100D300006D0019A40F66153C0F6000393610AE0C1
:100D4000019A40F66C53C0F60003936103E04FF044
:100D5000000383F3118803B010BC7047AFF3008029
:100D600000F096F900F084FD00F0B2F900DF00BF5A
:100D700003460A462DE9F04FC2F80CD0D3F80CD048
:100D8000BDE8F08FAFF30080AFF30080AFF30080D9
:100D900008B500F09DF94FF0000383F31188284651
:100DA000A04700F0CDFE08BDAFF30080AFF3008098
:100DB00010B485B001900091019B03F003034FEA4A
:100DC000C30303934FF46143CEF20003019A4FEA49
:100DD00092004FF46142CEF2000201994FEA910174
:100DE00001F1C00152F82110039A4FF0FF0404FAF8
:100DF00002F26FEA02021140039A009C04FA02F226
:100E0000114300F1C00243F822104FF46143CEF2C7
:100E10000003019A4FEA5212019901F01F014FF0AD
:100E2000010000FA01F102F1600243F822104FF4D0
:100E30006143CEF20003019A4FEA5212019901F088
:100E40001F014FF0010000FA01F143F8221005B034
:100E500010BC7047AFF30080AFF30080AFF30080A9
:100E600010B485B001900091019B03F003034FEA99
:100E7000C30303934FF46D43CEF20003019A4FEA8C
:100E800092004FF46D42CEF2000201994FEA9101B7
:100E900001F1060152F82110039A4FF0FF0404FA01
:100EA00002F26FEA02021140039A009C04FA02F275
:100EB000114300F1060243F8221005B010BC704740
:100EC00082B0019040F6B453C2F20003DA6947F2EF
:100ED000C003C0F600039361FEE700BFAFF30080DC
:100EE00000B583B0FFF7B4FE00F03AFB00F050FA13
:100EF00001F016FB00F0DCF940F64810C2F20000E9
:100F00004FF0400100F00CFD024640F6B453C2F22F
:100F10000003DA6140F6B453C2F20003DB694FF01C
:100F2000010283F8202040F6B453C2F20003DA69CC
:100F300040F20043C2F20003D36100F091F84FF099
:100F4000000383F3118862B640F6B453C2F2000383
:100F5000DA6947F2C803C0F60003936140F6C16343
:100F6000C0F600034FF00002009240F68800C2F283
:100F700000004FF0C0014FF0010200F081FD03B00E
:100F800000BD00BFAFF30080AFF30080AFF300807F
:100F900000B583B000F05CF940F6B453C2F2000330
:100FA0009B69002B0BDD40F6B453C2F200039B6932
:100FB00003F1FF3240F6B453C2F200039A6140F6E7
:100FC000B453C2F20003DB695A6A02F101025A62A9
:100FD00040F6A453C2F20003DB6803F1010240F6BD
:100FE000A453C2F20003DA6040F6A453C2F2000335
:100FF0001A6840F6A453C2F200039A422DD040F67C
:10100000A453C2F200031B689A6802F1FF329A608F
:1010100019E0019BDB680093019B4FF00002DA604E
:10102000019B1A6840F6A453C2F200035360019B6F
:101030001A6840F6A453C2F200031A60019B1A69B1
:10104000009B1046984740F6A453C2F200031B6869
:101050000193019B9B68002BDBD003B000BD00BF58
:1010600008B540F69013C2F200031B68002B06D1AE
:1010700040F69413C2F200031B68002B05D047F220
:10108000E000C0F6000000F073F908BDAFF3008087
:1010900008B540F69013C2F200031B68002B06D17E
:1010A00040F69413C2F200031B68002B05D047F2F0
:1010B000E800C0F6000000F05BF940F69413C2F2BD
:1010C00000034FF001021A6008BD00BFAFF30080BB
:1010D00008B540F69013C2F200031B68002B06D13E
:1010E00040F69413C2F200031B68002B05DC47F2A4
:1010F000F000C0F6000000F03BF940F69413C2F295
:1011000000034FF000021A6008BD00BFAFF300807B
:1011100008B540F69013C2F200031B68002B06DDF1
:1011200040F69413C2F200031B68002B05D047F26F
:10113000F800C0F6000000F01BF940F69413C2F26C
:1011400000034FF001021A6008BD00BFAFF300803A
:1011500008B540F69013C2F200031B68002B06DDB1
:1011600040F69413C2F200031B68002B05DC47F223
:101170000010C0F6000000F0FBF840F69413C2F235
:1011800000034FF000021A6008BD00BFAFF30080FB
:1011900008B54FF0200383F3118840F69013C2F294
:1011A00000031B68002B06DB40F69413C2F2000319
:1011B0001B68002B05D047F20810C0F6000000F0B5
:1011C000D7F840F69013C2F200031B6803F1010246
:1011D00040F69013C2F200031A604FF0000383F34D
:1011E000118808BDAFF30080AFF30080AFF300803B
:1011F00008B54FF0200383F3118840F69013C2F234
:1012000000031B68002B06DD40F69413C2F20003B6
:101210001B68002B05D047F21010C0F6000000F04C
:10122000A7F840F69013C2F200031B6803F1FF32E7
:1012300040F69013C2F200031A604FF0000383F3EC
:10124000118808BDAFF30080AFF30080AFF30080DA
:1012500008B540F69013C2F200031B68002B06DBB2
:1012600040F69413C2F200031B68002B05DC47F222
:101270001810C0F6000000F07BF808BDAFF3008046
:1012800008B540F69013C2F200031B68002B06D18C
:1012900040F69413C2F200031B68002B05DC47F2F2
:1012A0002010C0F6000000F063F808BDAFF3008026
:1012B00040F69813C2F200034FF040021A6040F665
:1012C0009813C2F20003014A5A607047A009002037
:1012D00082B0019040F69813C2F200035A6840F6BB
:1012E000A453C2F20003DB68136040F69813C2F205
:1012F00000035A6840F6B453C2F20003DB6953603E
:1013000040F69813C2F200035B68019A926A9A60F1
:1013100040F69813C2F200035B68019A92F820200D
:101320001A7340F69813C2F200035B6803F11002CF
:1013300040F69813C2F200035A6040F69813C2F2C6
:1013400000035A68054B9A4205D340F69813C2F23F
:101350000003034A5A6002B0704700BFA00D00208E
:10136000A0090020AFF30080AFF30080AFF300804E
:1013700000B583B0019040F6A053C2F20003019A79
:101380001A60FFF72DFC03B000BD00BFAFF3008073
:1013900040F6A453C2F2000340F6A452C2F2000287
:1013A0005A6040F6A453C2F200035A6840F6A453B0
:1013B000C2F200031A6040F6A453C2F200034FF0D9
:1013C000FF329A6040F6A453C2F200034FF00002CD
:1013D000DA607047AFF30080AFF30080AFF30080B6
:1013E00000B587B00390029101920093FFF730FFA0
:1013F000039B002B05D0019B002B02D0029B002BEE
:1014000005D147F23010C0F60000FFF7B1FF039B93
:10141000009A1A61039B019ADA6040F6A453C2F263
:1014200000031B68059307E0059B9B68029AD31A8B
:101430000293059B1B680593059B9A68029B9A4241
:10144000F2D3039B059A1A60039B1B685A68039B9F
:101450005A60039B5B68059A03995160059A52682C
:101460001A60039B029A9A60059A40F6A453C2F24E
:1014700000039A4205D0059B9A68029BD21A059BED
:101480009A6007B000BD00BFAFF30080AFF30080EB
:1014900000B583B00190FFF7DBFE019B002B05D167
:1014A00047F24010C0F60000FFF762FF019BDB68C7
:1014B000002B05D147F25010C0F60000FFF758FF8F
:1014C000019B1A6840F6A453C2F200039A4208D066
:1014D000019B1B68019A12689168019A92688A18A8
:1014E0009A60019B5B68019A12681A60019B1B68F5
:1014F000019A52685A60019B4FF00002DA6003B013
:1015000000BD00BFAFF30080AFF30080AFF30080F9
:1015100084B00190019B1B680393039B1A68019B95
:101520001A60019B1B68019A5A60039B184604B01D
:10153000704700BFAFF30080AFF30080AFF30080CF
:1015400082B00190019B5B68019A12681A60019B4E
:101550001B68019A52685A60019B184602B0704796
:1015600040F6B453C2F2000340F6B452C2F2000295
:101570005A6040F6B453C2F200035A6840F6B453BE
:10158000C2F200031A6040F6B453C2F200034FF0F7
:1015900000029A6040F6B453C2F200034FF0140206
:1015A0009A6140F6B453C2F2000340F6B452C2F25C
:1015B00000025A6140F6B453C2F200035A6940F681
:1015C000B453C2F200031A61704700BFAFF300804A
:1015D00000B585B00190019B93F82030002B04D01A
:1015E000019B93F820300E2B05D147F27010C0F606
:1015F0000000FFF7BDFE019B4FF0000283F82020A2
:1016000040F6B453C2F200030393039B1B68039399
:10161000039B9A68019B9B689A42F6D2019B039AAE
:101620001A60039B5A68019B5A60019B5B68039A8E
:1016300001995160039A52681A60019B184605B0DF
:1016400000BD00BFAFF30080AFF30080AFF30080B8
:1016500000B585B003468DF80730FFF711FE40F660
:10166000B453C2F20003DB690393039B9DF8072088
:1016700083F8202040F6B453C2F200034FF0140266
:101680009A6140F6B450C2F20000FFF741FF0246F3
:1016900040F6B453C2F20003DA6140F6B453C2F22A
:1016A0000003DB694FF0010283F820200398FFF765
:1016B0000FFE6B46A3F12402039BDB699A4205D21D
:1016C00047F28410C0F60000FFF752FE40F6B45314
:1016D000C2F20003DB6918460399FFF749FB05B026
:1016E00000BD00BFAFF30080AFF30080AFF3008018
:1016F00000B585B00190019B0393039B93F82030C4
:101700000D2B28D801A252F823F000BF671700085C
:101710005717000857170008451700085717000803
:1017200051170008571700085717000857170008E7
:1017300057170008571700085717000857170008D1
:1017400051170008039B9B6A9A6802F101029A6094
:101750000398FFF7F5FE039B4FF0FF329A62039860
:10176000FFF736FF00E000BF05B000BDAFF300801B
:1017700000B589B0034600918DF80730FFF780FD72
:10178000009BB3F1FF3F1AD040F6B453C2F20003FE
:10179000DB6903AA1046009941F2F162C0F600022B
:1017A000FFF71EFE9DF807301846FFF751FF069B16
:1017B000002B09D003AB1846FFF76AFE04E09DF842
:1017C00007301846FFF744FF40F6B453C2F2000357
:1017D000DB699B6A184609B000BD00BFAFF300800B
:1017E00000B585B001900091FFF74AFD019B009A7A
:1017F0009A62019B9A6840F6B453C2F20003DB6917
:101800009B689A4203D80198FFF7E2FE2EE040F66B
:10181000B453C2F20003DB691846FFF7D9FE039008
:1018200040F6B453C2F200034FF014029A6140F63E
:10183000B453C2F20003019ADA61019B4FF0010236
:1018400083F820200398FFF743FD6B46A3F12402A1
:10185000039BDB699A4205D247F28410C0F6000070
:10186000FFF786FD01980399FFF782FA05B000BDE6
:1018700000B583B040F6B453C2F200034FF0140237
:101880009A6140F6B453C2F20003DB69019340F65B
:10189000B450C2F20000FFF73BFE024640F6B453DC
:1018A000C2F20003DA6140F6B453C2F20003DB690E
:1018B0004FF0010283F820200198FFF789FE01987C
:1018C000FFF706FD6B46A3F12402019BDB699A42F8
:1018D00005D247F28410C0F60000FFF749FD40F63C
:1018E000B453C2F20003DB6918460199FFF740FACE
:1018F00003B000BDAFF30080AFF30080AFF3008012
:1019000084B00190019B1B680393039B1A68019BA1
:101910001A60039B184604B0704700BFAFF3008005
:1019200082B001900091019B009A9A60019B4FF058
:10193000020283F82020019B4FF0000283F821204F
:10194000019B009A5A64019B4FF000021A64019BAC
:101950004FF00002DA63019B4FF000025A62019BD4
:101960004FF000029A61019A40F6B453C2F20003AC
:10197000136140F6B453C2F200035A69019B5A61E5
:10198000019B5A6940F6B453C2F2000301995961B0
:1019900040F6B453C2F200035B691361019B03F18B
:1019A0002C02019BDA62019B03F13002019B5A6316
:1019B000019B5A6B019B1A63019B03F14802019B37
:1019C000DA61019B184602B0704700BFAFF3008098
:1019D00084B00390029113468DF8073007E0039B13
:1019E0009DF807201A70039B03F101030393039AE8
:1019F000029B9A42F3D304B0704700BFAFF300805C
:101A000000B587B00390029101920093039B059368
:101A1000FFF71EFC039B002B08D0029BAF2B05D9C0
:101A2000019B7F2B02D8009B002B05D147F2A01011
:101A3000C0F60000FFF79CFC029BA3F12403039A6D
:101A4000D218059BDA60059BDB68009A1A60059B3B
:101A5000DB68089A5A60059BDA6840F69153C0F635
:101A60000003136205980199FFF75AFF03461846D1
:101A700007B000BDAFF30080AFF30080AFF300808C
:101A800000B589B00590049103920293059B03F180
:101A90004803059819464FF0FF02FFF799FF059B91
:101AA00003F148020599049BCB18104619464FF0E4
:101AB0005502FFF78DFF4FF0200383F31188FFF7E6
:101AC000E7FA0A9B009305980499039A029BFFF793
:101AD00097FF079007984FF00001FFF781FEFFF78F
:101AE000F7FA4FF0000383F31188079B184609B0FB
:101AF00000BD00BFAFF30080AFF30080AFF3008004
:101B000000B583B00190019B002B05D147F2E01096
:101B1000C0F60000FFF72CFC4FF0200383F3118880
:101B2000FFF7B6FA4FF006000199FFF721FEFFF725
:101B3000CFFA4FF0000383F3118803B000BD00BF5C
:101B400000B583B001904FF0200383F31188FFF7B5
:101B50009FFA019800F004F803B000BDAFF30080D5
:101B600000B585B0019040F6B453C2F20003DB69C2
:101B70000393039B019A9A6209E0039B03F12C03F0
:101B80001846FFF7BDFE03461846FFF721FD039BED
:101B9000DA6A039B03F12C039A42EED1039B93F87C
:101BA000213003F00303002B09D1039B5B69039AE7
:101BB00012691A61039B1B69039A52695A614FF0BB
:101BC0000E00FFF745FD47F2F010C0F60000FFF7EA
:101BD000CFFB05B000BD00BFAFF30080AFF30080C6
:101BE00084B001900091009B0393039B1B680393B7
:101BF000039A009B9A4205D0039B9A68019B9B68BD
:101C00009A42F2D2019B039A1A60039B5A68019B85
:101C10005A60019B5B68039A01995160039A52686C
:101C20001A6004B0704700BFAFF30080AFF30080CC
:101C300084B00190019B1B680393039B1A68019B6E
:101C40001A60019B1B68019A5A60039B184604B0F6
:101C5000704700BFAFF30080AFF30080AFF30080A8
:101C600082B00190019B5B68019A12681A60019B27
:101C70001B68019A52685A60019B184602B070476F
:101C800000B583B00190019B002B05D147F23020B5
:101C9000C0F60000FFF76CFB019A019B5A60019BA4
:101CA0005A68019B1A60019B4FF000029A6003B0D2
:101CB00000BD00BFAFF30080AFF30080AFF3008042
:101CC00000B583B001904FF0200383F31188FFF734
:101CD000DFF9019800F00CF8FFF7FAF94FF0000374
:101CE00083F3118803B000BDAFF30080AFF3008031
:101CF00000B585B0019040F6B453C2F20003DB6931
:101D00000293FFF7BDFA019B002B05D147F240205B
:101D1000C0F60000FFF72CFB019B9B68002B62D0F4
:101D2000019B9B68039335E0029B9A68039B9A6032
:101D3000039B93F82030042B04D0052B11D0002BEB
:101D40001AD026E00398FFF78BFF0246039B9B6A9D
:101D500010461946FFF744FF039B9B6A9B68039359
:101D600018E00398FFF77CFF0246039B9B6A10462E
:101D70001946FFF735FF0CE0039B4FF0010283F893
:101D800020200398FFF76CFF03461846FFF720FC5E
:101D900000BF05E0039B9A68029B9B689A42C3D3ED
:101DA000019B02981946FFF71BFF029B019A9A625A
:101DB0004FF00400FFF74CFC019B9A68029B9A428B
:101DC00005D047F25020C0F60000FFF7D1FA029B81
:101DD0001A6C019B9A4210D047F26420C0F60000B2
:101DE000FFF7C6FA09E0019B029A9A60029B1A6CFF
:101DF000019BDA60029B019A1A6405B000BD00BF26
:101E000000B587B040F6B453C2F20003DB69039318
:101E10004FF0200383F31188FFF73AF9039B1B6C03
:101E2000002B05D147F28C20C0F60000FFF7A0FA86
:101E3000039B1B6C9A68039B9A4205D047F2A02033
:101E4000C0F60000FFF794FA039B1B6C0293029B01
:101E5000DA68039B1A64029B1A68029B9A4233D089
:101E6000039B5B6C0493039B1B6C059311E0059B28
:101E70001A68059B9A4209D0059B1B689A68049BC7
:101E80009A4203D9059B1B689B680493059BDB68FA
:101E90000593059B002BEAD1039B049A9A60029B51
:101EA0001846FFF7C5FE0190029B019A9A60019BBC
:101EB0001A6C029BDA60019B029A1A6401984FF037
:101EC0000001FFF78DFC03E0029B4FF000029A60D7
:101ED000FFF7FEF84FF0000383F31188029B1846CA
:101EE00007B000BDAFF30080AFF30080AFF3008018
:101EF00000B583B001900091FFF7AAF9019B002B78
:101F000005D147F21C30C0F60000FFF731FA019B03
:101F1000DA6B009B1A43019BDA63019B93F8203034
:101F2000082B06D1019BDA6B019B9B6A1340002BA7
:101F30000DD1019B93F82030092B0FD1019BDA6B57
:101F4000019B9B6A1A40019B9B6A9A4206D10198A9
:101F5000FFF73EFB03464FF000029A6203B000BD5C
:101F600000B585B001900091FFF772F9019B002B3D
:101F700005D147F23030C0F60000FFF7F9F9019BB8
:101F80001B6803930CE0039B5A68039B9968009BB2
:101F90000B4310461946FFF7ABFF039B1B680393E7
:101FA000039A019B9A42EED105B000BDAFF30080C9
:101FB00082B001900091019B009A1A60009B5A68C0
:101FC000019B5A60019B5B68009A01995160009ADD
:101FD00052681A6002B07047AFF30080AFF3008020
:101FE00084B00190019B1B680393039B1A68019BBB
:101FF0001A60019B1B68019A5A60039B184604B043
:10200000704700BFAFF30080AFF30080AFF30080F4
:1020100000B583B001900091009B002B02D14FF0DE
:10202000FF3316E040F6B453C2F20003DB69019AB5
:102030009A6240F6B453C2F20003DA69019B10467B
:102040001946FFF7B5FF4FF00D000099FFF790FB21
:102050000346184603B000BDAFF30080AFF3008025
:1020600084B00390029101920093039A039B5A60FB
:10207000039B5A68039B1A60039B4FF000029A600F
:10208000039B029A5A61039B5A69039B9A61039BC3
:102090009A69039BDA60029A019BD218039B1A612A
:1020A000039B009ADA6104B0704700BFAFF3008071
:1020B00000B583B001900B468DF80330FFF7C8F8E8
:1020C000019B5A69019B9B699A4206D1019B9B68BF
:1020D000002B02D06FF003032BE0019B9B6803F100
:1020E0000102019B9A60019B5B699DF803201A70B5
:1020F00003F10102019B5A61019B5A69019B1B6913
:102100009A4203D3019BDA68019B5A61019B1A68CA
:10211000019B9A420BD0019B1846FFF761FF0346D3
:102120001846FFF755FA03464FF000029A624FF047
:102130000003184603B000BDAFF30080AFF300808A
:1021400000B585B0019000914FF0200383F3118812
:10215000FEF79EFF019BDB69002B14D0019BDB691E
:10216000019898470FE001980099FFF751FF0390FD
:10217000039B002B08DAFEF7ABFF4FF0000383F35D
:102180001188039B25E000BF019B9B68002BEAD0D0
:10219000019B9B6803F1FF32019B9A60019B9B6945
:1021A0001A788DF80B2003F10102019B9A61019BC3
:1021B0009A69019B1B699A4203D3019BDA68019BD0
:1021C0009A61FEF785FF4FF0000383F311889DF8B5
:1021D0000B30184605B000BDAFF30080AFF30080B0
:1021E00000B587B00390029101920093039BDB69D5
:1021F00004934FF000030593019B002B05D147F298
:102200007030C0F60000FFF7B3F84FF0200383F3FF
:102210001188FEF73DFF049B002B12D0049B03980E
:1022200098470EE003980099FFF7F2FE0346002B53
:1022300008D0FEF74DFF4FF0000383F31188059B94
:102240003BE000BF039B9B68002BEBD0039B9B688C
:1022500003F1FF32039B9A60039B9B691978029AF2
:102260001170029A02F10102029203F10102039B32
:102270009A61039B9A69039B1B699A4203D3039B50
:10228000DA68039B9A61FEF723FF4FF0000383F3A4
:102290001188059B03F101030593019B03F1FF33B3
:1022A0000193019B002B01D1059B06E04FF0200319
:1022B00083F31188FEF7ECFEADE7184607B000BDCA
:1022C00084B00390029101920093039A039B5A6099
:1022D000039B5A68039B1A60039B019A9A60039BB5
:1022E000029A5A61039B5A69039B9A61039B9A69FC
:1022F000039BDA60029A019BD218039B1A61039B2D
:10230000009ADA6104B07047AFF30080AFF3008049
:1023100000B587B003900B4601928DF80B304FF05B
:10232000200383F31188FEF7B3FE0FE003980199B1
:10233000FFF76EFE0590059B002B07DAFEF7C8FE3F
:102340004FF0000383F31188059B2CE0039B9B68EF
:10235000002BEBD0039B9B6803F1FF32039B9A6039
:10236000039B5B699DF80B201A7003F10102039B2C
:102370005A61039B5A69039B1B699A4203D3039BCF
:10238000DA68039B5A61039BDB69002B03D0039B34
:10239000DB6903989847FEF79BFE4FF0000383F339
:1023A00011884FF00003184607B000BDAFF300805E
:1023B00000B585B00190FEF74BFF019B5A69019B68
:1023C0009B699A4206D1019B9B68002B02D06FF05B
:1023D00002032BE0019B9B6803F10102019B9A60C1
:1023E000019B9B691A788DF80F2003F10102019B74
:1023F0009A61019B9A69019B1B699A4203D3019BD5
:10240000DA68019B9A61019B1A68019B9A420BD082
:10241000019B1846FFF7E4FD03461846FFF7D8F87E
:1024200003464FF000029A629DF80F30184605B03F
:1024300000BD00BFAFF30080AFF30080AFF30080BA
:1024400000B587B00390029101920093039BDB6972
:1024500004934FF000030593019B002B05D147F235
:102460008430C0F60000FEF783FF4FF0200383F3B3
:102470001188FEF70DFE0EE003980099FFF7C8FDE6
:102480000346002B07D0FEF723FE4FF0000383F333
:102490001188059B41E0039B9B68002BECD0039BBC
:1024A0009B6803F1FF32039B9A60039B5B69029A6E
:1024B00012781A7003F10102039B5A61029B03F127
:1024C00001030293039B5A69039B1B699A4203D33E
:1024D000039BDA68039B5A61049B002B02D0049B88
:1024E00003989847FEF7F4FD4FF0000383F311883B
:1024F000059B03F101030593019B03F1FF33019356
:10250000019B002B01D1059B07E04FF0200383F3D3
:102510001188FEF7BDFD00BFBDE7184607B000BD3E
:1025200041F6E843C2F2000303F1070323F0070377
:102530001A4640F6D453C2F200031A6045F2000373
:10254000C2F2000323F007031A4640F6D853C2F242
:1025500000031A60704700BFAFF30080AFF3008044
:1025600008B500F055FE47F68020C0F6000002F0E6
:10257000EFFE00F00DF800F0CBF800F061F900F08C
:10258000E7FA00F09DFB02F0DBFF08BDAFF300802F
:1025900008B501F02DF908BDAFF30080AFF300805E
:1025A00082B00190019B4FF001021A70019B4FF025
:1025B00000025A6002B07047AFF30080AFF30080B2
:1025C00000B583B001900091019B002B02D0009BCD
:1025D000002B05D147F2A030C0F60000FEF7C8FE80
:1025E0004FF0200383F31188FEF752FD019B1B7807
:1025F000012B09D0019B1B78022B05D047F2B0308C
:10260000C0F60000FEF7B4FE019B009A5A600198E4
:1026100001F0F6F8019B4FF002021A70FEF758FD28
:102620004FF0000383F3118803B000BDAFF30080C7
:1026300000B583B001900091019B002B09D0009B55
:10264000122B06D8019B5B68009A53F83230002B9E
:1026500005D147F2DC30C0F60000FEF789FE4FF0EE
:10266000200383F31188FEF713FD019B1B78022BD7
:1026700005D047F2F430C0F60000FEF779FE01986D
:10268000009901F0ADF9FEF723FD4FF0000383F34D
:10269000118803B000BD00BFAFF30080AFF300802E
:1026A00000B583B001900091019B002B09D0009BE5
:1026B000122B06D8019B5B68009A53F83230002B2E
:1026C00005D147F20C40C0F60000FEF751FE4FF076
:1026D000200383F31188FEF7DBFC019B1B78022BA0
:1026E00005D047F22440C0F60000FEF741FE0198F5
:1026F000009901F0DDF9FEF7EBFC4FF0000383F3E6
:10270000118803B000BD00BFAFF30080AFF30080BD
:1027100008B501F055FA08BDAFF30080AFF30080B3
:1027200082B00190019B4FF001021A70019B4FF0A3
:1027300000025A6002B07047AFF30080AFF3008030
:1027400000B583B001900091019B002B02D0009B4B
:10275000002B05D147F24040C0F60000FEF708FE0E
:102760004FF0200383F31188FEF792FC019B1B7846
:10277000012B09D0019B1B78022B05D047F24C405E
:10278000C0F60000FEF7F4FD019B009A5A60019824
:1027900001F02EFA019B4FF002021A70FEF798FC2E
:1027A0004FF0000383F3118803B000BDAFF3008046
:1027B00000B583B001900B46ADF802304FF0200316
:1027C00083F31188FEF764FCBDF8023001981946C6
:1027D00000F00EF8FEF77CFC4FF0000383F3118845
:1027E00003B000BDAFF30080AFF30080AFF3008013
:1027F00000B583B001900B46ADF80230FEF728FD1E
:10280000019B002B05D147F27840C0F60000FEF78F
:10281000AFFD019B1B78022B05D047F29040C0F61C
:102820000000FEF7A5FD019B4FF003021A70BDF8F2
:1028300002300198194601F04BFA03B000BD00BF09
:1028400008B501F06DFF08BDAFF30080AFF3008065
:1028500082B00190019B4FF001021A70019B4FF072
:1028600000025A6002B07047AFF30080AFF30080FF
:1028700000B583B001900091019B002B02D0009B1A
:10288000002B05D147F22050C0F60000FEF770FD86
:10289000019B1B78012B0DD0019B1B78022B09D0CB
:1028A000019B1B78052B05D047F23050C0F6000085
:1028B000FEF75EFD4FF0200383F31188FEF7E8FB7F
:1028C000019B009A5A60019801F052FF019B4FF062
:1028D00002021A70FEF7FCFB4FF0000383F311882D
:1028E00003B000BDAFF30080AFF30080AFF3008012
:1028F00000B58BB00790059204930B46ADF81A30E3
:10290000079B002B15D0BDF81A30002B11D0049B6B
:10291000002B0ED0059B002B0BD00D9B002B05D060
:102920000D9B002B05D00C9B002B02D00E9B002B87
:1029300005D147F27050C0F60000FEF719FD079B65
:102940001B78022B05D047F29050C0F60000FEF72E
:102950000FFD4FF0200383F31188FEF799FB079BCF
:102960004FF000029A60079B4FF003021A70BDF807
:102970001A300C9A00920D9A01920E9A02920798C0
:102980001946059A049B01F0A3FF0990099BB3F136
:10299000FF3F04D1079B4FF005021A7003E0079B2D
:1029A0004FF002021A70FEF793FB4FF0000383F31F
:1029B0001188099B18460BB000BD00BFAFF3008023
:1029C00000B585B0039002910192039B03F130039F
:1029D00018460299019A4FF0FF33FFF731FD034685
:1029E000184605B000BD00BFAFF30080AFF3008014
:1029F00000B585B0039002910192039B03F110038F
:102A000018460299019A4FF0FF33FFF7E9FB03469E
:102A1000184605B000BD00BFAFF30080AFF30080E3
:102A200082B00190019B9B6B002B14BF00230123FC
:102A3000184602B0704700BFAFF30080AFF30080CC
:102A400082B00190019B9B69002B14BF00230123DE
:102A5000184602B0704700BFAFF30080AFF30080AC
:102A600000B585B003900B4601928DF80B30039BA7
:102A700003F130029DF80B3010461946019AFFF71A
:102A800047FC0346184605B000BD00BFAFF3008009
:102A900000B583B001900091019B03F1100318462B
:102AA0000099FFF74DFB0346184603B000BD00BF79
:102AB00000B585B00390029101920093039B03F14E
:102AC000300318460299019A009BFFF7B9FC0346B0
:102AD000184605B000BD00BFAFF30080AFF3008023
:102AE00000B585B00390029101920093039B03F11E
:102AF000100318460299019A009BFFF771FB0346E9
:102B0000184605B000BD00BFAFF30080AFF30080F2
:102B100000B585B001904FF0200383F31188FEF7D4
:102B2000B7FA019B9B680393019B4FF000029A60E8
:102B3000FEF7CEFA4FF0000383F31188039B18468B
:102B400005B000BDAFF30080AFF30080AFF30080AD
:102B500008B502F035F908BDAFF30080AFF300808F
:102B600000B585B0039002910192039A47F6C01315
:102B7000C0F600031360039B03F10402039B5A6039
:102B8000039B4FF000029A60039B4FF001021A73FF
:102B9000039B03F11002039B03F1500310461946F7
:102BA0004FF40072029BFFF75BFA039B03F13002C4
:102BB000039B03F51473104619464FF40072019BF2
:102BC000FFF77EFB05B000BDAFF30080AFF30080E0
:102BD00000B583B001900091019B002B05D147F215
:102BE000F050C0F60000FEF7C3FB4FF0200383F364
:102BF0001188FEF74DFA019B1B7B012B09D0019B2D
:102C00001B7B022B05D047F2FC50C0F60000FEF7FC
:102C1000AFFB0198009902F003F9019B4FF002020B
:102C20001A73FEF755FA4FF0000383F3118803B0CF
:102C300000BD00BFAFF30080AFF30080AFF30080B2
:102C400000B583B001900B468DF80330FEF700FB12
:102C5000019B002B05D147F22860C0F60000FEF76B
:102C600087FB019B9B69002B0DD1019B9B6843F067
:102C70000402019B9A60019B03F1040318464FF084
:102C80000001FFF76DF9019B03F110029DF803307D
:102C900010461946FFF70CFA0346002B0DDA019B8C
:102CA0009B6843F08002019B9A60019B03F104033F
:102CB00018464FF00001FFF753F903B000BD00BF05
:102CC00008B502F05DF908BDAFF30080AFF30080F6
:102CD00082B00190019B4FF001021A70019B4FF0EE
:102CE00000025A6002B07047AFF30080AFF300807B
:102CF00000B583B001900091019B002B02D0009B96
:102D0000002B05D147F25060C0F60000FEF730FB03
:102D10004FF0200383F31188FEF7BAF9019B1B786B
:102D2000012B09D0019B1B78022B05D047F2606074
:102D3000C0F60000FEF71CFB019B009A5A60019848
:102D400002F086F9019B4FF002021A70FEF7C0F9FB
:102D50004FF0000383F3118803B000BDAFF3008090
:102D600000B583B0FEF714FA4FF00003C4F202037B
:102D70001B6803F00F0301934FF00003C4F202033A
:102D80004FF00F025A6040F6E053C2F200031B6896
:102D9000002B0CD040F6E053C2F200031A6840F654
:102DA000E053C2F200035B68184601999047FEF7B2
:102DB0001FFAFDF775FF03B000BD00BFAFF3008041
:102DC00000B583B0FEF7E4F94FF00003C4F202034C
:102DD0001B684FEA131303F00F0301934FF0000336
:102DE000C4F202034FF0F0025A6040F6E053C2F220
:102DF00000039B68002B0CD040F6E053C2F20003A6
:102E00009A6840F6E053C2F20003DB681846019965
:102E10009047FEF7EDF9FDF743FF03B000BD00BF9B
:102E200000B583B0FEF7B4F94FF00003C4F202031B
:102E30001B684FEA132303F00F0301934FF00003C5
:102E4000C4F202034FF470625A6040F6E053C2F2DB
:102E500000031B69002B0CD040F6E053C2F20003C4
:102E60001A6940F6E053C2F200035B691846019903
:102E70009047FEF7BDF9FDF713FF03B000BD00BF9B
:102E800000B583B0FEF784F94FF00003C4F20203EB
:102E90001B684FEA133303F00F0301934FF0000355
:102EA000C4F202034FF470425A6040F6E053C2F29B
:102EB00000039B69002B0CD040F6E053C2F20003E4
:102EC0009A6940F6E053C2F20003DB6918460199A3
:102ED0009047FEF78DF9FDF7E3FE03B000BD00BF9C
:102EE00000B583B0FEF754F94FF00003C4F20203BB
:102EF0001B684FEA134303F00F0301934FF00003E5
:102F0000C4F202034FF470225A6040F6E053C2F25A
:102F100000031B6A002B0CD040F6E053C2F2000302
:102F20001A6A40F6E053C2F200035B6A1846019940
:102F30009047FEF75DF9FDF7B3FE03B000BD00BF9B
:102F400000B583B0FEF724F94FF00003C4F202038A
:102F50001B684FEA135303F00F0301934FF0000374
:102F6000C4F202034FF470025A6040F6E053C2F21A
:102F700000039B6A002B0CD040F6E053C2F2000322
:102F80009A6A40F6E053C2F20003DB6A18460199E0
:102F90009047FEF72DF9FDF783FE03B000BD00BF9B
:102FA00000B583B0FEF7F4F84FF00003C4F202035B
:102FB0001B684FEA136303F00F0301934FF0000304
:102FC000C4F202034FF070625A6040F6E053C2F25E
:102FD00000031B6B002B0CD040F6E053C2F2000341
:102FE0001A6B40F6E053C2F200035B6B184601997E
:102FF0009047FEF7FDF8FDF753FE03B000BD00BF9C
:1030000082B040F6DC53C2F200034FF000021A60B7
:103010004FF0000301931CE047F6F012C0F60002E7
:1030200001990B464FEA43035B184FEA8303D31819
:103030001B684FF000021A6040F6E053C2F2000332
:10304000019A4FF0000143F83210019B03F1010394
:103050000193019B062BDFDD4FF00003C4F2020356
:103060004FF0FF325A6002B0704700BFAFF30080EC
:1030700000B585B00390029101920093039B002B51
:1030800005D147F28070C0F60000FEF771F9039B8E
:103090005B7A4FF0010202FA03F31A4640F6DC5362
:1030A000C2F200031B681340002B02D04FF0010353
:1030B00060E0039B5B7A1A4640F6E053C2F20003DD
:1030C000019943F83210039B5B7A40F6E052C2F25A
:1030D00000024FEAC303D318009A5A60039B5B7A3D
:1030E0004FF0010202FA03F31A4640F6DC53C2F233
:1030F00000031B681A4340F6DC53C2F200031A6057
:1031000040F6DC53C2F200031B6803F07F03002B80
:103110000BD04FF48053C4F202034FF48052C4F238
:103120000202526942F001025A61039B1B68039A32
:103130001268126822F001021A60039B5B68039A0E
:10314000127A4FF00F0101FA02F21A60039B1B681A
:103150004FF000021A60019B002B09D0039B9B7A61
:103160001A46029B4FEA031310461946FDF720FE4C
:103170004FF00003184605B000BD00BFAFF300805C
:103180004FF4E043C4F200034FF4E042C4F2000203
:10319000126842F480721A604FF48053C4F2020342
:1031A0001B6A03F44073B3F5407F0DD04FF4805396
:1031B000C4F202034FF480321A624FF48053C4F217
:1031C00002034FF000021A624FF48053C4F202036C
:1031D0001B6A03F40043002B17D14FF48053C4F251
:1031E00002034FF48052C4F20202126A42F44072A7
:1031F0001A624FF48053C4F202034FF48052C4F2B7
:103200000202126A42F400421A627047AFF3008071
:1032100008B54FF48053C4F202031B694FF4805386
:10322000C4F202034FF0FF321A614FF48053C4F22C
:1032300002034FF000021A614FF48053C4F20203FC
:10324000DB684FF48053C4F202034FF0FF32DA60C0
:103250004FF48053C4F202034FF00002DA604EF2E2
:103260001003CEF2000343F27F22C0F202025A6042
:103270004EF21003CEF200034FF000029A604EF2BD
:103280001003CEF200034FF007021A604EF6F0531F
:10329000CEF200034EF6F052CEF20002D26842F0B7
:1032A0008072DA604FF48053CEF200034FF4805204
:1032B000CEF20002126842F001021A604FF480530D
:1032C000C4F202034FF48052C4F20202D26942F007
:1032D0008052DA614FF48053C4F202034FF48052FB
:1032E000C4F20202D26942F00062DA61FFF748FFDD
:1032F000FFF786FE08BD00BFAFF30080AFF300808C
:103300004FF48053C4F202034FF48052C4F202021D
:10331000126842F001021A6000BF4FF48053C4F2F9
:1033200002031B6803F00203002BF6D04FF4805316
:10333000C4F202034FF48052C4F20202126802F097
:10334000F9021A604FF48053C4F202034FF00002F6
:103350005A6000BF4FF48053C4F202035B6803F06D
:103360000C03002BF6D14FF48053C4F202034FF448
:103370008052C4F20202126842F480321A6000BF26
:103380004FF48053C4F202031B6803F40033002B94
:10339000F6D04FF48053C4F202034FF48052C4F2CB
:1033A0000202526842F4E8125A604FF48053C4F2A9
:1033B00002034FF48052C4F20202126842F080729B
:1033C0001A6000BF4FF48053C4F202031B6803F07D
:1033D0000073002BF6D04FF48053C4F202034FF475
:1033E000C842C0F21D025A604FF40053C4F20203F7
:1033F0004FF012021A604FF48053C4F202034FF4EC
:103400008052C4F20202526842F002025A6000BFC7
:103410004FF48053C4F202035B6803F00C03082BE3
:10342000F6D17047AFF30080AFF30080AFF30080B8
:1034300008B5FDF7ADFE4FF48063C4F201034FF011
:1034400001025A6140F61863C2F200035B685B68D0
:1034500040F61860C2F200004FF000019847FDF7F7
:10346000C7FEFDF71DFC08BDAFF30080AFF3008081
:1034700008B5FDF78DFE4FF48063C4F201034FF0F1
:1034800002025A6140F61863C2F200035B68DB680F
:1034900040F61860C2F200004FF001019847FDF7B6
:1034A000A7FEFDF7FDFB08BDAFF30080AFF3008082
:1034B00008B5FDF76DFE4FF48063C4F201034FF0D1
:1034C00004025A6140F61863C2F200035B685B694C
:1034D00040F61860C2F200004FF002019847FDF775
:1034E00087FEFDF7DDFB08BDAFF30080AFF3008082
:1034F00008B5FDF74DFE4FF48063C4F201034FF0B1
:1035000008025A6140F61863C2F200035B68DB6987
:1035100040F61860C2F200004FF003019847FDF733
:1035200067FEFDF7BDFB08BDAFF30080AFF3008081
:1035300008B5FDF72DFE4FF48063C4F201034FF090
:1035400010025A6140F61863C2F200035B685B6ABE
:1035500040F61860C2F200004FF004019847FDF7F2
:1035600047FEFDF79DFB08BDAFF30080AFF3008081
:1035700000B583B0FDF70CFE4FF48063C4F2010385
:103580005B6903F4787301934FF48063C4F2010321
:10359000019A5A61019B03F02003002B0CD040F6E6
:1035A0001863C2F200035B68DB6A40F61860C2F27F
:1035B00000004FF005019847019B03F04003002BEA
:1035C0000CD040F61863C2F200035B685B6B40F6F8
:1035D0001860C2F200004FF006019847019B03F00B
:1035E0008003002B0CD040F61863C2F200035B6826
:1035F000DB6B40F61860C2F200004FF007019847FD
:10360000019B03F48073002B0CD040F61863C2F2C8
:1036100000035B685B6C40F61860C2F200004FF07C
:1036200008019847019B03F40073002B0CD040F66F
:103630001863C2F200035B68DB6C40F61860C2F2EC
:1036400000004FF009019847FDF7D2FDFDF728FB78
:1036500003B000BDAFF30080AFF30080AFF3008094
:1036600000B583B0FDF794FD4FF48063C4F201030D
:103670005B6903F47C4301934FF48063C4F201035C
:10368000019A5A61019B03F48063002B0CD040F631
:103690001863C2F200035B685B6D40F61860C2F20B
:1036A00000004FF00A019847019B03F40063002BD0
:1036B0000CD040F61863C2F200035B68DB6D40F685
:1036C0001860C2F200004FF00B019847019B03F411
:1036D0008053002B0CD040F61863C2F200035B68E5
:1036E0005B6E40F61860C2F200004FF00C01984784
:1036F000019B03F40053002B0CD040F61863C2F278
:1037000000035B68DB6E40F61860C2F200004FF009
:103710000D019847019B03F48043002B0CD040F629
:103720001863C2F200035B685B6F40F61860C2F278
:1037300000004FF00E019847019B03F40043002B5B
:103740000CD040F61863C2F200035B68DB6F40F6F2
:103750001860C2F200004FF00F019847FDF748FDD6
:10376000FDF79EFA03B000BDAFF30080AFF3008019
:1037700008B5FDF70DFD4FF48063C4F201034FF46B
:1037800080325A6140F61863C2F200035B68D3F8D6
:10379000843040F61860C2F200004FF010019847E4
:1037A000FDF726FDFDF77CFA08BD00BFAFF30080F2
:1037B00008B5FDF7EDFC4FF48063C4F201034FF44C
:1037C00080225A6140F61863C2F200035B68D3F8A6
:1037D000943040F61860C2F200004FF01201984792
:1037E000FDF706FDFDF75CFA08BD00BFAFF30080F2
:1037F00008B540F61860C2F20000FEF7D1FE08BD21
:1038000000B589B00190019B1B78012B3BD14FF093
:1038100006004FF06001FDF7CBFA4FF007004FF0C4
:103820006001FDF7C5FA4FF008004FF06001FDF7A9
:10383000BFFA4FF009004FF06001FDF7B9FA4FF001
:103840000A004FF06001FDF7B3FA4FF017004FF098
:103850006001FDF7ADFA4FF028004FF06001FDF771
:10386000A7FA4FF001004FF06001FDF7A1FA4FF009
:1038700029004FF06001FDF79BFA4FF02A004FF04E
:103880006001FDF795FA4FF000030393039B049347
:10389000049B0593059B06934FF00003079349E0B3
:1038A000019B5B68079A53F8323003F00403002B46
:1038B0003CD0019B5A68079B4FEAC303D3185B684F
:1038C000002B08D0079B4FF0010202FA03F3069A7F
:1038D0001343069307E0079B4FF0010202FA03F33C
:1038E000059A13430593019B5B68079A53F832309E
:1038F00003F00103DBB2002B07D0079B4FF001025E
:1039000002FA03F3049A13430493019B5B68079A3A
:1039100053F8323003F00203002B07D0079B4FF01F
:10392000010202FA03F3039A13430393079B03F183
:1039300001030793079B122BB2D94FF00003C4F287
:103940000103019A5268B2F898209A604FF0000380
:10395000C4F20103019A5268B2F89A20DA604FF07B
:103960000003C4F20103019A5268B2F89C201A6164
:103970004FF00003C4F20103019A5268B2F89E208E
:103980005A614FF48063C4F201034FF000021A61E0
:103990004FF48063C4F20103049A9A604FF4806389
:1039A000C4F20103039ADA604FF48063C4F20103A6
:1039B0004FF6FF72C0F207025A614FF48063C4F2FF
:1039C0000103059A5A604FF48063C4F20103069A1A
:1039D0001A6009B000BD00BFAFF30080AFF30080F4
:1039E00082B001900091019B5A68009B4FEAC3038B
:1039F000D3185B68002B10D04FF48063C4F201032E
:103A00004FF48062C4F201021168009A4FF0010085
:103A100000FA02F20A431A600FE04FF48063C4F226
:103A200001034FF48062C4F201025168009A4FF022
:103A3000010000FA02F20A435A60019B5B68009A97
:103A400053F8323003F00103DBB2002B0FD04FF4F8
:103A50008063C4F201034FF48062C4F201029168F2
:103A6000009A4FF0010000FA02F20A439A60019BAB
:103A70005B68009A53F8323003F00203002B0FD03A
:103A80004FF48063C4F201034FF48062C4F2010278
:103A9000D168009A4FF0010000FA02F20A43DA609E
:103AA00002B07047AFF30080AFF30080AFF3008047
:103AB00082B0019000914FF48063C4F201034FF48F
:103AC0008062C4F201021168009A4FF0010000FA0E
:103AD00002F26FEA02020A401A604FF48063C4F2F5
:103AE00001034FF48062C4F201025168009A4FF062
:103AF000010000FA02F26FEA02020A405A604FF433
:103B00008063C4F201034FF48062C4F20102916841
:103B1000009A4FF0010000FA02F26FEA02020A4036
:103B20009A604FF48063C4F201034FF48062C4F2E0
:103B30000102D168009A4FF0010000FA02F26FEA28
:103B400002020A40DA604FF48063C4F20103009A73
:103B50004FF0010101FA02F25A6102B0704700BF52
:103B600000B583B00190019BDB684FF000021A8220
:103B7000019B1B78042B06D1019B4FF002021A70A7
:103B8000019800F0CDF8019B5B685B68019898474D
:103B900003B000BDAFF30080AFF30080AFF300804F
:103BA00008B5FDF7F5FA40F62060C2F20000FFF715
:103BB000D7FFFDF71DFBFDF773F808BDAFF30080DD
:103BC00008B540F62063C2F200034FF43052C4F24D
:103BD0000102DA6040F62060C2F20000FEF7A0FDAC
:103BE00008BD00BFAFF30080AFF30080AFF30080EB
:103BF00000B585B00190019B1B78012B31D1019A52
:103C000040F62063C2F200039A422AD14FF4805357
:103C1000C4F202034FF48052C4F20202926942F4E9
:103C200000629A614FF48053C4F202034FF4805251
:103C3000C4F20202D26842F40062DA604FF48053A8
:103C4000C4F202034FF00002DA604FF019004FF0A7
:103C50007001FDF7ADF8019A4FF42243C0F24A43D8
:103C60009360019B9A68019B5B681B68B2FBF3F34E
:103C70009BB203F1FF33ADF80E30BDF80E3003F107
:103C80000103019A5268126802FB03F2019B9B68D0
:103C90009A4205D047F2C070C0F60000FDF768FBFD
:103CA000019BDB684FF000021A80019BDB684FF03C
:103CB00008029A80019BDB68BDF80E201A85019BE3
:103CC000DB684FF000029A8105B000BDAFF30080C1
:103CD00082B001900B46ADF80230019BDB68BDF865
:103CE000022002F1FF32DA62019BDB684FF0010231
:103CF0009A82019BDB684FF000025A62019BDB68ED
:103D00004FF000021A82019BDB684FF001029A819A
:103D1000019BDB684FF005021A8002B0704700BFBC
:103D200082B00190019BDB684FF000021A80019B7A
:103D3000DB684FF000021A82019BDB684FF0000243
:103D40009A8102B0704700BFAFF30080AFF30080EC
:103D500084B00190019B1B6A0393039B4FF40042C4
:103D60001A80039B4FF000021A80039B4FF0000261
:103D70009A80039B4FF000029A82019BDB691B68CB
:103D8000019AD2691268126822F001021A60019B3E
:103D9000DB695B68019AD269127A4FF00F0101FA70
:103DA00002F21A60019B9B691B68019A9269126872
:103DB000126822F001021A60019B9B695B68019AFC
:103DC0009269127A4FF00F0101FA02F21A6004B000
:103DD000704700BFAFF30080AFF30080AFF3008007
:103DE00000B585B00190019B0393039BDB68002B1A
:103DF00010D0039BDB6802930398FFF7A9FF039B96
:103E00004FF00002DA60029B4FF0FF329A62029894
:103E1000FDF7DEFB05B000BDAFF30080AFF300801F
:103E200000B587B00190019B1B6A0493019B5B68FE
:103E30005B680393019B5B681B7A8DF80B30019BD9
:103E4000002B09D0039B002B06DD039A4FF410636F
:103E5000C0F23D039A4205DD47F2E070C0F6000073
:103E6000FDF786FA049B9B889BB223F03F039AB22E
:103E7000049B9A80049B9B889BB243F024039AB2D4
:103E8000049B9A804FF00003ADF8163040F6FF73A4
:103E9000ADF81430039A48F2A063C0F201039A42CD
:103EA00044DC9DF80B30012B05D047F2F870C0F6CA
:103EB0000000FDF75DFA039B4FEA43024FF4A24373
:103EC000C0F2252393FBF2F102FB01F29B1A002BB7
:103ED00005D047F61000C0F60000FDF749FA039B35
:103EE0004FEA43024FF4A243C0F2252393FBF2F3BF
:103EF000ADF81430BDF81430032B05D847F6280070
:103F0000C0F60000FDF734FABDF814304FEA035351
:103F10004FEA13539AB2BDF8163013439BB2ADF873
:103F20001630049B4FF025021A8490E0039A4FF458
:103F3000D453C0F206039A4200F389809DF80B30F7
:103F4000022B09D09DF80B30032B05D047F640001B
:103F5000C0F60000FDF70CFA9DF80B30022B23D1C0
:103F6000039A13464FEA43039A184FF4A243C0F250
:103F7000252393FBF2F102FB01F29B1A002B05D0E3
:103F800047F65800C0F60000FDF7F2F9039A134611
:103F90004FEA43039A184FF4A243C0F2252393FB40
:103FA000F2F3ADF8143032E09DF80B30032B2ED134
:103FB000039A13464FEA83039B184FEA83029A1829
:103FC0004FF4A243C0F2252393FBF2F102FB01F26E
:103FD0009B1A002B05D047F67000C0F60000FDF7D5
:103FE000C7F9039A13464FEA83039B184FEA8302EB
:103FF0009A184FF4A243C0F2252393FBF2F3ADF8D5
:104000001430BDF8163043F48043ADF81630BDF8D7
:104010001430002B05D147F68800C0F60000FDF7EC
:10402000A7F9BDF814304FEA03534FEA13539BB27C
:104030006FEA43436FEA53439AB2BDF81630134315
:104040009BB2ADF81630049B4FF00B021A84BDF8FA
:10405000142040F6FF739A4205D947F6A000C0F637
:104060000000FDF785F9049BBDF816209A8307B080
:1040700000BD00BFAFF30080AFF30080AFF300805E
:1040800086B00190019B1B6A0493019B5B681B78BF
:104090008DF80F30049B1B88ADF816309DF80F305B
:1040A000022B0AD0032B15D0012B1AD1BDF81630E4
:1040B00023F00A03ADF8163013E0BDF8163043F0D4
:1040C0000203ADF81630BDF8163023F00803ADF842
:1040D000163006E0BDF8163043F00A03ADF816308E
:1040E00000BF049BBDF816201A8006B0704700BFC1
:1040F00000B587B00190019B1B6A0493049B1B8B46
:104100009BB20393049B9B8A9BB20593019B93F8FC
:104110002430002B40F0B780039B4FEA0342059BFD
:10412000134323F07F434FF00202C0F20302934295
:104130001ED04FF00202C0F20302934206D84FF0A5
:104140000102C0F2030293420DD092E04FF08202CE
:10415000C0F20702934234D04FF08402C0F207024B
:10416000934241D085E0019B1A8A049B1A8282E027
:10417000049B9B889BB223F400739AB2049B9A80A1
:10418000019B9B691B68019A92691268126842F050
:1041900001021A60049B9B889BB243F480539AB23D
:1041A000049B9A80019B9B691B685B68012B61D80B
:1041B000049B1B889BB223F480639AB2049B1A80F1
:1041C00058E0049B9B889BB223F400739AB2049B33
:1041D0009A80019BDB691B68019AD2691268126898
:1041E00042F001021A6046E0019B9B691B685B6814
:1041F000002B0FD0019B1B8A43F001039AB2019B55
:104200001A82049B1B889BB243F4A0639AB2049B5E
:104210001A80B4E0049B9B889BB223F400739AB28B
:10422000049B9A80049B1B889BB243F400739AB250
:10423000049B1A804FF0200383F31188FCF768FF7A
:10424000019BDB68002B0DD0019BDB680293019B77
:104250004FF00002DA60029B4FF000029A6202986F
:10426000FDF7B6F9FCF774FF4FF0000383F31188F4
:1042700001E000E000BF059B03F00A03002B7ED0A5
:10428000049B1B8B7BE0059B03F00A03002B0FD0E4
:10429000019B4FF000021A63019B4FF000021A6469
:1042A000049B9B8A9BB20593049B1B8B9BB203933D
:1042B000059B03F08003002B16D0019B9A6B019B9A
:1042C0001B6CD21812781146049A118203F1010274
:1042D000019B1A64019B1A6B019BDB6B9A4203D30F
:1042E000019B4FF000021A64059B03F04003002B72
:1042F00017D0019B9A6A019B1B6BD2180499098AFB
:1043000089B2C9B2117003F10102019B1A63019BCA
:104310001A6B019BDB6A9A4203D3019B4FF00002A8
:104320001A63059B03F01003002B13D0049B9B8A98
:104330009BB20593049B1B889BB243F001039AB286
:10434000049B1A80019B5B6B002B03D0019B5B6B72
:1043500001989847059B03F48063002B0FD0049BC2
:104360009B8A9BB223F480639AB2049B9A82019B3E
:104370005B6C002B03D0019B5B6C0198984707B0E6
:1043800000BD00BFAFF30080AFF30080AFF300804B
:1043900000B585B001900091019B1B6A0393009BBF
:1043A00003F00803002B01D0FCF71AFC019B9B696A
:1043B0001B68019A92691268126822F001021A6061
:1043C000019B9B695B68019A9269127A4FF00F0119
:1043D00001FA02F21A60019B93F82430002B35D1C8
:1043E000039B9B889BB223F480539AB2039B9A80D1
:1043F000039B1B889BB223F480639AB2039B1A80B1
:10440000039B1B889BB243F400739AB2039B1A80F0
:104410004FF0200383F31188FCF77AFE019BDB68E1
:10442000002B0DD0019BDB680293019B4FF0000233
:10443000DA60029B4FF000029A620298FDF7C8F81A
:10444000FCF786FE4FF0000383F3118805B000BD32
:1044500000B585B001900091019B1B6A0393009BFE
:1044600003F00803002B01D0FCF7BAFB019BDB69CA
:104470001B68019AD2691268126822F001021A6060
:10448000019BDB695B68019AD269127A4FF00F01D8
:1044900001FA02F21A60039B9B889BB243F40073FB
:1044A0009AB2039B9A8005B000BD00BFAFF30080B5
:1044B00000B587B00190019B1B6A04934FF0200365
:1044C00083F31188FCF724FE019BDB691B68019ACA
:1044D000D2691268126822F001021A60019BDB693E
:1044E0005B68019AD269127A4FF00F0101FA02F269
:1044F0001A60019B9B691B68019A92691268126895
:1045000022F001021A60019B9B695B68019A926923
:10451000127A4FF00F0101FA02F21A60FCF718FE4E
:104520004FF0000383F311884FF000030593049BC1
:104530009B8A9BB203F48073002B0BD0049B9B8A55
:104540009BB223F480739AB2049B9A82059B43F03A
:1045500001030593049B9B8A9BB203F40073002B19
:104560000BD0049B9B8A9BB223F400739AB2049BEA
:104570009A82059B43F002030593019B93F8243034
:10458000002B23D1049B9B8A9BB203F48063002BF6
:104590002CD0049B9B8A9BB223F480639AB2049B29
:1045A0009A82049B9B889BB223F400739AB2049B6B
:1045B0009A80049B1B889BB243F400739AB2049BBD
:1045C0001A80059B43F0040305930FE0049B9B8A2C
:1045D0009BB223F480639AB2049B9A82019B5B6C2A
:1045E000002B03D0019B5B6C01989847049B9B8A2E
:1045F0009BB203F40063002B0BD0049B9B8A9BB2FD
:1046000023F400639AB2049B9A82059B43F008034B
:104610000593049B9B8A9BB203F48053002B0BD021
:10462000049B9B8A9BB223F480539AB2049B9A8288
:10463000059B43F010030593049B9B8A9BB203F4F4
:104640008043002B0BD0049B9B8A9BB223F48043B6
:104650009AB2049B9A82059B43F020030593049B26
:104660009B8A9BB29BB21BB2002B0DDA049B9B8AE8
:104670009BB24FEA43434FEA53439AB2049B9A8258
:10468000059B43F040030593059B002B20D0019B25
:10469000059A9A604FF0200383F31188FCF738FDE8
:1046A000019BDB68002B0DD0019BDB680393019B12
:1046B0004FF00002DA60039B6FF001029A620398E8
:1046C000FCF786FFFCF744FD4FF0000383F31188ED
:1046D00007B000BDAFF30080AFF30080AFF3008000
:1046E00008B5FCF755FD40F63060C2F20000FFF758
:1046F000FFFCFCF77DFDFCF7D3FA08BDAFF30080AB
:1047000008B5FCF745FD40F63060C2F20000FFF747
:10471000CFFEFCF76DFDFCF7C3FA08BDAFF30080D8
:1047200008B540F63060C2F20000FEF791F840F69E
:104730003063C2F200034FF00002DA6040F63063EB
:10474000C2F200034FF4A842C4F200021A6240F61B
:104750003063C2F20003044A9A6140F63063C2F249
:104760000003024ADA6108BD387A00082C7A000892
:1047700000B585B00190019B1B6A0393019B4FF02C
:104780008A025A61019B1B78012B63D1019A40F682
:104790003063C2F200039A425CD14FF48053C4F2FA
:1047A00002034FF48052C4F20202126942F4001272
:1047B0001A614FF48053C4F202034FF000021A61F1
:1047C000019B9B6918464FF00A0144F29132C0F6F2
:1047D0000002019BFEF74CFC0290029B002B05D0CF
:1047E00047F6B800C0F60000FCF7C2FD019BDB698C
:1047F00018464FF00A0144F25142C0F60002019BF4
:10480000FEF736FC0290029B002B05D047F6CC0049
:10481000C0F60000FCF7ACFD4FF48053C4F2020375
:104820004FF48052C4F20202D26942F40012DA61FB
:104830004FF01F004FF0A001FCF7BAFA4FF0200034
:104840004FF0A001FCF7B4FA019B5B6943F480527E
:10485000019B5A61019BDB691B68019A526942F016
:1048600010021A60019B9B691B68019A52691A60C9
:10487000019B9B691B68039A02F110029A60019BDD
:10488000DB691B68039A02F110029A60039B4FF4E4
:1048900000421A80039B4FF000021A80039B4FF4E2
:1048A00010629A800198FFF7BBFA0198FFF7E8FBC6
:1048B000039B1B889BB243F001039AB2039B1A80AF
:1048C00005B000BDAFF30080AFF30080AFF3008010
:1048D00000B58BB00390019200930B46ADF80A30FF
:1048E000039B1B6A09930D9B002B0BD00D9B012B87
:1048F00002D90C9B002B05D147F60410C0F600002E
:10490000FCF736FD0E9BB3F1FF3F09D004AB184610
:104910000E9943F6E152C0F60002039BFCF760FDDE
:10492000FCF7D6FB4FF0000383F31188BDF80A3083
:104930004FEA43039AB2039B1A82039B4FF0000293
:104940009A60039BDB691B68019ADA60039BDB6951
:104950001B68009A5A60039B9B691B680C9ADA607B
:10496000039B9B691B680D9A5A6015E04FF020036A
:1049700083F31188FCF78CFB0E9BB3F1FF3F05D04E
:10498000079B002B02D14FF0FF3354E0FCF7A0FB54
:104990004FF0000383F31188099B1B8B9BB203F03C
:1049A0000203002BE2D1099B1B889BB203F4007326
:1049B000002BDBD14FF0200383F31188FCF768FB59
:1049C0000E9BB3F1FF3F05D0079B002B02D14FF0A8
:1049D000FF3330E0039B4FF0000283F82420099B53
:1049E0009B889BB243F400739AB2099B9A80099BFF
:1049F0001B889BB243F480739AB2099B1A8040F6DD
:104A0000B453C2F20003DA69039BDA604FF002008C
:104A1000FCF71EFE0E9BB3F1FF3F06D0079B002B59
:104A200003D004AB1846FCF733FD40F6B453C2F292
:104A30000003DB699B6A18460BB000BDAFF3008032
:104A400084B001900091019BD3F850340393019BF3
:104A5000D3F850244FF46053C4F201039A420BD1AF
:104A6000009B1A684FF4A243C0F22523B3FBF2F374
:104A70009AB2039B1A810AE0009B1A684FF4A24382
:104A8000C0F22523B3FBF2F39AB2039B1A81009B79
:104A90009B8843F4045343F02C039AB2039B9A81FE
:104AA000009BDB8843F040039AB2039B1A82009B71
:104AB0001B8943F001039AB2039B9A82039B4FF038
:104AC00000021A80039B1B88039B9B8804B07047DD
:104AD00000B585B001900B46ADF802304FF00003F1
:104AE0000393BDF8023003F00803002B03D0039BAF
:104AF00043F080030393BDF8023003F00103DBB2FF
:104B0000002B03D0039B43F020030393BDF8023036
:104B100003F00203002B03D0039B43F040030393F5
:104B2000BDF8023003F00403002B03D0039B43F4D1
:104B3000807303934FF0200383F31188FCF7E8FAA6
:104B4000019B9A68039B1A43019B9A60019B03F1A6
:104B5000040318464FF00001FDF702FAFCF7F8FADB
:104B60004FF0000383F3118805B000BDAFF3008060
:104B700000B587B00190019BD3F850340593059B95
:104B80009B89ADF81230059B1B88ADF81030059B52
:104B90009B88ADF80E30BDF8103003F00F03002BEA
:104BA00005D0BDF8103001981946FFF791FFBDF808
:104BB000103003F48073002B21D04FF0200383F3D7
:104BC0001188FCF7A5FA019B9B6843F40072019BD6
:104BD0009A60019B03F1040318464FF00001FDF7B2
:104BE000BFF9FCF7B5FA4FF0000383F31188059B7A
:104BF0001B889BB223F480739AB2059B1A80BDF880
:104C0000103003F02003002B12D04FF0200383F369
:104C10001188FCF77DFABDF80E30DBB20198194619
:104C2000FEF70EF8FCF794FA4FF0000383F31188B7
:104C3000BDF8123003F08003002B39D0BDF81030DE
:104C400003F08003002B33D04FF0200383F311884F
:104C5000FCF75EFA019B03F130031846FDF7A8FB51
:104C60000290029B002B19DA019B9B6843F008021B
:104C7000019B9A60019B03F1040318464FF0000169
:104C8000FDF76EF9BDF8123023F0C0039BB243F07C
:104C900040039BB29AB2059B9A8103E0029B9AB2B1
:104CA000059B9A80FCF754FA4FF0000383F31188B8
:104CB000BDF8103003F04003002B28D04FF0200344
:104CC00083F31188FCF724FA019B9B6843F01002E0
:104CD000019B9A60019B03F1040318464FF0000109
:104CE000FDF73EF9FCF734FA4FF0000383F3118827
:104CF000BDF8123023F040039AB2059B9A81059BC0
:104D00001B889BB223F040039AB2059B1A8007B020
:104D100000BD00BFAFF30080AFF30080AFF30080B1
:104D200082B001904FF46053C4F201034FF460521B
:104D3000C4F20102928992B242F0800292B29A8148
:104D400002B07047AFF30080AFF30080AFF3008094
:104D500082B001904FF48843C4F200034FF48842BC
:104D6000C4F20002928992B242F0800292B29A8119
:104D700002B07047AFF30080AFF30080AFF3008064
:104D800008B5FCF705FA40F67860C2F20000FFF7BC
:104D9000EFFEFCF72DFAFBF783FF08BDAFF30080B1
:104DA00008B5FCF7F5F941F2CC20C2F20000FFF79C
:104DB000DFFEFCF71DFAFBF773FF08BDAFF30080C1
:104DC00008B540F67860C2F200004FF0000144F6EA
:104DD0002152C0F60002FDF7C3FE40F67863C2F22E
:104DE00000034FF46052C4F20102C3F8502441F2B0
:104DF000CC20C2F200004FF0000144F65152C0F640
:104E00000002FDF7ADFE41F2CC23C2F200034FF4E5
:104E10008842C4F20002C3F8502408BDAFF30080FA
:104E200000B583B001900091009B002B04D147F6A0
:104E30005023C0F600030093019B1B7B012B31D153
:104E4000019A40F67863C2F200039A4211D14FF4FE
:104E50008053C4F202034FF48052C4F202029269FA
:104E600042F480429A614FF025004FF0C001FBF7F9
:104E70009FFF019A41F2CC23C2F200039A4211D162
:104E80004FF48053C4F202034FF48052C4F2020282
:104E9000D26942F40032DA614FF026004FF0C001CF
:104EA000FBF786FF01980099FFF7CAFD03B000BD2C
:104EB00000B583B001900091009B03F00803002B24
:104EC00001D0FBF78DFE019B1B691B68019A1269DB
:104ED0001268126822F001021A60019B1B695B686C
:104EE000019A1269127A4FF00F0101FA02F21A6068
:104EF000019BDB681B68019AD2681268126822F075
:104F000001021A60019BDB685B68019AD268127A21
:104F10004FF00F0101FA02F21A60019B5B681B68F7
:104F2000002B11D0019B4FF004021A70019B5B68AB
:104F30001B6801989847019B1B78042B08D1019BA3
:104F40004FF002021A7003E0019B4FF002021A7048
:104F500003B000BDAFF30080AFF30080AFF300807B
:104F600000B583B001900091009B03F00803002B73
:104F700001D0FBF735FE03B000BD00BFAFF30080EA
:104F800008B541F25873C2F200034FF6FF721A805F
:104F900041F22070C2F20000FDF79AFE41F2207348
:104FA000C2F200034FF44052C4F201029A6041F28F
:104FB0002073C2F20003204ADA6041F22073C2F289
:104FC00000031E4A1A6141F22073C2F2000341F24B
:104FD0000A025A6141F22073C2F2000341F2180240
:104FE0009A6141F23C70C2F20000FDF771FE41F29D
:104FF0003C73C2F200034FF46052C4F200029A60A4
:1050000041F23C73C2F200030D4ADA6041F23C7394
:10501000C2F200030B4A1A6141F23C73C2F2000370
:1050200041F20A025A6141F23C73C2F2000341F2BA
:1050300018029A6108BD00BFFC790008087A0008D0
:10504000147A0008207A0008AFF30080AFF30080E4
:1050500000B585B00190019B1B78012B40F08E803C
:10506000019A41F22073C2F200039A4237D1019BA8
:10507000DB6818464FF00A0144F6B162C0F6000240
:10508000019BFDF7F5FF0390039B002B05D047F62E
:105090003010C0F60000FCF76BF9019B1B69184645
:1050A0004FF00A0144F66172C0F60002019BFDF761
:1050B000DFFF0390039B002B05D047F64410C0F69A
:1050C0000000FCF755F94FF48053C4F202034FF48B
:1050D0008052C4F20202926942F480529A61019AAB
:1050E00041F23C73C2F200039A4237D1019BDB6864
:1050F00018464FF00A0144F6B162C0F60002019B67
:10510000FDF7B6FF0290029B002B05D047F6581022
:10511000C0F60000FCF72CF9019B1B6918464FF004
:105120000A0144F66172C0F60002019BFDF7A0FF80
:105130000290029B002B05D047F66C10C0F60000D1
:10514000FCF716F94FF48053C4F202034FF4805277
:10515000C4F20202D26942F48042DA61019BDB6848
:105160001B68019A926802F10C029A60019B1B690C
:105170001B68019A926802F10C029A60019B5B68BD
:105180005B8903F40063002B0CD1019B5B6923F462
:105190004062019B5A61019B9B6923F44062019B21
:1051A0009A610FE0019B5B6923F4506343F4A062B2
:1051B000019B5A61019B9B6923F4506343F4A062F5
:1051C000019B9A61019B9B684FF000021A80019B32
:1051D0009B68019A5268528942F4417292B21A80D5
:1051E000019B9B684FF007029A80019B9B68019A84
:1051F0009268128892B242F0400292B21A8005B0D0
:1052000000BD00BFAFF30080AFF30080AFF30080BC
:1052100082B00190019B5B685B68019A52681289B9
:105220004FF0010101FA02F25A6102B0704700BF6B
:1052300082B00190019B5B685B68019A5268128999
:105240004FF0010101FA02F21A6102B0704700BF8B
:1052500084B0039002910192039BDB681A6841F2CB
:105260005A73C2F20003D360039BDB681B68029A87
:105270005A60039BDB681B68039A52691A60039BA0
:105280001B691B68019ADA60039B1B691B68029A01
:105290005A60039B1B691B68039A926942F0800263
:1052A0001A60039BDB681B68039AD2681268126855
:1052B00042F001021A60039B1B691B68039A126982
:1052C0001268126842F001021A6004B0704700BF11
:1052D00084B0039002910192039BDB681B68019AE2
:1052E000DA60039BDB681B68029A5A60039BDB68E9
:1052F0001B68039A526942F080021A60039B1B6983
:105300001A6841F25873C2F20003D360039B1B6911
:105310001B68029A5A60039B1B691B68039A926977
:105320001A60039BDB681B68039AD26812681268D4
:1053300042F001021A60039B1B691B68039A126901
:105340001268126842F001021A6004B0704700BF90
:1053500082B001904FF48053C4F202034FF48052A4
:10536000C4F20202926942F07D029A614FF4006336
:10537000C4F20103019A1268DA604FF40063C4F2C8
:105380000103019A92685A604FF40063C4F201036A
:10539000019A52681A604FF44063C4F20103019A03
:1053A000D268DA604FF44063C4F20103019A526993
:1053B0005A604FF44063C4F20103019A12691A6003
:1053C0004FF48053C4F20103019A9269DA604FF4FA
:1053D0008053C4F20103019A126A5A604FF4805359
:1053E000C4F20103019AD2691A604FF4A053C4F2C7
:1053F0000103019A526ADA604FF4A053C4F2010328
:10540000019AD26A5A604FF4A053C4F20103019A80
:10541000926A1A604FF4C053C4F20103019A126BEE
:10542000DA604FF4C053C4F20103019A926B5A60E0
:105430004FF4C053C4F20103019A526B1A6002B0D8
:10544000704700BFAFF30080AFF30080AFF3008080
:105450008AB0039002910192019B032B03D1039B1D
:10546000029A1A6105E0019B042B02D1039B029A68
:105470005A6147F66023C0F60003019A9B181B7817
:1054800004934FF000030693069B0793079B089332
:10549000089B09934FF00003059333E0089B4FEA04
:1054A00003130893099B4FEA03130993069B4FEAE2
:1054B00003130693079B4FEA03130793029B03F022
:1054C0008003002B04D1089B43F00F03089303E0F3
:1054D000069A049B13430693029B03F40043002B9C
:1054E00004D1099B43F00F03099303E0079A049B3F
:1054F00013430793029B4FEA43030293059B03F177
:1055000001030593059B072BC8D9039B5A68099B88
:105510001A40079B1A43039B5A60039B1A68089B17
:105520001A40069B1A43039B1A600AB0704700BFDB
:1055300008B5FDF7E5FE08BDAFF30080AFF30080CE
:10554000704700BFAFF30080AFF30080AFF300807F
:1055500008B5FDF705F8FBF7C3FC00F0C1FF01F04B
:105560003FFA00F0FDFC01F0BBFC00F011F801F087
:10557000E7FC00F09DFC4FF0030000F0D9FC00F0C8
:105580003FF8FCE7AFF30080AFF30080AFF300809B
:1055900008B54FF40060C4F201004FF400714FF001
:1055A0001002FFF755FF4FF40060C4F201004FF402
:1055B00080614FF00202FFF74BFF4FF40060C4F22E
:1055C00001004FF400614FF01002FFF741FF4FF46C
:1055D0000060C4F201004FF480514FF00202FFF767
:1055E00037FF40F67860C2F200004FF00001FDF78F
:1055F000EFFA08BDAFF30080AFF30080AFF3008097
:1056000000B583B042484FF0FF31FCF799FD01909F
:10561000019BB3F1FF3F03D0019B13F1020F02D1B5
:105620004FF0010301E04FF000038DF803309DF8C7
:105630000330002B69D1019B8DF8023041F29C733D
:10564000C2F200031B78002B37D19DF80230002BEB
:1056500013D141F2A073C2F200031B6841F25C70E7
:10566000C2F20000194600F05BF841F2A073C2F2EA
:1056700000034FF000021A6039E09DF802305C2B05
:1056800013D041F2A073C2F200031A6841F25C73B6
:10569000C2F200039DF80210995402F1010241F296
:1056A000A073C2F200031A6021E041F29C73C2F2BF
:1056B00000034FF001021A7019E041F29C73C2F22C
:1056C00000034FF000021A7041F2A073C2F200030F
:1056D0001A6841F25C73C2F200039DF802109954FB
:1056E00002F1010241F2A073C2F200031A6041F21A
:1056F000A073C2F200031B68202BB4BF1A462022FD
:1057000041F2A073C2F200031A6003B000BD00BFF3
:10571000880E0020AFF30080AFF30080AFF300806D
:1057200000B587B001900091019B1B788DF8133074
:10573000019B03F1010303939DF81330012B02D069
:10574000022B1AD01CE04FF0000305930EE0059BDE
:10575000039AD3181A7841F27C73C2F200030599B8
:105760005B181A70059B03F101030593009B03F17D
:10577000FF32059B9A42EADC02E000F009F800BF24
:1057800007B000BDAFF30080AFF30080AFF300803F
:1057900000B583B041F25C73C2F200035B78019301
:1057A0004FF011030093019A009B9A4201DA019B8A
:1057B00001E04FF00003019340F60003C2F2000342
:1057C000019A53F8223041F27C70C2F200009847EF
:1057D00003B000BDAFF30080AFF30080AFF30080F3
:1057E00010B588B0019047F68013C0F600030FCBC8
:1057F00002AC84E80F004FF00F0306934FF0000354
:1058000007930AE0079B02AAD3181B78184600F0FA
:10581000B7FA079B03F101030793079A069B9A4285
:10582000F0DB00F0CDFA08B010BD00BFAFF3008090
:1058300000B587B0019047F69012C0F6000202ABA7
:1058400092E80300186003F1040319804FF0050388
:1058500004934FF0000305930AE0059B02AAD318B6
:105860001B78184600F08CFA059B03F101030593A1
:10587000059A049B9A42F0DB00F0A2FA07B000BD43
:1058800000B583B00190019B1B78184600F050FBD7
:1058900003B000BDAFF30080AFF30080AFF3008032
:1058A00000B585B00190019B1B781A46019B03F15E
:1058B00001031B784FEA0323D3180393019B03F1E1
:1058C00002031B781A46019B03F103031B784FEA7E
:1058D0000323D31802930398029901F071F905B0DC
:1058E00000BD00BFAFF30080AFF30080AFF30080D6
:1058F00000B585B00190019B1B781A46019B03F10E
:1059000001031B784FEA0323D3180393019B03F190
:1059100002031B781A46019B03F103031B784FEA2D
:105920000323D31802930398029901F061F905B09B
:1059300000BD00BFAFF30080AFF30080AFF3008085
:1059400000B589B0019002AB184600F0E1FF4FF0BE
:105950000003079341E0079B4FEA830308AAD3188B
:1059600053F8183C8DF81B309DF81B30184600F09A
:1059700007FA079B4FEA830308AAD31853F8183C89
:105980004FEA23238DF81B309DF81B30184600F09A
:10599000F7F9079B4FEA830308AAD31853F8183C7A
:1059A0004FEA23438DF81B309DF81B30184600F05A
:1059B000E7F9079B4FEA830308AAD31853F8183C6A
:1059C0004FEA23638DF81B309DF81B30184600F01A
:1059D000D7F9079B03F101030793079B032BBADD5C
:1059E00000F0EEF909B000BDAFF30080AFF3008026
:1059F00000B585B00190019B1B788DF80F309DF8A4
:105A00000F30184600F0BCFF05B000BDAFF30080BA
:105A100000B585B00190019B1B780393019B03F1B6
:105A200001031B784FEA0323039AD3180393019BC6
:105A300003F101031B784FEA0343039AD31803933E
:105A4000019B03F101031B784FEA0363039AD31808
:105A50000393039800F0ACFF05B000BDAFF30080E6
:105A600000B58BB0019000F01BFF06904FF02003B3
:105A700083F31188FBF70CFB069B9A684AF6AB236D
:105A8000CAF6AA23A3FB02134FEAD3030593FBF73D
:105A90001FFB4FF0000383F311884FF000030993BD
:105AA00027E04FF0000308931CE04FF0000307933A
:105AB00011E006984FF0FF31FCF742FB0490049B85
:105AC0008DF80F309DF80F30184600F059F9079BFC
:105AD00003F101030793079B022BEAD9089B03F10B
