:020000040800F2
:1000000000040020B10A0008810C0008810C0008DF
:10001000810C0008810C0008810C0008810C00088C
:10002000810C0008810C0008810C0008B10C00084C
:10003000810C0008810C0008810C0008810D00086B
:10004000810C0008B1270008810C0008810C000811
:10005000810C0008810C0008B1250008E12500088A
:10006000112600084126000871260008E121000839
:10007000112200084122000881220008C122000844
:100080000123000841230008810C0008810C0008AE
:10009000810C0008810C0008810C0008A1260008D2
:1000A000810C0008212A0008810C0008810C00083E
:1000B000810C0008810C0008810C0008612C0008EC
:1000C000212E0008810C0008810C0008810C00081A
:1000D000810C00087135000891350008810C00087A
:0C00E00021270008810C0008E12700081F
:1000F00073B96AB9002908BF0028BCBF00204FF0BF
:100100000041C4BF6FF000414FF0FF3000F040B835
:1001100082B0EC462DE9005000F00AF8DDF804E06A
:1001200002B00CBC704700BF0000000000000000DF
:100130002DE970431646804689461D4600F030F88A
:1001400000FB05F3A0FB064506FB0136069B75196F
:10015000B8EB040469EB0505C3E90045BDE870830D
:100160002DE970431646804689461D4600F0C8F9C1
:1001700000FB05F3A0FB064506FB0136069B75193F
:10018000B8EB040469EB0505C3E90045BDE87083DD
:10019000704700BF000000000000000000000000E9
:1001A00000292DE9F04F1C4685B0C0F2CB80002617
:1001B000002CC0F2C2808C4617461446054688467D
:1001C0009A46002B4AD18A426ED9B2FA82F35BB1C9
:1001D000C3F1200401FA03F830FA04F210FA03F52F
:1001E00017FA03F442EA08084FEA144A4046514617
:1001F0001FFA84FB00F00CFB51468146404600F09C
:1002000035FC280C0BFB09F340EA0148434509D9AA
:1002100018EB040809F1FF3904D2434584BF09F102
:10022000FF39A044C3EB080851464046ADB200F088
:10023000EFFA51460746404600F018FC0BFB07FB5F
:1002400045EA0145AB4505D9013F2D1902D2AB4521
:1002500088BF013F47EA0949002403E08B420CD9DB
:100260000024A1464A46234616B1524263EB43039B
:100270001046194605B0BDE8F08FB3FA83F4002CA0
:1002800040F0B3808B424FF001092CBF4FF0000CBF
:100290004FF0010C82428CBF67464CF00107002FE3
:1002A000E0D13C46B946DDE722B90120114600F015
:1002B000AFFA0446B4FA84F3002B49D1C4EB080822
:1002C000270C1FFA84FA012102913946404600F0BA
:1002D0009FFA39468146404600F0C8FB2A0C0AFBCB
:1002E00009F342EA014B5B4509D91BEB040B09F109
:1002F000FF3904D25B4584BF09F1FF39A344C3EB46
:100300000B0B39465846ADB200F082FA39468046AA
:10031000584600F0ABFB0AFB08FA45EA0145AA453E
:1003200007D92D1908F1FF3803D2AA4588BF08F173
:10033000FF3848EA0949029C94E7F643524263EBCE
:10034000430338E7404261EB41014FF0FF362FE7AE
:100350009C40C3F1200728FA07FA35FA07F2270C68
:1003600008FA03FB3946504642EA0B029D400292CE
:1003700000F04EFA39468346504600F077FB029B68
:100380001FFA84FA4FEA13490AFB0BF349EA0148C2
:10039000434505D918EB04080BF1FF3BC0F0AA80D8
:1003A000C3EB08083946404600F032FA3946814628
:1003B000404600F05BFB02980AFB09F31FFA80FC41
:1003C0004CEA0148434509D918EB040809F1FF3903
:1003D00004D2434584BF09F1FF39A04449EA0B4EDA
:1003E000C3EB0808CDF808E06FE7C4F120030AFA70
:1003F00004FADA4021FA03F842EA0A0A01FA04F997
:1004000030FA03F240464FEA1A4B42EA09010391DF
:10041000594617FA04F3029300F0FAF95946814657
:10042000404600F023FB1FFA8AF3039803FB09F20E
:10043000070C47EA0148424504D918EB0A0809F1BC
:10044000FF3951D3C2EB080859464046019300F0EA
:10045000DFF959460746404600F008FB019B039828
:1004600003FB07F31FFA80FC4CEA014C634507D9F4
:10047000013F1CEB0A0C03D2634501D9013FD44470
:1004800047EA0949029FC3EB0C0C1FFA89FE4FEAA9
:100490001943B8B23F0C00FB0EF800FB03F107FB59
:1004A0000E1207FB03F002EB1842914288BF00F5E1
:1004B000803000EB124EF44512D34FEA02421FFA8D
:1004C00088F814BF0021012102EB080C15FA04F48E
:1004D00064452CBF002401F00104002C3FF4C2AE9F
:1004E00009F1FF390024BDE6424584BF09F1FF3917
:1004F000D044A7E7434584BF0BF1FF3BA0444FE73F
:100500002DE9F04F054683B00C46174680460E464F
:10051000002B4DD18A4261D9B2FA82F353B1C3F1B3
:10052000200411FA03F630FA04F29F4042EA06066C
:1005300000FA03F83C0C304621461FFA87FA00F017
:1005400067F921468146304600F090FA4FEA18409C
:100550000AFB09F340EA0146B34208D9F61909F14A
:10056000FF3904D2B34284BF09F1FF39F619F61AF4
:10057000214630461FFA88F800F04AF92146054620
:10058000304600F073FA0AFB05FA48EA0148C24512
:1005900006D9013D18EB070802D2C24588BF013DCC
:1005A00045EA094A00263146504603B0BDE8F08FBF
:1005B0008B425BD8B3FA83F6002E5AD18B424FF0B0
:1005C000010A2CBF0024012482428CBF254644F03E
:1005D0000105002DE7D12E46AA46E4E722B9012005
:1005E000114600F015F90746B7FA87F3002B40F0E3
:1005F000B680E41B4FEA174BBDB201265946204690
:1006000000F006F959464FEA18498246204600F0A4
:100610002DFA05FB0AF349EA0144A34208D9E4197B
:100620000AF1FF3A04D2A34284BF0AF1FF3AE41967
:10063000E41A5946204600F0EBF859468146204618
:1006400000F014FA1FFA88F305FB09F543EA0148A4
:10065000454508D918EB070809F1FF3903D245458C
:1006600088BF09F1FF3949EA0A4A9CE70026B246E9
:1006700099E7C6F12001B34032FA01F724FA01F9F3
:100680001F43B44030FA01F348464FEA174843EAA3
:10069000040101914146B240009200F0B9F8414690
:1006A000BCB28246484600F0E1F9019804FB0AF327
:1006B0004FEA104B4BEA014B5B4505D91BEB070B8F
:1006C0000AF1FF3AC0F09380C3EB0B0B414658464A
:1006D00000F09EF841468146584600F0C7F901985F
:1006E00004FB09F41FFA80FC4CEA01439C4203D945
:1006F000DB1909F1FF3974D3009F49EA0A4A1C1B30
:100700001FFA8AFEB8B23A0C4FEA1A4700FB0EFCF9
:1007100000FB07F302FB0E3102FB07F201EB1C4169
:100720008B4288BF02F5803202EB114E744512D322
:100730004FEA01411FFA8CF214BF0023012301EBA1
:10074000020C15FA06F666452CBF002603F00106DA
:10075000002E3FF428AF0AF1FF3A002623E79F401E
:10076000C3F1200134FA01F614FA03F24FEA174BF1
:1007700025FA01FA3046594605FA03F84AEA020A10
:1007800000F046F85946BDB28146304600F06EF999
:100790004FEA1A4C05FB09F34CEA0144A34203D982
:1007A000E41909F1FF3928D3E41A5946204600F02C
:1007B0002FF859460646204600F058F91FFA8AF4E9
:1007C00005FB06F344EA0144A34206D9013EE419BD
:1007D00003D2A34201D9013EE419E41A46EA0946CC
:1007E0000CE79C4284BF09F1FF39DB1984E75B45C4
:1007F00084BF0AF1FF3ABB4466E7A34284BF09F114
:10080000FF39E419D0E700BF00000000000000003D
:100810004A1E08BF7047C0F02481884240F216810A
:10082000114200F01781B0FA80F3B1FA81F2A2EB25
:100830000303C3F11F0304A202EB03134FF00002F2
:100840009F4600BFAFF30080B0EBC17F00BF42EB1B
:10085000020228BFA0EBC170B0EB817F00BF42EB6A
:10086000020228BFA0EB8170B0EB417F00BF42EBDA
:10087000020228BFA0EB4170B0EB017F00BF42EB4A
:10088000020228BFA0EB0170B0EBC16F00BF42EBCA
:10089000020228BFA0EBC160B0EB816F00BF42EB4A
:1008A000020228BFA0EB8160B0EB416F00BF42EBBA
:1008B000020228BFA0EB4160B0EB016F00BF42EB2A
:1008C000020228BFA0EB0160B0EBC15F00BF42EBAA
:1008D000020228BFA0EBC150B0EB815F00BF42EB2A
:1008E000020228BFA0EB8150B0EB415F00BF42EB9A
:1008F000020228BFA0EB4150B0EB015F00BF42EB0A
:10090000020228BFA0EB0150B0EBC14F00BF42EB89
:10091000020228BFA0EBC140B0EB814F00BF42EB09
:10092000020228BFA0EB8140B0EB414F00BF42EB79
:10093000020228BFA0EB4140B0EB014F00BF42EBE9
:10094000020228BFA0EB0140B0EBC13F00BF42EB69
:10095000020228BFA0EBC130B0EB813F00BF42EBE9
:10096000020228BFA0EB8130B0EB413F00BF42EB59
:10097000020228BFA0EB4130B0EB013F00BF42EBC9
:10098000020228BFA0EB0130B0EBC12F00BF42EB49
:10099000020228BFA0EBC120B0EB812F00BF42EBC9
:1009A000020228BFA0EB8120B0EB412F00BF42EB39
:1009B000020228BFA0EB4120B0EB012F00BF42EBA9
:1009C000020228BFA0EB0120B0EBC11F00BF42EB29
:1009D000020228BFA0EBC110B0EB811F00BF42EBA9
:1009E000020228BFA0EB8110B0EB411F00BF42EB19
:1009F000020228BFA0EB4110B0EB011F00BF42EB89
:100A0000020228BFA0EB0110B0EBC10F00BF42EB08
:100A1000020228BFA0EBC100B0EB810F00BF42EB88
:100A2000020228BFA0EB8100B0EB410F00BF42EBF8
:100A3000020228BFA0EB4100B0EB010F00BF42EB68
:100A4000020228BFA0EB0100104670470CBF012036
:100A500000207047B1FA81F2C2F11F0220FA02F0C1
:100A6000704708B14FF0FF30FFF792BB0029F8D074
:100A70002DE90340FFF7CCFEBDE8064002FB00F382
:100A8000A1EB0301704700BF000000000000000060
:100A9000704700BFAFF30080AFF30080AFF300807A
:100AA000FEE700BFAFF30080AFF30080AFF300803C
:100AB00072B6634880F30988022383F31488BFF376
:100AC0006F8F604A604CA24217D213464FF05531E7
:100AD000D64343F8041BA519A342C5F380050CD2E5
:100AE00025B1196002F10803A34206D21A4642F862
:100AF000041B5960131DA342F8D3544A824217D2F3
:100B000013464FF05531D54343F8041B4419834233
:100B1000C4F380040CD224B1196002F108038342AB
:100B200006D21E4646F8041B5960331D8342F8D393
:100B300002F0DEFF464C4749A14222D246480B460E
:100B4000024652F8046BCD4343F8046B04EB050CEA
:100B5000A342CCF3800514D23DB1166800F108021F
:100B60001E6001F10803A3420BD2104650F8045B4B
:100B7000194641F8045B5668021D5E600B1DA342D6
:100B8000F3D3364A3648824217D200211346D44363
:100B900043F8041B00EB040E8342CEF380040CD216
:100BA00024B1196002F10803834206D21A4642F8C2
:100BB000041B5960131D8342F8D32A4D2A4EFFF7B8
:100BC00067FFB54219D22C4654F8043BE943771825
:100BD0009847B442C7F380070FD22FB1236805F1BD
:100BE00008049847B44208D2254655F8042B90478C
:100BF00060682C1D8047B442F6D31C4D1C4E02F099
:100C000087FFB5421AD22C46EF4354F8043B06EB5B
:100C1000070CCCF380079847B4420FD22FB122685B
:100C200005F108049047B44208D2254655F8040B54
:100C3000804761682C1D8847B442F6D3FFF730BF68
:100C40000008002000000020000400200004002014
:100C500044080020000800203059000848080020FF
:100C6000541D0020EC000008EC000008EC00000817
:100C7000EC000008AFF30080AFF30080AFF300801A
:100C8000FEE700BFAFF30080AFF30080AFF300805A
:100C900072B6FEE7AFF30080AFF30080AFF30080E1
:100CA00000F06EF900F0D4FB00F08AF900DF00BF1D
:100CB000EFF30983203383F30988002383F311883A
:100CC000704700BFAFF30080AFF30080AFF3008048
:100CD0000A4B002210B59A60094A07201021DA60F9
:100CE00000F0A6F80A204FF4007100F0A1F80B20E4
:100CF0008021BDE8104000F09BB800BF00ED00E08F
:100D00000000FA05AFF30080AFF30080AFF300807E
:100D1000202383F311881648436813F4006316D028
:100D2000EFF30983203B83F30988124A4FF0807068
:100D30009169D86171B11068D269816892689142F5
:100D400094BF002201227AB10B499961704783F365
:100D5000118870471068D26981689268914234BFE7
:100D600000220122002AEFD1044A9A61704700BF95
:100D700000ED00E0740D0020A10C0008AC0C000890
:100D800010B500F07DF9202383F3118800F038F9C5
:100D900000F0AEF800F054F9002383F3118800F05E
:100DA0008FF9BDE81040FFF7B3BF00BFAFF300807D
:100DB0002DE9F04FC1F80CD0D0F80CD0BDE8F08F81
:100DC00008B500F0FDF8002383F311882846A047FA
:100DD00000F056FC08BD00BFAFF30080AFF3008009
:100DE000F0B400F00307FE00FF2313FA06F200F050
:100DF0001F04B1400125A5408608094CC03654F8AF
:100E00002670400927EA020242EA010300F1600766
:100E100044F8263044F8275044F82050F0BC70477E
:100E200000E100E0AFF30080AFF30080AFF300809B
:100E300000F0030210B4FF23D40013FA04F2A1401F
:100E40008008064C063054F8203023EA020242EAB9
:100E5000010344F8203010BC704700BF00ED00E0F3
:100E60000248034AC3699A61FEE700BF740D00207F
:100E7000304E0008AFF30080AFF30080AFF3008086
:100E800030B583B0FFF724FF00F012FA00F0A8F9A4
:100E900000F0DEFE00F064F940210E4800F000FB97
:100EA0000D4D0E490124E86180F82040C16100F039
:100EB0004FF8002383F3118862B6EA691D46084B98
:100EC000C021936107482246074B009500F050FB74
:100ED00003B030BD48080020740D0020000400203D
:100EE000384E000890080020610E0008AFF3008023
:100EF00070B500F005F9114B9A69002A01DD013A3D
:100F00009A61DA690E4C516A2368481C5062E168A4
:100F1000481CA342E0600FD09D68013D9D605DB913
:100F200026461968DA681869DD604E6021609047CE
:100F3000236898680028F4D070BD00BF740D0020AD
:100F4000640D0020AFF30080AFF30080AFF30080AA
:100F50000548036813B9054A116821B10448054BD7
:100F60001860FFF795BE7047500900205C0D002007
:100F7000504E0008600D0020AFF30080AFF30080FA
:100F8000084810B5036853B9074C216821B1074AD6
:100F9000074B1A60FFF77CFE0120206010BD024C59
:100FA000F5E700BF500900205C0D0020584E0008F6
:100FB000600D0020AFF30080AFF30080AFF300803E
:100FC000094810B5036833B9084C2168002903DDCE
:100FD0000020206010BD054C054A064B1A60FFF743
:100FE00057FE0020206010BD500900205C0D00203D
:100FF000604E0008600D0020AFF30080AFF300806A
:10100000084810B50368002B0ADD074C216821B1A0
:10101000064A074B1A60FFF73BFE0120206010BD17
:10102000014CF5E7500900205C0D0020684E0008D7
:10103000600D0020AFF30080AFF30080AFF30080BD
:101040000A4810B50368002B06DD094C2168002909
:1010500003DD0020206010BD054C064A064B1A60D7
:10106000FFF716FE0020206010BD00BF50090020D1
:101070005C0D0020704E0008600D0020AFF3008072
:1010800010B5202383F31188094C2368002B02DB61
:10109000084802682AB1084B08491960FFF7F8FDB3
:1010A00023685A1C2260002383F3118810BD00BFFF
:1010B000500900205C0D0020600D0020784E0008D3
:1010C00010B5202383F31188094C2368002B02DD1F
:1010D000084802682AB1084B08491960FFF7D8FD93
:1010E00023685A1E2260002383F3118810BD00BFBD
:1010F000500900205C0D0020600D0020804E00088B
:1011000006480368002B04DB054A1168002900DD4E
:1011100070470448044B1860FFF7BABD500900201F
:101120005C0D0020884E0008600D0020AFF30080A9
:101130000648036823B9064A1168002900DD704794
:101140000448054B1860FFF7A3BD00BF50090020FD
:101150005C0D0020904E0008600D0020AFF3008071
:10116000034A4021134643F8081B5360704700BFF1
:1011700054090020AFF30080AFF30080AFF300808C
:1011800010B40D4A0D4C0E495368E468C9691C60DF
:101190005960846A03F110019C6090F8204002F5C8
:1011A000816081421C7328BF02F10803516028BF8F
:1011B000536010BC704700BF54090020640D00202C
:1011C000740D0020AFF30080AFF30080AFF3008018
:1011D000014B1860FFF75CBD600D0020AFF300808D
:1011E000044B4FF0FF3000225B601B609860DA60B8
:1011F000704700BF640D0020AFF30080AFF30080A4
:10120000F8B504460D4616461F46FFF779FFCCB1E8
:10121000C6B1BDB10D4927610B68E6609A68954279
:1012200004D91B68AD1A9A68AA42FAD35A688B424D
:101230002360626014605C60A56002D09868451B02
:101240009D60F8BD0248FFF7C3FFE3E7640D00208F
:10125000A04E0008AFF30080AFF30080AFF3008032
:1012600010B50446FFF74CFF84B1E36893B12368DF
:101270000A4A934203D09968A26888189860606807
:10128000002203602368E260586010BD0448FFF745
:101290009FFFEAE70348FFF79BFFE8E7640D0020A4
:1012A000B04E0008C04E0008AFF30080AFF30080DE
:1012B000044B002014225B601B6098609A615B61A4
:1012C0001B617047740D0020AFF30080AFF3008006
:1012D00010B590F8203004468BB10E2B0FD00022B1
:1012E000094BA16884F820201B6898688842FBD2CB
:1012F0005968236061600C605C60204610BD034843
:10130000FFF766FFEBE700BF740D0020E04E00081A
:1013100090F820300D2B11D8DFE803F015101007DE
:10132000100B101010101010100B816A8B685A1CD3
:101330008A60416803680B60026851604FF0FF32B9
:101340008262FFF7C5BF7047AFF30080AFF3008044
:1013500070B5114C0646FFF7EBFEE569142085F8E1
:101360002060236801211A6883F82010A06154606E
:1013700028462260E361FFF703FFEA69ADF1240329
:101380009A4202D90548FFF723FFE0692946BDE8E4
:101390007040FFF70DBD00BF740D0020F44E000833
:1013A00070B50E4686B00546FFF7C2FEB6F1FF3FA8
:1013B00012D00C4C3146E3690B4A01A8FFF720FF1D
:1013C0002846FFF7C5FF049B13B101A8FFF748FFAC
:1013D000E069806A06B070BD2846FFF7B9FF014C8E
:1013E000F6E700BF740D002011130008AFF3008072
:1013F00070B5154D04460E46FFF79AFEE869A268DF
:101400008368A6629A4215D9FFF762FF012314226E
:10141000064684F82030AA61EC61FFF7B1FEF0695E
:10142000ADF1240188420AD820463146BDE870401B
:10143000FFF7BEBC2046BDE87040FFF749BF034838
:10144000FFF7C6FEF0E700BF740D0020F44E000861
:1014500070B5104C01212368E5691A681420A06159
:1014600083F82010546028462260E361FFF730FFC4
:101470002846FFF785FEEA69ADF124039A4202D9B6
:101480000548FFF7A5FEE0692946BDE87040FFF773
:101490008FBC00BF740D0020F44E0008AFF3008035
:1014A000F0B400220E4C022580F8205080F8212054
:1014B000656900F1300600F12C0C00F14807046169
:1014C00081604561416460610264C263426282611D
:1014D0002861C0F82CC046630663C761F0BC704742
:1014E000740D0020AFF30080AFF30080AFF30080F5
:1014F000F8B504460D4616461F46FFF701FE0CB12F
:10150000AF2D28D81648FFF763FE243D6119E1602E
:1015100006986751134F0023134A022548600F6253
:1015200084F8205084F82130506904F1300104F12E
:101530002C0704F1480522616061A660666454616D
:1015400023640461E3636362A361E762616321630F
:10155000E5612046F8BD7F2ED4D8002FD5D1D1E744
:10156000104F0008C10D0008740D0020AFF300807B
:10157000F0B504460D461F4683B016464830234654
:10158000FF211A4602F8011B5970531C8342F8D1FF
:101590006019834215D25521DA4303F8011B00EB91
:1015A000020C83420CF001020BD01AB103F8011BAC
:1015B000834206D01A4602F8011B5970531C83421D
:1015C000F8D1202383F31188FFF7DAFC2046089C2A
:1015D0003B46324629460094FFF78AFF0021044625
:1015E000FFF706FFFFF7ECFC002383F3118820468A
:1015F00003B0F0BDAFF30080AFF30080AFF3008025
:1016000010B5044610B90948FFF7E2FD202383F323
:101610001188FFF7B5FC21460620FFF7C1FEFFF752
:10162000CFFC002383F3118810BD00BF504F00088A
:10163000114B70B5DC69254655F82C3FA062AB42D2
:1016400007D01A681846E262FFF742FEE36AAB422F
:10165000F7D194F8210010F0030F04D163692269D7
:101660001A6121694B610E20FFF772FE0348BDE845
:101670007040FFF7ADBD00BF740D0020604F000843
:1016800010B52023044683F31188FFF779FC204628
:10169000BDE81040FFF7CCBFAFF30080AFF3008090
:1016A00010B5044620B1002364602460A36010BD1F
:1016B0000348FFF78DFD002364602460A36010BD24
:1016C000A04F0008AFF30080AFF30080AFF30080BD
:1016D0003B4B2DE9F0410546DC69FFF729FD002D64
:1016E0006AD0A868002836D0A2688168914208D2E2
:1016F00090F820308260042B46D0052B31D0002B8F
:101700001ED02B461B689D4203D09868A168884272
:10171000F8D25A682360626004205C601460A5629D
:10172000FFF716FEAB68A34202D02648FFF750FD34
:10173000206CA84213D02448BDE8F041FFF748BD13
:101740004368026801211A60026880F82010536023
:10175000FFF7BEFDD5E7216CAC60E9602564BDE80C
:10176000F08141680768866A0F60076833467960D0
:101770001B689E4202D099689142F9D25A68036070
:10178000426010605860BCE741680768866A0F6075
:101790000768334679601B689E4202D0996891427F
:1017A000F9D25A680360426010605860B068A2685D
:1017B000836893429CD3A4E70448FFF709FD90E7B0
:1017C000740D0020C04F0008D44F0008B04F00082F
:1017D00010B52023044683F31188FFF7D1FB204680
:1017E000FFF776FFFFF7ECFB002383F3118810BDB2
:1017F000214A70B52023D56983F31188FFF7C0FB18
:101800002C6C002C33D0A368AB4203D01B48FFF7ED
:10181000DFFC2C6C2368E268A3422A641ED0686C4B
:101820004AB11168914203D08968884238BF08469E
:10183000D268002AF5D11A681E6CA86000212260C7
:1018400018465460A360E6601C64FFF7D1FDFFF703
:10185000B7FB002383F31188204670BD0020A060F1
:10186000FFF7AEFB002383F31188204670BD0448C8
:10187000FFF7AEFC2C6CC6E7740D0020105000087A
:10188000FC4F0008AFF30080AFF30080AFF300809F
:1018900038B504460D46FFF733FCBCB1E26B94F853
:1018A00020301543082BE5630CD0092B00D038BD40
:1018B000A06A0540A842FAD12046FFF709FD0021A1
:1018C000816238BDA36A1D42F6D138BD0148FFF7D9
:1018D0007FFCE3E77C500008AFF30080AFF30080AB
:1018E00070B505460E46FFF70BFC65B12C68AC429F
:1018F00008D0A168606846EA0101FFF7C9FF2468C3
:10190000AC42F6D170BD0248FFF762FCEEE700BFC3
:10191000A0500008AFF30080AFF30080AFF3008069
:1019200010B4034619B94FF0FF3010BC7047064C95
:101930000D20E26993625C68136054605A60226013
:1019400010BCFFF72DBD00BF740D0020AFF3008069
:1019500010B48A1800244060006084604161816195
:10196000C1600261C36110BC704700BFAFF300806B
:1019700038B504460D46FFF7C3FB6369A26993427D
:1019800019D0A268511CA16003F8015B2069636152
:10199000834228BFE368206828BF6361A04208D063
:1019A000026822605460FFF793FC002383621846AC
:1019B00038BD002038BDA268002AE3D06FF00300D4
:1019C00038BD00BFAFF30080AFF30080AFF30080FD
:1019D000F8B504460D46202383F31188FFF7D0FAAB
:1019E000E3690BB120469847A6682046294656B9B8
:1019F000FFF796FF071EF7DAFFF7E2FA334683F3A5
:101A000011883846F8BDA369013EA66013F8017B32
:101A10002269A361934224BFE368A361FFF7D0FA70
:101A2000002383F311883846F8BD00BFAFF3008070
:101A30002DE9F0470446904689461D46C769002AAD
:101A400037D0202383F31188FFF79AFA00260FB1CD
:101A50002046B847D4F808A020462946BAF1000F1E
:101A60000BD1FFF75DFF0028F4D0FFF7A9FA53462A
:101A700083F311883046BDE8F087A3690AF1FF318E
:101A8000A16013F8010B09F806002269A3619342D3
:101A900024BFE368A361FFF793FA002383F311885F
:101AA00001364645E6D0202383F31188FFF768FA14
:101AB000CDE70248FFF78CFBC3E700BFE05000080A
:101AC00010B48C1840600060826041618161C16027
:101AD0000461C36110BC7047AFF30080AFF30080B6
:101AE0002DE9F041202304460D46164683F3118864
:101AF000FFF746FAA7682046314667B9FFF710FF9F
:101B0000B0F10008F6DAFFF75BFA3B4683F3118881
:101B10004046BDE8F0816369013FA76003F8015BBF
:101B200022696361934224BFE3686361E3690BB197
:101B300020469847FFF744FA002383F3118898461C
:101B40004046BDE8F08100BFAFF30080AFF30080F6
:101B500038B50446FFF7D4FAA36962699A4217D0F0
:101B6000A268511CA16013F8015B2069A361834244
:101B700028BFE368206828BFA361A04206D002689E
:101B800022605460FFF7A4FB00238362284638BD1F
:101B9000A268002AE5D06FF0020038BDAFF30080E4
:101BA0002DE9F047044615460E469946D0F81C80AC
:101BB000002A40D0202383F31188FFF7E1F90027A2
:101BC000D4F808A020460AF1FF33BAF1000F24D060
:101BD000A3603178636903F8011B22696361934252
:101BE00024BFE3686361B8F1000F00D0C047FFF77E
:101BF000E7F9002383F311880137013D18D001363E
:101C0000202383F31188FFF7BBF9D4F808A02046FE
:101C10000AF1FF33BAF1000FDAD120464946FFF747
:101C20007FFE0028CCD0FFF7CBF9534683F3118811
:101C30003846BDE8F0870248FFF7CAFABAE700BFA6
:101C4000F4500008AFF30080AFF30080AFF30080E2
:101C5000054B064A064823F00701064B116020F0A9
:101C600007021A60704700BF5B1D0020980D00201E
:101C700000500020940D0020AFF30080AFF30080EF
:101C800010B500F0FDFB084801F052FE00F010F81E
:101C900000F096F800F004F900F0E2F900F068FABC
:101CA000BDE8104001F02CBF90570008AFF3008052
:101CB00000F0AEBDAFF30080AFF30080AFF3008063
:101CC0000121002301704360704700BFAFF3008023
:101CD00038B504460D46C8B1C1B1202383F311883D
:101CE000FFF74EF92178481EC3B2012B02D90948EB
:101CF000FFF76EFA2046656000F092FD0222227026
:101D0000FFF75EF9002383F3118838BD0248FFF71F
:101D10005FFAE2E72051000810510008AFF300809D
:101D200038B504460D4608B1122917D90E48FFF7F9
:101D30004FFA202383F31188FFF722F92178022933
:101D400002D00A48FFF744FA2046294600F020FE58
:101D5000FFF736F9002383F3118838BD406850F847
:101D60003130002BE5D1E1E74C5100086451000807
:101D700038B504460D4608B1122917D90E48FFF7A9
:101D800027FA202383F31188FFF7FAF82178022934
:101D900002D00A48FFF71CFA2046294600F028FE28
:101DA000FFF70EF9002383F3118838BD406850F81F
:101DB0003130002BE5D1E1E77C5100089451000857
:101DC00000F04EBEAFF30080AFF30080AFF30080B1
:101DD0000121002301704360704700BFAFF3008012
:101DE00038B504460D46C8B1C1B1202383F311882C
:101DF000FFF7C6F82178481EC3B2012B02D9094863
:101E0000FFF7E6F92046656000F03AFE02222270F4
:101E1000FFF7D6F8002383F3118838BD0248FFF797
:101E2000D7F9E2E7BC510008B0510008AFF30080D9
:101E300070B504460D46FFF763F96CB12378022BA9
:101E400002D00748FFF7C4F9032020702946204636
:101E5000BDE8704000F054BE0248FFF7B9F9EDE765
:101E600000520008E8510008AFF30080AFF3008093
:101E700038B505460C46202383F31188FFF780F818
:101E800028462146FFF7D4FFFFF79AF8002383F393
:101E9000118838BDAFF30080AFF30080AFF300804E
:101EA00001F07EB8AFF30080AFF30080AFF30080A5
:101EB0000121002301704360704700BFAFF3008031
:101EC00038B504460D46D8B1D1B12378581EC2B2F8
:101ED000012A04D9052B02D00B48FFF779F92023FA
:101EE00083F31188FFF74CF82046656001F070F825
:101EF00002232370FFF764F8002383F3118838BDB1
:101F00000248FFF765F9E0E7A05200089052000888
:101F10002DE9F04784B00446884691461D46DDF819
:101F200030A00D9E0E9F08B100292AD11C48FFF752
:101F30004FF92378022B02D01A48FFF749F92023E2
:101F400083F31188FFF71CF800210320A1602070A3
:101F50002B46204641464A46CDF800A001960297FE
:101F600001F09EF9B0F1FF3F054615D00223237022
:101F7000FFF726F8002383F31188284604B0BDE854
:101F8000F087002BD2D0002AD0D016B1BAF1000FC2
:101F9000CCD0002FCDD1C9E705222270E8E700BFE1
:101FA000E052000800530008AFF30080AFF3008058
:101FB000806BD0F1010038BF00207047AFF3008084
:101FC0008069D0F1010038BF00207047AFF3008076
:101FD00070B52023044683F311880026FEF7D0FF56
:101FE000A568A660FEF7ECFF334683F31188284608
:101FF00070BD00BFAFF30080AFF30080AFF300808F
:102000001030FFF715BD00BFAFF30080AFF30080C5
:1020100010304FF0FF33FFF70BBD00BFAFF3008070
:102020003030FFF7BDBD00BFAFF30080AFF30080DD
:1020300030304FF0FF33FFF7B3BD00BFAFF3008088
:102040001030FFF7C5BC00BFAFF30080AFF30080D6
:102050003030FFF745BD00BFAFF30080AFF3008025
:1020600001F0A6BAAFF30080AFF30080AFF30080B9
:102070000B460F4970B50646044646F8041B6660D9
:102080000026A66001261546103004F150014FF4D9
:1020900000722673FFF75CFC04F1300004F5147144
:1020A0004FF400722B46BDE87040FFF709BD00BF3A
:1020B000C0530008AFF30080AFF30080AFF300809F
:1020C00038B504460D46C0B1202383F31188FEF7CE
:1020D00057FF217B481EC3B2012B02D90948FFF7E5
:1020E00077F82046294601F083FA02222273FEF790
:1020F00067FF002383F3118838BD0348FFF768F8B2
:10210000E2E700BF6C53000860530008AFF30080A3
:1021100070B504460D46FEF7F3FF002C21D0A169EF
:1021200039B104F110002946FFF722FC00280EDB2C
:1021300070BDA268201D42F00403A360FFF7D0FB2E
:1021400004F110002946FFF713FC0028F0DAA36819
:10215000201D43F08001A1600021BDE87040FFF721
:10216000BFBB0248FFF734F8D9E700BF9853000817
:1021700001F0CEBAAFF30080AFF30080AFF3008080
:102180000121002301704360704700BFAFF300805E
:1021900038B504460D46C8B1C1B1202383F3118878
:1021A000FEF7EEFE2178481EC3B2012B02D9094882
:1021B000FFF70EF82046656001F0E2FA0222227075
:1021C000FEF7FEFE002383F3118838BD0248FEF7B8
:1021D000FFFFE2E700540008F0530008AFF300806F
:1021E00010B5FEF74DFF0848084A03680F24116830
:1021F000546013B1406821409847FEF761FFBDE885
:102200001040FEF785BD00BF9C0D0020000002407D
:1022100010B5FEF735FF0848084A8368F0241168B6
:1022200054601BB1C068C1F303119847FEF748FF23
:10223000BDE81040FEF76CBD9C0D00200000024080
:1022400010B5FEF71DFF0948094A03694FF4706491
:10225000116854601BB14069C1F303219847FEF730
:102260002FFFBDE81040FEF753BD00BF9C0D0020BE
:1022700000000240AFF30080AFF30080AFF30080B6
:1022800010B5FEF7FDFE0948094A83694FF4704412
:10229000116854601BB1C069C1F303319847FEF760
:1022A0000FFFBDE81040FEF733BD00BF9C0D0020BE
:1022B00000000240AFF30080AFF30080AFF3008076
:1022C00010B5FEF7DDFE0948094A036A4FF4702491
:1022D000116854601BB1406AC1F303419847FEF78F
:1022E000EFFEBDE81040FEF713BD00BF9C0D0020BF
:1022F00000000240AFF30080AFF30080AFF3008036
:1023000010B5FEF7BDFE0948094A836A4FF4700410
:10231000116854601BB1C06AC1F303519847FEF7BE
:10232000CFFEBDE81040FEF7F3BC00BF9C0D0020BF
:1023300000000240AFF30080AFF30080AFF30080F5
:1023400010B5FEF79DFE0948094A036B4FF0706413
:10235000116854601BB1406BC1F303619847FEF7ED
:10236000AFFEBDE81040FEF7D3BC00BF9C0D0020BF
:1023700000000240AFF30080AFF30080AFF30080B5
:10238000124BF0B4D3F800C0DF689E695D6A1C6B25
:10239000D86B996C0023CCF800300D4ADFF838C0B8
:1023A0003B601360336093602B6013612360936123
:1023B0000360136293621363CCF800300B60054B2B
:1023C0004FF0FF325A60F0BC704700BF6055000804
:1023D0009C0D002000000240D40D0020AFF30080CF
:1023E000F0B5044685B0002833D0667A012505FA99
:1023F00006FC1D4F38681CEA000F26D11B4D4CEA25
:10240000000010F07F0F05EBC60C45F83620CCF825
:102410000430386004D0164B5F6947F001065E61F6
:10242000236860681F6827F001051D60267A0F2762
:1024300017FA06F6002506601D6042B1A07A090170
:10244000FEF7CEFC284605B0F0BD2846FBE7104657
:10245000F9E70848039102920193FEF7B9FE019B48
:10246000029A0399C1E700BFD40D00209C0D002003
:102470000010024020550008AFF30080AFF3008049
:10248000224B00224FF0FF3030B421491C6900F587
:102490000C3C18611A61DD68D8600CF52070DA60B8
:1024A0001C4C486007208A600860E1681A4841F0C7
:1024B0008071E1600468194944F001040460D8693E
:1024C00040F08050D861D86940F00060D861086859
:1024D00040F480700860186A00F44071B1F5407FE4
:1024E00003D04FF4803119621A62084B1A6A12F451
:1024F000004F07D1186A40F440721A62196A41F419
:102500000040186230BCFFF73BBF00BF0010024024
:1025100010E000E0F0ED00E0001000E0007000408E
:102520001F4B1868194640F001021A600B681C4ADC
:1025300013F0020FFAD01368002003F0F9011160C4
:10254000114650604868164A10F00C0FFAD1106816
:10255000114640F4803313600B68114A13F4003FB6
:10256000FAD05368114643F4E8105060136843F002
:102570008070106008680A4A10F0007FFAD009489D
:10258000094B1221506019605068114640F0020357
:1025900053604A6802F00C0CBCF1080FF9D1704787
:1025A0000010024000641D0000200240AFF30080D4
:1025B00010B5FEF765FD0748074A4368012400216E
:1025C00054615B689847FEF77BFDBDE81040FEF75D
:1025D0009FBB00BFD80D002000040140AFF3008076
:1025E00010B5FEF74DFD0748074A43680224012154
:1025F0005461DB689847FEF763FDBDE81040FEF7C5
:1026000087BB00BFD80D002000040140AFF300805D
:1026100010B5FEF735FD0748074A43680424022138
:1026200054615B699847FEF74BFDBDE81040FEF72B
:102630006FBB00BFD80D002000040140AFF3008045
:1026400010B5FEF71DFD0748074A4368082403211B
:102650005461DB699847FEF733FDBDE81040FEF793
:1026600057BB00BFD80D002000040140AFF300802D
:1026700010B5FEF705FD0748074A436810240421FA
:1026800054615B6A9847FEF71BFDBDE81040FEF7FA
:102690003FBB00BFD80D002000040140AFF3008015
:1026A00010B5FEF7EDFC1B4A536903F4787413F080
:1026B000200F546128D114F0400F1FD114F0800F67
:1026C00016D114F4807F0DD114F4007F04D0124889
:1026D00009214268D36C9847FEF7F2FCBDE8104030
:1026E000FEF716BB0C4808214268536C9847EBE78D
:1026F000094807214268D36B9847E2E7064806215C
:102700004268536B9847D9E7034805214268D36A6A
:102710009847D0E700040140D80D0020AFF30080B7
:1027200010B5FEF7ADFC204A536903F47C4413F462
:10273000806F546131D114F4006F28D114F4805F9C
:102740001FD114F4005F16D114F4804F0DD114F48E
:10275000004F04D015480F214268D36F9847FEF709
:10276000AFFCBDE81040FEF7D3BA10480E21426816
:10277000536F9847EBE70D480D214268D36E984799
:10278000E2E70A480C214268536E9847D9E70748A8
:102790000B214268D36D9847D0E704480A2142686C
:1027A000536D9847C7E700BF00040140D80D0020D3
:1027B00010B5FEF765FC0848084A43684FF48034BA
:1027C00010215461D3F884309847FEF779FCBDE8B6
:1027D0001040FEF79DBA00BFD80D00200004014054
:1027E00010B5FEF74DFC0848084A43684FF48024B2
:1027F00012215461D3F894309847FEF761FCBDE88C
:102800001040FEF785BA00BFD80D0020000401403B
:102810000148FFF755BA00BFD80D0020AFF3008084
:102820002DE9F04105780446012D7DD0626800262F
:102830001368012413F0040F3746B44635460CD014
:102840005168002918BF254608BFA44613F0010FA0
:1028500000D0012713F0020F64D10123082132E0D8
:1028600004FA03F845EA080510F0010F1CBF04FA4A
:1028700003F847EA080710F0020F02D014FA03F039
:10288000064308315058013310F0040F17D002EB03
:102890000108D8F80480B8F1000F3ED004FA03F81C
:1028A00045EA080510F0010F03D004FA03F847EADF
:1028B000080710F0020F02D014FA03F006430133A8
:1028C0000831132B0FD0505810F0040FD9D002EB61
:1028D0000108D8F80480B8F1000FC1D104FA03F858
:1028E0004CEA080CC0E7B2F89E10B2F89880B2F833
:1028F0009A40B2F89C00214A214BC2F80880D4606B
:10290000106151611F4A002119619F60DE605A61A8
:10291000C3F804C01D60BDE8F08104FA03F84CEA76
:10292000080CBFE7012698E706206021FEF758FA59
:1029300007206021FEF754FA08206021FEF750FAC4
:1029400009206021FEF74CFA0A206021FEF748FAC0
:1029500017206021FEF744FA60212820FEF740FA94
:1029600028466021FEF73CFA29206021FEF738FA5C
:102970002A206021FEF734FA58E700BF000001402A
:1029800000040140FFFF0700AFF30080AFF30080B9
:10299000436810B403EBC1004268FAB1012414FA91
:1029A00001F0124A14682043106053F8313013F0DC
:1029B000010F06D0012414FA01F00C4A9468204358
:1029C000906013F0020F07D0012313FA01F0074BB8
:1029D000DA6840EA0201D96010BC7047012414FA99
:1029E00001F0024A546820435060DEE700040140D1
:1029F000012212FA01F3094AD843116800EA0101E1
:102A00001160516800EA01015160916800EA01011A
:102A10009160D1680840D060536170470004014064
:102A200010B5FEF72DFB0B4B00201978DA6804294E
:102A3000108204D1022119701080108290815A688E
:102A4000044853689847FEF73BFBBDE81040FEF78B
:102A50005FB900BFE00D0020AFF30080AFF300804E
:102A6000024B034A1846DA60FFF7B2B9E00D0020C6
:102A7000002C0140AFF30080AFF30080AFF3008083
:102A800038B503780446012B16D06368A0681A682D
:102A9000B0FBF2F14D1EADB205FB022C604502D039
:102AA0001048FEF795FBE1680023082200200B8008
:102AB0008A800D85888138BD0B498842E5D10B4D50
:102AC0001920AB6943F40061A961EA68702142F4FE
:102AD00000630022EB60EA60FEF782F90448A06020
:102AE000D3E700BFC0550008E00D002000100240F1
:102AF00000A24A04AFF30080AFF30080AFF3008080
:102B0000C368012200200139D9629A825862188272
:102B10009A8105221A807047AFF30080AFF30080DE
:102B2000C269036A30B40021146848F200051D80B0
:102B300019809980998223680F2123F00103236073
:102B4000147A836911FA04F450681A6804601468EE
:102B5000586824F0010414601B7A9940016030BC6D
:102B6000704700BFAFF30080AFF30080AFF3008089
:102B700070B5C46805465CB1FFF7D2FF0020E8607D
:102B80004FF0FF332046A362BDE87040FEF7A0BBC4
:102B900070BD00BFAFF30080AFF30080AFF30080E3
:102BA00011F0080F38B50546046A01D0FEF770F839
:102BB000EB691A685968106820F0010010601B7AF0
:102BC0000F2010FA03F20A60A18888B240F4007363
:102BD000A38038BDAFF30080AFF30080AFF3008077
:102BE00011F0080F70B50446056A36D1A66932683F
:102BF0007168106820F001031360307A0F2212FA16
:102C000000F30B6094F8246006B170BDB5F804E0E1
:102C100020232EF480510804020CAA80B5F800C0CD
:102C20002CF480610804020C2A8029881FFA81FE96
:102C30004EF4007CA5F800C083F31188FEF7E0F99C
:102C4000E36823B1E66018469E62FEF741FBFEF79B
:102C5000F7F9002383F3118870BDFEF719F8C5E773
:102C60002DE9F041684CFEF70BFA256A94F8243000
:102C70002A8BAE8AB6B2C3B946EA0242634B22F04F
:102C80007F429A4274D05CD8581E824203D1B4F875
:102C900010C0A5F810C016F00A0F00D02B8BFEF75D
:102CA0000FFABDE8F041FEF733B816F00A0F05D071
:102CB000AE8A00232A8BB6B22363236416F0800FFA
:102CC0000ED0206CA26B216B12F800E0E26B431C6B
:102CD0009142A5F810E0236402D34B4B0021196404
:102CE00016F0400F0DD0226BB5F810C0A16A531C2E
:102CF00001F802C0E06A2363834202D3424B002002
:102D0000186316F0100F0CD0AE8A2988636B1FFA77
:102D100081FC4CF0010EB6B2A5F800E00BB13A48C8
:102D2000984716F4806FBAD0B5F814E0636C2EF4AF
:102D300080610804020CAA82002BB0D03248984768
:102D4000ADE7334B9A4232D0991C8A42A3D1A26993
:102D500017687F68002F38D02B88B4F810C098B25D
:102D60004CF0010140F4A06E2182A5F800E096E746
:102D7000B5F804C0A2692CF4007003041268190CA1
:102D8000A980106840F001031360A98888B240F45C
:102D9000805EA5F804E05368012B3FF67CAFB5F8E0
:102DA00000E02EF480621304190C298073E7B5F853
:102DB00004C0E0692CF40073190400680A0CAA80AE
:102DC000036843F00101016065E7B5F804C0202302
:102DD0002CF400710A04100CA88029881FFA81FEC7
:102DE0004EF400722A8083F31188FEF709F9E06837
:102DF00018B18762E760FEF76BFAFEF721F900234E
:102E000083F3118847E700BFF00D002002000300A4
:102E100082000700AFF30080AFF30080AFF30080C3
:102E20002DE9F0415D4DFEF72BF92C6A202383F349
:102E30001188FEF7E5F8EA69AB691068566807681B
:102E40000F2127F001070760107A1A6811FA00F0C5
:102E500030601668586826F0010616601B7A9940A3
:102E60000160FEF7EDF8002383F31188A68A16F4BB
:102E7000807607D0B4F814C001262CF480721304B5
:102E8000190CA182B4F814E01EF4007F07D0A28AC6
:102E900046F0020622F400731904080CA08295F88B
:102EA00024103E4800293AD1B4F814C01CF4806FB5
:102EB00041D1A08A10F4006F08D0B4F814E046F0B5
:102EC00008062EF4006211040B0CA382B4F814C09F
:102ED0001CF4805F07D0A28A46F0100622F48051CD
:102EE0000B04180CA082B4F814E01EF4804F08D034
:102EF000B4F814C046F020062CF480410B04180CE2
:102F0000A082B4F814E00FFA8EF2002A2ADB002E19
:102F10002ED1FEF7D5F8BDE8F041FDF7F9BEB4F8C3
:102F200014C0436C2CF4806211040A0CA282002BA2
:102F3000BFD09847BDE7B4F814E046F004062EF47D
:102F400080610A04130CA382B4F804C02CF400704E
:102F500001040A0CA280238898B240F4007EA4F8F1
:102F600000E0A6E7A18A46F040064B04580CA08278
:102F7000AE60202383F31188FEF742F8E86838B189
:102F8000064B6FF0010100228162DA60FEF7A0F9C2
:102F9000FEF756F8002383F31188BAE7F00D0020FE
:102FA00010B5074C2046FEF783FF064B0649A3F1F8
:102FB0000C020020E0602162A361E26110BD00BF4D
:102FC000F00D0020A855000800540040AFF3008029
:102FD00002788A23012A2DE9F04104464361056AFB
:102FE00000F0A1802F464FF09A089C466068E26985
:102FF000A66913683168466805F11002C3F80080BD
:1030000090F80880C1F800C000208A6048F2000CE7
:103010004FF41061002E9A60A5F800C02880A980A6
:1030200052DD8B4B9E424FDCB7F804C02CF03F00C2
:1030300001040B0CBB80BA88864990B240F0240C86
:103040008E42A7F804C043DCB8F1010F02D08248D9
:10305000FEF7BEF88148760090FBF6F106FB01F81A
:103060007E4BC8EB0302002A40F0A5807B4A92FB0E
:10307000F6F6B6B2032E40F2948025214FEA065CA4
:10308000B6F5805F39844FEA1C5802D37448FEF7C6
:103090009FF86268216A1278A7F81C80B1F800C016
:1030A000022A1FFA8CF32DD0032A70D0012A03D1F3
:1030B00023F00A0003041B0C0B80288883B243F022
:1030C00001012980BDE8F0816648FEF781F8ABE791
:1030D0006548864224DCA8F10203DAB2012A75D9D8
:1030E0006248FEF775F848F6FF7862680B20216A9F
:1030F00038841278A7F81C80B1F800C0022A1FFAA1
:103100008CF3D1D143F002024FF6F77C02EA0C03B4
:103110000B80288883B243F001012980BDE8F0814B
:103120004FF00008B5E7524EB0427FF45BAF514F0D
:103130004FF0000E3B69806943F40018C7F8108017
:103140000A214D4A2346C7F810E0FFF749F9002845
:1031500076D1F0690A21494A454BFFF741F9002829
:103160006AD1444F1F20FB69A02143F40012FA6189
:10317000FDF736FE2020A021FDF732FE7069376A88
:1031800040F4805CC6F814C04CF010082EE743F001
:103190000A030B80288883B243F001012980BDE82F
:1031A000F0813748FEF714F84FEA065825234FEA16
:1031B00018583B846DE73348FEF70AF8274A92FB1C
:1031C000F6F6B6B2032E3FF658AFEAE7B8F1020FB3
:1031D00016D1224A06EB460692FBF6FC06FB0CF8DB
:1031E0001E48C8EB000139B91C4890FBF6F63105C2
:1031F0000B0D43F4004878E72348FDF7E9FFF3E7B8
:10320000B8F1030F20D106EB8606144906EB8606BB
:1032100091FBF6FC06FB0CF8104BC8EB03023AB925
:103220000E4991FBF6F31A05100D40F440485CE797
:103230001648FDF7CDFFF3E71548FDF7C9FF90E706
:103240001448FDF7C5FF84E748F6FF784DE700BF57
:1032500000093D00A086010020560008005125020B
:10326000B056000808560008801A06006856000884
:10327000F00D002000100240E12B0008A12B0008F7
:103280005056000838560008805600089856000826
:10329000F4550008E0550008AFF30080AFF300805C
:1032A0002DE9F04F87B0119F0646884691469A4611
:1032B000DDF840B0129D046A27B1012F5DD9BBF142
:1032C000000F5AD0B5F1FF3F05D001A829463C4A6E
:1032D0003346FDF795FFFDF773FE002383F3118856
:1032E000F269B069116802684FEA4808A6F81080D0
:1032F000B360C1F80C90C1F804A0C2F80CB05760DC
:1033000004E0FDF75DFE002383F31188B4F818C0D4
:1033100020231CF0020F03D1278817F400770CD06C
:1033200083F31188FDF72CFEB5F1FF3FE9D0049B34
:10333000002BE6D14FF0FF301CE083F31188FDF73E
:103340001FFEB5F1FF3F1CD186F82470A3881D4DE8
:1033500099B241F4007CA4F804C02288EB6990B2D1
:1033600040F4807EA4F800E00220F360FDF7F0FF57
:10337000E869806A07B0BDE8F08F1348FDF728FFC1
:10338000A0E704990029D5D086F82470A1880D4DB6
:103390008AB242F40070A0802388E9691FFA83FC96
:1033A0004CF4807EA4F800E00220F160FDF7D0FF2D
:1033B000049A002ADCD001A8FDF752FFD8E700BF2D
:1033C000712B0008740D0020EC560008AFF300804C
:1033D000034B998988B240F080029A81704700BF00
:1033E00000380140AFF30080AFF30080AFF30080FE
:1033F000034B998988B240F080029A81704700BFE0
:1034000000440040AFF30080AFF30080AFF30080D2
:103410002DE9F843D0F850640546B7893488BFB227
:10342000A4B214F00F0FB6F8048025D014F00809E8
:1034300018BF4FF0800914F0010F18BF49F02009A0
:1034400014F0020F18BF49F0400914F0040F18BF20
:1034500049F48079202383F31188FDF7D1FDA96811
:10346000281D41EA0903AB600021FEF739FAFDF798
:10347000E7FD002383F3118814F4807F3BD114F01F
:10348000200F28D117F0800F02D014F0800F4CD1FC
:1034900014F0400F1DD0202383F31188FDF7B0FDF9
:1034A000AA68281D42F01003AB600021FEF718FA4D
:1034B000FDF7C6FD002383F311884FF6BF7007EABE
:1034C0000001B181B6F800C02CF040021304180CC2
:1034D0003080BDE8F883202383F31188FDF790FD49
:1034E00028465FFA88F1FEF713FEFDF7A9FD0023D9
:1034F00083F31188C6E7202383F31188FDF780FD4D
:10350000A968281D41F40072AA600021FEF7E8F9BD
:10351000FDF796FD002383F31188B6F800C02CF464
:1035200080731A04100C3080A9E7202383F31188DC
:10353000FDF766FD05F13000FEF70AFB002806DB0B
:10354000B080FDF77DFD002383F31188A0E7A96813
:10355000281D41F00802AA600021FEF7C1F927F0FA
:10356000C00343F04000B081EBE700BFAFF3008041
:1035700010B5FDF785FD0448FFF74AFFFDF7A0FDF4
:10358000BDE81040FDF7C4BB380E0020AFF300804B
:1035900010B5FDF775FD0448FFF73AFFFDF790FD04
:1035A000BDE81040FDF7B4BB8C120020AFF30080E3
:1035B00038B5094D00212846084A094CFEF758FD48
:1035C000084B20460021084AC5F85034FEF750FD4C
:1035D000064BC4F8503438BD380E0020D1330008F3
:1035E0008C12002000380140F133000800440040F4
:1035F00038B5037B1E4C0546002918BF0C46012B2D
:103600001BD020681B4AD5F85034B2FBF0F1198169
:10361000A288B4F806C0218942F4045040F02C027C
:103620004CF040009A8141F0010C18820020A3F870
:1036300014C018801A889B8838BD0F4988420CD066
:103640000E498842DDD10E4B2620DA69C02142F4B2
:103650000032DA61FDF7C4FBD3E7094B25209A69F4
:10366000C02142F480429A61FDF7BAFBC9E700BF6E
:103670001057000800512502380E00208C1200203F
:1036800000100240AFF30080AFF30080AFF3008082
:1036900011F0080F00D17047FDF7FABAAFF30080C0
:1036A00011F0080F70B5044625D12269E36810684F
:1036B000556806680F2126F001060660107A1A6820
:1036C00011FA00F028601568606825F001051560A2
:1036D0001D7A5A68A940036811604BB1042121701A
:1036E0002046984794F800C0BCF1040F06D070BD86
:1036F0000222227070BDFDF7CBFAD6E702232370B9
:1037000070BD00BFAFF30080AFF30080AFF3008067
:103710002DE9F041124A134D4FF0FF37124C134E72
:1037200017802846FEF72CFD114B06F10C0141F2E3
:103730000A0841F218072046AB60EE602961C5F81F
:103740001480AF61FEF71CFD0A4A06F11803243607
:10375000A260E3602661C4F81480A761BDE8F0812F
:10376000E0160020E4160020001700206C55000829
:103770000030014000380040AFF30080AFF300801C
:1037800038B503780446012B28D0836860684289E5
:1037900012F4006F19D0A169606921F4506C20F413
:1037A000506040F4A0604CF4A0616061A16142F4FB
:1037B00041720021072019801A80988019881FFA09
:1037C00081FC4CF040021A8038BD6069A16920F488
:1037D000406021F440616061A161E8E7234DA842A7
:1037E0000CD0234DAC421DD0E1682269A368086863
:1037F000116803F10C0282608A60C7E7C068072184
:103800001C4A2346FEF7ECFD20BB286907211A4A13
:10381000164BFEF7E5FDC8B91848816941F480529E
:103820008261DEE7E0680721124A2346FEF7D8FDF1
:10383000C0B928690721104A0D4BFEF7D1FD68B9C0
:103840000E4BD86940F48042DA61CDE70C48FDF7B1
:10385000BFFCE1E70B48FDF7BBFCD6E70A48FDF7E4
:10386000B7FCEDE70948FDF7B3FCE2E7E4160020FA
:1038700000170020A1360008913600080010024011
:1038800034570008205700085C57000848570008C4
:10389000426801211089536811FA00F25A61704799
:1038A000426801211089536811FA00F21A617047C9
:1038B00070B40669C4688569336824684069094E34
:1038C00045F08005E66061602060DA6059601D6047
:1038D000226842F001012160186840F001021A607C
:1038E00070BC70471C170020AFF30080AFF300805E
:1038F00030B4C4680369246845691B688069E26064
:10390000084A45F0800561602560DA6059601860FA
:10391000226842F001012160186840F001021A603B
:1039200030BC7047E0160020AFF30080AFF300809A
:10393000154B30B49A69154D42F07D049C610168C5
:10394000134CE960826813496A604368124A2B602D
:10395000C568124BE5604569656005692560846945
:10396000CC60046A4C60C4690C60416AD160C16A71
:103970005160816A1160026BDA60816B5960426B41
:103980001A6030BC704700BF0010024000080140C0
:10399000000C0140001001400014014000180140DB
:1039A000032AF0B400F09A80042A08BF41614C4B0E
:1039B00011F080079B5C40F088800F2411F40045D3
:1039C00040F089800F264A002401360139012D017B
:1039D00012F0800F14BF194344F00F0412F4004F8B
:1039E00014BF1D4346F00F065200240136010901A1
:1039F0002D0112F0800F14BF194344F00F0412F48C
:103A0000004F14BF1D4346F00F065200240136013B
:103A100009012D0112F0800F14BF194344F00F0467
:103A200012F4004F14BF1D4346F00F06520024014C
:103A3000360109012D0112F0800F14BF194344F023
:103A40000F0412F4004F14BF1D4346F00F0652003E
:103A50002401360109012D0112F0800F14BF194312
:103A600044F00F0412F4004F14BF1D4346F00F063C
:103A700052002401360109012D0112F0800F14BFFC
:103A8000194344F00F0412F4004F14BF1D4346F0D5
:103A90000F0652002401360109012D0112F0800F9A
:103AA00014BF194344F00F0412F4004F18BF1D4314
:103AB000436808BF46F00F061E4035434560026864
:103AC000144021430160F0BC7047002411F400450C
:103AD0001F463FF477AF1D46002674E7016166E795
:103AE00070570008AFF30080AFF30080AFF30080A1
:103AF000FEF716BDAFF30080AFF30080AFF3008098
:103B0000704700BFAFF30080AFF30080AFF30080D9
:103B100008B5FEF7B5F8FDF7B3F900F079FE00F04F
:103B200097FF00F03DFC01F0A3F800F0C1FA01F0AE
:103B3000AFF800F09DFB01F02BF9032000F0C8FB6B
:103B400000F0DEFA00F0DCFAFAE700BFAFF3008025
:103B500010B5044648B15C2807D0074821464FF00D
:103B6000FF32BDE81040FDF7BBBF5C214FF0FF32D4
:103B70000148FDF7B5FFF0E7680E0020AFF30080C5
:103B8000024800214FF0FF32FDF7AABF680E002067
:103B900010B56F20FFF7DCFF6B20FFF7D9FFFFF7B1
:103BA000EFFFBDE8104001F02BB900BFAFF300807C
:103BB00000B50F4B83B093E803000090C0B2ADF89E
:103BC0000410FFF7C5FF9DF80100FFF7C1FF9DF846
:103BD0000200FFF7BDFF9DF80300FFF7B9FF9DF856
:103BE0000400FFF7B5FF03B05DF804EBFFF7C8BFB3
:103BF00020580008AFF30080AFF30080AFF30080DF
:103C000010B5234B84B06C460FCB84E80F009DF8B1
:103C10000000FFF79DFF9DF80100FFF799FF9DF859
:103C20000200FFF795FF9DF80300FFF791FF9DF855
:103C30000400FFF78DFF9DF80500FFF789FF9DF851
:103C40000600FFF785FF9DF80700FFF781FF9DF84D
:103C50000800FFF77DFF9DF80900FFF779FF9DF849
:103C60000A00FFF775FF9DF80B00FFF771FF9DF845
:103C70000C00FFF76DFF9DF80D00FFF769FF9DF841
:103C80000E00FFF765FF04B0BDE81040FFF778BFF6
:103C900028580008AFF30080AFF30080AFF3008036
:103CA000007801F095B800BFAFF30080AFF300805B
:103CB00070B500F08DFC2023044683F31188FDF7D6
:103CC0005FF9A068394BA3FB0025FDF779F9ED08F2
:103CD000002383F31188002D63D01E464FF0FF317F
:103CE0002046FDF775FEC0B2FFF732FF4FF0FF31FF
:103CF0002046FDF76DFEC0B2FFF72AFF4FF0FF31FF
:103D00002046FDF765FEC0B2FFF722FF4FF0FF31FE
:103D10002046FDF75DFEC0B2FFF71AFF4FF0FF31FE
:103D20002046FDF755FEC0B2FFF712FF4FF0FF31FE
:103D30002046FDF74DFEC0B2FFF70AFF4FF0FF31FE
:103D40002046FDF745FEC0B2FFF702FF4FF0FF31FE
:103D50002046FDF73DFEC0B2FFF7FAFE4FF0FF31FF
:103D60002046FDF735FEC0B2FFF7F2FE4FF0FF31FF
:103D70002046FDF72DFEC0B2FFF7EAFE4FF0FF31FF
:103D80002046FDF725FEC0B2FFF7E2FE4FF0FF31FF
:103D90002046FDF71DFE0136C0B2FFF7D9FEAE4248
:103DA0009CD1BDE87040FFF7EBBE00BFABAAAAAA4A
:103DB00010B500F0E5FBFFF7CBFEBDE81040FFF7C4
:103DC000DFBE00BFAFF30080AFF30080AFF3008031
:103DD000007800F0B5BB00BFAFF30080AFF3008008
:103DE000F0B444790778067990F803C04578210447
:103DF0008278C47983793F0636060CEB07002D04E0
:103E000006EB010C401912020CEB04011B02801896
:103E1000C918F0BC00F004BBAFF30080AFF3008022
:103E2000F0B504788178027983794778C678457946
:103E3000C07985B02402090212021B02C3183C1982
:103E40007118AA186846009401910292039300F039
:103E5000D7FA05B0F0BD00BFAFF30080AFF300802C
:103E6000007800F0A5BB00BFAFF30080AFF3008087
:103E700010B500F07DFF0446C0F30720FFF768FE91
:103E8000E0B2FFF765FEBDE81040FFF779BE00BF66
:103E900070B500F025FD2023044683F31188FDF75B
:103EA0006FF8A068394BA3FB0025FDF789F8ED08F2
:103EB000002383F31188002D63D01E464FF0FF319D
:103EC0002046FDF785FDC0B2FFF742FE4FF0FF31FF
:103ED0002046FDF77DFDC0B2FFF73AFE4FF0FF31FF
:103EE0002046FDF775FDC0B2FFF732FE4FF0FF31FF
:103EF0002046FDF76DFDC0B2FFF72AFE4FF0FF31FF
:103F00002046FDF765FDC0B2FFF722FE4FF0FF31FE
:103F10002046FDF75DFDC0B2FFF71AFE4FF0FF31FE
:103F20002046FDF755FDC0B2FFF712FE4FF0FF31FE
:103F30002046FDF74DFDC0B2FFF70AFE4FF0FF31FE
:103F40002046FDF745FDC0B2FFF702FE4FF0FF31FE
:103F50002046FDF73DFDC0B2FFF7FAFD4FF0FF31FF
:103F60002046FDF735FDC0B2FFF7F2FD4FF0FF31FF
:103F70002046FDF72DFD0136C0B2FFF7E9FDAE4248
:103F80009CD1BDE87040FFF7FBBD00BFABAAAAAA59
:103F90004378027819041802411888181B06C018C3
:103FA00000F0DEBCAFF30080AFF30080AFF3008021
:103FB000007800F0BDBC00BFAFF30080AFF300801D
:103FC00000B585B0684600F0A3FC9DF80000FFF73F
:103FD000BFFD9DF80100FFF7BBFD9DF80200FFF754
:103FE000B7FD9DF80300FFF7B3FD9DF80400FFF750
:103FF000AFFD9DF80500FFF7ABFD9DF80600FFF74C
:10400000A7FD9DF80700FFF7A3FD9DF80800FFF747
:104010009FFD9DF80900FFF79BFD9DF80A00FFF743
:1040200097FD9DF80B00FFF793FD9DF80C00FFF73F
:104030008FFD9DF80D00FFF78BFD9DF80E00FFF73B
:1040400087FD9DF80F00FFF783FDFFF799FD05B091
:1040500000BD00BFAFF30080AFF30080AFF300807E
:1040600010B4C1784478027883780902200280185D
:10407000C91810BC00F05CBDAFF30080AFF3008046
:1040800010B4C1784478027883780902200280183D
:10409000C91810BC00F03CBDAFF30080AFF3008046
:1040A000007800F015B900BFAFF30080AFF30080D7
:1040B00010B50F4C102220464FF40071FFF770FC32
:1040C000204602224FF48061FFF76AFC204610224E
:1040D0004FF40061FFF764FC20464FF48051022248
:1040E000FFF75EFC03480021BDE81040FDF7E8BF84
:1040F00000080140380E0020AFF30080AFF30080CD
:1041000070B537484FF0FF31FDF762FC831C012B7F
:104110000ED9344BC0B21A785AB9B8B9324A334CB6
:1041200013782668012B1DD0022B4AD00023236070
:1041300070BD2E4C002522681D702B4B511C9854CD
:104140002029B4BF0B4620232360F1E75C282ED042
:10415000264C25492268531C202BA8BF20238854B5
:104160002360E5E7012EE1DD511CCB439619981938
:1041700055781F49931CB3420D7000F00100D5D053
:1041800030B193F800C0D31CB34201F801CFCDD0B9
:104190001A4612F8015B481C4D7093F801C0531C7D
:1041A000411CB34280F801C0F2D10023BFE70F4C9D
:1041B0000121206819702028B4BF03462023236002
:1041C000B6E792F801E00B49BEF1110FC8BF4FF0FE
:1041D000000E51F82E30064898470023A7E700BF8D
:1041E000480E00206417002024170020201700200C
:1041F00044170020D0570008AFF30080AFF30080D1
:104200001348F8B5134AC369134D144C9A614FF41F
:1042100080474FF400561248FDF7DAFA296811F08A
:10422000010F17BFE268676182F48042E26011F01B
:10423000020F17BFE168666181F40051E160FDF78C
:10424000D7FAFA20FDF7DCF900F05AFDE3E700BFEA
:10425000740D00204058000878170020001001401D
:1042600068170020AFF30080AFF30080AFF3008049
:1042700030B5104C4FF480434FF40055636183B068
:104280001946062220466561FFF78AFB2946062269
:104290002046FFF785FB0848FDF702FA00244FF49B
:1042A000D8714022054B06480094FDF761F903B030
:1042B00030BD00BF00100140681700200142000817
:1042C00080170020AFF30080AFF30080AFF30080D1
:1042D00010B504460448FDF77BFA044B1C60BDE8AA
:1042E0001040FDF785BA00BF68170020781700203E
:1042F00030B5254C85B0E3682169A268C81A831AD5
:104300000B2B3ED9684600F0F3FA009D2046E9B237
:10431000FDF72EFBC5F307212046FDF729FBC5F36A
:1043200007412046FDF724FB019D2046E9B2FDF739
:104330001FFBC5F307212046FDF71AFBC5F3074114
:104340002046FDF715FB029D2046E9B2FDF710FB64
:10435000C5F307212046FDF70BFBC5F307412046B7
:10436000FDF706FB039D2046E9B2FDF701FBC5F30F
:1043700007212046FDF7FCFA2046C5F30741FDF76B
:10438000F7FA05B030BD00BFC41A0020AFF30080BB
:104390000248037803B97047FFF7AABF301900201D
:1043A00070B50C4D00242C700B4D23460B480C4966
:1043B0004FF4A0722C70FDF7CBFA0A480A4902228A
:1043C0002346FDF77DFB09480949BDE87040FDF72C
:1043D0007FBC00BFE41A002030190020C41A00205E
:1043E0006419002044190020BC1A0020D80D0020B8
:1043F00050580008AFF30080AFF30080AFF30080A7
:104400000168044B196042685A6081689960C2680B
:10441000DA607047AC1A0020AFF30080AFF3008081
:10442000024A034B11601860704700BFA41A0020B5
:10443000A81A0020AFF30080AFF30080AFF3008034
:104440002DE9F047354D04462B78002B49D0002844
:1044500020D0334933480E6801687700B9422BDA1F
:10446000314B324D53F8240055F82450B142A8BFC7
:10447000C1EB0701C5EB000EF317324681FB0E01BD
:10448000FBF736FE10EB050C61462046BDE8F04711
:1044900000F096BADFF88C80DFF89890D8F80060CA
:1044A000D9F80020711C9142C8F800101BDA1C4F8B
:1044B0003E687700B942D3DB1C4C002210462A70BC
:1044C000216800F07DFA0120616800F079FA02208D
:1044D000A16800F075FAE1680320BDE8F04700F03C
:1044E0006FBABDE8F087124EFFF702FFDFF848E031
:1044F0000B493268DEF800300E68500003F1010C01
:10450000421E77008CFB0701D317CEF800C0FBF7E3
:10451000EFFDD8F80010C9F800009FE7E41A00206A
:10452000A41A0020E81A0020AC1A00203419002038
:10453000A81A0020EC1A0020C01A0020AFF3008057
:10454000074A002110B5074B1160074A044619605D
:104550000648116000F064FB054B1C7010BD00BFE5
:10456000EC1A0020E81A0020C01A0020341900209C
:10457000E41A0020AFF30080AFF30080AFF30080B7
:1045800010B5202383F31188FCF7FAFC054B1C7847
:10459000003C18BF0124FCF713FD002383F31188AE
:1045A000204610BDE41A0020AFF30080AFF3008076
:1045B000054B187018B905480121FDF7D9BB034810
:1045C0000121FDF7ADBB00BF30190020D80D002040
:1045D00000487047C41A0020AFF30080AFF300809A
:1045E0002DE9F843202383F31188FCF709FD784A6D
:1045F000784B1568691C01EA0303002BC0F2E380C5
:1046000013F0010F136000F08880734A01261661D1
:1046100013F0020F7DD0704B022018616F48FFF736
:104620003FF96F486F4F5FFA85FE10F80E4097F81C
:1046300001C03B786C4E611C4FEA0C291A04BB7810
:1046400086FB016709EB0208684E0EEB8E029200B2
:1046500008EB030CCCF34F09B31843F824907F0800
:10466000634C56F80290D3F804C0DE6807EB870865
:104670009F68C8EB0108A318002144F8029000F8D5
:104680000E809F60C3F804C0DE600F46781CC7B27E
:104690005A5853F8270007F00104824202DA5850B2
:1046A00043F827207A1CD2B2042A22D85CB153F8EE
:1046B00022405858A042BCBF5C5043F82200541C12
:1046C000E2B2042A15D8561C5C58F0B253F82260A6
:1046D000B442BCBF5E5043F822405A5853F82040C1
:1046E000A24202DA5C5043F82020421CD2B2042AD3
:1046F000E9D90431042FC9D13E4C9968032D44F8FF
:104700002E100ED0FCF79CFC002383F31188BDE82B
:10471000F883314E0224746180E72F4901274F61ED
:1047200076E7354B35481A68016801328A421A60CB
:10473000E8DB334D521A2E69E868A968C0EB060C15
:10474000C1EB0C0EBEF10B0F1A60DBD926682846B0
:10475000F1B2FDF70DF9C6F307212846FDF708F978
:10476000C6F307412846FDF703F966682846F1B20B
:10477000FDF7FEF8C6F307212846FDF7F9F8C6F362
:1047800007412846FDF7F4F8A6682846F1B2FDF780
:10479000EFF8C6F307212846FDF7EAF8C6F307410C
:1047A0002846FDF7E5F8E4682846E1B2FDF7E0F8B1
:1047B000C4F307212846FDF7DBF82846C4F3074178
:1047C000FDF7D6F89EE75C1E64F00300431C17E774
:1047D000B81B00200300008000080140E416002000
:1047E000F01A0020B41B002067666666641B002078
:1047F000F41A002000080020BC1B00201408002030
:10480000441B0020AFF30080AFF30080AFF30080C3
:1048100010B51F4C00231F481F494FF4A072FDF72D
:1048200097F8012106222046FFF7BAF80221062256
:104830002046FFF7B5F8202110222046FFF7B0F8F8
:10484000402110222046FFF7ABF806221021204617
:10485000FFF7A6F8114B10221B68226113F0010F1D
:104860000DD0012013F0020F20610DD10849022064
:1048700048610B480B49BDE81040FDF789BC012198
:1048800013F0020F6161F1D0014B02221A61F0E7CF
:1048900000080140441B0020C01B0020B81B002062
:1048A000E4160020F0580008AFF30080AFF300805A
:1048B00010B5064C2046FEF7EBFF0323044A2046C2
:1048C00019462370BDE81040FFF712B8E416002027
:1048D000B41B0020AFF30080AFF30080AFF3008083
:1048E00000487047441B0020AFF30080AFF3008006
:1048F00040B105490A6802604B6843608A6882607B
:10490000CB68C360704700BF00080020AFF3008091
:1049100010B52023044683F31188FCF731FB2046B1
:10492000FFF7E6FFFCF74CFB002383F3118810BD73
:1049300010B52023044683F31188FCF721FB044BB8
:104940001C60FCF73DFB002383F3118810BD00BF02
:1049500010080020AFF30080AFF30080AFF30080B9
:1049600010B52023044683F31188FCF709FB044BA0
:104970001C60FCF725FB002383F3118810BD00BFEA
:1049800014080020AFF30080AFF30080AFF3008085
:1049900008B5202383F31188FCF732FB0448FEF7A7
:1049A0007FFFFCF74DFB002383F3118808BD00BF98
:1049B00000170020AFF30080AFF30080AFF300805A
:1049C000084B00EA0303002B03DB074840F82310E1
:1049D00070475A1E62F00300431C034840F823103E
:1049E000704700BF0300008028080020AFF300805C
:1049F000F8B506460D46202383F31188104CFCF7CA
:104A0000BFFAA768FCF7DCFA002383F31188022FB2
:104A100001DC0120F8BDF1B24FF0FF322046FDF776
:104A20005FF8E9B24FF0FF322046FDF759F8204613
:104A3000C5F307214FF0FF32FDF752F80020F8BD13
:104A4000041D0020AFF30080AFF30080AFF30080BF
:104A50002DE9F041264C0023182226482649FDF76F
:104A60002FF8102220464FF40051FEF799FF204600
:104A700010224FF40041FEF793FF4FF480674FF48C
:104A800000734FF400664FF4805523611946276187
:104A90000622204626612561FEF782FF2046394620
:104AA0000622FEF77DFF204631460622FEF778FFFC
:104AB000062220462946FEF773FF10481049FDF7ED
:104AC00067FB47F6FF710020FFF792FF47F6FF7183
:104AD0000120FFF78DFF47F6FF710220FFF788FFE7
:104AE000032047F6FF71BDE8F041FFF781BF00BF2B
:104AF000000C0140041D0020241D00200017002090
:104B000038080020AFF30080AFF30080AFF30080DF
:104B100038B503460D4600201946FFF769FF2946C0
:104B200004460120FFF764FF001938BDAFF3008091
:104B300038B503460D4602201946FFF759FF2946AE
:104B400004460320FFF754FF001938BDAFF300807F
:104B5000F8B52C4D2969EC68AA68081B831A022B4A
:104B60002DDC294C2948237850F82320284951F876
:104B7000230090421AD0032B06D8DFE803F0373B1E
:104B80003F02244F0C203881234D244E171241F848
:104B90002320284672703770FEF77AFE03232B70AD
:104BA000284602213246FEF783FE23781846FFF797
:104BB00047FC2078421C02F003012170F8BD284612
:104BC000FCF7C6FF104C20702846FCF7C1FF0646D4
:104BD0002846FCF7BDFF94F800C002020B490CF018
:104BE00003039219237041F82320BFE7094E0925DA
:104BF0003581C9E7074F0A203881C5E7054E0B25E7
:104C00003581C1E7041D00203C1D0020280800203C
:104C1000180800203808002000170020001D002080
:104C200010B52023044683F31188FCF7A9F907483F
:104C300003682360416861608268A260C368E360C2
:104C4000FCF7BEF9002383F3118810BD180800207B
:104C500008B5202383F31188FCF7D2F9FFF728FE6B
:104C6000FFF776FFFCF7ECF9002383F3118808BD0A
:104C700010B5054C05492046FDF7B2F820466421E1
:104C8000BDE81040FDF7F4B8E00D00200059000821
:104C900030B5154D87B01548154CFCF701FDFDF7F3
:104CA000FFF828461349FDF70BF940211122204651
:104CB000FEF776FE802111222046FEF771FE32209B
:104CC000FCF79EFC0C480024038806AA22F8043D49
:104CD0002846009401944821322402230294FDF7CF
:104CE00017F907B030BD00BFF00D0020401D0020B7
:104CF000000C01401059000820590008AFF3008053
:104D000010B5002486B08DF810408DF811408DF854
:104D1000124005AC00940224019411483224482129
:104D200004AA01230294FDF7F3F878B99DF8144022
:104D30009DF815C021020B4801EB0C04FCF748FD5F
:104D400009480480FCF754FD06B010BD0548FCF787
:104D50003FFD054B4FF0FF321A80FCF749FDF3E7AA
:104D6000F00D0020401D0020501D0020AFF30080FA
:104D700010B50448FCF72CFD034B1C88FCF738FDEC
:104D8000204610BD401D0020501D0020AFF30080C4
:104D900070B50A4B0A4D4FF400464FF4807406225A
:104DA000184631465E616C61FEF7FAFD28462146E1
:104DB0000622BDE87040FEF7F3BD00BF00100140C1
:104DC000000C0140AFF30080AFF30080AFF3008030
:104DD0000849094B10B44FF480724FF40044012885
:104DE0004C615A6104D0022808BF1A6110BC704798
:104DF0000C61FBE700100140000C0140AFF30080A4
:104E00004FF000621168074808B501EA0003B3F1EA
:104E1000005F00D008BD04480368126882F3088868
:104E2000984708BD0000FE2F04000008AFF3008083
:104E300069646C65000000006D61696E000000002F
:104E40005356233100000000535623320000000067
:104E50005356233300000000535623340000000053
:104E6000535623350000000053562336000000003F
:104E7000535623370000000053562338000000002B
:104E800053562339000000005356233130000000F0
:104E900053562331310000000000000000000000E4
:104EA0002263685654536574492228290000000083
:104EB000226368565452657365744922282900009C
:104EC0006368565452657365744928292C20233130
:104ED00000000000000000000000000000000000D2
:104EE000636853636852656164794928292C2023DB
:104EF00031000000737461636B206F766572666CBD
:104F00006F770000000000000000000000000000BB
:104F10002263685468644372656174654922282974
:104F2000000000002263685468645365745072691D
:104F30006F72697479222829000000006368546840
:104F400064526573756D6528292C2023310000009B
:104F5000226368546864536C6565702228290000D8
:104F60006368546864457869745328292C20233178
:104F70000000000022636854686457616974222845
:104F80002900000063685468645761697428292CFB
:104F9000202331000000000000000000000000009D
:104FA0002263684D7478496E6974222829000000D4
:104FB0002263684D74784C6F636B5322282900007C
:104FC00063684D74784C6F636B5328292C20233110
:104FD0000000000063684D74784C6F636B532829A0
:104FE0002C202332000000002263684D7478547234
:104FF000794C6F636B5322282900000063684D745D
:1050000078556E6C6F636B28292C202331000000CB
:1050100063684D7478556E6C6F636B28292C202360
:105020003200000063684D7478556E6C6F636B538B
:1050300028292C202331000063684D7478556E6C4C
:105040006F636B5328292C202332000000000000DE
:1050500022636845767452656769737465724D6141
:10506000736B222829000000226368457674556E10
:105070007265676973746572222829002263684526
:1050800076745369676E616C49222829000000001C
:105090002263684576745369676E616C2228290023
:1050A00022636845767442726F6164636173744D04
:1050B00061736B492228290022636845767444692C
:1050C0007370617463682228290000006368457664
:1050D00074446973706174636828292C202331003B
:1050E00022636849515265616454696D656F7574D6
:1050F000222829002263684F5157726974655469E8
:105100006D656F7574222829000000000000000002
:10511000226578745374617274222829000000009B
:10512000657874537461727428292C20233100002F
:105130002265787453746F7022282900657874533F
:10514000746F7028292C20233100000022657874A8
:105150004368616E6E656C456E61626C65222829DC
:10516000000000006578744368616E6E656C456E82
:1051700061626C6528292C20233100002265787437
:105180004368616E6E656C44697361626C65222868
:10519000290000006578744368616E6E656C44692F
:1051A0007361626C6528292C202331000000000007
:1051B00022707453746172742228290067707453CA
:1051C0007461727428292C202331000022677074C6
:1051D00053746F702228290067707453746F70289D
:1051E000292C2023310000002267707453746172EF
:1051F00074436F6E74696E756F7573492228290048
:105200006770745374617274436F6E74696E756FF6
:1052100075734928292C20233100000022677074FF
:1052200053746172744F6E6553686F7449222829F4
:105230000000000067707453746172744F6E6553A0
:10524000686F744928292C2023310000226770746C
:1052500053746F7054696D657249222829000000EB
:1052600067707453746F7054696D65724928292C86
:1052700020233100677074506F6C6C656444656CFA
:10528000617928292C202331000000000000000053
:10529000226932635374617274222829000000006D
:1052A000693263537461727428292C202331000001
:1052B0002269326353746F70222829006932635364
:1052C000746F7028292C202331000000226932637A
:1052D0004765744572726F727322282900000000BE
:1052E000226932634D61737465725472616E736DBD
:1052F000697454696D656F75742228290000000077
:105300006932634D61737465725472616E736D6955
:105310007454696D656F757428292C202331000041
:10532000226932634D617374657252656365697693
:105330006554696D656F7574222829006932634D63
:1053400061737465725265636569766528292C20DE
:1053500023310000000000000000000000000000F9
:105360002273645374617274222829007364537425
:1053700061727428292C20233100000022736453A9
:10538000746F702228290000736453746F70282989
:105390002C20233100000000227364496E636F6D7E
:1053A000696E67446174614922282900227364523E
:1053B0006571756573744461746149222829000020
:1053C0003120000811200008B11F0008C11F00088B
:1053D0005120000841200008212000080120000879
:1053E000D11F0008000000000000000000000000C5
:1053F00022737069537461727422282900000000BE
:10540000737069537461727428292C202331000051
:105410002273706953746F70222829007370695366
:10542000746F7028292C20233100000022737069CA
:1054300053656C65637422282900000073706953FA
:10544000656C65637428292C2023310022737069F0
:10545000556E73656C6563742228290073706955F5
:105460006E73656C65637428292C2023310000005D
:1054700022737069537461727449676E6F7265222A
:1054800028290000737069537461727449676E6FE4
:10549000726528292C2023310000000022737069D6
:1054A000537461727445786368616E676522282958
:1054B000000000007370695374617274457863680A
:1054C000616E676528292C202331000022737069E2
:1054D000537461727453656E6422282900000000C1
:1054E000737069537461727453656E6428292C203B
:1054F00023310000227370695374617274526563C2
:105500006569766522282900737069537461727425
:105510005265636569766528292C202331000000D7
:1055200022646D61416C6C6F63617465222829008F
:1055300022646D6152656C656173652228290000E3
:10554000646D6152656C6561736528292C20233177
:10555000000000000000000000000000000000004B
:10556000080002400400024000000B001C00024042
:105570000400024004010C0030000240040002401C
:1055800008020D0044000240040002400C030E001B
:10559000580002400400024010040F006C0002405A
:1055A0000400024014051000800002400400024084
:1055B00018061100000000000000000000000000BC
:1055C0006770745F6C6C645F737461727428292CEB
:1055D0002023310000000000000000000000000057
:1055E0006932635F6C6C645F737461727428292C18
:1055F000202331006932635F6C6C645F7374617285
:105600007428292C20233200226932635F6C6C6479
:105610005F7365745F636C6F636B22282900000001
:105620006932635F6C6C645F7365745F636C6F6336
:105630006B28292C202331006932635F6C6C645F16
:105640007365745F636C6F636B28292C20233200B1
:105650006932635F6C6C645F7365745F636C6F6306
:105660006B28292C202333006932635F6C6C645FE4
:105670007365745F636C6F636B28292C202334007F
:105680006932635F6C6C645F7365745F636C6F63D6
:105690006B28292C202335006932635F6C6C645FB2
:1056A0007365745F636C6F636B28292C202336004D
:1056B0006932635F6C6C645F7365745F636C6F63A6
:1056C0006B28292C20233800226932635F6C6C64BC
:1056D0005F6D61737465725F726563656976655F3E
:1056E00074696D656F757422282900002269326320
:1056F0005F6C6C645F6D61737465725F7472616E10
:10570000736D69745F74696D656F75742228290003
:1057100000C2010000000040000000000000000086
:105720007370695F6C6C645F737461727428292C88
:10573000202331007370695F6C6C645F73746172F5
:105740007428292C202332007370695F6C6C645FAD
:10575000737461727428292C202333007370695F7D
:105760006C6C645F737461727428292C202334007C
:1057700004020408080003070808080808080808C5
:105780000B0F0000000000000000000000000000FF
:10579000FFFFFFFF4444444444444444FFFFFFFFF1
:1057A0004444444444444444FFFFFFFF44444444CD
:1057B00044444444FFFFFFFF4444444444444444BD
:1057C000FFFFFFFF8888888888888888000000009D
:1057D000013C0008B13B0008A140000881400008DE
:1057E00061400008C13F0008B13F0008913F000838
:1057F000913E0008713E0008613E0008213E00080D
:10580000E13D0008D13D0008B13D0008B13C000871
:10581000A13C0008913B00080000000000000000CF
:10582000302E302E310000006469676974697A6532
:10583000722D312E302E30000000000000000000DC
:105840006C64000000000000000000000000000088
:10585000000000000000000001000000914300086B
:105860000000000000000000000000000000000038
:105870000000000000000000000000000000000028
:105880000000000000000000000000000000000018
:105890000000000000000000000000000000000008
:1058A00000000000000000000000000000000000F8
:1058B00000000000000000000000000000000000E8
:1058C00000000000000000000000000000000000D8
:1058D00000000000000000000000000000000000C8
:1058E00000000000000000001000000000000000A8
:1058F000E14500080008014004001200000000001B
:10590000006A1800514C0008000000000000000070
:1059100001000000A086010001000000000000005E
:045920000380000000
:085924007CA8FF7F01000000D8
:10593000FFFFFFFFFFFFFFFFFFFFFFFFFFFFFFFF77
:105940000F00000005000000FFFFFFFFFFFFFFFF4B
:10595000FFFFFFFFFFFFFFFFFFFFFFFFFFFFFFFF57
:10596000FFFFFFFFFFFFFFFF91490008000C014010
:04597000090010001A
:0400000508000AB134
:00000001FF
