:020000040800F2
:100000000004002011010008E1010008E1010008DE
:10001000E1010008E1010008E1010008E101000838
:10002000E1010008E1010008E101000811020008F7
:10003000E1010008E1010008E1010008E102000817
:10004000E1010008E1010008E1010008E101000808
:10005000E1010008E1010008E1010008E1010008F8
:10006000E1010008E1010008E1010008E1150008D4
:100070002116000861160008A1160008E116000804
:100080002117000861170008E1010008E1010008DC
:10009000E1010008E1010008E1010008E1010008B8
:1000A000E1010008011A0008E1010008E10100086F
:1000B000E1010008E1010008E1010008811A0008DF
:1000C000211C0008E1010008E1010008E10100082D
:1000D000E1010008611F0008811F0008E10100081C
:0C00E000E1010008E1010008E101000856
:1000F000704700BFAFF30080AFF30080AFF3008024
:10010000FEE700BFAFF30080AFF30080AFF30080E5
:1001100072B6244A82F30988022383F31488BFF35A
:100120006F8F214B21498B4205D24FF0553043F858
:10013000040B8B42FBD31E4B934205D24FF055313B
:1001400043F8041B9342FBD302F052F9194B1A48AF
:10015000834206D2194A52F8041B43F8041B834217
:10016000F9D3174B174A934204D2002143F8041BDA
:100170009342FBD3144D154CFFF7BAFFAC4204D2A7
:1001800054F8043B9847AC42FAD3114D114C02F09D
:100190003FF9AC4204D254F8043B9847AC42FAD33E
:1001A000FFF7AEFF00080020000000200004002040
:1001B00000040020000800201C0800206033000814
:1001C0002008002070220020EC000008EC0000084D
:1001D000EC000008EC000008AFF30080AFF30080F3
:1001E000FEE700BFAFF30080AFF30080AFF3008005
:1001F00072B6FEE7AFF30080AFF30080AFF300808C
:1002000000F076F900F0ECFB00F08AF900DF00BFA7
:10021000EFF30983203383F30988002383F31188E4
:10022000704700BFAFF30080AFF30080AFF30080F2
:1002300008B500224FF46D43CEF20003C0F2FA522B
:10024000002199600720DA60102100F0A1F80A204F
:100250004FF4007100F09CF80B20802100F098F81A
:1002600008BD00BFAFF30080AFF30080AFF30080A4
:10027000202383F311884FF46D43CEF200035B68B3
:1002800013F4006316D0EFF30983203B83F309884E
:10029000104A4FF080709169D86171B11168D269CC
:1002A00089689268914294BF002201227AB10A4A79
:1002B0009A6101E083F3118870471168D2698968F7
:1002C0009268914234BF00220122002AEFD1034AF2
:1002D0009A61F1E74C0D0020010200080C020008B1
:1002E00008B500F07DF9202383F3118800F038F978
:1002F00000F0B6F800F054F9002383F3118800F001
:100300008FF9FFF7B5FF08BDAFF30080AFF30080B2
:100310002DE9F04FC1F80CD0D0F80CD0BDE8F08F2B
:1003200008B500F0FDF8002383F311882846A047A4
:1003300000F06EFC08BD00BFAFF30080AFF300809B
:1003400000F0030330B4DB00FF259D4000F01F02E6
:1003500011FA03F34FF0010C0CFA02FC84084FF47D
:100360006142CEF20002C03452F82410400921EA62
:10037000050141EA030300F1600142F8243042F82C
:1003800021C042F820C030BC704700BFAFF30080EE
:1003900000F0030310B4DB00FF249C4011FA03F3C8
:1003A00080084FF46D42CEF20002063052F820C0B1
:1003B0002CEA040141EA030342F8203010BC7047E4
:1003C000024B034ADB699A61FEE700BF4C0D002037
:1003D000102B0008AFF30080AFF30080AFF3008074
:1003E00030B583B0FFF724FF00F022FA00F0B0F937
:1003F00000F0F6FE00F064F940F620004021C2F261
:10040000000000F015FB40F64C5440F20043C2F2ED
:100410000003C2F200040125E06180F82050C361AE
:1004200000F04EF8002383F3118862B642F61831CB
:10043000E269C0F60001916140F66800002240F2D6
:10044000C1330092C0F60003C0212A46C2F2000068
:1004500000F066FB03B030BDAFF30080AFF3008067
:1004600070B500F0FDF8114B9A69002A01DD013AE0
:100470009A61DB690E4C596A226801315962E3685E
:100480000133A242E3600FD09568013D95605DB9EC
:1004900026461168D3681069D5604E602160984780
:1004A00022689368002BF4D070BD00BF4C0D002073
:1004B0003C0D0020AFF30080AFF30080AFF300806D
:1004C00008B5064B1B6813B9054B1B6823B1054AD9
:1004D000054B1A60FFF78CFE08BD00BF28090020FD
:1004E000340D0020302B0008380D0020AFF30080C1
:1004F000074B10B51B68074C13B9064C236823B192
:10050000054A064B1A60FFF773FE0123236010BDF6
:1005100028090020340D0020382B0008380D002059
:10052000084B10B51B68084C33B9074C2368002BE7
:1005300002DD0023236010BD044A054B1A60FFF75B
:1005400057FEF6E728090020340D0020402B000854
:10055000380D0020AFF30080AFF30080AFF30080D0
:10056000084B10B51B68002BD8BF074C02DD064CAA
:10057000236823B1054A064B1A60FFF739FE0123B1
:10058000236010BD28090020340D0020482B0008EE
:10059000380D0020AFF30080AFF30080AFF3008090
:1005A000094B10B51B68002BD8BF084C06DD074C63
:1005B0002368002B02DD0023236010BD044A054B95
:1005C0001A60FFF715FEF6E728090020340D002019
:1005D000502B0008380D0020AFF30080AFF30080EF
:1005E00010B5202383F31188094C2368002B02DB0C
:1005F000084A12682AB1084B084A1A60FFF7F8FD4A
:10060000236801332360002383F3118810BD00BFEA
:1006100028090020340D0020380D0020582B000838
:1006200010B5202383F31188094C2368002B02DDC9
:10063000084A12682AB1084B084A1A60FFF7D8FD29
:100640002368013B2360002383F3118810BD00BFA2
:1006500028090020340D0020380D0020602B0008F0
:1006600008B5074B1B68002B04DB064B1B68002BEF
:1006700000DD08BD044A054B1A60FFF7B9FDF8E735
:1006800028090020340D0020682B0008380D0020B8
:1006900008B5074B1B6823B9064B1B68002B00DD10
:1006A00008BD054A054B1A60FFF7A2FDF8E700BF39
:1006B00028090020340D0020702B0008380D002080
:1006C00040F62C13C2F200031A46402142F8081BE0
:1006D0005A607047AFF30080AFF30080AFF3008043
:1006E00070B40D4A0D495368CE680D49846ACD69CE
:1006F00090F820C003F1100102F5816081421E6074
:100700005D609C6083F80CC028BF02F10803516053
:1007100028BF536070BC70472C0900203C0D00209E
:100720004C0D0020AFF30080AFF30080AFF30080EA
:1007300008B540F63853C2F200031860FFF758FDC1
:1007400008BD00BFAFF30080AFF30080AFF30080BF
:1007500040F63C53C2F200034FF0FF329A60002291
:100760005B601B60DA607047AFF30080AFF300801E
:10077000F8B5044615461F460E46FFF771FFD4F143
:10078000010338BF0023002D08BF43F00103002BF5
:1007900019D1002E17D00E4927610B68E5609A68C1
:1007A000964204D91B68B61A9A68B242FAD35A68BC
:1007B0008B422360626014605C60A66002D09A681D
:1007C000961B9E60F8BD0348FFF7B2FFE3E700BF4A
:1007D0003C0D0020802B0008AFF30080AFF30080B9
:1007E00010B50446FFF73CFF84B1E36893B123687A
:1007F0000A4A934203D09968A2688A189A6062688C
:10080000002113602368E1605A6010BD0448FFF7BF
:100810008FFFEAE70348FFF78BFFE8E73C0D002076
:10082000902B0008A02B0008AFF30080AFF30080EE
:1008300040F64C53C2F2000300229A6014225B601F
:100840001B609A615B611B61704700BFAFF3008062
:1008500010B590F820300446D3F1010238BF0022D1
:100860000E2B14BF134642F001037BB90022094B43
:10087000A16884F820201B689A688A42FBD25A68D3
:100880002360626014605C60204610BD0248FFF780
:100890004FFFEBE74C0D0020C02B0008AFF30080AA
:1008A00008B590F820300D2B11D8DFE803F01510B3
:1008B0001007100B101010101010100B836A9A689C
:1008C00001329A60436802681A60026853604FF010
:1008D000FF338362FFF7BCFF08BD00BFAFF30080AA
:1008E00070B5104C0646FFF7D3FEE569142185F874
:1008F0002060236828461A68A1610121546083F8AA
:1009000020102260E361FFF7EBFEEA69ADF12403FA
:100910009A4202D90448FFF70BFFE0692946FFF726
:10092000F7FC70BD4C0D0020D42B0008AFF3008005
:10093000F0B50F4687B00546FFF7AAFEB7F1FF3FB7
:1009400013D00C4C01AEE36939460B4A3046FFF731
:100950000FFF2846FFF7C4FF049B13B13046FFF793
:100960003FFFE369986A07B0F0BD2846FFF7B8FF7C
:10097000004CF6E74C0D0020A1080008AFF3008002
:1009800070B5144D04460E46FFF782FEE869A26872
:100990008368A6629A4214D9FFF75AFF01230646DC
:1009A00084F820301423AB61EC61FFF799FEF26903
:1009B000ADF124039A4208D820463146FFF7A8FC3F
:1009C00070BD2046FFF744FFFAE70348FFF7B0FE8B
:1009D000F2E700BF4C0D0020D42B0008AFF30080DD
:1009E00038B50F4C14212368E5691A68A16101210B
:1009F000546083F8201028462260E361FFF728FF47
:100A00002846FFF76DFEEA69ADF124039A4202D948
:100A10000448FFF78DFEE0692946FFF779FC38BDF1
:100A20004C0D0020D42B0008AFF30080AFF3008002
:100A300000234FF0020C40F64C52C2F2000280F844
:100A400020C080F82130D2F814C070B400F1300416
:100A500000F12C0600F1480502618160C0F814C065
:100A6000416450610364C36343628361CCF8100046
:100A7000C66244630463C56170BC7047AFF3008015
:100A8000F8B504460D461F461646FFF7E9FDD4F1BA
:100A9000010338BF0023AF2D98BF43F0010343B9D2
:100AA0007F2E94BF00230123002F08BF43F00103D2
:100AB00013B11548FFF73CFE243D06986119E1602B
:100AC0004860124800230862114A0221675184F8E5
:100AD000201084F82130506904F1300104F12C0514
:100AE00004F1480C22616061A6606664546123646D
:100AF0000461E3636362A361E56261632163C4F837
:100B00001CC02046F8BD00BFF02B000821030008E0
:100B10004C0D0020AFF30080AFF30080AFF30080F6
:100B2000F0B50D4616461F4683B0044600F1480254
:100B30000346FF2103F8011B9342FBD163199A423C
:100B400004D2552102F8011B9A42FBD1202383F3E2
:100B50001188FFF7CDFCDDF820C03B463246294620
:100B60002046CDF800C0FFF78BFF00210446FFF7B9
:100B700007FFFFF7D5FC002383F31188204603B05D
:100B8000F0BD00BFAFF30080AFF30080AFF3008093
:100B900010B5044610B90948FFF7CAFD202383F3B6
:100BA0001188FFF7A5FC21460620FFF7C1FEFFF7DD
:100BB000B7FC002383F3118810BD00BF302C000860
:100BC000114A38B5D4690346254655F82C0FA3625F
:100BD000A84206D00368E362FFF73AFEE06AA84243
:100BE000F8D194F8213013F0030F01BF2269636933
:100BF0001A61226908BF53610E20FFF771FE034896
:100C0000FFF796FD38BD00BF4C0D0020402C0008BA
:100C100010B52023044683F31188FFF769FC2046B2
:100C2000FFF7CEFF10BD00BFAFF30080AFF3008031
:100C300010B5044620B1002364602460A36010BD99
:100C40000148FFF775FDF6E7802C0008AFF3008040
:100C500038B53D4B0546DC69FFF71AFD002D6FD016
:100C6000A868002867D0A26883689A4208D990F8DB
:100C700020308260042B42D0052B2AD0002B1DD0BF
:100C80002B461B689D4203D09968A2689142F8D216
:100C90005A682360626004205C601460A562FFF7FC
:100CA0001FFEAB68A34202D02848FFF741FD236C2A
:100CB000AB4202D02648FFF73BFD38BD43680268CF
:100CC00001211A60026880F820105360FFF7C0FD10
:100CD000D6E741680368D0F828C00B60D0F800E080
:100CE0006346CEF804101B689C4502D09968914277
:100CF000F9D25A680360426010605860C0E74168EA
:100D00000368D0F828C00B60D0F800E06346CEF846
:100D100004101B689C4502D099688A42F9D95A6828
:100D20000360426010605860DCF80800A2688368C5
:100D300093429CD3A4E7236CAC60EB602564BCE7D2
:100D40000448FFF7F5FC8BE74C0D0020A02C0008B1
:100D5000B42C0008902C0008AFF30080AFF30080A3
:100D600010B52023044683F31188FFF7C1FB20460A
:100D7000FFF76EFFFFF7D4FB002383F3118810BD4C
:100D80001E4A38B5D569202383F31188FFF7B0FBDD
:100D90002C6C002C2CD0A368AB4203D01848FFF772
:100DA000C7FC2C6C2068E368A0422B641DD0696CE2
:100DB0004BB11A689A4203D09268914238BF1146EB
:100DC000DB68002BF5D10368026CA9602360002169
:100DD0005C60A060E2600464FFF7D2FDFFF7A0FB57
:100DE000002383F31188204638BD0023A360F5E774
:100DF0000448FFF79DFC2C6CCDE700BF4C0D002094
:100E0000F02C0008DC2C0008AFF30080AFF300806A
:100E100038B504460D46FFF723FC002C1CD0E26BCE
:100E200094F820301543082BE5630CD0092B00D033
:100E300038BDA36A1D40AB42FAD12046FFF708FD3A
:100E400000238362F4E7A36A1D42F1D02046FFF736
:100E5000FFFC00238362EBE70148FFF769FCDEE754
:100E60005C2D0008AFF30080AFF30080AFF300808B
:100E700070B505460E46FFF7F3FB65B12C68AC4232
:100E800008D0A168606846EA0101FFF7C1FF246845
:100E9000AC42F6D170BD0248FFF74AFCEEE700BF56
:100EA000802D0008AFF30080AFF30080AFF3008027
:100EB00008B503464FF0FF3069B1074AD3F804C0C4
:100EC000D2690D2013609362C2F804C05A60CCF856
:100ED0000020FFF72DFD08BD4C0D0020AFF3008072
:100EE0008A184FF0000C40600060C0F808C04161F3
:100EF0008161C1600261C361704700BFAFF30080D0
:100F000038B504460D46FFF7ABFBA269636993420F
:100F100018BFA26818D00132A26003F8015B2269F1
:100F20006361934228BFE368206828BF6361A042E1
:100F300008D0036823605C60FFF78AFC00238362AB
:100F4000184638BD0020FCE7A268002AE3D06FF005
:100F50000300F6E7AFF30080AFF30080AFF300804B
:100F600070B5202382B004460D4683F31188FFF745
:100F7000BFFAE3690BB120469847A6682046294688
:100F800066B9FFF795FF0028F7DA0190FFF7C8FA76
:100F9000334683F31188019802B070BDA369013E06
:100FA000A66013F8015B2269A361934224BFE36842
:100FB000A361FFF7B5FA002383F311882846EBE716
:100FC0002DE9F047044690468A461D46C769002A27
:100FD00038D0202383F31188FFF78AFA00260FB157
:100FE0002046B847D4F8089020462946B9F1000FAA
:100FF0000BD1FFF75DFF0028F4D0FFF791FA4B46C5
:1010000083F311883046BDE8F087A36909F1FF3901
:10101000C4F8089013F8012B0AF806202269A3618E
:10102000934224BFE368A361FFF77AFA002383F3B6
:1010300011880136B045E5D0202383F31188FFF7EE
:1010400057FACCE70148FFF773FBC2E7C02D000851
:1010500001EB020C40600060826041618161C1600F
:10106000C0F810C0C3617047AFF30080AFF30080D9
:10107000F0B5202383B004460D46164683F311884D
:10108000FFF736FAA7682046314667B9FFF710FF29
:101090000028F7DA0190FFF743FA3B4683F3118803
:1010A000019803B0F0BD6369013FA76003F8015BDD
:1010B00022696361934224BFE3686361E3690BB112
:1010C00020469847FFF72CFA002383F3118818462F
:1010D000E7E700BFAFF30080AFF30080AFF300801D
:1010E00038B50446FFF7BCFA6269A3699A4218BF93
:1010F000A26816D00132A26013F8015B2269A361D5
:10110000934228BFE368206828BFA361A04206D0AD
:10111000036823605C60FFF79BFB00238362284623
:1011200038BDA268002AE5D06FF00200F8E700BFE2
:101130002DE9F047044615460E469A46D0F81C8025
:10114000002A40D0202383F31188FFF7D1F900272C
:10115000D4F8089009F1FF33B9F1000F25D0A3604E
:101160003278636903F8012B22696361934224BFDB
:10117000E3686361B8F1000F01D02046C047FFF774
:10118000CFF9002383F31188013715F1FF3517D00C
:101190000136202383F31188FFF7AAF9D4F80890C9
:1011A00009F1FF33B9F1000FD9D120465146FFF7BD
:1011B0007FFE0028CCD0FFF7B3F94B4683F31188AC
:1011C0003846BDE8F0870248FFF7B2FABAE700BF39
:1011D000D42D0008AFF30080AFF30080AFF30080A0
:1011E00045F20001084840F6705240F66C53C2F2D6
:1011F0000001C2F2000220F00700C2F2000321F059
:10120000070110601960704777220020AFF300805B
:1012100008B500F03DFB00F0BBF943F2C020C0F67A
:10122000000001F065F800F00BF800F051F800F054
:10123000BFF800F045F901F0E3F808BDAFF3008016
:1012400008B500F0FDFB08BDAFF30080AFF30080F0
:101250000123037000234360704700BFAFF3008099
:1012600038B504460D46FFF7FBF964B12378022B2D
:1012700002D00748FFF75CFA032323702046294673
:1012800000F0EEFB38BD0348FFF752FAEEE700BF6F
:10129000402E0008282E0008AFF30080AFF3008036
:1012A00038B505460C46202383F31188FFF720F953
:1012B00028462146FFF7D4FFFFF732F9002383F3D6
:1012C000118838BDAFF30080AFF30080AFF300802A
:1012D00008B500F05DFD08BDAFF30080AFF30080FE
:1012E00008B5012203461A70002200F10C005A6072
:1012F000FFF79EFC08BD00BFAFF30080AFF3008096
:10130000806BD0F1010038BF00207047AFF3008040
:101310008069D0F1010038BF00207047AFF3008032
:1013200070B52023044683F311880026FFF7E0F808
:10133000A568A660FFF7F4F8334683F311882846C2
:1013400070BD00BFAFF30080AFF30080AFF300804B
:1013500008B51030FFF734FE08BD00BFAFF30080C2
:1013600008B510304FF0FF33FFF72AFE08BD00BF6D
:1013700008B53030FFF7DCFE08BD00BFAFF30080DA
:1013800008B530304FF0FF33FFF7D2FE08BD00BF85
:1013900008B51030FFF7E4FD08BD00BFAFF30080D3
:1013A00008B53030FFF764FE08BD00BFAFF3008022
:1013B00008B500F0F5FD08BDAFF30080AFF3008085
:1013C00038B50B4642F630718446C0F6000104463B
:1013D0004CF8041BC4F804C04FF0000CC4F808C05B
:1013E0004FF0010C04F15001154600F110004FF4CC
:1013F000007284F80CC0FFF773FD04F5147104F15A
:1014000030004FF400722B46FFF722FE38BD00BFBC
:1014100038B504460D46C0B1202383F31188FFF789
:1014200067F8237B013BDBB2012B02D90948FFF7A8
:101430007FF92046294600F0DBFD02232373FFF7E6
:101440006FF8002383F3118838BD0348FFF770F964
:10145000E2E700BFDC2E0008D02E0008AFF30080CA
:1014600038B504460D46FFF7FBF8002C20D0A169E3
:1014700039B104F110002946FFF742FD00280EDBC8
:1014800038BDA368201D43F00403A360FFF7F0FC00
:1014900004F110002946FFF733FD0028F0DAA368B5
:1014A000201D43F08003A3600021FFF7E1FCE7E784
:1014B0000148FFF73DF9DAE7082F0008AFF3008095
:1014C00008B500F03DFE08BDAFF30080AFF300802B
:1014D00008B500220346012100F10C0019705A6082
:1014E0009A60FFF7A5FB08BDAFF30080AFF3008063
:1014F00038B5D0F1010338BF0023002908BF43F0FD
:10150000010304460D46C3B9202383F31188FEF777
:10151000EFFF2378013BDBB2012B02D90948FFF72B
:1015200007F92046656000F04BFE02232370FEF7AA
:10153000F7FF002383F3118838BD0348FFF7F8F85D
:10154000E2E700BF702F0008602F0008AFF30080B3
:101550004FF48053CEF200035B688360704700BF96
:101560004FF48053CEF2000308495A688368096833
:10157000D31AC2685B1A9342836088BFC36003D8E2
:101580000269934238BF0361704700BF740D0020A9
:1015900030B541F2515287B0C0F6000240F67454A3
:1015A000002301ADC2F20004019241F26152C0F683
:1015B000000228462360039304934FF0FF33029206
:1015C0000593FFF7C5FF029B28469847039B2360BE
:1015D00007B030BDAFF30080AFF30080AFF3008001
:1015E00008B5FEF7FDFF0A4800220368C4F20202B4
:1015F0004FF00F0C1168C2F804C01BB1406801EA3B
:101600000C019847FFF70CF8FEF732FE08BD00BF4B
:10161000780D0020AFF30080AFF30080AFF30080BF
:1016200008B5FEF7DDFF0A4800228368C4F2020213
:101630004FF0F00C1168C2F804C01BB1C068C1F3D0
:1016400003119847FEF7ECFFFEF712FE08BD00BF3E
:10165000780D0020AFF30080AFF30080AFF300807F
:1016600008B5FEF7BDFF0A4800220369C4F2020272
:101670004FF4706C1168C2F804C01BB14069C1F32B
:1016800003219847FEF7CCFFFEF7F2FD08BD00BF2F
:10169000780D0020AFF30080AFF30080AFF300803F
:1016A00008B5FEF79DFF0A4800228369C4F20202D2
:1016B0004FF4704C1168C2F804C01BB1C069C1F38B
:1016C00003319847FEF7ACFFFEF7D2FD08BD00BF1F
:1016D000780D0020AFF30080AFF30080AFF30080FF
:1016E00008B5FEF77DFF0A480022036AC4F2020231
:1016F0004FF4702C1168C2F804C01BB1406AC1F3EA
:1017000003419847FEF78CFFFEF7B2FD08BD00BF0E
:10171000780D0020AFF30080AFF30080AFF30080BE
:1017200008B5FEF75DFF0A480022836AC4F2020290
:101730004FF4700C1168C2F804C01BB1C06AC1F349
:1017400003519847FEF76CFFFEF792FD08BD00BFFE
:10175000780D0020AFF30080AFF30080AFF300807E
:1017600008B5FEF73DFF0A480022036BC4F20202EF
:101770004FF0706C1168C2F804C01BB1406BC1F32C
:1017800003619847FEF74CFFFEF772FD08BD00BFEE
:10179000780D0020AFF30080AFF30080AFF300803E
:1017A0000C49002310B4DFF830C00C4C0B601A4613
:1017B0001946E0580C3301604CF802100832542BE3
:1017C000F7D10023C4F202034FF0FF325A6010BC7D
:1017D000704700BFB00D0020780D0020E0310008F8
:1017E0002DE9F041044684B000283BD094F809C0AC
:1017F000012505FA0CF8204E376818EA070F18BFC4
:1018000028462CD11D4848EA070700EBCC0517F005
:101810007F0F6B6018BF4FF48053376018BFC4F25E
:10182000020340F83C2018BF58694FF00F0C1CBF52
:1018300040F001005861237A60680CFA03FC2368C9
:1018400000251E6826F001061E60C0F800C01D605D
:10185000104622B1A07A0901FEF772FD284604B0B5
:10186000BDE8F0810648039102920193FEF760FF04
:10187000019B029A0399B9E7B00D0020780D002072
:10188000A0310008AFF30080AFF30080AFF3008019
:101890004FF4805310B5C4F2020300214FF0FF3E15
:1018A0004EF2100243F27F20D3F810C0CEF20002B5
:1018B000C3F810E0C0F202001961DC684EF6F05C7B
:1018C000C3F80CE0D960506007209160CEF2000CA4
:1018D0001060DCF80C204FF4805042F08072CCF89D
:1018E0000C20CEF20000D0F800C04FF4E0424CF0E3
:1018F000010CC0F800C0D869C4F2000240F080506A
:10190000D861D86940F00060D861106840F48070F8
:1019100010601A6A02F44072B2F5407F1EBF4FF4A5
:1019200080321A6219624FF48053C4F202031A6AB9
:1019300012F4004F07D11A6A42F440721A621A6A0E
:1019400042F400421A62FFF72BFF10BDAFF3008094
:101950004FF48053C4F202031A68194642F00102A0
:101960001A600A684FF4805312F0020FC4F20203A7
:10197000F7D01A68194602F0F9021A6000225A607C
:101980004A684FF4805312F00C0FC4F20203F7D1EF
:101990001A68194642F480321A600A684FF480537C
:1019A00012F4003FC4F20203F7D05A68194642F419
:1019B000E8125A601A6842F080721A600A684FF49E
:1019C000805312F0007FC4F20203F7D04FF4C841F5
:1019D000C0F21D014FF400525960C4F202021221FC
:1019E000116059681A4641F002015960536803F0CA
:1019F0000C03082BFAD17047AFF30080AFF30080DF
:101A000008B5FEF7EDFD0A4B00201978DA680429C5
:101A1000108204D1022119701080108290815B68BD
:101A200003485B689847FEF7FBFDFEF721FC08BD05
:101A3000B40D0020AFF30080AFF30080AFF300805F
:101A400008B540F6B4504FF43053C2F20000C4F26F
:101A50000103C360FFF7FCFB08BD00BFAFF30080CC
:101A6000C368012200200139D9629A825862188223
:101A70009A8105221A807047AFF30080AFF300808F
:101A8000F8B5634CFEF7ACFD256B94F834302A8B27
:101A9000AE8A92B2B6B2CBB9022346EA024222F033
:101AA0007F42C0F203039A426ED054D80123C0F2A1
:101AB00003039A4201D1238C2B8216F00A0F18BF20
:101AC0002B8BFEF7ADFDFEF7D3FBF8BD16F00A0F2A
:101AD00005D0AE8A00232A8BB6B22364236516F0A4
:101AE000800F0CD0236DA26C216CD05CE26C0133B2
:101AF00091422882236502D3454B00221A6516F0D5
:101B0000400F0BD0226C288AA16B531C8854E26BC7
:101B10002364934202D33E4B00221A6416F0100F46
:101B20000AD0AE8A2A88636C92B242F00102B6B241
:101B30002A800BB13648984716F4806FC1D0AA8A24
:101B4000636D22F480621204120CAA82002BB8D0BA
:101B50002F489847B5E78223C0F207039A422ED058
:101B60008423C0F207039A42A7D1A36A1B685F6867
:101B7000002F31D02B88228C9BB242F0010243F41B
:101B8000A06322842B809CE7AB88A26A23F40073B5
:101B90001B0412681B0CAB80136843F00103136035
:101BA000AB889BB243F48053AB805368012B84D83D
:101BB0002B8823F480631B041B0C2B807DE7AB88F0
:101BC000E26A23F400731B0412681B0CAB801368D9
:101BD00043F00103136070E7AA88202322F4007207
:101BE0001204120CAA802A8892B242F400722A804F
:101BF00083F31188FEF7B4FCE06918B18762E761EE
:101C0000FEF726FEFEF7CCFC002383F3118854E791
:101C1000C40D0020AFF30080AFF30080AFF300806D
:101C200070B5594DFEF7DCFC2C6B202383F3118833
:101C3000FEF796FCEB6A0F2193F808C01A6801FAC8
:101C40000CFCD2F800E058682EF0010EAB6AC2F826
:101C500000E0C0F800C0187A1A68814010685B681C
:101C600020F0010010601960FEF79AFC002383F356
:101C70001188A68A16F4807606D0A38A012623F45A
:101C800080731B041B0CA382A38A13F4007F07D06C
:101C9000A38A46F0020623F400731B041B0CA382E4
:101CA00095F834303848002B32D1A38A13F4806F72
:101CB00039D1A38A13F4006F07D0A38A46F008062F
:101CC00023F400631B041B0CA382A38A13F4805F1C
:101CD00007D0A38A46F0100623F480531B041B0C84
:101CE000A382A38A13F4804F07D0A38A46F020066C
:101CF00023F480431B041B0CA382A38A1BB2002B7A
:101D000025DB002E29D1FEF78BFCFEF7B1FA70BD62
:101D1000A28A436D22F480621204120CA282002B6C
:101D2000C7D09847C5E7A38A46F0040623F480632A
:101D30001B041B0CA382A38823F400731B041B0C3D
:101D4000A38023889BB243F400732380B1E7A38A66
:101D500046F040065B045B0CA382AE60202383F355
:101D60001188FEF7FDFBE86938B1074B0022DA6104
:101D70006FF001038362FEF76BFDFEF711FC002399
:101D800083F31188BFE700BFC40D0020AFF30080CC
:101D900010B540F6C454C2F200042046FFF7A0FA82
:101DA000064B4FF4A842C4F20002A3F10C0100203C
:101DB000E0612263A362E16210BD00BF2832000827
:101DC0004FF46053C4F201039A8992B242F0800248
:101DD0009A817047AFF30080AFF30080AFF30080CB
:101DE0004FF48843C4F200039A8992B242F0800211
:101DF0009A817047AFF30080AFF30080AFF30080AB
:101E00002DE9F845D0F850640546B7893488B6F80E
:101E10000480A4B214F00F0FBFB21FFA88F826D0C6
:101E200014F0080A18BF4FF0800A14F0010F18BF11
:101E30004AF0200A14F0020F18BF4AF0400A14F0CA
:101E4000040F18BF4AF4807A202383F31188FEF729
:101E500087FBAB68281D43EA0A0A0021C5F808A0E1
:101E6000FFF706F8FEF79CFB002383F3118814F4B8
:101E7000807F3AD114F0200F27D117F0800F02D0C5
:101E800014F0800F4AD114F0400F1CD0202383F3AC
:101E90001188FEF765FBAB68281D43F01003AB60AB
:101EA0000021FEF7E5FFFEF77BFB002383F311889B
:101EB0004FF6BF7307EA0303B381338823F040036F
:101EC0001B041B0C3380BDE8F885202383F31188A5
:101ED000FEF746FB5FFA88F12846FFF7C1FAFEF7E6
:101EE0005FFB002383F31188C7E7202383F3118866
:101EF000FEF736FBAB68281D43F40073AB6000218E
:101F0000FEF7B6FFFEF74CFB002383F311883388FE
:101F100023F480731B041B0C3380ABE7202383F373
:101F20001188FEF71DFB05F13000FFF7D9F80028F6
:101F3000A4BF80B2B08005DBFEF732FB002383F341
:101F40001188A0E7AB68281D43F00803AB600021AF
:101F5000FEF78EFF27F0C00343F04003B381EBE7A9
:101F600008B5FEF73DFB40F61C60C2F20000FFF72B
:101F700047FFFEF755FBFEF77BF908BDAFF3008086
:101F800008B5FEF72DFB41F27020C2F20000FFF70A
:101F900037FFFEF745FBFEF76BF908BDAFF3008096
:101FA00038B540F61C65C2F2000541F6C152C0F6D4
:101FB00000022846002141F27024FFF701FAC2F224
:101FC000000441F6E1524FF46053C4F20103C0F63D
:101FD000000220460021C5F85034FFF7F1F94FF414
:101FE0008843C4F20003C4F8503438BDAFF3008016
:101FF00038B5254A037B0C46002908BF1446012B3F
:10200000054620D021684FF4A242C0F22522D5F81F
:102010005034B2FBF1F292B21A81A288E088218991
:1020200042F4045242F02C0292B240F0400041F0DF
:1020300001019A8180B2002289B2188299821A80A5
:102040001A889B8838BD114B98420FD0104B98428C
:10205000D8D14FF48053C4F20203DA69262042F447
:102060000032DA61C021FEF76BF9CBE74FF4805301
:10207000C4F202039A69252042F480429A61C02189
:10208000FEF75EF9BEE700BF403200081C0E0020DC
:1020900070120020AFF30080AFF30080AFF3008038
:1020A00011F0080F08B501D0FEF7A2F808BD00BF77
:1020B00011F0080F70B5054638D16B6A0F2193F8FF
:1020C00008C01A6801FA0CFC1468586824F001046E
:1020D0002B6A1460C0F800C0187A1A6881406C68D6
:1020E000D2F800C0586823682CF0010CC2F800C078
:1020F0000160C3B104222A70284698472B78042B2C
:1021000011D0AE6876B10024AC60202383F311882F
:10211000FEF726FA3046FEF79BFBFEF741FA234610
:1021200083F3118870BD02232B70EAE7FEF760F895
:10213000C3E700BFAFF30080AFF30080AFF30080D0
:102140002DE9F04141F2C46341F2C865C2F20005D5
:10215000C2F200034FF0FF32154E1A80284641F2BA
:10216000F864FFF7B5F9C2F200044FF4405306F1EA
:102170000C02C4F2010341F20A0841F2180720469A
:10218000EB612E626A62C5F82880EF62FFF7A0F962
:102190004FF4605306F11802C4F200032436E361E1
:1021A00022626662C4F82880E762BDE8F08100BF61
:1021B000EC310008AFF30080AFF30080AFF3008094
:1021C00038B503780446012B18BFC36926D062686E
:1021D000528912F4006F18D0A06AE16A20F45060AE
:1021E00021F4506140F4A06041F4A061A062E1627A
:1021F00042F44172002119801A8007229A801A88BD
:1022000092B242F040021A8038BDA06AE16A20F41E
:10221000406021F44061A062E162E9E7264DA842F6
:102220000CD0264DAC4220D0216A626AE36908686E
:10223000116803F10C0282608A60C8E7006A0A2113
:102240001F4A2346FFF7CCFA50BB686A0A211D4A91
:10225000194BFFF7C5FAF8B94FF48053C4F20203E3
:102260009A6942F480529A61DBE7206A0A21144A93
:102270002346FFF7B5FAD8B9686A0A21114A0F4B0D
:10228000FFF7AEFA80B94FF48053C4F20203DA6963
:1022900042F48042DA61C7E70B48FEF749FADBE710
:1022A0000A48FEF745FAD0E70948FEF741FAEAE79F
:1022B0000848FEF73DFADFE7C8160020F8160020B0
:1022C000B1200008A1200008643200085032000844
:1022D0008C32000878320008AFF30080AFF3008042
:1022E000436801211A895B6811FA02F21A6170478A
:1022F0004FF48053C4F202039A6942F07D029A615E
:1023000003684FF40062C4F20102D36081684FF4A5
:10231000406351604168C4F201031160C2684FF428
:102320008051DA604269C4F201015A60D0F810C0ED
:102330004FF4A052C3F800C08369C4F20102CB601D
:10234000D0F820C04FF4C053C1F804C0D0F81CC06E
:10235000C4F20103C1F800C0416AD160C16A516092
:10236000816A1160026BDA60826B5A60426B1A609C
:10237000704700BFAFF30080AFF30080AFF3008081
:10238000032A70B408BF016102D0042A08BF41616A
:10239000DFF858C000231CF8026008259C461A4646
:1023A0001C4600E04900120124011B0111F0800FBE
:1023B00008BF42F00F024FEA0C1C18BF334311F460
:1023C000004F0CBF44F00F044CEA060C15F1FF352A
:1023D000E8D141680C4044EA0C0CC0F804C0016824
:1023E0000A4042EA0303036070BC7047A032000851
:1023F00008B5FFF7ADFA08BDAFF30080AFF300807A
:10240000704700BFAFF30080AFF30080AFF30080F0
:1024100008B5FEF7FDFEFDF7E3FF00F069F900F0F7
:10242000C7FA00F045FA00F063FB00F0A1F800F0F5
:10243000BFF800F0BDF8FAE7AFF30080AFF300801B
:10244000D0F1010338BF00235C2808BF43F001032B
:1024500010B504462BB106485C214FF0FF32FEF761
:1024600007FE21464FF0FF320148FEF701FE10BD86
:102470004C0E0020AFF30080AFF30080AFF300807C
:1024800008B500214FF0FF320148FEF7F1FD08BD0D
:102490004C0E0020AFF30080AFF30080AFF300805C
:1024A00008B57B20FFF7CCFF0020FFF7C9FFFFF73F
:1024B000E7FF08BDAFF30080AFF30080AFF300800B
:1024C00030B50A4B83B002AD93E8030045F8080D20
:1024D0006C1EADF80410043514F8010FFFF7B0FFBF
:1024E000AC42F9D1FFF7CCFF03B030BD2033000878
:1024F00030B50A4B85B0EC460FCB8CE80F000DF1E0
:10250000FF340DF10E0514F8010FFFF799FFAC42EF
:10251000F9D1FFF7B5FF05B030BD00BF2833000883
:1025200008B5837890F801C00278C17802EB0C20DE
:1025300003EB012100F0CCFA08BD00BFAFF300802F
:1025400008B5837890F801C00278C17802EB0C20BE
:1025500003EB012100F0ACFA08BD00BFAFF300802F
:1025600008B5007800F0F4F808BD00BFAFF30080B4
:1025700010B540F61C604FF400640021C4F2010461
:10258000C2F20000FEF744FF204610224FF4007113
:10259000FFF7F6FE20464FF480610222FFF7F0FEBF
:1025A00010BD00BFAFF30080AFF30080AFF3008039
:1025B00010B529484FF0FF31FEF7D2FC831C012BE8
:1025C0000ED9264AC0B213785BB9C0B92449254C4C
:1025D0000B782068012B1ED0022B32D00023236001
:1025E00010BD204C4FF0000C216882F800C04B1C3D
:1025F0001B4A202BA8BF202350542360F0E75C28FF
:1026000016D0184C16492268531C202BA8BF202333
:1026100088542360E4E70128E0DD134A4B1C0818C6
:1026200013F8011B834202F8011FF9D10023D6E7FA
:102630000C4C012123681170202BA8BF202323609C
:10264000CEE74B78094A052BC8BF002352F8233048
:10265000074898470023C2E72C0E00206C17002083
:102660002C170020281700204B17002000330008EB
:102670004C170020AFF30080AFF30080AFF3008071
:10268000154B164ADB692DE9F0414FF48054144E86
:10269000144D9A61C4F201044FF480484FF400577E
:1026A0001148FEF75DFB33682B6013F0010F17BF75
:1026B000E268C4F8148082F48042E26013F0020FF2
:1026C00017BFE368676183F40053E360FEF758FBCC
:1026D0007D20FEF75DFAE3E74C0D00204033000853
:1026E000801700203819002070170020AFF30080F9
:1026F00030B54FF48054C4F201044FF480414FF4DC
:10270000005583B06161062220466561FFF738FEFF
:10271000294606222046FFF733FE41F27070C2F2CE
:102720000000FEF785FA002241F2887042F28163D0
:102730000092C0F600034FF4D8714022C2F20000AC
:10274000FEF7EEF903B030BDAFF30080AFF30080C9
:1027500041F27073C2F2000310B504461846FEF74A
:10276000FFFA41F28073C2F200031C60FEF708FB1F
:1027700010BD00BFAFF30080AFF30080AFF3008067
:1027800038B5202383F31188274DFDF7E9FE29682A
:102790000131CA17920F8B1803F003039B1A13F031
:1027A000010F2B6030D04FF400620121C4F201020E
:1027B00013F0020F116130D04FF40063C4F2010333
:1027C00002221A61194C1A48FFF78AFD2169E36851
:1027D000A268CB1A9B1A032B10D92978154D2046D5
:1027E000FEF78EFB29782046FEF78AFB69782046A3
:1027F000FEF786FBA9782046FEF782FBFDF7D0FEA8
:10280000002383F3118838BD4FF400620121C4F224
:10281000010213F0020F5161CED14FF40063C4F2F4
:10282000010302225A61CDE7601900203C19002003
:10283000C81600205C190020AFF30080AFF30080C1
:10284000F8B5164B164ADB69164E9A614FF0FF3108
:102850001548FEF785FB4FF0FF3104461248FEF79E
:102860007FFB4FF0FF3105460F48FEF779FB4FF035
:10287000FF3107460C48FEF773FB000400EB072707
:10288000202383F311887F19FDF732FE46F8247068
:10289000FDF746FE002383F31188D7E74C0D002097
:1028A00040330008000800203C190020AFF30080EE
:1028B00010B54FF40064002382B0C4F2010420225A
:1028C00027482849FEF70CFB012106222046FFF786
:1028D00057FD022106222046FFF752FD202110223B
:1028E0002046FFF74DFD402110222046FFF748FD0E
:1028F000802110222046FFF743FD062210212046AA
:10290000FFF73EFD184B10221B68226113F0010FE8
:1029100019D0012213F0020F226119D14FF4006384
:10292000C4F2010302225A6110491148FEF7E0FD8A
:10293000002300934FF40B6140220E4B0E48FEF72C
:10294000EFF802B010BD012213F0020F6261E5D072
:102950004FF40063C4F2010302221A61E4E700BFEE
:102960003C19002018220020601900205033000874
:10297000C81600204128000868190020AFF3008025
:1029800008B5202383F31188FDF7EAFD41F2F860D2
:10299000C2F20000FFF7A4FCFDF702FE002383F360
:1029A000118808BDAFF30080AFF30080AFF3008063
:1029B000F8B542F2382042F258214FF44064C4F294
:1029C000010400231822C2F20000C2F20001FEF747
:1029D0003FFB102220464FF40051FFF7D1FC204668
:1029E00010224FF48041FFF7CBFC204610224FF419
:1029F0000041FFF7C5FC4FF480674FF400714FF4BE
:102A000000664FF480552161062227612046266129
:102A10002561FFF7B5FC204639460622FFF7B0FCDA
:102A2000204631460622FFF7ABFC20462946062207
:102A3000FFF7A6FC41F2F86040F61001C2F2000177
:102A4000C2F20000FEF754FDF8BD00BFAFF30080F6
:102A500070B5202306460C4683F31188114DFDF70F
:102A600047FDAB68022B07D80124FDF759FD002371
:102A700083F31188204670BDF1B24FF0FF32284633
:102A8000FEF7F6FAE1B24FF0FF322846FEF7F0FA11
:102A9000C4F3072128464FF0FF32FEF7E9FA00247D
:102AA000E3E700BF38220020AFF30080AFF30080DF
:102AB00038B503460D4600201946FFF7C9FF2946E1
:102AC00004460120FFF7C4FF001938BDAFF30080B2
:102AD00038B503460D4602201946FFF7B9FF2946CF
:102AE00004460320FFF7B4FF001938BDAFF30080A0
:102AF00040F6B45008B5C2F200005A21FEF7D0FBF0
:102B000008BD00BFAFF30080AFF30080AFF30080DB
:102B100069646C65000000006D61696E0000000072
:102B200053562331000000005356233200000000AA
:102B30005356233300000000535623340000000096
:102B40005356233500000000535623360000000082
:102B5000535623370000000053562338000000006E
:102B60005356233900000000535623313000000033
:102B70005356233131000000000000000000000027
:102B800022636856545365744922282900000000C6
:102B900022636856545265736574492228290000DF
:102BA0006368565452657365744928292C20233173
:102BB0000000000000000000000000000000000015
:102BC000636853636852656164794928292C20231E
:102BD00031000000737461636B206F766572666C00
:102BE0006F770000000000000000000000000000FF
:102BF00022636854686443726561746549222829B8
:102C00000000000022636854686453657450726960
:102C10006F72697479222829000000006368546883
:102C200064526573756D6528292C202331000000DE
:102C3000226368546864536C65657022282900001B
:102C40006368546864457869745328292C202331BB
:102C50000000000022636854686457616974222888
:102C60002900000063685468645761697428292C3E
:102C700020233100000000000000000000000000E0
:102C80002263684D7478496E697422282900000017
:102C90002263684D74784C6F636B532228290000BF
:102CA00063684D74784C6F636B5328292C20233153
:102CB0000000000063684D74784C6F636B532829E3
:102CC0002C202332000000002263684D7478547277
:102CD000794C6F636B5322282900000063684D74A0
:102CE00078556E6C6F636B28292C2023310000000F
:102CF00063684D7478556E6C6F636B28292C2023A4
:102D00003200000063684D7478556E6C6F636B53CE
:102D100028292C202331000063684D7478556E6C8F
:102D20006F636B5328292C20233200000000000021
:102D300022636845767452656769737465724D6184
:102D4000736B222829000000226368457674556E53
:102D50007265676973746572222829002263684569
:102D600076745369676E616C49222829000000005F
:102D70002263684576745369676E616C2228290066
:102D800022636845767442726F6164636173744D47
:102D900061736B492228290022636845767444696F
:102DA00073706174636822282900000063684576A7
:102DB00074446973706174636828292C202331007E
:102DC00022636849515265616454696D656F757419
:102DD000222829002263684F51577269746554692B
:102DE0006D656F7574222829000000000000000046
:102DF00022707453746172742228290067707453AE
:102E00007461727428292C202331000022677074A9
:102E100053746F702228290067707453746F702880
:102E2000292C2023310000002267707453746172D2
:102E300074436F6E74696E756F757349222829002B
:102E40006770745374617274436F6E74696E756FDA
:102E500075734928292C20233100000022677074E3
:102E600053746172744F6E6553686F7449222829D8
:102E70000000000067707453746172744F6E655384
:102E8000686F744928292C20233100002267707450
:102E900053746F7054696D657249222829000000CF
:102EA00067707453746F7054696D65724928292C6A
:102EB00020233100677074506F6C6C656444656CDE
:102EC000617928292C202331000000000000000037
:102ED00022736453746172742228290073645374DA
:102EE00061727428292C202331000000227364535E
:102EF000746F702228290000736453746F7028293E
:102F00002C20233100000000227364496E636F6D32
:102F1000696E6744617461492228290022736452F2
:102F200065717565737444617461492228290000D4
:102F30008113000861130008011300081113000831
:102F4000A113000891130008711300085113000821
:102F50002113000800000000000000000000000035
:102F60002273706953746172742228290000000072
:102F7000737069537461727428292C202331000006
:102F80002273706953746F7022282900737069531B
:102F9000746F7028292C202331000000227370697F
:102FA00053656C65637422282900000073706953AF
:102FB000656C65637428292C2023310022737069A5
:102FC000556E73656C6563742228290073706955AA
:102FD0006E73656C65637428292C20233100000012
:102FE00022737069537461727449676E6F726522DF
:102FF00028290000737069537461727449676E6F99
:10300000726528292C20233100000000227370698A
:10301000537461727445786368616E67652228290C
:1030200000000000737069537461727445786368BE
:10303000616E676528292C20233100002273706996
:10304000537461727453656E642228290000000075
:10305000737069537461727453656E6428292C20EF
:103060002331000022737069537461727452656376
:1030700065697665222829007370695374617274DA
:103080005265636569766528292C2023310000008C
:103090002273706949676E6F72655761697422287F
:1030A0002900000073706949676E6F726528292CCA
:1030B0002023310073706949676E6F726528292C6F
:1030C000202332005F7370695F7761697428292C4F
:1030D000202331002273706945786368616E6765EB
:1030E0002228290073706945786368616E676528D6
:1030F000292C2023310000007370694578636861D2
:103100006E676528292C2023320000002273706925
:1031100053656E642228290073706953656E6428B4
:10312000292C20233100000073706953656E6428D8
:10313000292C2023320000002273706952656365D8
:103140006976652228290000737069526563656994
:10315000766528292C202331000000007370695205
:1031600065636569766528292C20233200000000FC
:1031700022737069416371756972654275732228A3
:10318000290000002273706952656C6561736542A5
:1031900075732228290000000000000000000000D4
:1031A00022646D61416C6C6F636174652228290033
:1031B00022646D6152656C65617365222829000087
:1031C000646D6152656C6561736528292C2023311B
:1031D00000000000000000000000000000000000EF
:1031E000080002400400024000000B001C000240E6
:1031F0000400024004010C003000024004000240C0
:1032000008020D0044000240040002400C030E00BE
:10321000580002400400024010040F006C000240FD
:103220000400024014051000800002400400024027
:10323000180611000000000000000000000000005F
:1032400000C201000000004000000000000000007B
:103250007370695F6C6C645F737461727428292C7D
:10326000202331007370695F6C6C645F73746172EA
:103270007428292C202332007370695F6C6C645FA2
:10328000737461727428292C202333007370695F72
:103290006C6C645F737461727428292C2023340071
:1032A00004020408080003070808080808080808BA
:1032B0000B0F0000000000000000000000000000F4
:1032C000FFFFFFFF4444444444444444FFFFFFFFE6
:1032D0004444444444444444FFFFFFFF44444444C2
:1032E00044444444FFFFFFFF4444444444444444B2
:1032F000FFFFFFFF88888888888888880000000092
:10330000F1240008C12400086125000841250008B7
:1033100021250008A1240008000000000000000092
:10332000302E302E310000006469676974697A6557
:10333000722D312E302E3000000000000000000001
:103340006C640000000000000000000000000000AD
:0C33500081270008000801400400000074
:10336000FFFFFFFFFFFFFFFFFFFFFFFFFFFFFFFF6D
:0C33700081290008000C01400900000049
:0400000508000111DD
:00000001FF
