:020000040800F2
:100000000004002011010008E1010008E1010008DE
:10001000E1010008E1010008E1010008E101000838
:10002000E1010008E1010008E101000811020008F7
:10003000E1010008E1010008E1010008E102000817
:10004000E1010008E1010008E1010008E101000808
:10005000E1010008E1010008E1010008E1010008F8
:10006000E1010008E1010008E10100087115000844
:10007000B1150008F11500083116000871160008C6
:10008000B1160008F1160008E1010008E1010008BE
:10009000E1010008E1010008E1010008E1010008B8
:1000A000E101000891190008E1010008E1010008E0
:1000B000E1010008E1010008E1010008E101000898
:1000C000E1010008E1010008E1010008E101000888
:1000D000E1010008311C0008511C0008E101000882
:0C00E000E1010008E1010008E101000856
:1000F000704700BFAFF30080AFF30080AFF3008024
:10010000FEE700BFAFF30080AFF30080AFF30080E5
:1001100072B6244A82F30988022383F31488BFF35A
:100120006F8F214B21498B4205D24FF0553043F858
:10013000040B8B42FBD31E4B934205D24FF055313B
:1001400043F8041B9342FBD301F0FAFF194B1A4802
:10015000834206D2194A52F8041B43F8041B834217
:10016000F9D3174B174A934204D2002143F8041BDA
:100170009342FBD3144D154CFFF7BAFFAC4204D2A7
:1001800054F8043B9847AC42FAD3114D114C01F09E
:10019000E7FFAC4204D254F8043B9847AC42FAD390
:1001A000FFF7AEFF00080020000000200004002040
:1001B00000040020000800204408002078330008D4
:1001C00048080020081C0020EC000008EC00000893
:1001D000EC000008EC000008AFF30080AFF30080F3
:1001E000FEE700BFAFF30080AFF30080AFF3008005
:1001F00072B6FEE7AFF30080AFF30080AFF300808C
:1002000000F076F900F0ECFB00F08AF900DF00BFA7
:10021000EFF30983203383F30988002383F31188E4
:10022000704700BFAFF30080AFF30080AFF30080F2
:1002300008B500224FF46D43CEF20003C0F2FA522B
:10024000002199600720DA60102100F0A1F80A204F
:100250004FF4007100F09CF80B20802100F098F81A
:1002600008BD00BFAFF30080AFF30080AFF30080A4
:10027000202383F311884FF46D43CEF200035B68B3
:1002800013F4006316D0EFF30983203B83F309884E
:10029000104A4FF080709169D86171B11168D269CC
:1002A00089689268914294BF002201227AB10A4A79
:1002B0009A6101E083F3118870471168D2698968F7
:1002C0009268914234BF00220122002AEFD1034AF2
:1002D0009A61F1E7740D0020010200080C02000889
:1002E00008B500F07DF9202383F3118800F038F978
:1002F00000F0B6F800F054F9002383F3118800F001
:100300008FF9FFF7B5FF08BDAFF30080AFF30080B2
:100310002DE9F04FC1F80CD0D0F80CD0BDE8F08F2B
:1003200008B500F0FDF8002383F311882846A047A4
:1003300000F06EFC08BD00BFAFF30080AFF300809B
:1003400000F0030330B4DB00FF259D4000F01F02E6
:1003500011FA03F34FF0010C0CFA02FC84084FF47D
:100360006142CEF20002C03452F82410400921EA62
:10037000050141EA030300F1600142F8243042F82C
:1003800021C042F820C030BC704700BFAFF30080EE
:1003900000F0030310B4DB00FF249C4011FA03F3C8
:1003A00080084FF46D42CEF20002063052F820C0B1
:1003B0002CEA040141EA030342F8203010BC7047E4
:1003C000024B034ADB699A61FEE700BF740D00200F
:1003D000F02B0008AFF30080AFF30080AFF3008094
:1003E00030B583B0FFF724FF00F022FA00F0B0F937
:1003F00000F0F6FE00F064F940F648004021C2F239
:10040000000000F015FB40F6745440F20043C2F2C5
:100410000003C2F200040125E06180F82050C361AE
:1004200000F04EF8002383F3118862B642F6F831EB
:10043000E269C0F60001916140F69000002240F2AE
:10044000C1330092C0F60003C0212A46C2F2000068
:1004500000F066FB03B030BDAFF30080AFF3008067
:1004600070B500F0FDF8114B9A69002A01DD013AE0
:100470009A61DB690E4C596A226801315962E3685E
:100480000133A242E3600FD09568013D95605DB9EC
:1004900026461168D3681069D5604E602160984780
:1004A00022689368002BF4D070BD00BF740D00204B
:1004B000640D0020AFF30080AFF30080AFF3008045
:1004C00008B5064B1B6813B9054B1B6823B1054AD9
:1004D000054B1A60FFF78CFE08BD00BF50090020D5
:1004E0005C0D0020102C0008600D0020AFF3008090
:1004F000074B10B51B68074C13B9064C236823B192
:10050000054A064B1A60FFF773FE0123236010BDF6
:10051000500900205C0D0020182C0008600D002000
:10052000084B10B51B68084C33B9074C2368002BE7
:1005300002DD0023236010BD044A054B1A60FFF75B
:1005400057FEF6E7500900205C0D0020202C000823
:10055000600D0020AFF30080AFF30080AFF30080A8
:10056000084B10B51B68002BD8BF074C02DD064CAA
:10057000236823B1054A064B1A60FFF739FE0123B1
:10058000236010BD500900205C0D0020282C0008BD
:10059000600D0020AFF30080AFF30080AFF3008068
:1005A000094B10B51B68002BD8BF084C06DD074C63
:1005B0002368002B02DD0023236010BD044A054B95
:1005C0001A60FFF715FEF6E7500900205C0D0020C9
:1005D000302C0008600D0020AFF30080AFF30080E6
:1005E00010B5202383F31188094C2368002B02DB0C
:1005F000084A12682AB1084B084A1A60FFF7F8FD4A
:10060000236801332360002383F3118810BD00BFEA
:10061000500900205C0D0020600D0020382C0008DF
:1006200010B5202383F31188094C2368002B02DDC9
:10063000084A12682AB1084B084A1A60FFF7D8FD29
:100640002368013B2360002383F3118810BD00BFA2
:10065000500900205C0D0020600D0020402C000897
:1006600008B5074B1B68002B04DB064B1B68002BEF
:1006700000DD08BD044A054B1A60FFF7B9FDF8E735
:10068000500900205C0D0020482C0008600D00205F
:1006900008B5074B1B6823B9064B1B68002B00DD10
:1006A00008BD054A054B1A60FFF7A2FDF8E700BF39
:1006B000500900205C0D0020502C0008600D002027
:1006C00040F65413C2F200031A46402142F8081BB8
:1006D0005A607047AFF30080AFF30080AFF3008043
:1006E00070B40D4A0D495368CE680D49846ACD69CE
:1006F00090F820C003F1100102F5816081421E6074
:100700005D609C6083F80CC028BF02F10803516053
:1007100028BF536070BC704754090020640D00204E
:10072000740D0020AFF30080AFF30080AFF30080C2
:1007300008B540F66053C2F200031860FFF758FD99
:1007400008BD00BFAFF30080AFF30080AFF30080BF
:1007500040F66453C2F200034FF0FF329A60002269
:100760005B601B60DA607047AFF30080AFF300801E
:10077000F8B5044615461F460E46FFF771FFD4F143
:10078000010338BF0023002D08BF43F00103002BF5
:1007900019D1002E17D00E4927610B68E5609A68C1
:1007A000964204D91B68B61A9A68B242FAD35A68BC
:1007B0008B422360626014605C60A66002D09A681D
:1007C000961B9E60F8BD0348FFF7B2FFE3E700BF4A
:1007D000640D0020602C0008AFF30080AFF30080B0
:1007E00010B50446FFF73CFF84B1E36893B123687A
:1007F0000A4A934203D09968A2688A189A6062688C
:10080000002113602368E1605A6010BD0448FFF7BF
:100810008FFFEAE70348FFF78BFFE8E7640D00204E
:10082000702C0008802C0008AFF30080AFF300802C
:1008300040F67453C2F2000300229A6014225B60F7
:100840001B609A615B611B61704700BFAFF3008062
:1008500010B590F820300446D3F1010238BF0022D1
:100860000E2B14BF134642F001037BB90022094B43
:10087000A16884F820201B689A688A42FBD25A68D3
:100880002360626014605C60204610BD0248FFF780
:100890004FFFEBE7740D0020A02C0008AFF30080A1
:1008A00008B590F820300D2B11D8DFE803F01510B3
:1008B0001007100B101010101010100B836A9A689C
:1008C00001329A60436802681A60026853604FF010
:1008D000FF338362FFF7BCFF08BD00BFAFF30080AA
:1008E00070B5104C0646FFF7D3FEE569142185F874
:1008F0002060236828461A68A1610121546083F8AA
:1009000020102260E361FFF7EBFEEA69ADF12403FA
:100910009A4202D90448FFF70BFFE0692946FFF726
:10092000F7FC70BD740D0020B42C0008AFF30080FC
:10093000F0B50F4687B00546FFF7AAFEB7F1FF3FB7
:1009400013D00C4C01AEE36939460B4A3046FFF731
:100950000FFF2846FFF7C4FF049B13B13046FFF793
:100960003FFFE369986A07B0F0BD2846FFF7B8FF7C
:10097000004CF6E7740D0020A1080008AFF30080DA
:1009800070B5144D04460E46FFF782FEE869A26872
:100990008368A6629A4214D9FFF75AFF01230646DC
:1009A00084F820301423AB61EC61FFF799FEF26903
:1009B000ADF124039A4208D820463146FFF7A8FC3F
:1009C00070BD2046FFF744FFFAE70348FFF7B0FE8B
:1009D000F2E700BF740D0020B42C0008AFF30080D4
:1009E00038B50F4C14212368E5691A68A16101210B
:1009F000546083F8201028462260E361FFF728FF47
:100A00002846FFF76DFEEA69ADF124039A4202D948
:100A10000448FFF78DFEE0692946FFF779FC38BDF1
:100A2000740D0020B42C0008AFF30080AFF30080F9
:100A300000234FF0020C40F67452C2F2000280F81C
:100A400020C080F82130D2F814C070B400F1300416
:100A500000F12C0600F1480502618160C0F814C065
:100A6000416450610364C36343628361CCF8100046
:100A7000C66244630463C56170BC7047AFF3008015
:100A8000F8B504460D461F461646FFF7E9FDD4F1BA
:100A9000010338BF0023AF2D98BF43F0010343B9D2
:100AA0007F2E94BF00230123002F08BF43F00103D2
:100AB00013B11548FFF73CFE243D06986119E1602B
:100AC0004860124800230862114A0221675184F8E5
:100AD000201084F82130506904F1300104F12C0514
:100AE00004F1480C22616061A6606664546123646D
:100AF0000461E3636362A361E56261632163C4F837
:100B00001CC02046F8BD00BFD02C000821030008FF
:100B1000740D0020AFF30080AFF30080AFF30080CE
:100B2000F0B50D4616461F4683B0044600F1480254
:100B30000346FF2103F8011B9342FBD163199A423C
:100B400004D2552102F8011B9A42FBD1202383F3E2
:100B50001188FFF7CDFCDDF820C03B463246294620
:100B60002046CDF800C0FFF78BFF00210446FFF7B9
:100B700007FFFFF7D5FC002383F31188204603B05D
:100B8000F0BD00BFAFF30080AFF30080AFF3008093
:100B900010B5044610B90948FFF7CAFD202383F3B6
:100BA0001188FFF7A5FC21460620FFF7C1FEFFF7DD
:100BB000B7FC002383F3118810BD00BF102D00087F
:100BC000114A38B5D4690346254655F82C0FA3625F
:100BD000A84206D00368E362FFF73AFEE06AA84243
:100BE000F8D194F8213013F0030F01BF2269636933
:100BF0001A61226908BF53610E20FFF771FE034896
:100C0000FFF796FD38BD00BF740D0020202D0008B1
:100C100010B52023044683F31188FFF769FC2046B2
:100C2000FFF7CEFF10BD00BFAFF30080AFF3008031
:100C300010B5044620B1002364602460A36010BD99
:100C40000148FFF775FDF6E7602D0008AFF300805F
:100C500038B53D4B0546DC69FFF71AFD002D6FD016
:100C6000A868002867D0A26883689A4208D990F8DB
:100C700020308260042B42D0052B2AD0002B1DD0BF
:100C80002B461B689D4203D09968A2689142F8D216
:100C90005A682360626004205C601460A562FFF7FC
:100CA0001FFEAB68A34202D02848FFF741FD236C2A
:100CB000AB4202D02648FFF73BFD38BD43680268CF
:100CC00001211A60026880F820105360FFF7C0FD10
:100CD000D6E741680368D0F828C00B60D0F800E080
:100CE0006346CEF804101B689C4502D09968914277
:100CF000F9D25A680360426010605860C0E74168EA
:100D00000368D0F828C00B60D0F800E06346CEF846
:100D100004101B689C4502D099688A42F9D95A6828
:100D20000360426010605860DCF80800A2688368C5
:100D300093429CD3A4E7236CAC60EB602564BCE7D2
:100D40000448FFF7F5FC8BE7740D0020802D0008A8
:100D5000942D0008702D0008AFF30080AFF30080E1
:100D600010B52023044683F31188FFF7C1FB20460A
:100D7000FFF76EFFFFF7D4FB002383F3118810BD4C
:100D80001E4A38B5D569202383F31188FFF7B0FBDD
:100D90002C6C002C2CD0A368AB4203D01848FFF772
:100DA000C7FC2C6C2068E368A0422B641DD0696CE2
:100DB0004BB11A689A4203D09268914238BF1146EB
:100DC000DB68002BF5D10368026CA9602360002169
:100DD0005C60A060E2600464FFF7D2FDFFF7A0FB57
:100DE000002383F31188204638BD0023A360F5E774
:100DF0000448FFF79DFC2C6CCDE700BF740D00206C
:100E0000D02D0008BC2D0008AFF30080AFF30080A8
:100E100038B504460D46FFF723FC002C1CD0E26BCE
:100E200094F820301543082BE5630CD0092B00D033
:100E300038BDA36A1D40AB42FAD12046FFF708FD3A
:100E400000238362F4E7A36A1D42F1D02046FFF736
:100E5000FFFC00238362EBE70148FFF769FCDEE754
:100E60003C2E0008AFF30080AFF30080AFF30080AA
:100E700070B505460E46FFF7F3FB65B12C68AC4232
:100E800008D0A168606846EA0101FFF7C1FF246845
:100E9000AC42F6D170BD0248FFF74AFCEEE700BF56
:100EA000602E0008AFF30080AFF30080AFF3008046
:100EB00008B503464FF0FF3069B1074AD3F804C0C4
:100EC000D2690D2013609362C2F804C05A60CCF856
:100ED0000020FFF72DFD08BD740D0020AFF300804A
:100EE0008A184FF0000C40600060C0F808C04161F3
:100EF0008161C1600261C361704700BFAFF30080D0
:100F000038B504460D46FFF7ABFBA269636993420F
:100F100018BFA26818D00132A26003F8015B2269F1
:100F20006361934228BFE368206828BF6361A042E1
:100F300008D0036823605C60FFF78AFC00238362AB
:100F4000184638BD0020FCE7A268002AE3D06FF005
:100F50000300F6E7AFF30080AFF30080AFF300804B
:100F600070B5202382B004460D4683F31188FFF745
:100F7000BFFAE3690BB120469847A6682046294688
:100F800066B9FFF795FF0028F7DA0190FFF7C8FA76
:100F9000334683F31188019802B070BDA369013E06
:100FA000A66013F8015B2269A361934224BFE36842
:100FB000A361FFF7B5FA002383F311882846EBE716
:100FC0002DE9F047044690468A461D46C769002A27
:100FD00038D0202383F31188FFF78AFA00260FB157
:100FE0002046B847D4F8089020462946B9F1000FAA
:100FF0000BD1FFF75DFF0028F4D0FFF791FA4B46C5
:1010000083F311883046BDE8F087A36909F1FF3901
:10101000C4F8089013F8012B0AF806202269A3618E
:10102000934224BFE368A361FFF77AFA002383F3B6
:1010300011880136B045E5D0202383F31188FFF7EE
:1010400057FACCE70148FFF773FBC2E7A02E000870
:1010500001EB020C40600060826041618161C1600F
:10106000C0F810C0C3617047AFF30080AFF30080D9
:10107000F0B5202383B004460D46164683F311884D
:10108000FFF736FAA7682046314667B9FFF710FF29
:101090000028F7DA0190FFF743FA3B4683F3118803
:1010A000019803B0F0BD6369013FA76003F8015BDD
:1010B00022696361934224BFE3686361E3690BB112
:1010C00020469847FFF72CFA002383F3118818462F
:1010D000E7E700BFAFF30080AFF30080AFF300801D
:1010E00038B50446FFF7BCFA6269A3699A4218BF93
:1010F000A26816D00132A26013F8015B2269A361D5
:10110000934228BFE368206828BFA361A04206D0AD
:10111000036823605C60FFF79BFB00238362284623
:1011200038BDA268002AE5D06FF00200F8E700BFE2
:101130002DE9F047044615460E469A46D0F81C8025
:10114000002A40D0202383F31188FFF7D1F900272C
:10115000D4F8089009F1FF33B9F1000F25D0A3604E
:101160003278636903F8012B22696361934224BFDB
:10117000E3686361B8F1000F01D02046C047FFF774
:10118000CFF9002383F31188013715F1FF3517D00C
:101190000136202383F31188FFF7AAF9D4F80890C9
:1011A00009F1FF33B9F1000FD9D120465146FFF7BD
:1011B0007FFE0028CCD0FFF7B3F94B4683F31188AC
:1011C0003846BDE8F0870248FFF7B2FABAE700BF39
:1011D000B42E0008AFF30080AFF30080AFF30080BF
:1011E00045F20001084840F6985240F69453C2F286
:1011F0000001C2F2000220F00700C2F2000321F059
:1012000007011060196070470F1C0020AFF30080C9
:1012100008B500F005FB43F2B020C0F6000000F076
:101220000FFF00F00DF800F0DBF800F061F900F0BE
:101230008FFF08BDAFF30080AFF30080AFF30080F5
:1012400008B500F0C5FB08BDAFF30080AFF3008028
:101250000123037000234360704700BFAFF3008099
:1012600038B5D0F1010338BF0023002908BF43F08F
:10127000010304460D46C3B9202383F31188FFF709
:1012800037F92378013BDBB2012B02D90948FFF77C
:101290004FFA2046656000F0ABFB02232370FFF796
:1012A0003FF9002383F3118838BD0348FFF740FA64
:1012B000E2E700BFDC2E0008D02E0008AFF300806C
:1012C00038B504460D46FFF7CBF964B12378022BFD
:1012D00002D00748FFF72CFA032323702046294643
:1012E00000F0C6FB38BD0348FFF722FAEEE700BF67
:1012F000202F0008082F0008AFF30080AFF3008014
:1013000038B505460C46202383F31188FFF7F0F823
:1013100028462146FFF7D4FFFFF702F9002383F3A5
:10132000118838BDAFF30080AFF30080AFF30080C9
:10133000806BD0F1010038BF00207047AFF3008010
:101340008069D0F1010038BF00207047AFF3008002
:1013500070B52023044683F311880026FFF7C8F8F0
:10136000A568A660FFF7DCF8334683F311882846AA
:1013700070BD00BFAFF30080AFF30080AFF300801B
:1013800008B51030FFF71CFE08BD00BFAFF30080AA
:1013900008B510304FF0FF33FFF712FE08BD00BF55
:1013A00008B53030FFF7C4FE08BD00BFAFF30080C2
:1013B00008B530304FF0FF33FFF7BAFE08BD00BF6D
:1013C00008B51030FFF7CCFD08BD00BFAFF30080BB
:1013D00008B53030FFF74CFE08BD00BFAFF300800A
:1013E00008B500F045FC08BDAFF30080AFF3008006
:1013F00038B50B4643F210018446C0F6000104469E
:101400004CF8041BC4F804C04FF0000CC4F808C02A
:101410004FF0010C04F15001154600F110004FF49B
:10142000007284F80CC0FFF75BFD04F5147104F141
:1014300030004FF400722B46FFF70AFE38BD00BFA4
:1014400038B504460D46C0B1202383F31188FFF759
:101450004FF8237B013BDBB2012B02D90948FFF790
:1014600067F92046294600F02BFC02232373FFF77F
:1014700057F8002383F3118838BD0348FFF758F964
:10148000E2E700BFBC2F0008B02F0008AFF30080D8
:1014900038B504460D46FFF7E3F8002C20D0A169CB
:1014A00039B104F110002946FFF72AFD00280EDBB0
:1014B00038BDA368201D43F00403A360FFF7D8FCE8
:1014C00004F110002946FFF71BFD0028F0DAA3689D
:1014D000201D43F08003A3600021FFF7C9FCE7E76C
:1014E0000148FFF725F9DAE7E82F0008AFF300809D
:1014F00008B500F075FC08BDAFF30080AFF30080C5
:101500000123037000234360704700BFAFF30080E6
:1015100038B5D0F1010338BF0023002908BF43F0DC
:10152000010304460D46C3B9202383F31188FEF757
:10153000DFFF2378013BDBB2012B02D90948FFF71B
:10154000F7F82046656000F08BFC02232370FEF75D
:10155000E7FF002383F3118838BD0348FFF7E8F85D
:10156000E2E700BF5030000840300008AFF30080D1
:1015700008B5FFF735F80A4800220368C4F20202F2
:101580004FF00F0C1168C2F804C01BB1406801EAAB
:101590000C019847FFF744F8FEF76AFE08BD00BF4C
:1015A0009C0D0020AFF30080AFF30080AFF300800C
:1015B00008B5FFF715F80A4800228368C4F2020252
:1015C0004FF0F00C1168C2F804C01BB1C068C1F341
:1015D00003119847FFF724F8FEF74AFE08BD00BF45
:1015E0009C0D0020AFF30080AFF30080AFF30080CC
:1015F00008B5FEF7F5FF0A4800220369C4F20202AB
:101600004FF4706C1168C2F804C01BB14069C1F39B
:1016100003219847FFF704F8FEF72AFE08BD00BF34
:101620009C0D0020AFF30080AFF30080AFF300808B
:1016300008B5FEF7D5FF0A4800228369C4F202020A
:101640004FF4704C1168C2F804C01BB1C069C1F3FB
:1016500003319847FEF7E4FFFEF70AFE08BD00BF1E
:101660009C0D0020AFF30080AFF30080AFF300804B
:1016700008B5FEF7B5FF0A480022036AC4F2020269
:101680004FF4702C1168C2F804C01BB1406AC1F35A
:1016900003419847FEF7C4FFFEF7EAFD08BD00BF0F
:1016A0009C0D0020AFF30080AFF30080AFF300800B
:1016B00008B5FEF795FF0A480022836AC4F20202C9
:1016C0004FF4700C1168C2F804C01BB1C06AC1F3BA
:1016D00003519847FEF7A4FFFEF7CAFD08BD00BFFF
:1016E0009C0D0020AFF30080AFF30080AFF30080CB
:1016F00008B5FEF775FF0A480022036BC4F2020228
:101700004FF0706C1168C2F804C01BB1406BC1F39C
:1017100003619847FEF784FFFEF7AAFD08BD00BFEE
:101720009C0D0020AFF30080AFF30080AFF300808A
:101730000C49002310B4DFF830C00C4C0B601A4683
:101740001946E0580C3301604CF802100832542B53
:10175000F7D10023C4F202034FF0FF325A6010BCED
:10176000704700BFD40D00209C0D0020B031000850
:101770002DE9F041044684B000283BD094F809C01C
:10178000012505FA0CF8204E376818EA070F18BF34
:1017900028462CD11D4848EA070700EBCC0517F076
:1017A0007F0F6B6018BF4FF48053376018BFC4F2CF
:1017B000020340F83C2018BF58694FF00F0C1CBFC3
:1017C00040F001005861237A60680CFA03FC23683A
:1017D00000251E6826F001061E60C0F800C01D60CE
:1017E000104622B1A07A0901FEF7AAFD284604B0EE
:1017F000BDE8F0810648039102920193FEF798FF3D
:10180000019B029A0399B9E7D40D00209C0D00209A
:1018100070310008AFF30080AFF30080AFF30080B9
:101820004FF4805310B5C4F2020300214FF0FF3E85
:101830004EF2100243F27F20D3F810C0CEF2000225
:10184000C3F810E0C0F202001961DC684EF6F05CEB
:10185000C3F80CE0D960506007209160CEF2000C14
:101860001060DCF80C204FF4805042F08072CCF80D
:101870000C20CEF20000D0F800C04FF4E0424CF053
:10188000010CC0F800C0D869C4F2000240F08050DA
:10189000D861D86940F00060D861106840F4807069
:1018A00010601A6A02F44072B2F5407F1EBF4FF416
:1018B00080321A6219624FF48053C4F202031A6A2A
:1018C00012F4004F07D11A6A42F440721A621A6A7F
:1018D00042F400421A62FFF72BFF10BDAFF3008005
:1018E0004FF48053C4F202031A68194642F0010211
:1018F0001A600A684FF4805312F0020FC4F2020318
:10190000F7D01A68194602F0F9021A6000225A60EC
:101910004A684FF4805312F00C0FC4F20203F7D15F
:101920001A68194642F480321A600A684FF48053EC
:1019300012F4003FC4F20203F7D05A68194642F489
:10194000E8125A601A6842F080721A600A684FF40E
:10195000805312F0007FC4F20203F7D04FF4C84165
:10196000C0F21D014FF400525960C4F2020212216C
:10197000116059681A4641F002015960536803F03A
:101980000C03082BFAD17047AFF30080AFF300804F
:1019900008B5FEF725FE0A4B00201978DA680429FD
:1019A000108204D1022119701080108290815B682E
:1019B00003485B689847FEF733FEFEF759FC08BD05
:1019C000D80D0020AFF30080AFF30080AFF30080AC
:1019D00008B540F6D8504FF43053C2F20000C4F2BC
:1019E0000103C360FFF734FC08BD00BFAFF3008004
:1019F00038B503780446012B16D06368A2681B68CB
:101A0000B2FBF3F5013DADB205FB03339A4202D0C0
:101A10001348FEF78DFEE36800221A8008229A80A0
:101A200000221D859A8138BD0E4B9842E5D14FF4B6
:101A30008053C4F202039A69192042F400629A6149
:101A4000DA68702142F40062DA600022DA60FEF7A0
:101A500077FC4FF42243C0F24A43A360CDE700BFB6
:101A600010320008D80D0020AFF30080AFF30080E3
:101A7000C368012200200139D9629A825862188213
:101A80009A8105221A807047AFF30080AFF300807F
:101A90004FF46053C4F201039A8992B242F080027B
:101AA0009A817047AFF30080AFF30080AFF30080FE
:101AB0004FF48843C4F200039A8992B242F0800244
:101AC0009A817047AFF30080AFF30080AFF30080DE
:101AD0002DE9F845D0F850640546B7893488B6F842
:101AE0000480A4B214F00F0FBFB21FFA88F826D0FA
:101AF00014F0080A18BF4FF0800A14F0010F18BF45
:101B00004AF0200A14F0020F18BF4AF0400A14F0FD
:101B1000040F18BF4AF4807A202383F31188FEF75C
:101B20001FFDAB68281D43EA0A0A0021C5F808A07A
:101B3000FFF79EF9FEF734FD002383F3118814F4B8
:101B4000807F3AD114F0200F27D117F0800F02D0F8
:101B500014F0800F4AD114F0400F1CD0202383F3DF
:101B60001188FEF7FDFCAB68281D43F01003AB6045
:101B70000021FFF77DF9FEF713FD002383F31188A1
:101B80004FF6BF7307EA0303B381338823F04003A2
:101B90001B041B0C3380BDE8F885202383F31188D8
:101BA000FEF7DEFC5FFA88F12846FFF771FCFEF7CE
:101BB000F7FC002383F31188C7E7202383F3118800
:101BC000FEF7CEFCAB68281D43F40073AB60002128
:101BD000FFF74EF9FEF7E4FC002383F31188338806
:101BE00023F480731B041B0C3380ABE7202383F3A7
:101BF0001188FEF7B5FC05F13000FFF771FA0028F7
:101C0000A4BF80B2B08005DBFEF7CAFC002383F3DB
:101C10001188A0E7AB68281D43F00803AB600021E2
:101C2000FFF726F927F0C00343F04003B381EBE749
:101C300008B5FEF7D5FC40F6E850C2F20000FFF709
:101C400047FFFEF7EDFCFEF713FB08BDAFF3008086
:101C500008B5FEF7C5FC41F23C20C2F20000FFF7D8
:101C600037FFFEF7DDFCFEF703FB08BDAFF3008096
:101C700038B540F6E855C2F2000541F69122C0F6AB
:101C800000022846002141F23C24FFF7B1FBC2F2DA
:101C9000000441F6B1224FF46053C4F20103C0F6D0
:101CA000000220460021C5F85034FFF7A1FB4FF495
:101CB0008843C4F20003C4F8503438BDAFF3008049
:101CC00038B5254A037B0C46002908BF1446012B72
:101CD000054620D021684FF4A242C0F22522D5F853
:101CE0005034B2FBF1F292B21A81A288E0882189C5
:101CF00042F4045242F02C0292B240F0400041F013
:101D000001019A8180B2002289B2188299821A80D8
:101D10001A889B8838BD114B98420FD0104B9842BF
:101D2000D8D14FF48053C4F20203DA69262042F47A
:101D30000032DA61C021FEF703FBCBE74FF480539A
:101D4000C4F202039A69252042F480429A61C021BC
:101D5000FEF7F6FABEE700BF30320008E80D0020BB
:101D60003C120020AFF30080AFF30080AFF300809F
:101D700011F0080F08B501D0FEF73AFA08BD00BF10
:101D800011F0080F38B5044627D123690F2193F8C5
:101D900008C01A6801FA0CFC1568586825F001059E
:101DA000E3681560C0F800C0187A1A688140656859
:101DB000D2F800C058682B682CF0010CC2F800C0A3
:101DC00001603BB104222270204698472378042BFF
:101DD00000D038BD02232370FBE7FEF709FAD4E7F1
:101DE0002DE9F04141F2906341F29465C2F20005A1
:101DF000C2F200034FF0FF32154E1A80284641F21E
:101E0000B064FFF77DFBC2F200044FF4405306F1CB
:101E10000C02C4F2010341F20A0841F218072046FD
:101E2000AB60EE602A61C5F81480AF61FFF768FB14
:101E30004FF4605306F11802C4F200032436A36085
:101E4000E2602661C4F81480A761BDE8F08100BF9C
:101E5000BC310008AFF30080AFF30080AFF3008027
:101E600038B503780446012B18BF836826D0626812
:101E7000528912F4006F18D06069A16920F4506093
:101E800021F4506140F4A06041F4A0616061A1615F
:101E900042F44172002119801A8007229A801A8820
:101EA00092B242F040021A8038BD6069A16920F404
:101EB000406021F440616061A161E9E7264DA842DC
:101EC0000CD0264DAC4220D0E1682269A368086896
:101ED000116803F10C0282608A60C8E7C0680A21B9
:101EE0001F4A2346FFF744FC50BB28690A211D4ABC
:101EF000194BFFF73DFCF8B94FF48053C4F20203CD
:101F00009A6942F480529A61DBE7E0680A21144A38
:101F10002346FFF72DFCD8B928690A21114A0F4B37
:101F2000FFF726FC80B94FF48053C4F20203DA694C
:101F300042F48042DA61C7E70B48FEF7F9FBDBE7C2
:101F40000A48FEF7F5FBD0E70948FEF7F1FBEAE7A0
:101F50000848FEF7EDFBDFE794160020B0160020DE
:101F6000811D0008711D000854320008403200082D
:101F70007C32000868320008AFF30080AFF30080C5
:101F8000436801211A895B6811FA02F25A617047AD
:101F9000436801211A895B6811FA02F21A617047DD
:101FA000D0F80CC0036930B48569DCF800C044691E
:101FB0001B6841F2CC60C2F2000045F08005CCF80D
:101FC0000C00CCF80410CCF80040DA6059601D60B9
:101FD000DCF8002042F00102CCF800201A6842F040
:101FE00001021A6030BC7047AFF30080AFF300808D
:101FF000D0F80CC0036930B44569DCF800C01B6838
:10200000846941F2906045F08005C2F20000CCF88E
:102010000C20CCF80410CCF80050D86059601C603B
:10202000DCF8002042F00102CCF800201A6842F0EF
:1020300001021A6030BC7047AFF30080AFF300803C
:102040004FF48053C4F202039A6942F07D029A6110
:1020500003684FF40062C4F20102D36081684FF458
:10206000406351604168C4F201031160C2684FF4DB
:102070008051DA604269C4F201015A60D0F810C0A0
:102080004FF4A052C3F800C08369C4F20102CB60D0
:10209000D0F820C04FF4C053C1F804C0D0F81CC021
:1020A000C4F20103C1F800C0416AD160C16A516045
:1020B000816A1160026BDA60826B5A60426B1A604F
:1020C000704700BFAFF30080AFF30080AFF3008034
:1020D000032A70B408BF016102D0042A08BF41611D
:1020E000DFF858C000231CF8026008259C461A46F9
:1020F0001C4600E04900120124011B0111F0800F71
:1021000008BF42F00F024FEA0C1C18BF334311F412
:10211000004F0CBF44F00F044CEA060C15F1FF35DC
:10212000E8D141680C4044EA0C0CC0F804C00168D6
:102130000A4042EA0303036070BC70479032000813
:1021400008B5FFF7CDFB08BDAFF30080AFF300800B
:10215000704700BFAFF30080AFF30080AFF30080A3
:1021600008B5FFF755F8FEF73BF900F009FA00F063
:102170000FFB00F02DFC00F023FD00F039F900F01A
:102180005FF900F05DF9FAE7AFF30080AFF300808C
:10219000704700BFAFF30080AFF30080AFF3008063
:1021A000704700BFAFF30080AFF30080AFF3008053
:1021B000704700BFAFF30080AFF30080AFF3008043
:1021C000704700BFAFF30080AFF30080AFF3008033
:1021D000704700BFAFF30080AFF30080AFF3008023
:1021E000704700BFAFF30080AFF30080AFF3008013
:1021F000704700BFAFF30080AFF30080AFF3008003
:10220000D0F1010338BF00235C2808BF43F001036D
:1022100010B504462BB106485C214FF0FF32FEF7A3
:1022200027FF21464FF0FF320148FEF721FF10BD86
:10223000180E0020AFF30080AFF30080AFF30080F2
:1022400008B500214FF0FF320148FEF711FF08BD2D
:10225000180E0020AFF30080AFF30080AFF30080D2
:102260002DE9F04100F014FB2023044683F311888C
:10227000FEF73EF9A2684AF6AB23CAF6AA23A3FBEF
:102280000213DD08FEF74CF9002383F31188ADB18A
:102290004FF00008042703264FF0FF312046FEF7D9
:1022A0005FFEC0B2FFF7ACFF16F1FF36F4D117F1B5
:1022B000FF37F0D108F101084545EBD8FFF7C0FF23
:1022C000BDE8F081AFF30080AFF30080AFF3008092
:1022D00030B50A4B83B002AD93E8030045F8080D12
:1022E0006C1EADF80410043514F8010FFFF788FFD9
:1022F000AC42F9D1FFF7A4FF03B030BD3033000882
:1023000030B50A4B85B0EC460FCB8CE80F000DF1D1
:10231000FF340DF10E0514F8010FFFF771FFAC4209
:10232000F9D1FFF78DFF05B030BD00BF383300088D
:1023300008B543780278180400EB0320801800EBFE
:10234000036000F0E5FA08BDAFF30080AFF3008052
:1023500008B5007800F0C4FA08BD00BFAFF30080F4
:1023600030B585B0684600F09BFA6D460024285DC4
:10237000FFF746FF2859C0F30720FFF741FF285910
:10238000C0F30740FFF73CFF28590434000EFFF765
:1023900037FF102CEBD1FFF753FF05B030BD00BF66
:1023A00008B5837890F801C00278C17802EB0C2060
:1023B00003EB012100F07CFB08BD00BFAFF3008000
:1023C00008B5837890F801C00278C17802EB0C2040
:1023D00003EB012100F05CFB08BD00BFAFF3008000
:1023E00008B5007800F0FCF808BD00BFAFF300802E
:1023F00010B54FF40064C4F20104102220464FF4DB
:102400000071FFF765FE204602224FF48061FFF75E
:102410005FFE204610224FF40061FFF759FE204670
:102420004FF480510222FFF753FE40F6E850C2F20B
:1024300000000021FFF704F810BD00BFAFF30080DB
:1024400010B529484FF0FF31FEF78AFD831C012BA0
:102450000ED9264AC0B213785BB9C0B92449254CBD
:102460000B782068012B1ED0022B32D00023236072
:1024700010BD204C4FF0000C216882F800C04B1CAE
:102480001B4A202BA8BF202350542360F0E75C2870
:1024900016D0184C16492268531C202BA8BF2023A5
:1024A00088542360E4E70128E0DD134A4B1C081838
:1024B00013F8011B834202F8011FF9D10023D6E76C
:1024C0000C4C012123681170202BA8BF202323600E
:1024D000CEE74B78094A0F2BC8BF002352F82330B0
:1024E000074898470023C2E7F80D0020CE160020C9
:1024F000D0160020F0160020F3160020F03200085D
:10250000F4160020AFF30080AFF30080AFF300803B
:10251000154B164ADB692DE9F0414FF48054144EF7
:10252000144D9A61C4F201044FF480484FF40057EF
:102530001148FEF715FC33682B6013F0010F17BF2D
:10254000E268C4F8148082F48042E26013F0020F63
:1025500017BFE368676183F40053E360FEF710FC84
:102560007D20FEF715FBE3E7740D002050330008D3
:1025700024170020D818002014170020AFF3008083
:1025800030B54FF48054C4F201044FF480414FF44D
:10259000005583B06161062220466561FFF798FD12
:1025A000294606222046FFF793FD41F21470C2F23D
:1025B0000000FEF73DFB002241F2287042F2115369
:1025C0000092C0F600034FF4D8714022C2F200001E
:1025D000FEF7A6FA03B030BDAFF30080AFF3008082
:1025E00041F21473C2F2000310B504461846FEF718
:1025F000B7FB41F22473C2F200031C60FEF7C0FB7C
:1026000010BD00BFAFF30080AFF30080AFF30080D8
:10261000F8B5202383F31188FDF7A2FF544A15680B
:10262000681CC117890F431803F003035B1A13F0EA
:10263000010F136026D04FF400620121C4F20102A1
:1026400013F0020F116126D04FF40063C4F20103AE
:1026500002221A614748FFF79BFC474B474C197809
:10266000587809049A7801EB00239B18C3F34F03B1
:10267000032D44F8253015D0FDF792FF002383F396
:102680001188F8BD4FF400620121C4F2010213F079
:10269000020F5161D8D14FF40063C4F2010302224A
:1026A0005A61D7E7364B37491A68096801328A42BE
:1026B0001A60E1DB344D521AD5F810C0E868A968F9
:1026C000C0EB0C00401A0B281A60D5D92F4E336886
:1026D00013F0010F18D113F0020F37D113F0040FCC
:1026E00023D113F0080FC7D0E4682748E1B2FEF702
:1026F00007FCC4F307212448FEF702FCC4F307419A
:102700002148FEF7FDFBB7E727682846F9B2FEF738
:10271000F7FBC7F307212846FEF7F2FBC7F3074193
:102720002846FEF7EDFB3368D5E7A5681648E9B201
:10273000FEF7E6FBC5F307211348FEF7E1FBC5F3FF
:1027400007411148FEF7DCFB3368CAE765680E48AD
:10275000E9B2FEF7D5FBC5F307210B48FEF7D0FB26
:10276000C5F307410848FEF7CBFB3368B6E700BF67
:10277000841A0020941600205C1A00200008002013
:10278000881A0020140800201C1A002010080020BD
:1027900010B5002329482A494FF4A072FEF7A0FB88
:1027A0004FF400640023274827494FF4A072C4F275
:1027B0000104FEF795FB0023022224482449FEF77A
:1027C00047FC012106222046FFF782FC0221062257
:1027D0002046FFF77DFC202110222046FFF778FCE1
:1027E000402110222046FFF773FC062210212046CC
:1027F000FFF76EFC174B10221B68226113F0010FCC
:102800000FD0012213F0020F22610FD14FF40063A9
:10281000C4F2010302225A610F481049FEF778FE04
:1028200010BD012213F0020F6261EFD04FF400637C
:10283000C4F2010302221A61EEE700BF1C1A002055
:102840008C1A0020641A0020DC1800203C1A00209A
:10285000601A0020841A00209416002060330008BB
:1028600010B541F29464C2F200042046FFF788FBE1
:1028700041F65C220321C2F2000220462170FFF7DC
:10288000B7FB10BDAFF30080AFF30080AFF3008063
:1028900041F61C20C2F20000704700BFAFF3008079
:1028A00010B5044690B1202383F31188FDF720FE74
:1028B000074B1A6822605A6862609A68A260DB68F7
:1028C000E360FDF72DFE002383F3118810BD00BFE8
:1028D00000080020AFF30080AFF30080AFF300806A
:1028E00010B52023044683F31188FDF701FE40F65E
:1028F0001003C2F200031C60FDF712FE002383F3F5
:10290000118810BDAFF30080AFF30080AFF30080FB
:1029100010B52023044683F31188FDF7E9FD40F646
:102920001403C2F200031C60FDF7FAFD002383F3D9
:10293000118810BDAFF30080AFF30080AFF30080CB
:1029400008B5202383F31188FDF70AFE41F2B06039
:10295000C2F20000FFF71CFBFDF722FE002383F309
:10296000118808BDAFF30080AFF30080AFF30080A3
:10297000F8B506460D46202383F31188104CFDF769
:10298000B7FDA768FDF7CCFD002383F31188022F64
:1029900001DC0120F8BDF1B24FF0FF322046FEF716
:1029A00067FBE9B24FF0FF322046FEF761FBC5F34B
:1029B000072120464FF0FF32FEF75AFB0020E9E7DF
:1029C000D01B0020AFF30080AFF30080AFF3008096
:1029D000F8B541F6D03041F6F0314FF440640023B1
:1029E000C4F201041822C2F20000C2F20001FEF794
:1029F0002FFB102220464FF40051FFF769FB2046C1
:102A000010224FF40041FFF763FB4FF480674FF44F
:102A100000714FF400664FF4805521610622276152
:102A2000204626612561FFF753FB204639460622E2
:102A3000FFF74EFB204631460622FFF749FB0622F0
:102A400020462946FFF744FB41F2B06040F63801CA
:102A5000C2F20001C2F20000FEF75AFD002047F664
:102A6000FF71FFF785FF012047F6FF71FFF780FF39
:102A7000022047F6FF71FFF77BFF032047F6FF7147
:102A8000FFF776FFF8BD00BFAFF30080AFF3008023
:102A900038B503460D4600201946FFF769FF294661
:102AA00004460120FFF764FF001938BDAFF3008032
:102AB00038B503460D4602201946FFF759FF29464F
:102AC00004460320FFF754FF001938BDAFF3008020
:102AD00070B52C4C2169E368A268CB1A9B1A022BB3
:102AE00000DC70BD2046FEF7FBFA05462046FEF7E7
:102AF000F7FA06462046FEF7F3FA4FEAE57C4FEA7E
:102B00009C7C05EB0C0202F003021F49CCEB020295
:102B100051F822C006EB00231C48634540F82230E0
:102B2000DFD0032A08D8DFE802F027211B0218486B
:102B30004FF00C0CA0F808C0164D174C4FEA232C90
:102B400041F822302846637084F800C0FFF718FA75
:102B500003232B70284602212246FFF721FAC0E703
:102B60000B484FF00B0CA0F808C0E5E708484FF001
:102B70000A0CA0F808C0DFE705484FF0090CA0F8E0
:102B800008C0D9E7D01B0020180800202808002022
:102B900038080020B0160020CC1B0020AFF30080C6
:102BA00008B5202383F31188FDF7DAFCFFF758FE00
:102BB000FFF78EFFFDF7F4FC002383F3118808BDB7
:102BC00010B540F6D854C2F2000443F270312046EA
:102BD000C0F60001FEF744FB204641F28831FEF7C3
:102BE0008FFB10BDAFF30080AFF30080AFF3008028
:102BF00069646C65000000006D61696E0000000092
:102C000053562331000000005356233200000000C9
:102C100053562333000000005356233400000000B5
:102C200053562335000000005356233600000000A1
:102C3000535623370000000053562338000000008D
:102C40005356233900000000535623313000000052
:102C50005356233131000000000000000000000046
:102C600022636856545365744922282900000000E5
:102C700022636856545265736574492228290000FE
:102C80006368565452657365744928292C20233192
:102C90000000000000000000000000000000000034
:102CA000636853636852656164794928292C20233D
:102CB00031000000737461636B206F766572666C1F
:102CC0006F7700000000000000000000000000001E
:102CD00022636854686443726561746549222829D7
:102CE0000000000022636854686453657450726980
:102CF0006F726974792228290000000063685468A3
:102D000064526573756D6528292C202331000000FD
:102D1000226368546864536C65657022282900003A
:102D20006368546864457869745328292C202331DA
:102D300000000000226368546864576169742228A7
:102D40002900000063685468645761697428292C5D
:102D500020233100000000000000000000000000FF
:102D60002263684D7478496E697422282900000036
:102D70002263684D74784C6F636B532228290000DE
:102D800063684D74784C6F636B5328292C20233172
:102D90000000000063684D74784C6F636B53282902
:102DA0002C202332000000002263684D7478547296
:102DB000794C6F636B5322282900000063684D74BF
:102DC00078556E6C6F636B28292C2023310000002E
:102DD00063684D7478556E6C6F636B28292C2023C3
:102DE0003200000063684D7478556E6C6F636B53EE
:102DF00028292C202331000063684D7478556E6CAF
:102E00006F636B5328292C20233200000000000040
:102E100022636845767452656769737465724D61A3
:102E2000736B222829000000226368457674556E72
:102E30007265676973746572222829002263684588
:102E400076745369676E616C49222829000000007E
:102E50002263684576745369676E616C2228290085
:102E600022636845767442726F6164636173744D66
:102E700061736B492228290022636845767444698E
:102E800073706174636822282900000063684576C6
:102E900074446973706174636828292C202331009D
:102EA00022636849515265616454696D656F757438
:102EB000222829002263684F51577269746554694A
:102EC0006D656F7574222829000000000000000065
:102ED00022707453746172742228290067707453CD
:102EE0007461727428292C202331000022677074C9
:102EF00053746F702228290067707453746F7028A0
:102F0000292C2023310000002267707453746172F1
:102F100074436F6E74696E756F757349222829004A
:102F20006770745374617274436F6E74696E756FF9
:102F300075734928292C2023310000002267707402
:102F400053746172744F6E6553686F7449222829F7
:102F50000000000067707453746172744F6E6553A3
:102F6000686F744928292C2023310000226770746F
:102F700053746F7054696D657249222829000000EE
:102F800067707453746F7054696D65724928292C89
:102F900020233100677074506F6C6C656444656CFD
:102FA000617928292C202331000000000000000056
:102FB00022736453746172742228290073645374F9
:102FC00061727428292C202331000000227364537D
:102FD000746F702228290000736453746F7028295D
:102FE0002C20233100000000227364496E636F6D52
:102FF000696E674461746149222829002273645212
:1030000065717565737444617461492228290000F3
:10301000B113000891130008311300084113000890
:10302000D1130008C1130008A11300088113000880
:103030005113000800000000000000000000000024
:103040002273706953746172742228290000000091
:10305000737069537461727428292C202331000025
:103060002273706953746F7022282900737069533A
:10307000746F7028292C202331000000227370699E
:1030800053656C65637422282900000073706953CE
:10309000656C65637428292C2023310022737069C4
:1030A000556E73656C6563742228290073706955C9
:1030B0006E73656C65637428292C20233100000031
:1030C00022737069537461727449676E6F726522FE
:1030D00028290000737069537461727449676E6FB8
:1030E000726528292C2023310000000022737069AA
:1030F000537461727445786368616E67652228292C
:1031000000000000737069537461727445786368DD
:10311000616E676528292C202331000022737069B5
:10312000537461727453656E642228290000000094
:10313000737069537461727453656E6428292C200E
:103140002331000022737069537461727452656395
:1031500065697665222829007370695374617274F9
:103160005265636569766528292C202331000000AB
:1031700022646D61416C6C6F636174652228290063
:1031800022646D6152656C656173652228290000B7
:10319000646D6152656C6561736528292C2023314B
:1031A000000000000000000000000000000000001F
:1031B000080002400400024000000B001C00024016
:1031C0000400024004010C003000024004000240F0
:1031D00008020D0044000240040002400C030E00EF
:1031E000580002400400024010040F006C0002402E
:1031F0000400024014051000800002400400024058
:10320000180611000000000000000000000000008F
:103210006770745F6C6C645F737461727428292CBE
:10322000202331000000000000000000000000002A
:1032300000C201000000004000000000000000008B
:103240007370695F6C6C645F737461727428292C8D
:10325000202331007370695F6C6C645F73746172FA
:103260007428292C202332007370695F6C6C645FB2
:10327000737461727428292C202333007370695F82
:103280006C6C645F737461727428292C2023340081
:1032900004020408080003070808080808080808CA
:1032A0000B0F000000000000000000000000000004
:1032B000FFFFFFFF4444444444444444FFFFFFFFF6
:1032C0004444444444444444FFFFFFFF44444444D2
:1032D00044444444FFFFFFFF4444444444444444C2
:1032E000FFFFFFFF888888888888888800000000A2
:1032F00001230008D1220008E1230008C1230008AF
:10330000A12300086123000851230008312300088D
:103310006122000891210008A1210008B1210008C4
:10332000C1210008D1210008E1210008F121000895
:10333000302E302E310000006469676974697A6547
:10334000722D312E302E30000000000000000000F1
:103350006C6400000000000000000000000000009D
:10336000112600080008014004002A0000000000A7
:0833700040420F00A12B0008F0
:10337800FFFFFFFFFFFFFFFFFFFFFFFFFFFFFFFF55
:103388000F00000001000000FFFFFFFFFFFFFFFF2D
:10339800FFFFFFFFFFFFFFFFFFFFFFFFFFFFFFFF35
:1033A800FFFFFFFFFFFFFFFF41290008000C01405E
:0433B8000900000008
:0400000508000111DD
:00000001FF
