:020000040800F2
:10000000000400201101000801020008010200089C
:1000100001020008010200080102000801020008B4
:100020000102000801020008010200085102000854
:100030000102000801020008010200082102000874
:100040000102000801020008010200080102000884
:100050000102000801020008010200080102000874
:1000600001020008010200080102000851200008F6
:10007000B12000081121000871210008D1210008D9
:100080003122000891220008010200080102000844
:100090000102000801020008010200080102000834
:1000A000010200086127000801020008010200089F
:1000B0000102000801020008010200080102000814
:1000C0000102000801020008010200080102000804
:1000D00001020008C12B0008E12B00080102000802
:0C00E000010200080102000801020008F3
:1000F000704700BFAFF30080AFF30080AFF3008024
:10010000FEE700BFAFF30080AFF30080AFF30080E5
:1001100072B640F60004C2F2000484F309884FF07E
:10012000020484F31488BFF36F8F40F20004C2F21C
:10013000000440F20045C2F2000504E04FF05533E0
:10014000236004F10404AC42F8D340F20044C2F24C
:10015000000440F60005C2F2000504E04FF05533FC
:10016000236004F10404AC42F8D303F0C9F844F26C
:100170008845C0F6000540F60004C2F2000405E020
:100180002B68236004F1040405F1040540F64403E0
:10019000C2F200039C42F3D340F64804C2F20004CA
:1001A00041F6C035C2F2000504E04FF000032360C1
:1001B00004F10404AC42F8D3FFF79AFF40F2EC04D8
:1001C000C0F6000403E02368984704F1040440F2F9
:1001D000EC03C0F600039C42F5D303F0A1F840F213
:1001E000EC04C0F6000403E02368984704F104041B
:1001F00040F2EC03C0F600039C42F5D3FFF780FF0A
:10020000FEE700BFAFF30080AFF30080AFF30080E4
:1002100072B6FEE7AFF30080AFF30080AFF300806B
:1002200008B500F0D5FA4FF0200383F3118800F0F1
:100230008FFA00F0CDF900F0ABFA4FF0000383F332
:10024000118800F0F5FA00F043F808BDAFF3008024
:1002500010B483B0EFF309840194019B03F12003F0
:100260000193019B83F309884FF0000383F3118806
:1002700003B010BC704700BFAFF30080AFF3008045
:1002800008B54FF46D43CEF200034FF000029A60C0
:100290004FF46D43CEF200034FF00002C0F2FA5269
:1002A000DA604FF007004FF0100100F0F1F84FF066
:1002B0000A004FF4007100F0EBF84FF00B004FF024
:1002C000800100F0E5F808BDAFF30080AFF30080D7
:1002D00010B483B04FF0200383F311884FF46D43C3
:1002E000CEF200035B6803F40063002B47D0EFF30A
:1002F00009840194019BA3F120030193019B83F3E3
:100300000988019B4FF08072DA6140F67453C2F2A3
:1003100000039B69002B11D040F67453C2F2000316
:100320001B689A6840F67453C2F20003DB699B684D
:100330009A4294BF00230123DBB210E040F67453CD
:10034000C2F200031B689A6840F67453C2F20003BD
:10035000DB699B689A4234BF00230123DBB2002B88
:1003600006D0019A40F29133C0F6000393610AE08F
:10037000019A40F29C33C0F60003936103E04FF012
:10038000000383F3118803B010BC7047AFF3008003
:1003900000F09EF900F094FD00F0BAF900DF00BF14
:1003A00003460A462DE9F04FC2F80CD0D3F80CD022
:1003B000BDE8F08FAFF30080AFF30080AFF30080B3
:1003C00008B500F0A5F94FF0000383F31188284623
:1003D000A04700F0DDFE08BDAFF30080AFF3008062
:1003E00084B001900091019B03F003034FEAC30323
:1003F00003934FF46143CEF20003019A4FEA920057
:100400004FF46142CEF2000201994FEA910101F1ED
:10041000C00152F82110039A4FF0FF0C0CFA02F2BF
:100420006FEA020201EA0201039ADDF800C00CFA49
:1004300002F241EA020100F1C00243F822104FF437
:100440006143CEF20003019A4FEA5212019901F082
:100450001F014FF0010000FA01F102F1600243F8C0
:1004600022104FF46143CEF20003019A4FEA521278
:10047000019901F01F014FF0010000FA01F143F86A
:10048000221004B0704700BFAFF30080AFF30080CC
:1004900084B001900091019B03F003034FEAC30372
:1004A00003934FF46D43CEF20003019A4FEA92009A
:1004B0004FF46D42CEF2000201994FEA910101F131
:1004C000060152F82110039A4FF0FF0C0CFA02F2C9
:1004D0006FEA020201EA0201039ADDF800C00CFA99
:1004E00002F241EA020100F1060243F8221004B0D0
:1004F000704700BFAFF30080AFF30080AFF3008020
:1005000082B0019040F67453C2F20003DA6943F6F8
:100510007053C0F600039361FEE700BFAFF30080A5
:1005200000B583B0FFF7ACFE00F03AFB00F050FAE4
:1005300001F026FB00F0DCF940F60810C2F20000E2
:100540004FF0400100F014FD024640F67453C2F231
:100550000003DA6140F67453C2F20003DB694FF026
:10056000010283F8202040F67453C2F20003DA69D6
:1005700040F20043C2F20003D36100F091F84FF063
:10058000000383F3118862B640F67453C2F200038D
:10059000DA6943F67853C0F60003936140F20153E1
:1005A000C0F600034FF00002009240F64800C2F28D
:1005B00000004FF0C0014FF0010200F089FD03B0D0
:1005C00000BD00BFAFF30080AFF30080AFF3008049
:1005D00000B583B000F05CF940F67453C2F200033A
:1005E0009B69002B0BDD40F67453C2F200039B693C
:1005F00003F1FF3240F67453C2F200039A6140F6F1
:100600007453C2F20003DB695A6A02F101025A62B2
:1006100040F66453C2F20003DB6803F1010240F6C6
:100620006453C2F20003DA6040F66453C2F200037E
:100630001B681A4640F66453C2F200039A422DD05A
:1006400040F66453C2F200031B689A6802F1FF325D
:100650009A6019E0019BDB680093019B4FF0000258
:10066000DA60019B1A6840F66453C2F200035360DB
:10067000019B1A6840F66453C2F200031A60019BA2
:100680001A69009B1046984740F66453C2F2000373
:100690001B680193019B9B68002BDBD003B000BD5E
:1006A00008B540F65013C2F200031B68002B06D1B8
:1006B00040F65413C2F200031B68002B05D043F62A
:1006C0009050C0F6000000F073F908BDAFF3008051
:1006D00008B540F65013C2F200031B68002B06D188
:1006E00040F65413C2F200031B68002B05D043F6FA
:1006F0009850C0F6000000F05BF940F65413C2F2C7
:1007000000034FF001021A6008BD00BFAFF3008084
:1007100008B540F65013C2F200031B68002B06D147
:1007200040F65413C2F200031B68002B05DC43F6AD
:10073000A050C0F6000000F03BF940F65413C2F29E
:1007400000034FF000021A6008BD00BFAFF3008045
:1007500008B540F65013C2F200031B68002B06DDFB
:1007600040F65413C2F200031B68002B05D043F679
:10077000A850C0F6000000F01BF940F65413C2F276
:1007800000034FF001021A6008BD00BFAFF3008004
:1007900008B540F65013C2F200031B68002B06DDBB
:1007A00040F65413C2F200031B68002B05DC43F62D
:1007B000B050C0F6000000F0FBF840F65413C2F24F
:1007C00000034FF000021A6008BD00BFAFF30080C5
:1007D00008B54FF0200383F3118840F65013C2F29E
:1007E00000031B68002B06DB40F65413C2F2000323
:1007F0001B68002B05D043F6B850C0F6000000F08F
:10080000D7F840F65013C2F200031B6803F101024F
:1008100040F65013C2F200031A604FF0000383F356
:10082000118808BDAFF30080AFF30080AFF3008004
:1008300008B54FF0200383F3118840F65013C2F23D
:1008400000031B68002B06DD40F65413C2F20003C0
:100850001B68002B05D043F6C050C0F6000000F026
:10086000A7F840F65013C2F200031B6803F1FF32F1
:1008700040F65013C2F200031A604FF0000383F3F6
:10088000118808BDAFF30080AFF30080AFF30080A4
:1008900008B540F65013C2F200031B68002B06DBBC
:1008A00040F65413C2F200031B68002B05DC43F62C
:1008B000C850C0F6000000F07BF808BDAFF3008020
:1008C00008B540F65013C2F200031B68002B06D196
:1008D00040F65413C2F200031B68002B05DC43F6FC
:1008E000D050C0F6000000F063F808BDAFF3008000
:1008F00040F65813C2F200034FF040021A6040F66F
:100900005813C2F20003014A5A6070476009002080
:1009100082B0019040F65813C2F200035A6840F6C4
:100920006453C2F20003DB68136040F65813C2F24E
:1009300000035A6840F67453C2F20003DB69536047
:1009400040F65813C2F200035B68019A926A9A60FB
:1009500040F65813C2F200035B68019A92F8202017
:100960001A7340F65813C2F200035B6803F11002D9
:1009700040F65813C2F200035A6040F65813C2F210
:1009800000035A68054B9A4205D340F65813C2F249
:100990000003034A5A6002B0704700BF600D002098
:1009A00060090020AFF30080AFF30080AFF3008058
:1009B00000B583B0019040F66053C2F20003019A83
:1009C0001A60FFF725FC03B000BD00BFAFF3008045
:1009D00040F66452C2F2000240F66453C2F20003D1
:1009E0005A6040F66453C2F200035A6840F66453FA
:1009F000C2F200031A6040F66453C2F200034FF0E3
:100A0000FF329A6040F66453C2F200034FF00002D6
:100A1000DA607047AFF30080AFF30080AFF300807F
:100A200000B587B00390029101920093FFF730FF69
:100A3000039B002B05D0019B002B02D0029B002BB7
:100A400005D143F6E050C0F60000FFF7B1FF039B6D
:100A5000009A1A61039B019ADA6040F66453C2F26D
:100A600000031B68059308E0059B9B68029AC3EB93
:100A700002030293059B1B680593059B9A68029BE2
:100A80009A42F1D3039B059A1A60039B1B685A682C
:100A9000039B5A60039B5B68059A03995160059A12
:100AA00052681A60039B029A9A60059A40F6645352
:100AB000C2F200039A4206D0059B9A68029BC3EBE0
:100AC0000202059B9A6007B000BD00BFAFF3008033
:100AD00000B583B00190FFF7DBFE019B002B05D131
:100AE00043F6F050C0F60000FFF762FF019BDB68A1
:100AF000002B05D143F60060C0F60000FFF758FF59
:100B0000019B1A6840F66453C2F200039A4208D06F
:100B1000019B1B68019A12689168019A92680A44C5
:100B20009A60019B5B68019A12681A60019B1B68BE
:100B3000019A52685A60019B4FF00002DA6003B0DC
:100B400000BD00BFAFF30080AFF30080AFF30080C3
:100B500084B00190019B1B680393039B1A68019B5F
:100B60001A60019B1B68019A5A60039B184604B0E7
:100B7000704700BFAFF30080AFF30080AFF3008099
:100B800082B00190019B5B68019A12681A60019B18
:100B90001B68019A52685A60019B184602B0704760
:100BA00040F67452C2F2000240F67453C2F20003DF
:100BB0005A6040F67453C2F200035A6840F6745308
:100BC000C2F200031A6040F67453C2F200034FF001
:100BD00000029A6040F67453C2F200034FF0140210
:100BE0009A6140F67452C2F2000240F67453C2F2A7
:100BF00000035A6140F67453C2F200035A6940F68A
:100C00007453C2F200031A61704700BFAFF3008053
:100C100000B585B00190019B93F82030002B04D0E3
:100C2000019B93F820300E2B05D143F62060C0F6CF
:100C30000000FFF7BDFE019B4FF0000283F820206B
:100C400040F67453C2F200030393039B1B680393A3
:100C5000039B9A68019B9B689A42F6D2019B039A78
:100C60001A60039B5A68019B5A60019B5B68039A58
:100C700001995160039A52681A60019B184605B0A9
:100C800000BD00BFAFF30080AFF30080AFF3008082
:100C900000B585B003468DF80730FFF711FE40F62A
:100CA0007453C2F20003DB690393039B9DF8072092
:100CB00083F8202040F67453C2F200034FF0140270
:100CC0009A6140F67450C2F20000FFF741FF0246FD
:100CD00040F67453C2F20003DA6140F67453C2F274
:100CE0000003DB694FF0010283F820200398FFF72F
:100CF0000FFE6B46A3F12402039BDB699A4205D2E7
:100D000043F63460C0F60000FFF752FE40F674531D
:100D1000C2F20003DB6918460399FFF741FB05B0F7
:100D200000BD00BFAFF30080AFF30080AFF30080E1
:100D300000B585B00190019B0393039B93F820308D
:100D40000D2B28D801A252F823F000BFA70D0008F0
:100D5000970D0008970D0008850D0008970D0008F5
:100D6000910D0008970D0008970D0008970D0008D9
:100D7000970D0008970D0008970D0008970D0008C3
:100D8000910D0008039B9B6A9A6802F101029A6028
:100D90000398FFF7F5FE039B4FF0FF329A6203982A
:100DA000FFF736FF00E000BF05B000BDAFF30080E5
:100DB00000B589B0034600918DF80730FFF780FD3C
:100DC000009BB3F1FF3F1AD040F67453C2F2000308
:100DD000DB6903AA1046009940F63152C0F60002C2
:100DE000FFF71EFE9DF807301846FFF751FF069BE0
:100DF000002B0AD003AB1846FFF76AFE06E09DF809
:100E000007301846FFF744FF00E000BF40F6745378
:100E1000C2F20003DB699B6A184609B000BD00BF3F
:100E200000B585B001900091FFF74AFD019B009A43
:100E30009A62019B9A6840F67453C2F20003DB6920
:100E40009B689A4203D80198FFF7E2FE2FE040F634
:100E50007453C2F20003DB691846FFF7D9FE03465C
:100E6000039340F67453C2F200034FF014029A61E8
:100E700040F67453C2F20003019ADA61019B4FF00D
:100E8000010283F820200398FFF742FD6B46A3F18F
:100E90002402039BDB699A4205D243F63460C0F614
:100EA0000000FFF785FD01980399FFF779FA05B077
:100EB00000BD00BFAFF30080AFF30080AFF3008050
:100EC00000B583B040F67453C2F200034FF0140231
:100ED0009A6140F67453C2F20003DB69019340F655
:100EE0007450C2F20000FFF733FE024640F674531E
:100EF000C2F20003DA6140F67453C2F20003DB6908
:100F00004FF0010283F820200198FFF781FE01983D
:100F1000FFF7FEFC6B46A3F12402019BDB699A42BA
:100F200005D243F63460C0F60000FFF741FD40F6FD
:100F30007453C2F20003DB6918460199FFF730FAD7
:100F400003B000BDAFF30080AFF30080AFF30080CB
:100F500084B00190019B1B680393039B1A68019B5B
:100F60001A60039B184604B0704700BFAFF30080BF
:100F700082B001900091019B009A9A60019B4FF012
:100F8000020283F82020019B4FF0000283F8212009
:100F9000019B009A5A64019B4FF000021A64019B66
:100FA0004FF00002DA63019B4FF000025A62019B8E
:100FB0004FF000029A6140F67453C2F20003019AA6
:100FC000136140F67453C2F200035A69019B5A61DF
:100FD000019B5A6940F67453C2F2000301995961AA
:100FE00040F67453C2F200035B691361019B03F185
:100FF0002C031A46019BDA62019B03F130031A4667
:10100000019B5A63019B5A6B019B1A63019B03F17D
:101010004802019BDA61019B184602B0704700BF8D
:1010200084B00390029113468DF8073007E0039BCC
:101030009DF807201A70039B03F101030393039AA1
:10104000029B9A42F3D304B0704700BFAFF3008015
:1010500000B587B00390029101920093039B059322
:10106000FFF716FC039B002B08D0029BAF2B05D982
:10107000019B7F2B02D8009B002B05D143F65060CB
:10108000C0F60000FFF794FC039A029BA3F124032F
:101090001A44059BDA60059BDB68009A1A60059B81
:1010A000DB68089A5A60059BDA6840F2C133C0F6E3
:1010B0000003136205980199FFF75AFF034618468B
:1010C00007B000BDAFF30080AFF30080AFF3008046
:1010D00000B589B00590049103920293059A059B8F
:1010E00003F14803104619464FF0FF02FFF798FF3F
:1010F000059B03F148020599049B0B4410461946D1
:101100004FF05502FFF78CFF4FF0200383F3118857
:10111000FFF7DEFA0A9B009305980499039A029B55
:10112000FFF796FF0346079307984FF00001FFF77C
:1011300077FEFFF7EDFA4FF0000383F31188079B6A
:10114000184609B000BD00BFAFF30080AFF30080C8
:1011500000B583B00190019B002B05D143F6906050
:10116000C0F60000FFF724FC4FF0200383F3118842
:10117000FFF7AEFA4FF006000199FFF719FEFFF7EF
:10118000C7FA4FF0000383F3118803B000BD00BF1E
:1011900000B583B001904FF0200383F31188FFF76F
:1011A00097FA019800F004F803B000BDAFF3008097
:1011B00000B585B0019040F67453C2F20003DB69BC
:1011C0000393039B019A9A6209E0039B03F12C03AA
:1011D0001846FFF7BDFE03461846FFF719FD039BAF
:1011E000DA6A039B03F12C039A42EED1039B93F836
:1011F000213003F00303002B09D1039B5B69039AA1
:1012000012691A61039B1B69039A52695A614FF074
:101210000E00FFF73DFD43F6A060C0F60000FFF7AB
:10122000C7FB05B000BD00BFAFF30080AFF3008087
:1012300084B001900091009B0393039B1B68039370
:10124000009B039A9A4205D0039B9A68019B9B6876
:101250009A42F2D2019B039A1A60039B5A68019B3F
:101260005A60019B5B68039A01995160039A526826
:101270001A6004B0704700BFAFF30080AFF3008086
:1012800084B00190019B1B680393039B1A68019B28
:101290001A60019B1B68019A5A60039B184604B0B0
:1012A000704700BFAFF30080AFF30080AFF3008062
:1012B00082B00190019B5B68019A12681A60019BE1
:1012C0001B68019A52685A60019B184602B0704729
:1012D00000B583B00190019B002B05D143F6E0607F
:1012E000C0F60000FFF764FB019B1A46019B5A60A1
:1012F000019B5A68019B1A60019B4FF000029A60A3
:1013000003B000BDAFF30080AFF30080AFF3008007
:1013100000B583B001904FF0200383F31188FFF7ED
:10132000D7F9019800F00CF8FFF7F2F94FF000033D
:1013300083F3118803B000BDAFF30080AFF30080EA
:1013400000B585B0019040F67453C2F20003DB692A
:101350000293FFF7B5FA019B002B05D143F6F0602D
:10136000C0F60000FFF724FB019B9B68002B62D0B6
:10137000019B9B68039335E0029B9A68039B9A60EC
:10138000039B93F82030042B04D0052B11D0002BA5
:101390001AD02DE00398FFF78BFF0246039B9B6A50
:1013A00010461946FFF744FF039B9B6A9B68039313
:1013B00018E00398FFF77CFF0246039B9B6A1046E8
:1013C0001946FFF735FF0CE0039B4FF0010283F84D
:1013D00020200398FFF76CFF03461846FFF718FC20
:1013E00000BF05E0039B9A68029B9B689A42C3D3A7
:1013F000019B02981946FFF71BFF029B019A9A6214
:101400004FF00400FFF744FC019B9A68029B9A424C
:1014100005D043F60070C0F60000FFF7C9FA029B42
:101420001A6C019B9A4210D043F61470C0F600006B
:10143000FFF7BEFA09E0019B029A9A60029B1A6CC0
:10144000019BDA60029B019A1A6405B000BD00BFDF
:1014500000B587B040F67453C2F20003DB69039312
:101460004FF0200383F31188FFF732F9039B1B6CC5
:10147000002B05D143F63C70C0F60000FFF798FA48
:10148000039B1B6C9A68039B9A4205D043F65070ED
:10149000C0F60000FFF78CFA039B1B6C0293029BC3
:1014A000DA68039B1A64029B1A68029B9A4234D042
:1014B000039B5B6C0493039B1B6C059311E0059BE2
:1014C0001A68059B9A4209D0059B1B689A68049B81
:1014D0009A4203D9059B1B689B680493059BDB68B4
:1014E0000593059B002BEAD1039B049A9A60029B0B
:1014F0001846FFF7C5FE03460193029B019A9A60C6
:10150000019B1A6C029BDA60019B029A1A64019893
:101510004FF00001FFF784FC03E0029B4FF0000254
:101520009A60FFF7F5F84FF0000383F31188029BF0
:10153000184607B000BD00BFAFF30080AFF30080D6
:1015400000B583B001900091FFF7A2F9019B002B39
:1015500005D143F6CC70C0F60000FFF729FA019BD5
:10156000DA6B009B42EA0302019BDA63019B93F86A
:101570002030082B07D1019BDA6B019B9B6A02EAA2
:101580000303002B0ED1019B93F82030092B10D1BF
:10159000019BDA6B019B9B6A02EA0302019B9B6A37
:1015A0009A4206D10198FFF733FB03464FF0000241
:1015B0009A6203B000BD00BFAFF30080AFF30080BC
:1015C00000B585B001900091FFF762F9019B002BF7
:1015D00005D143F6E070C0F60000FFF7E9F9019B82
:1015E0001B6803930DE0039B5A68039B9968009B5B
:1015F00041EA030310461946FFF7A2FF039B1B684D
:101600000393019B039A9A42EDD105B000BD00BF40
:1016100082B001900091009A019B1A60009B5A6869
:10162000019B5A60019B5B68009A01995160009A86
:1016300052681A6002B07047AFF30080AFF30080C9
:1016400084B00190019B1B680393039B1A68019B64
:101650001A60019B1B68019A5A60039B184604B0EC
:10166000704700BFAFF30080AFF30080AFF300809E
:1016700000B583B001900091009B002B02D14FF088
:10168000FF3316E040F67453C2F20003DB69019A9F
:101690009A6240F67453C2F20003DA69019B104665
:1016A0001946FFF7B5FF4FF00D000099FFF780FBDB
:1016B0000346184603B000BDAFF30080AFF30080CF
:1016C00084B00390029101920093039B1A46039BFE
:1016D0005A60039B5A68039B1A60039B4FF00002F9
:1016E0009A60039B029A5A61039B5A69039B9A6111
:1016F000039B9A69039BDA60029A019B1A44039B3D
:101700001A61039B009ADA6104B07047AFF300805E
:1017100000B583B001900B468DF80330FFF7B8F8A1
:10172000019B5A69019B9B699A4206D1019B9B6868
:10173000002B02D06FF003032BE0019B9B6803F1A9
:101740000102019B9A60019B5B699DF803201A705E
:1017500003F10102019B5A61019B5A69019B1B69BC
:101760009A4203D3019BDA68019B5A61019B1A6874
:10177000019B9A420BD0019B1846FFF761FF03467D
:101780001846FFF745FA03464FF000029A624FF001
:101790000003184603B000BDAFF30080AFF3008034
:1017A00000B585B0019000914FF0200383F31188BC
:1017B000FEF78EFF019BDB69002B15D0019BDB69D7
:1017C0000198984711E001980099FFF751FF0346EF
:1017D0000393039B002B08DAFEF79AFF4FF00003F8
:1017E00083F31188039B25E000BF019B9B68002BBE
:1017F000E9D0019B9B6803F1FF32019B9A60019B3A
:101800009B691A788DF80B2003F10102019B9A6104
:10181000019B9A69019B1B699A4203D3019BDA6879
:10182000019B9A61FEF774FF4FF0000383F3118868
:101830009DF80B30184605B000BD00BFAFF3008027
:1018400000B587B00390029101920093039BDB697E
:1018500004934FF000030593019B002B05D144F244
:101860002000C0F60000FFF7A3F84FF0200383F339
:101870001188FEF72DFF049B002B12D0049B0398C8
:1018800098470FE003980099FFF7F2FE0346002BFC
:1018900008D0FEF73DFF4FF0000383F31188059B4E
:1018A0003BE000BF039B9B68002BEBD0039B9B6836
:1018B00003F1FF32039B9A60039B9B691978029A9C
:1018C0001170029A02F10102029203F10102039BDC
:1018D0009A61039B9A69039B1B699A4203D3039BFA
:1018E000DA68039B9A61FEF713FF4FF0000383F35E
:1018F0001188059B03F101030593019B03F1FF335D
:101900000193019B002B01D1059B06E04FF02003C2
:1019100083F31188FEF7DCFEADE7184607B000BD83
:1019200084B00390029101920093039B1A46039B9B
:101930005A60039B5A68039B1A60039B019A9A6042
:10194000039B029A5A61039B5A69039B9A61039B0A
:101950009A69039BDA60029A019B1A44039B1A61FD
:10196000039B009ADA6104B0704700BFAFF30080B8
:1019700000B587B003900B4601928DF80B304FF005
:10198000200383F31188FEF7A3FE10E0039801996A
:10199000FFF76EFE03460593059B002B07DAFEF763
:1019A000B7FE4FF0000383F31188059B2CE0039BE7
:1019B0009B68002BEAD0039B9B6803F1FF32039BDB
:1019C0009A60039B5B699DF80B201A7003F101027A
:1019D000039B5A61039B5A69039B1B699A4203D379
:1019E000039BDA68039B5A61039BDB69002B03D0DE
:1019F000039BDB6903989847FEF78AFE4FF00003CC
:101A000083F311884FF00003184607B000BD00BFF4
:101A100000B585B00190FEF73BFF019B5A69019B21
:101A20009B699A4206D1019B9B68002B02D06FF004
:101A300002032BE0019B9B6803F10102019B9A606A
:101A4000019B9B691A788DF80F2003F10102019B1D
:101A50009A61019B9A69019B1B699A4203D3019B7E
:101A6000DA68019B9A61019B1A68019B9A420BD02C
:101A7000019B1846FFF7E4FD03461846FFF7C8F838
:101A800003464FF000029A629DF80F30184605B0E9
:101A900000BD00BFAFF30080AFF30080AFF3008064
:101AA00000B587B00390029101920093039BDB691C
:101AB00004934FF000030593019B002B05D144F2E2
:101AC0003400C0F60000FEF773FF4FF0200383F3ED
:101AD0001188FEF7FDFD0EE003980099FFF7C8FDA1
:101AE0000346002B07D0FEF713FE4FF0000383F3ED
:101AF0001188059B41E0039B9B68002BECD0039B66
:101B00009B6803F1FF32039B9A60039B5B69029A17
:101B100012781A7003F10102039B5A61029B03F1D0
:101B200001030293039B5A69039B1B699A4203D3E7
:101B3000039BDA68039B5A61049B002B02D0049B31
:101B400003989847FEF7E4FD4FF0000383F31188F4
:101B5000059B03F101030593019B03F1FF330193FF
:101B6000019B002B01D1059B07E04FF0200383F37D
:101B70001188FEF7ADFD00BFBDE7184607B000BDF8
:101B800041F6C033C2F2000303F1070323F0070359
:101B90001A4640F69453C2F200031A6045F200035D
:101BA000C2F2000323F007031A4640F69853C2F22C
:101BB00000031A60704700BFAFF30080AFF30080EE
:101BC00008B500F09DFC44F23040C0F6000001F082
:101BD0009FFA00F00DF800F06BF900F0E9F901F060
:101BE00097FB08BDAFF30080AFF30080AFF3008038
:101BF00008B500F0C5FD08BDAFF30080AFF300806D
:101C000082B00190019B4FF001021A70019B4FF0CE
:101C100000025A6002B07047AFF30080AFF300805B
:101C200000B583B001900091019B002B02D0009B76
:101C3000002B05D144F25000C0F60000FEF7B8FEBC
:101C40004FF0200383F31188FEF742FD019B1B78C0
:101C5000012B09D0019B1B78022B05D044F25C00BC
:101C6000C0F60000FEF7A4FE019B009A5A6001989E
:101C700000F09EFD019B4FF002021A70FEF748FD36
:101C80004FF0000383F3118803B000BDAFF3008071
:101C900000B583B001900B46ADF802304FF0200341
:101CA00083F31188FEF714FDBDF802300198194640
:101CB00000F00EF8FEF72CFD4FF0000383F31188BF
:101CC00003B000BDAFF30080AFF30080AFF300803E
:101CD00000B583B001900B46ADF80230FEF7D8FD99
:101CE000019B002B05D144F28800C0F60000FEF7EE
:101CF0005FFE019B1B78022B05D044F2A000C0F6CA
:101D00000000FEF755FE019B4FF003021A70BDF86C
:101D100002300198194600F0BBFD03B000BD00BFC2
:101D200000B585B0039002910192039B03F130034B
:101D300018460299019A4FF0FF33FFF7B1FE0346B0
:101D4000184605B000BD00BFAFF30080AFF30080C0
:101D500000B585B0039002910192039B03F110033B
:101D600018460299019A4FF0FF33FFF769FD0346C9
:101D7000184605B000BD00BFAFF30080AFF3008090
:101D800082B00190019B9B6B002B14BF00230123A9
:101D9000184602B0704700BFAFF30080AFF3008079
:101DA00082B00190019B9B69002B14BF002301238B
:101DB000184602B0704700BFAFF30080AFF3008059
:101DC00000B585B003900B4601928DF80B30039B54
:101DD00003F130029DF80B3010461946019AFFF7C7
:101DE000C7FD0346184605B000BD00BFAFF3008035
:101DF00000B583B001900091019B03F110031846D8
:101E00000099FFF7CDFC0346184603B000BD00BFA4
:101E100000B585B00390029101920093039B03F1FA
:101E2000300318460299019A009BFFF739FE0346DA
:101E3000184605B000BD00BFAFF30080AFF30080CF
:101E400000B585B00390029101920093039B03F1CA
:101E5000100318460299019A009BFFF7F1FC034614
:101E6000184605B000BD00BFAFF30080AFF300809F
:101E700000B585B001904FF0200383F31188FEF781
:101E800027FC019B9B680393019B4FF000029A6023
:101E9000FEF73EFC4FF0000383F31188039B1846C6
:101EA00005B000BDAFF30080AFF30080AFF300805A
:101EB00008B500F0A5FE08BDAFF30080AFF30080C9
:101EC00000B585B0039002910192039A44F28033E9
:101ED000C0F600031360039B03F104031A46039B3F
:101EE0005A60039B4FF000029A60039B4FF001027F
:101EF0001A73039B03F11002039B03F15003104676
:101F000019464FF40072029BFFF7DAFB039B03F1C3
:101F10003002039B03F51473104619464FF4007208
:101F2000019BFFF7FDFC05B000BD00BFAFF30080D3
:101F300000B583B001900B468DF80330FEF7A8FC86
:101F4000019B002B05D144F26810C0F60000FEF79B
:101F50002FFD019B9B69002B0DD1019B9B6843F0DA
:101F60000402019B9A60019B03F1040318464FF0A1
:101F70000001FFF725FB019B03F110029DF80330E0
:101F800010461946FFF7C4FB0346002B0DDA019BF0
:101F90009B6843F08002019B9A60019B03F104035C
:101FA00018464FF00001FFF70BFB03B000BD00BF68
:101FB00008B500F0BDFE08BDAFF30080AFF30080B0
:101FC00082B00190019B4FF001021A70019B4FF00B
:101FD00000025A6002B07047AFF30080AFF3008098
:101FE00000B583B001900091019B002B02D0009BB3
:101FF000002B05D144F29010C0F60000FEF7D8FC8B
:102000004FF0200383F31188FEF762FB019B1B78DE
:10201000012B09D0019B1B78022B05D044F2A010A4
:10202000C0F60000FEF7C4FC019B009A5A600198BC
:1020300000F0E6FE019B4FF002021A70FEF768FB0B
:102040004FF0000383F3118803B000BDAFF30080AD
:1020500000B583B0FEF7BCFB4FF00003C4F20203EF
:102060001B6803F00F0301934FF00003C4F2020357
:102070004FF00F025A6040F6A053C2F200031B68F3
:10208000002B0CD040F6A053C2F200031A6840F6B1
:10209000A053C2F200035B68184601999047FEF70F
:1020A000C7FBFEF715F903B000BD00BFAFF300801A
:1020B00000B583B0FEF78CFB4FF00003C4F20203BF
:1020C0001B684FEA131303F00F0301934FF0000353
:1020D000C4F202034FF0F0025A6040F6A053C2F27D
:1020E00000039B68002B0CD040F6A053C2F2000303
:1020F0009A6840F6A053C2F20003DB6818460199C3
:102100009047FEF795FBFEF7E3F803B000BD00BF74
:1021100000B583B0FEF75CFB4FF00003C4F202038E
:102120001B684FEA132303F00F0301934FF00003E2
:10213000C4F202034FF470625A6040F6A053C2F238
:1021400000031B69002B0CD040F6A053C2F2000321
:102150001A6940F6A053C2F200035B691846019960
:102160009047FEF765FBFEF7B3F803B000BD00BF74
:1021700000B583B0FEF72CFB4FF00003C4F202035E
:102180001B684FEA133303F00F0301934FF0000372
:10219000C4F202034FF470425A6040F6A053C2F2F8
:1021A00000039B69002B0CD040F6A053C2F2000341
:1021B0009A6940F6A053C2F20003DB691846019900
:1021C0009047FEF735FBFEF783F803B000BD00BF74
:1021D00000B583B0FEF7FCFA4FF00003C4F202032F
:1021E0001B684FEA134303F00F0301934FF0000302
:1021F000C4F202034FF470225A6040F6A053C2F2B8
:1022000000031B6A002B0CD040F6A053C2F200035F
:102210001A6A40F6A053C2F200035B6A184601999D
:102220009047FEF705FBFEF753F803B000BD00BF73
:1022300000B583B0FEF7CCFA4FF00003C4F20203FE
:102240001B684FEA135303F00F0301934FF0000391
:10225000C4F202034FF470025A6040F6A053C2F277
:1022600000039B6A002B0CD040F6A053C2F200037F
:102270009A6A40F6A053C2F20003DB6A184601993D
:102280009047FEF7D5FAFEF723F803B000BD00BF74
:1022900000B583B0FEF79CFA4FF00003C4F20203CE
:1022A0001B684FEA136303F00F0301934FF0000321
:1022B000C4F202034FF070625A6040F6A053C2F2BB
:1022C00000031B6B002B0CD040F6A053C2F200039E
:1022D0001A6B40F6A053C2F200035B6B18460199DB
:1022E0009047FEF7A5FAFDF7F3FF03B000BD00BF6E
:1022F00082B040F69C53C2F200034FF000021A6015
:102300004FF0000301931CE044F2B032C0F600022B
:1023100001990B464FEA43030B444FEA83031344EE
:102320001B684FF000021A6040F6A053C2F200038F
:10233000019A4FF0000143F83210019B03F10103B1
:102340000193019B062BDFDD4FF00003C4F2020373
:102350004FF0FF325A6002B0704700BFAFF3008009
:1023600000B585B00390029101920093039B002B6E
:1023700005D144F2C020C0F60000FEF719FB039B14
:102380005B7A4FF0010202FA03F31A4640F69C53BF
:10239000C2F200031B6802EA0303002B02D04FF0D5
:1023A000010361E0039B5B7A1A4640F6A053C2F238
:1023B0000003019943F83210039B5B7A40F6A05268
:1023C000C2F200024FEAC3031344009A5A60039B0F
:1023D0005B7A4FF0010202FA03F31A4640F69C536F
:1023E000C2F200031B6842EA030240F69C53C2F2A9
:1023F00000031A6040F69C53C2F200031B6803F00E
:102400007F03002B0BD04FF48053C4F202034FF430
:102410008052C4F20202526942F001025A61039BE7
:102420001B68039A1268126822F001021A60039B6B
:102430005B68039A127A4FF00F0101FA02F21A60F8
:10244000039B1B684FF000021A60019B002B09D010
:10245000039B9B7A1A46029B4FEA031310461946C8
:10246000FDF7BEFF4FF00003184605B000BD00BFEA
:102470004FF4E043C4F200034FF4E042C4F2000220
:10248000126842F480721A604FF48053C4F202035F
:102490001B6A03F44073B3F5407F0DD04FF48053B3
:1024A000C4F202034FF480321A624FF48053C4F234
:1024B00002034FF000021A624FF48053C4F2020389
:1024C0001B6A03F40043002B17D14FF48053C4F26E
:1024D00002034FF48052C4F20202126A42F44072C4
:1024E0001A624FF48053C4F202034FF48052C4F2D4
:1024F0000202126A42F400421A627047AFF300808F
:1025000008B54FF48053C4F202031B694FF48053A3
:10251000C4F202034FF0FF321A614FF48053C4F249
:1025200002034FF000021A614FF48053C4F2020319
:10253000DB684FF48053C4F202034FF0FF32DA60DD
:102540004FF48053C4F202034FF00002DA604EF2FF
:102550001003CEF2000343F27F22C0F202025A605F
:102560004EF21003CEF200034FF000029A604EF2DA
:102570001003CEF200034FF007021A604EF6F0533C
:10258000CEF200034EF6F052CEF20002D26842F0D4
:102590008072DA604FF48053CEF200034FF4805221
:1025A000CEF20002126842F001021A604FF480532A
:1025B000C4F202034FF48052C4F20202D26942F024
:1025C0008052DA614FF48053C4F202034FF4805218
:1025D000C4F20202D26942F00062DA61FFF748FFFA
:1025E000FFF786FE08BD00BFAFF30080AFF30080A9
:1025F0004FF48053C4F202034FF48052C4F202023B
:10260000126842F001021A6000BF4FF48053C4F216
:1026100002031B6803F00203002BF6D04FF4805333
:10262000C4F202034FF48052C4F20202126802F0B4
:10263000F9021A604FF48053C4F202034FF0000213
:102640005A6000BF4FF48053C4F202035B6803F08A
:102650000C03002BF6D14FF48053C4F202034FF465
:102660008052C4F20202126842F480321A6000BF43
:102670004FF48053C4F202031B6803F40033002BB1
:10268000F6D04FF48053C4F202034FF48052C4F2E8
:102690000202526842F4E8125A604FF48053C4F2C6
:1026A00002034FF48052C4F20202126842F08072B8
:1026B0001A6000BF4FF48053C4F202031B6803F09A
:1026C0000073002BF6D04FF48053C4F202034FF492
:1026D000C842C0F21D025A604FF40053C4F2020314
:1026E0004FF012021A604FF48053C4F202034FF409
:1026F0008052C4F20202526842F002025A6000BFE5
:102700004FF48053C4F202035B6803F00C03082B00
:10271000F6D17047AFF30080AFF30080AFF30080D5
:1027200000B583B00190019BDB684FF000021A8274
:10273000019B1B78042B06D1019B4FF002021A70FB
:10274000019800F0CDF8019B5B685B6801989847A1
:1027500003B000BDAFF30080AFF30080AFF30080A3
:1027600008B5FEF735F840F6D850C2F20000FFF782
:10277000D7FFFEF75DF8FDF7ABFD08BDAFF30080B6
:1027800008B540F6D853C2F200034FF43052C4F2F9
:102790000102DA6040F6D850C2F20000FFF730FACA
:1027A00008BD00BFAFF30080AFF30080AFF300803F
:1027B00000B585B00190019B1B78012B31D1019AA6
:1027C00040F6D853C2F200039A422AD14FF4805304
:1027D000C4F202034FF48052C4F20202926942F43E
:1027E00000629A614FF48053C4F202034FF48052A6
:1027F000C4F20202D26842F40062DA604FF48053FD
:10280000C4F202034FF00002DA604FF019004FF0FB
:102810007001FDF7E5FD019A4FF42243C0F24A43EF
:102820009360019B9A68019B5B681B68B2FBF3F3A2
:102830009BB203F1FF33ADF80E30BDF80E3003F15B
:102840000103019A5268126802FB03F2019B9B6824
:102850009A4205D044F20030C0F60000FEF7A8F816
:10286000019BDB684FF000021A80019BDB684FF090
:1028700008029A80019BDB68BDF80E201A85019B37
:10288000DB684FF000029A8105B000BDAFF3008015
:1028900082B001900B46ADF80230019BDB68BDF8B9
:1028A000022002F1FF32DA62019BDB684FF0010285
:1028B0009A82019BDB684FF000025A62019BDB6841
:1028C0004FF000021A82019BDB684FF001029A81EF
:1028D000019BDB684FF005021A8002B0704700BF11
:1028E00082B00190019BDB684FF000021A80019BCF
:1028F000DB684FF000021A82019BDB684FF0000298
:102900009A8102B0704700BFAFF30080AFF3008040
:1029100000B585B001900B46ADF802304FF00003D2
:102920000393BDF8023003F00803002B03D0039B90
:1029300043F080030393BDF8023003F00103DBB2E0
:10294000002B03D0039B43F020030393BDF8023018
:1029500003F00203002B03D0039B43F040030393D7
:10296000BDF8023003F00403002B03D0039B43F4B3
:10297000807303934FF0200383F31188FDF7E8FE83
:10298000019B9A68039B42EA0302019B9A60019BA8
:1029900003F1040318464FF00001FEF711FEFDF7A6
:1029A000F7FE4FF0000383F3118805B000BD00BFB0
:1029B00000B587B00190019BD3F850340593059B77
:1029C0009B89ADF81230059B1B88ADF81030059B34
:1029D0009B88ADF80E30BDF8103003F00F03002BCC
:1029E00005D0BDF8103001981946FFF791FFBDF8EA
:1029F000103003F48073002B21D04FF0200383F3B9
:102A00001188FDF7A5FE019B9B6843F40072019BB2
:102A10009A60019B03F1040318464FF00001FEF792
:102A2000CFFDFDF7B5FE4FF0000383F31188059B42
:102A30001B889BB223F480739AB2059B1A80BDF861
:102A4000103003F02003002B12D04FF0200383F34B
:102A50001188FDF77DFEBDF80E30DBB201981946F6
:102A6000FFF766FAFDF794FE4FF0000383F3118839
:102A7000BDF8123003F08003002B3AD0BDF81030BF
:102A800003F08003002B34D04FF0200383F3118830
:102A9000FDF75EFE019B03F130031846FEF7B8FF19
:102AA00003460293029B002B19DA019B9B6843F0BB
:102AB0000802019B9A60019B03F1040318464FF042
:102AC0000001FEF77DFDBDF8123023F0C0039BB27C
:102AD00043F040039BB29AB2059B9A8103E0029BAC
:102AE0009AB2059B9A80FDF753FE4FF0000383F3E3
:102AF0001188BDF8103003F04003002B28D04FF0B0
:102B0000200383F31188FDF723FE019B9B6843F0AC
:102B10001002019B9A60019B03F1040318464FF0D9
:102B20000001FEF74DFDFDF733FE4FF0000383F388
:102B30001188BDF8123023F040039AB2059B9A81A8
:102B4000059B1B889BB223F040039AB2059B1A8019
:102B500007B000BDAFF30080AFF30080AFF300809B
:102B600082B001904FF46053C4F201034FF46052FD
:102B7000C4F20102928992B242F0800292B29A812A
:102B800002B07047AFF30080AFF30080AFF3008076
:102B900082B001904FF48843C4F200034FF488429E
:102BA000C4F20002928992B242F0800292B29A81FB
:102BB00002B07047AFF30080AFF30080AFF3008046
:102BC00008B5FDF705FE40F6E850C2F20000FFF739
:102BD000EFFEFDF72DFEFDF77BFB08BDAFF3008098
:102BE00008B5FDF7F5FD41F23C20C2F20000FFF709
:102BF000DFFEFDF71DFEFDF76BFB08BDAFF30080A8
:102C000008B540F6E850C2F200004FF0000142F66D
:102C10006132C0F60002FFF753F940F6E853C2F202
:102C200000034FF46052C4F20102C3F8502441F291
:102C30003C20C2F200004FF0000142F69132C0F693
:102C40000002FFF73DF941F23C23C2F200034FF4CA
:102C50008842C4F20002C3F8502408BDAFF30080DC
:102C600000B583B001900091009B03F00803002B96
:102C700001D0FDF7CDFA019B1B691B68019A12690F
:102C80001268126822F001021A60019B1B695B68DE
:102C9000019A1269127A4FF00F0101FA02F21A60DA
:102CA000019BDB681B68019AD2681268126822F0E7
:102CB00001021A60019BDB685B68019AD268127A94
:102CC0004FF00F0101FA02F21A60019B5B681B686A
:102CD000002B11D0019B4FF004021A70019B5B681E
:102CE0001B6801989847019B1B78042B08D1019B16
:102CF0004FF002021A7003E0019B4FF002021A70BB
:102D000003B000BDAFF30080AFF30080AFF30080ED
:102D100000B583B001900091009B03F00803002BE5
:102D200001D0FDF775FA03B000BD00BFAFF300801E
:102D300008B541F2C863C2F200034FF6FF721A8071
:102D400041F29060C2F20000FFF73AF941F290635D
:102D5000C2F200034FF44052C4F201029A6041F201
:102D60009063C2F20003204ADA6041F29063C2F23B
:102D700000031E4A1A6141F29063C2F2000341F25D
:102D80000A025A6141F29063C2F2000341F2180252
:102D90009A6141F2AC60C2F20000FFF711F941F212
:102DA000AC63C2F200034FF46052C4F200029A60B6
:102DB00041F2AC63C2F200030D4ADA6041F2AC6347
:102DC000C2F200030B4A1A6141F2AC63C2F2000383
:102DD00041F20A025A6141F2AC63C2F2000341F2CD
:102DE00018029A6108BD00BFBC430008C843000830
:102DF000D4430008E0430008AFF30080AFF3008045
:102E000000B585B00190019B1B78012B40F09680A6
:102E1000019A41F29063C2F200039A423BD1019BB6
:102E2000DA6842F66143C0F6000310464FF00A012B
:102E30001A46019BFFF794FA03460393039B002B6A
:102E400005D044F22030C0F60000FDF7B1FD019B33
:102E50001A6942F61153C0F6000310464FF00A01FA
:102E60001A46019BFFF77CFA03460393039B002B52
:102E700005D044F23430C0F60000FDF799FD4FF460
:102E80008053C4F202034FF48052C4F202029269EA
:102E900042F480529A61019A41F2AC63C2F200039B
:102EA0009A423BD1019BDA6842F66143C0F60003C7
:102EB00010464FF00A011A46019BFFF751FA0346EC
:102EC0000293029B002B05D044F24830C0F600006C
:102ED000FDF76EFD019B1A6942F61153C0F600031F
:102EE00010464FF00A011A46019BFFF739FA0346D4
:102EF0000293029B002B05D044F25C30C0F6000028
:102F0000FDF756FD4FF48053C4F202034FF4805294
:102F1000C4F20202D26942F48042DA61019BDB68AA
:102F20001B68019A926802F10C029A60019B1B696E
:102F30001B68019A926802F10C029A60019B5B681F
:102F40005B8903F40063002B0CD1019B5B6923F4C4
:102F50004062019B5A61019B9B6923F44062019B83
:102F60009A610FE0019B5B6923F4506343F4A06214
:102F7000019B5A61019B9B6923F4506343F4A06257
:102F8000019B9A61019B9B684FF000021A80019B94
:102F90009B68019A5268528942F4417292B21A8037
:102FA000019B9B684FF007029A80019B9B68019AE6
:102FB0009268128892B242F0400292B21A8005B032
:102FC00000BD00BFAFF30080AFF30080AFF300801F
:102FD00082B00190019B5B685B68019A526812891C
:102FE0004FF0010101FA02F25A6102B0704700BFCE
:102FF00082B00190019B5B685B68019A52681289FC
:103000004FF0010101FA02F21A6102B0704700BFED
:1030100084B0039002910192039BDB681A6841F22D
:10302000CA63C2F20003D360039BDB681B68029A89
:103030005A60039BDB681B68039A52691A60039B02
:103040001B691B68019ADA60039B1B691B68029A63
:103050005A60039B1B691B68039A926942F08002C5
:103060001A60039BDB681B68039AD26812681268B7
:1030700042F001021A60039B1B691B68039A1269E4
:103080001268126842F001021A6004B0704700BF73
:1030900084B0039002910192039BDB681B68019A44
:1030A000DA60039BDB681B68029A5A60039BDB684B
:1030B0001B68039A526942F080021A60039B1B69E5
:1030C0001A6841F2C863C2F20003D360039B1B6914
:1030D0001B68029A5A60039B1B691B68039A9269DA
:1030E0001A60039BDB681B68039AD2681268126837
:1030F00042F001021A60039B1B691B68039A126964
:103100001268126842F001021A6004B0704700BFF2
:1031100082B001904FF48053C4F202034FF4805206
:10312000C4F20202926942F07D029A614FF4006398
:10313000C4F20103019A1268DA604FF40063C4F22A
:103140000103019A92685A604FF40063C4F20103CC
:10315000019A52681A604FF44063C4F20103019A65
:10316000D268DA604FF44063C4F20103019A5269F5
:103170005A604FF44063C4F20103019A12691A6065
:103180004FF48053C4F20103019A9269DA604FF45C
:103190008053C4F20103019A126A5A604FF48053BB
:1031A000C4F20103019AD2691A604FF4A053C4F229
:1031B0000103019A526ADA604FF4A053C4F201038A
:1031C000019AD26A5A604FF4A053C4F20103019AE3
:1031D000926A1A604FF4C053C4F20103019A126B51
:1031E000DA604FF4C053C4F20103019A926B5A6043
:1031F0004FF4C053C4F20103019A526B1A6002B03B
:10320000704700BFAFF30080AFF30080AFF30080E2
:103210008AB0039002910192019B032B03D1039B7F
:10322000029A1A6105E0019B042B02D1039B029ACA
:103230005A6144F21043C0F60003019A13441B780C
:1032400004934FF000030693069B0793079B089394
:10325000089B09934FF00003059335E0089B4FEA64
:1032600003130893099B4FEA03130993069B4FEA44
:1032700003130693079B4FEA03130793029B03F084
:103280008003002B04D1089B43F00F03089304E054
:10329000069A049B42EA03030693029B03F400434D
:1032A000002B04D1099B43F00F03099304E0079A14
:1032B000049B42EA03030793029B4FEA43030293F2
:1032C000059B03F101030593059B072BC6D9039BBF
:1032D0005A68099B02EA0302079B42EA0302039B26
:1032E0005A60039B1A68089B02EA0302069B42EAA3
:1032F0000302039B1A600AB0704700BFAFF300805F
:1033000008B5FFF775F908BDAFF30080AFF3008093
:10331000704700BFAFF30080AFF30080AFF30080D1
:1033200008B5FEF74DFCFDF7FBF800F0B9F800F02A
:10333000F7F800F02DFC00F03BFB4FF0000047F6E3
:10334000FF7100F0B5FC4FF01900FDF701FF4FF0E1
:10335000010047F6FF7100F0ABFC4FF01900FDF7DC
:10336000F7FE4FF0020047F6FF7100F0A1FC4FF0AE
:103370001900FDF7EDFE4FF0030047F6FF7100F076
:1033800097FC4FF01900FDF7E3FE4FF000004FF6F9
:10339000FA7100F08DFC4FF01900FDF7D9FE4FF0E7
:1033A00001004FF6FA7100F083FC4FF01900FDF7B1
:1033B000CFFE4FF002004FF6FA7100F079FC4FF0AB
:1033C0001900FDF7C5FE4FF003004FF6FA7100F04B
:1033D0006FFC4FF01900FDF7BBFEAEE7AFF30080C6
:1033E00000B583B0019040F67453C2F20003DA696D
:1033F00044F27033C0F60003936141F2CC60C2F234
:103400000000FDF785FF41F2DC63C2F200031A6899
:1034100041F69003C2F200031A6041F69003C2F233
:1034200000031B6803F00103DBB2002B0CD04FF448
:103430008053C4F201034FF48052C4F20102D268F7
:1034400082F48042DA6006E04FF48053C4F2010354
:103450004FF480425A6141F69003C2F200031B68A8
:1034600003F00203002B0CD04FF48053C4F201038D
:103470004FF48052C4F20102D26882F40052DA6042
:1034800006E04FF48053C4F201034FF400525A6136
:10349000FDF7DEFF4FF07D00FDF75AFEADE700BF00
:1034A00000B583B04FF48053C4F201034FF480425F
:1034B0005A614FF48053C4F201034FF400525A6131
:1034C0004FF48050C4F201004FF480414FF00602E7
:1034D000FFF79EFE4FF48050C4F201004FF40051FC
:1034E0004FF00602FFF794FE41F2CC60C2F20000FA
:1034F000FDF7EEFE4FF00003009341F2E060C2F2F0
:1035000000004FF4D8714FF0400243F2E133C0F6AF
:103510000003FDF7DDFD03B000BD00BFAFF3008089
:1035200008B541F69400C2F2000041F6B401C2F2BF
:1035300000014FF4A0724FF00003FEF7C1F841F60E
:10354000F410C2F2000041F61421C2F200014FF45F
:10355000A0724FF00003FEF7B3F841F65430C2F208
:10356000000041F67431C2F200014FF002024FF048
:103570000003FEF7D5F94FF40060C4F201004FF0EC
:1035800001014FF00602FFF743FE4FF40060C4F262
:1035900001004FF002014FF00602FFF739FE4FF431
:1035A0000060C4F201004FF020014FF01002FFF75D
:1035B0002FFE4FF40060C4F201004FF040014FF0C5
:1035C0001002FFF725FE4FF40060C4F201004FF037
:1035D00010014FF00602FFF71BFE4FF40063C4F228
:1035E00001034FF010021A6141F67C33C2F200036E
:1035F0001B68184600F0ACF941F29060C2F200007E
:1036000044F27041C0F60001FEF7EAFC08BD00BFBD
:1036100008B541F29060C2F20000FFF7D9FC41F218
:103620009063C2F200034FF003021A7041F29060FF
:10363000C2F200004FF0030141F67832C2F20002FC
:10364000FFF726FD08BD00BFAFF30080AFF3008099
:1036500000B587B001904FF0200383F31188FDF788
:1036600077F841F67C33C2F200031B68059341F6FC
:103670007C33C2F200031B6803F101024FEAE273DC
:103680004FEA93731A4402F00302C3EB02031A4693
:1036900041F67C33C2F200031A6041F67C33C2F279
:1036A00000031B68184600F053F941F29060C2F223
:1036B0000000FFF79DFC41F67833C2F200039B78CF
:1036C0001A4641F67833C2F200035B784FEA0323CF
:1036D0001A4441F67833C2F200031B784FEA0343E1
:1036E0001344049340F60003C2F20003059A0499C0
:1036F00043F82210059B032B40F01F8141F68033D5
:10370000C2F200031B6803F1010241F68033C2F2EA
:1037100000031A6041F68033C2F200031A6840F6D3
:103720001403C2F200031B689A42C0F2068141F6FC
:103730008033C2F200031A6840F61403C2F2000399
:103740001B68C3EB020241F68033C2F200031A6029
:1037500041F69403C2F200031B691A4641F6940332
:10376000C2F20003DB68C3EB02031A4641F694037E
:10377000C2F200039B68C3EB02030B2B40F2DD8017
:1037800040F61003C2F200031B6803F00103DBB232
:10379000002B2DD040F60003C2F200031B680493F7
:1037A000049B8DF80F309DF80F3041F69400C2F263
:1037B00000001946FDF7ACFF049B4FEA23238DF868
:1037C0000F309DF80F3041F69400C2F20000194608
:1037D000FDF79EFF049B4FEA23438DF80F309DF8C1
:1037E0000F3041F69400C2F200001946FDF790FF39
:1037F00040F61003C2F200031B6803F00203002B23
:103800002DD040F60003C2F200035B680493049BD2
:103810008DF80F309DF80F3041F69400C2F2000091
:103820001946FDF775FF049B4FEA23238DF80F30EF
:103830009DF80F3041F69400C2F200001946FDF7E2
:1038400067FF049B4FEA23438DF80F309DF80F303C
:1038500041F69400C2F200001946FDF759FF40F608
:103860001003C2F200031B6803F00403002B2DD0E9
:1038700040F60003C2F200039B680493049B8DF89A
:103880000F309DF80F3041F69400C2F20000194647
:10389000FDF73EFF049B4FEA23238DF80F309DF880
:1038A0000F3041F69400C2F200001946FDF730FFD8
:1038B000049B4FEA23438DF80F309DF80F3041F6FB
:1038C0009400C2F200001946FDF722FF40F61003F3
:1038D000C2F200031B6803F00803002B2DD040F652
:1038E0000003C2F20003DB680493049B8DF80F30E1
:1038F0009DF80F3041F69400C2F200001946FDF722
:1039000007FF049B4FEA23238DF80F309DF80F30FB
:1039100041F69400C2F200001946FDF7F9FE049B3F
:103920004FEA23438DF80F309DF80F3041F6940095
:10393000C2F200001946FDF7EBFEFCF729FF4FF03D
:10394000000383F3118807B000BD00BFAFF3008010
:1039500082B00190019B03F00103DBB2002B07D082
:103960004FF40063C4F201034FF001021A6106E054
:103970004FF40063C4F201034FF001025A61019B4E
:1039800003F00203002B07D04FF40063C4F20103DD
:103990004FF002021A6106E04FF40063C4F2010323
:1039A0004FF002025A6102B0704700BFAFF30080CF
:1039B00008B540F6D850C2F2000044F28041C0F68B
:1039C0000001FEF72DF940F6D850C2F200004FF08A
:1039D0006401FEF75DF908BDAFF30080AFF300802E
:1039E00000B587B001904FF0200383F31188FCF7F6
:1039F000AFFEFFF70DFE41F68433C2F200031B69F0
:103A00001A4641F68433C2F20003DB68C3EB0203BB
:103A10001A4641F68433C2F200039B68C3EB0203EB
:103A20000593059B022B40F3A68041F68430C2F239
:103A30000000FDF7EDFF03460493049B039341F65A
:103A40008430C2F20000FDF7E3FF03460493049BB9
:103A5000029341F68430C2F20000FDF7D9FF03461D
:103A60000493049B4FEA0323029A13440293039A9C
:103A70004FEAE2734FEA93731A4402F00302C3EB76
:103A80000203039340F61803C2F20003039A02995B
:103A900043F82210039B032B2AD801A252F823F0EB
:103AA000B13A0008C13A0008D13A0008E13A0008EA
:103AB00040F63803C2F200034FF009021A8117E002
:103AC00040F63803C2F200034FF00A021A810FE0F9
:103AD00040F63803C2F200034FF00B021A8107E0F0
:103AE00040F63803C2F200034FF00C021A8100BF07
:103AF00040F61803C2F20003039A53F8221040F66E
:103B00002803C2F20003039A43F8221040F6180378
:103B1000C2F20003039A53F822304FEA2323DAB2A9
:103B200041F6BC33C2F200031A7040F61803C2F229
:103B30000003039A53F82230DAB241F6BC33C2F2E2
:103B400000035A7041F2AC60C2F20000FFF740FA85
:103B500041F2AC63C2F200034FF003021A7041F26B
:103B6000AC60C2F200004FF0020141F6BC32C2F27A
:103B70000002FFF74DFAFCF70BFE4FF0000383F352
:103B8000118807B000BD00BFAFF30080AFF3008025
:103B900008B541F68430C2F2000041F6A431C2F209
:103BA00000014FF018024FF00003FDF7B9FE4FF48B
:103BB0004060C4F201004FF400514FF01002FFF7D3
:103BC00027FB4FF44060C4F201004FF400414FF076
:103BD0001002FFF71DFB4FF44063C4F201034FF4E2
:103BE00000721A614FF44063C4F201034FF4806223
:103BF0001A614FF44063C4F201034FF400621A618A
:103C00004FF44063C4F201034FF480521A614FF441
:103C10004060C4F201004FF400714FF00602FFF75C
:103C2000F7FA4FF44060C4F201004FF480614FF0A6
:103C30000602FFF7EDFA4FF44060C4F201004FF4C2
:103C400000614FF00602FFF7E3FA4FF44060C4F260
:103C500001004FF480514FF00602FFF7D9FA41F20C
:103C6000AC60C2F2000040F63801C2F20001FEF77B
:103C7000B7F94FF0000047F6FF7100F019F84FF068
:103C8000010047F6FF7100F013F84FF0020047F60D
:103C9000FF7100F00DF84FF0030047F6FF7100F0E0
:103CA00007F808BDAFF30080AFF30080AFF30080EA
:103CB00000B585B0019000914FF0200383F3118887
:103CC000FCF706FD41F68433C2F200039B680293C1
:103CD000FCF71EFD4FF0000383F31188029B022BBB
:103CE00026DD019BDBB241F68430C2F200001946AA
:103CF0004FF0FF32FDF73CFE009BDBB241F6843013
:103D0000C2F2000019464FF0FF32FDF731FE009B72
:103D10004FEA2323DBB241F68430C2F20000194699
:103D20004FF0FF32FDF724FE4FF00003039302E053
:103D30004FF001030393039B184605B000BD00BF7D
:103D400000B583B001904FF0200383F31188FCF796
:103D5000FFFC41F2AC60C2F20000FFF749F9FCF74A
:103D600017FD4FF0000383F3118803B000BD00BFBF
:103D700069646C65000000006D61696E0000000000
:103D80005356233100000000535623320000000038
:103D90005356233300000000535623340000000024
:103DA0005356233500000000535623360000000010
:103DB00053562337000000005356233800000000FC
:103DC00053562339000000005356233130000000C1
:103DD00053562331310000000000000000000000B5
:103DE0002263685654536574492228290000000054
:103DF000226368565452657365744922282900006D
:103E00006368565452657365744928292C20233100
:103E100000000000000000000000000000000000A2
:103E2000636853636852656164794928292C2023AB
:103E300031000000737461636B206F766572666C8D
:103E40006F7700000000000000000000000000008C
:103E50002263685468644372656174654922282945
:103E600000000000226368546864536574507269EE
:103E70006F72697479222829000000006368546811
:103E800064526573756D6528292C2023310000006C
:103E9000226368546864536C6565702228290000A9
:103EA0006368546864457869745328292C20233149
:103EB0000000000022636854686457616974222816
:103EC0002900000063685468645761697428292CCC
:103ED000202331000000000000000000000000006E
:103EE0002263684D7478496E6974222829000000A5
:103EF0002263684D74784C6F636B5322282900004D
:103F000063684D74784C6F636B5328292C202331E0
:103F10000000000063684D74784C6F636B53282970
:103F20002C202332000000002263684D7478547204
:103F3000794C6F636B5322282900000063684D742D
:103F400078556E6C6F636B28292C2023310000009C
:103F500063684D7478556E6C6F636B28292C202331
:103F60003200000063684D7478556E6C6F636B535C
:103F700028292C202331000063684D7478556E6C1D
:103F80006F636B5328292C202332000000000000AF
:103F900022636845767452656769737465724D6112
:103FA000736B222829000000226368457674556EE1
:103FB00072656769737465722228290022636845F7
:103FC00076745369676E616C222829002263684504
:103FD00076745369676E616C4922282900000000DD
:103FE00022636845767442726F6164636173744DD5
:103FF00061736B49222829002263684576744469FD
:104000007370617463682228290000006368457634
:1040100074446973706174636828292C202331000B
:1040200022636849515265616454696D656F7574A6
:10403000222829002263684F5157726974655469B8
:104040006D656F75742228290000000000000000D3
:10405000227074537461727422282900677074533B
:104060007461727428292C20233100002267707437
:1040700053746F702228290067707453746F70280E
:10408000292C202331000000226770745374617260
:1040900074436F6E74696E756F75734922282900B9
:1040A0006770745374617274436F6E74696E756F68
:1040B00075734928292C2023310000002267707471
:1040C00053746172744F6E6553686F744922282966
:1040D0000000000067707453746172744F6E655312
:1040E000686F744928292C202331000022677074DE
:1040F00053746F7054696D6572492228290000005D
:1041000067707453746F7054696D65724928292CF7
:1041100020233100677074506F6C6C656444656C6B
:10412000617928292C2023310000000000000000C4
:104130002273645374617274222829007364537467
:1041400061727428292C20233100000022736453EB
:10415000746F702228290000736453746F702829CB
:104160002C20233100000000227364496E636F6DC0
:10417000696E674461746149222829002273645280
:104180006571756573744461746149222829000062
:104190002273706953746172742228290000000030
:1041A000737069537461727428292C2023310000C4
:1041B0002273706953746F702228290073706953D9
:1041C000746F7028292C202331000000227370693D
:1041D00053656C656374222829000000737069536D
:1041E000656C65637428292C202331002273706963
:1041F000556E73656C656374222829007370695568
:104200006E73656C65637428292C202331000000CF
:1042100022737069537461727449676E6F7265229C
:1042200028290000737069537461727449676E6F56
:10423000726528292C202331000000002273706948
:10424000537461727445786368616E6765222829CA
:10425000000000007370695374617274457863687C
:10426000616E676528292C20233100002273706954
:10427000537461727453656E642228290000000033
:10428000737069537461727453656E6428292C20AD
:104290002331000022737069537461727452656334
:1042A0006569766522282900737069537461727498
:1042B0005265636569766528292C2023310000004A
:1042C00022646D61416C6C6F636174652228290002
:1042D00022646D6152656C65617365222829000056
:1042E000646D6152656C6561736528292C202331EA
:1042F00000000000000000000000000000000000BE
:104300006770745F6C6C645F737461727428292CBD
:104310002023310000000000000000000000000029
:104320007370695F6C6C645F737461727428292C9C
:10433000202331007370695F6C6C645F7374617209
:104340007428292C202332007370695F6C6C645FC1
:10435000737461727428292C202333007370695F91
:104360006C6C645F737461727428292C2023340090
:104370006C6400000000000000000000000000006D
:10438000211D0008511D0008811D0008A11D000805
:10439000C11D0008F11D0008111E0008411E000883
:1043A000711E000800000000000000000000000076
:1043B000080002400400024000000B001C00024004
:1043C0000400024004010C003000024004000240DE
:1043D00008020D0044000240040002400C030E00DD
:1043E000580002400400024010040F006C0002401C
:1043F0000400024014051000800002400400024046
:10440000180611000000000000000000000000007D
:104410000402040808000307080808080808080838
:104420000B0F000000000000000000000000000072
:10443000FFFFFFFF4444444444444444FFFFFFFF64
:104440004444444444444444FFFFFFFF4444444440
:1044500044444444FFFFFFFF444444444444444430
:10446000FFFFFFFF88888888888888880000000010
:104470005136000800080140040000000000000060
:0844800040420F00E139000881
:10448800FFFFFFFFFFFFFFFFFFFFFFFFFFFFFFFF34
:104498000F000000F4010000FFFFFFFFFFFFFFFF18
:1044A800FFFFFFFFFFFFFFFFFFFFFFFFFFFFFFFF14
:1044B800FFFFFFFFFFFFFFFF413D0008000C014029
:0444C80009000000E7
:0400000508000111DD
:00000001FF
