:020000040800F2
:1000000000040020A10A0008710B0008710B000811
:10001000710B0008710B0008710B0008710B0008D0
:10002000710B0008710B0008710B0008C10B000870
:10003000710B0008710B0008710B0008910B000890
:10004000710B000811320008710B0008710B0008D9
:10005000710B0008710B0008B12F0008E12F000898
:10006000113000084130000871300008712A000882
:10007000C12A0008112B0008612B0008B12B0008D1
:10008000012C0008512C0008710B0008710B0008AE
:10009000710B0008710B0008710B0008A1300008FB
:1000A000710B0008A1350008710B0008710B0008E6
:1000B000710B0008710B0008710B0008614000080B
:1000C00081400008710B0008710B0008710B0008DB
:1000D000710B0008A1460008C1460008710B00081A
:0C00E00051310008710B0008413200088B
:1000F0004BB942B9002908BF002802D04FF0FF31A8
:10010000084600F03DB882B0EC462DE9005000F002
:100110001FF8DDF804E002B00CBC704700000000DE
:100120002DE970431646804689461D4600F030F89A
:1001300000FB05F3A0FB064506FB0136069B75197F
:10014000B8EB040469EB0505C3E90045BDE870831D
:100150002DE970431646804689461D4600F0C8F9D1
:1001600000FB05F3A0FB064506FB0136069B75194F
:10017000B8EB040469EB0505C3E90045BDE87083ED
:10018000704700BF000000000000000000000000F9
:1001900000292DE9F04F1C4685B0C0F2CB80002627
:1001A000002CC0F2C2808C4617461446054688468D
:1001B0009A46002B4AD18A426ED9B2FA82F35BB1D9
:1001C000C3F1200401FA03F830FA04F210FA03F53F
:1001D00017FA03F442EA08084FEA144A4046514627
:1001E0001FFA84FB00F00CFB51468146404600F0AC
:1001F00035FC280C0BFB09F340EA0148434509D9BB
:1002000018EB040809F1FF3904D2434584BF09F112
:10021000FF39A044C3EB080851464046ADB200F098
:10022000EFFA51460746404600F018FC0BFB07FB6F
:1002300045EA0145AB4505D9013F2D1902D2AB4531
:1002400088BF013F47EA0949002403E08B420CD9EB
:100250000024A1464A46234616B1524263EB4303AB
:100260001046194605B0BDE8F08FB3FA83F4002CB0
:1002700040F0B3808B424FF001092CBF4FF0000CCF
:100280004FF0010C82428CBF67464CF00107002FF3
:10029000E0D13C46B946DDE722B90120114600F025
:1002A000AFFA0446B4FA84F3002B49D1C4EB080832
:1002B000270C1FFA84FA012102913946404600F0CA
:1002C0009FFA39468146404600F0C8FB2A0C0AFBDB
:1002D00009F342EA014B5B4509D91BEB040B09F119
:1002E000FF3904D25B4584BF09F1FF39A344C3EB56
:1002F0000B0B39465846ADB200F082FA39468046BB
:10030000584600F0ABFB0AFB08FA45EA0145AA454E
:1003100007D92D1908F1FF3803D2AA4588BF08F183
:10032000FF3848EA0949029C94E7F643524263EBDE
:10033000430338E7404261EB41014FF0FF362FE7BE
:100340009C40C3F1200728FA07FA35FA07F2270C78
:1003500008FA03FB3946504642EA0B029D400292DE
:1003600000F04EFA39468346504600F077FB029B78
:100370001FFA84FA4FEA13490AFB0BF349EA0148D2
:10038000434505D918EB04080BF1FF3BC0F0AA80E8
:10039000C3EB08083946404600F032FA3946814638
:1003A000404600F05BFB02980AFB09F31FFA80FC51
:1003B0004CEA0148434509D918EB040809F1FF3913
:1003C00004D2434584BF09F1FF39A04449EA0B4EEA
:1003D000C3EB0808CDF808E06FE7C4F120030AFA80
:1003E00004FADA4021FA03F842EA0A0A01FA04F9A7
:1003F00030FA03F240464FEA1A4B42EA09010391F0
:10040000594617FA04F3029300F0FAF95946814667
:10041000404600F023FB1FFA8AF3039803FB09F21E
:10042000070C47EA0148424504D918EB0A0809F1CC
:10043000FF3951D3C2EB080859464046019300F0FA
:10044000DFF959460746404600F008FB019B039838
:1004500003FB07F31FFA80FC4CEA014C634507D904
:10046000013F1CEB0A0C03D2634501D9013FD44480
:1004700047EA0949029FC3EB0C0C1FFA89FE4FEAB9
:100480001943B8B23F0C00FB0EF800FB03F107FB69
:100490000E1207FB03F002EB1842914288BF00F5F1
:1004A000803000EB124EF44512D34FEA02421FFA9D
:1004B00088F814BF0021012102EB080C15FA04F49E
:1004C00064452CBF002401F00104002C3FF4C2AEAF
:1004D00009F1FF390024BDE6424584BF09F1FF3927
:1004E000D044A7E7434584BF0BF1FF3BA0444FE74F
:1004F0002DE9F04F054683B00C46174680460E4660
:10050000002B4DD18A4261D9B2FA82F353B1C3F1C3
:10051000200411FA03F630FA04F29F4042EA06067C
:1005200000FA03F83C0C304621461FFA87FA00F027
:1005300067F921468146304600F090FA4FEA1840AC
:100540000AFB09F340EA0146B34208D9F61909F15A
:10055000FF3904D2B34284BF09F1FF39F619F61A04
:10056000214630461FFA88F800F04AF92146054630
:10057000304600F073FA0AFB05FA48EA0148C24522
:1005800006D9013D18EB070802D2C24588BF013DDC
:1005900045EA094A00263146504603B0BDE8F08FCF
:1005A0008B425BD8B3FA83F6002E5AD18B424FF0C0
:1005B000010A2CBF0024012482428CBF254644F04E
:1005C0000105002DE7D12E46AA46E4E722B9012015
:1005D000114600F015F90746B7FA87F3002B40F0F3
:1005E000B680E41B4FEA174BBDB2012659462046A0
:1005F00000F006F959464FEA18498246204600F0B5
:100600002DFA05FB0AF349EA0144A34208D9E4198B
:100610000AF1FF3A04D2A34284BF0AF1FF3AE41977
:10062000E41A5946204600F0EBF859468146204628
:1006300000F014FA1FFA88F305FB09F543EA0148B4
:10064000454508D918EB070809F1FF3903D245459C
:1006500088BF09F1FF3949EA0A4A9CE70026B246F9
:1006600099E7C6F12001B34032FA01F724FA01F903
:100670001F43B44030FA01F348464FEA174843EAB3
:10068000040101914146B240009200F0B9F84146A0
:10069000BCB28246484600F0E1F9019804FB0AF337
:1006A0004FEA104B4BEA014B5B4505D91BEB070B9F
:1006B0000AF1FF3AC0F09380C3EB0B0B414658465A
:1006C00000F09EF841468146584600F0C7F901986F
:1006D00004FB09F41FFA80FC4CEA01439C4203D955
:1006E000DB1909F1FF3974D3009F49EA0A4A1C1B40
:1006F0001FFA8AFEB8B23A0C4FEA1A4700FB0EFC0A
:1007000000FB07F302FB0E3102FB07F201EB1C4179
:100710008B4288BF02F5803202EB114E744512D332
:100720004FEA01411FFA8CF214BF0023012301EBB1
:10073000020C15FA06F666452CBF002603F00106EA
:10074000002E3FF428AF0AF1FF3A002623E79F402E
:10075000C3F1200134FA01F614FA03F24FEA174B01
:1007600025FA01FA3046594605FA03F84AEA020A20
:1007700000F046F85946BDB28146304600F06EF9A9
:100780004FEA1A4C05FB09F34CEA0144A34203D992
:10079000E41909F1FF3928D3E41A5946204600F03C
:1007A0002FF859460646204600F058F91FFA8AF4F9
:1007B00005FB06F344EA0144A34206D9013EE419CD
:1007C00003D2A34201D9013EE419E41A46EA0946DC
:1007D0000CE79C4284BF09F1FF39DB1984E75B45D4
:1007E00084BF0AF1FF3ABB4466E7A34284BF09F124
:1007F000FF39E419D0E700BF00000000000000004E
:100800004A1E08BF7047C0F02481884240F216811A
:10081000114200F01781B0FA80F3B1FA81F2A2EB35
:100820000303C3F11F0304A202EB03134FF0000202
:100830009F4600BFAFF30080B0EBC17F00BF42EB2B
:10084000020228BFA0EBC170B0EB817F00BF42EB7A
:10085000020228BFA0EB8170B0EB417F00BF42EBEA
:10086000020228BFA0EB4170B0EB017F00BF42EB5A
:10087000020228BFA0EB0170B0EBC16F00BF42EBDA
:10088000020228BFA0EBC160B0EB816F00BF42EB5A
:10089000020228BFA0EB8160B0EB416F00BF42EBCA
:1008A000020228BFA0EB4160B0EB016F00BF42EB3A
:1008B000020228BFA0EB0160B0EBC15F00BF42EBBA
:1008C000020228BFA0EBC150B0EB815F00BF42EB3A
:1008D000020228BFA0EB8150B0EB415F00BF42EBAA
:1008E000020228BFA0EB4150B0EB015F00BF42EB1A
:1008F000020228BFA0EB0150B0EBC14F00BF42EB9A
:10090000020228BFA0EBC140B0EB814F00BF42EB19
:10091000020228BFA0EB8140B0EB414F00BF42EB89
:10092000020228BFA0EB4140B0EB014F00BF42EBF9
:10093000020228BFA0EB0140B0EBC13F00BF42EB79
:10094000020228BFA0EBC130B0EB813F00BF42EBF9
:10095000020228BFA0EB8130B0EB413F00BF42EB69
:10096000020228BFA0EB4130B0EB013F00BF42EBD9
:10097000020228BFA0EB0130B0EBC12F00BF42EB59
:10098000020228BFA0EBC120B0EB812F00BF42EBD9
:10099000020228BFA0EB8120B0EB412F00BF42EB49
:1009A000020228BFA0EB4120B0EB012F00BF42EBB9
:1009B000020228BFA0EB0120B0EBC11F00BF42EB39
:1009C000020228BFA0EBC110B0EB811F00BF42EBB9
:1009D000020228BFA0EB8110B0EB411F00BF42EB29
:1009E000020228BFA0EB4110B0EB011F00BF42EB99
:1009F000020228BFA0EB0110B0EBC10F00BF42EB19
:100A0000020228BFA0EBC100B0EB810F00BF42EB98
:100A1000020228BFA0EB8100B0EB410F00BF42EB08
:100A2000020228BFA0EB4100B0EB010F00BF42EB78
:100A3000020228BFA0EB0100104670470CBF012046
:100A400000207047B1FA81F2C2F11F0220FA02F0D1
:100A5000704708B14FF0FF30FFF792BB0029F8D084
:100A60002DE90340FFF7CCFEBDE8064002FB00F392
:100A7000A1EB0301704700BF000000000000000070
:100A8000704700BFAFF30080AFF30080AFF300808A
:100A9000FEE700BFAFF30080AFF30080AFF300804C
:100AA00072B6264C84F309884FF0020484F314884C
:100AB000BFF36F8F224C234D04E04FF0553323607A
:100AC00004F10404AC42F8D31F4C1C4D04E04FF079
:100AD0005533236004F10404AC42F8D304F040F928
:100AE0001A4D1B4C05E02B68236004F1040405F14A
:100AF0000405184B9C42F6D3174C184D04E04FF0F8
:100B00000003236004F10404AC42F8D3FFF7B8FFFC
:100B1000134C03E02368984704F10404114B9C42F2
:100B2000F8D304F02DF9104C03E02368984704F142
:100B300004040E4B9C42F8D3FFF7AAFF00080020E4
:100B4000000000200004002000040020106E0008B7
:100B5000000800208408002088080020E81C0020ED
:100B6000EC000008EC000008EC000008EC000008B5
:100B7000FEE700BFAFF30080AFF30080AFF300806B
:100B800072B6FEE7AFF30080AFF30080AFF30080F2
:100B900008B500F05DFA4FF0200383F3118800F0F0
:100BA00027FA00F095F900F03BFA4FF0000383F3C9
:100BB000118800F075FA00F03BF808BDAFF3008033
:100BC00010B483B0EFF309840194019B03F1200377
:100BD0000193019B83F309884FF0000383F311888D
:100BE00003B010BC704700BFAFF30080AFF30080CC
:100BF00008B50D4B4FF000029A600B4B0B4ADA60C0
:100C00004FF007004FF0100100F0DAF84FF00A0043
:100C10004FF4007100F0D4F84FF00B004FF080015A
:100C200000F0CEF808BD00BF00ED00E00000FA05BE
:100C300010B483B04FF0200383F311881F4B5B681F
:100C400003F40063002B32D0EFF309840194019B7D
:100C5000A3F120030193019B83F30988019B4FF0CB
:100C60008072DA61164B9B69002B0BD0144B1B680A
:100C70009A68134BDB699B689A4294BF0023012357
:100C8000DBB20AE00E4B1B689A680D4BDB699B6870
:100C90009A4234BF00230123DBB2002B03D0019B17
:100CA000084A9A6107E0019B074A9A6103E04FF006
:100CB000000383F3118803B010BC704700ED00E01F
:100CC000B40D0020D10C0008DC0C0008AFF300804C
:100CD00000F05EF900F09CFC00F072F900DF00BF4C
:100CE00003460A462DE9F04FC2F80CD0D3F80CD0D9
:100CF000BDE8F08FAFF30080AFF30080AFF300806A
:100D000008B500F05DF94FF0000383F31188284621
:100D1000A04700F0C5FD08BDAFF30080AFF3008031
:100D200010B485B001900091019B03F003034FEADA
:100D3000C30303931E4B019A4FEA92021C49019888
:100D40004FEA900000F1C00051F8200003994FF0E5
:100D5000FF0404FA01F16FEA010108400399009CC5
:100D600004FA01F140EA010102F1C00243F8221045
:100D70000F4B019A4FEA5212019901F01F014FF0F7
:100D8000010000FA01F102F1600243F82210084B61
:100D9000019A4FEA5212019901F01F014FF0010030
:100DA00000FA01F143F8221005B010BC704700BFF3
:100DB00000E100E0AFF30080AFF30080AFF300800C
:100DC00010B485B001900091019B03F003034FEA3A
:100DD000C3030393104B019A4FEA92020E49019804
:100DE0004FEA900000F1060051F8200003994FF0FF
:100DF000FF0404FA01F16FEA010108400399009C25
:100E000004FA01F140EA010102F1060243F822105E
:100E100005B010BC704700BF00ED00E0AFF30080EC
:100E200082B00190024BDB69024A9A61FEE700BF83
:100E3000B40D002040630008AFF30080AFF30080E2
:100E400000B583B0FFF7D4FE00F0A2FA00F0D8F9A5
:100E500001F006FA00F07CF914484FF0400100F070
:100E60001FFC0246124BDA61114BDB694FF00102A5
:100E700083F820200E4BDB690E4ADA6100F070F82F
:100E80004FF0000383F3118862B6094BDB690A4A0D
:100E90009A610A4B4FF00002009209484FF0C001DE
:100EA0004FF0010200F09CFC03B000BD4809002097
:100EB000B40D00200004002048630008210E000843
:100EC00088080020AFF30080AFF30080AFF300800C
:100ED00000B583B000F00CF91F4B9B69002B05DDBA
:100EE0001D4B9B6903F1FF321B4B9A611A4BDB6967
:100EF0005A6A02F101025A62184BDB6803F10102DF
:100F0000164BDA60154B1B681A46144B9A4221D0D7
:100F1000124B1B689A6802F1FF329A6013E0019B42
:100F2000DB680093019B4FF00002DA60019B1B68B5
:100F30000A4A5A60019B1A68084B1A60019B1A6999
:100F4000009B10469847054B1B680193019B9B68CB
:100F5000002BE4D003B000BDB40D0020A40D002090
:100F600008B5064B1B68002B03D1054B1B68002BF3
:100F700002D0044800F034F908BD00BF90090020F9
:100F80009409002060630008AFF30080AFF3008095
:100F900008B5084B1B68002B03D1074B1B68002BBF
:100FA00002D0064800F01CF9034B4FF001021A6012
:100FB00008BD00BF90090020940900206863000864
:100FC00008B5084B1B68002B03D1074B1B68002B8F
:100FD00002DC064800F004F9034B4FF000021A60EF
:100FE00008BD00BF9009002094090020706300082C
:100FF00008B5084B1B68002B03DD074B1B68002B53
:1010000002D0064800F0ECF8034B4FF001021A60E2
:1010100008BD00BF900900209409002078630008F3
:1010200008B5084B1B68002B03DD074B1B68002B22
:1010300002DC064800F0D4F8034B4FF000021A60BF
:1010400008BD00BF900900209409002080630008BB
:1010500008B54FF0200383F311880B4B1B68002B5E
:1010600003DB0A4B1B68002B02D0094800F0B8F8DC
:10107000054B1B6803F10102034B1A604FF000039C
:1010800083F3118808BD00BF900900209409002057
:1010900088630008AFF30080AFF30080AFF30080F7
:1010A00008B54FF0200383F311880B4B1B68002B0E
:1010B00003DD0A4B1B68002B02D0094800F090F8B2
:1010C000054B1B6803F1FF32034B1A604FF000031E
:1010D00083F3118808BD00BF900900209409002007
:1010E00090630008AFF30080AFF30080AFF300809F
:1010F00008B5064B1B68002B03DB054B1B68002B58
:1011000002DC044800F06CF808BD00BF9009002024
:101110009409002098630008AFF30080AFF30080CB
:1011200008B5064B1B68002B03D1054B1B68002B31
:1011300002DC044800F054F808BD00BF900900200C
:1011400094090020A0630008AFF30080AFF3008093
:10115000034B4FF040021A60014B024A5A6070473D
:1011600098090020A0090020AFF30080AFF30080B1
:1011700082B00190124B5B68124AD2681A60104B21
:101180005B68114AD2695A600D4B5B68019A926A9A
:101190009A600B4B5B68019A92F820201A73084BF7
:1011A0005B6803F11002064B5A60054B5A68074B07
:1011B0009A4202D3024B064A5A6002B0704700BFFF
:1011C00098090020A40D0020B40D0020A00D0020DF
:1011D000A0090020AFF30080AFF30080AFF30080E0
:1011E00000B583B00190034B019A1A60FFF7C8FC69
:1011F00003B000BDA00D0020AFF30080AFF300806E
:10120000074A074B5A60064B5A68054B1A60044B55
:101210004FF0FF329A60024B4FF00002DA607047E5
:10122000A40D0020AFF30080AFF30080AFF3008087
:1012300000B587B00390029101920093FFF758FF29
:10124000039B002B05D0019B002B02D0029B002B9F
:1012500002D11C48FFF7C4FF039B009A1A61039B4D
:10126000019ADA60184B1B68059307E0059B9B68A1
:10127000029AD31A0293059B1B680593059B9A68F3
:10128000029B9A42F2D3039B059A1A60039B1B6848
:101290005A68039B5A60039B5B68059A03995160E7
:1012A000059A52681A60039B029A9A60059A064B47
:1012B0009A4205D0059B9A68029BD21A059B9A60B8
:1012C00007B000BDB0630008A40D0020AFF300809C
:1012D00000B583B00190FFF70BFF019B002B02D1FB
:1012E0001348FFF77DFF019BDB68002B02D11148FB
:1012F000FFF776FF019B1A680F4B9A4208D0019BBB
:101300001B68019A12689168019A92688A189A601B
:10131000019B5B68019A12681A60019B1B68019A25
:1013200052685A60019B4FF00002DA6003B000BDC2
:10133000C0630008D0630008A40D0020AFF3008054
:1013400084B00190019B1B680393039B1A68019B67
:101350001A60019B1B68019A5A60039B184604B0EF
:10136000704700BFAFF30080AFF30080AFF30080A1
:1013700082B00190019B5B68019A12681A60019B20
:101380001B68019A52685A60019B184602B0704768
:101390000B4A0B4B5A600A4B5A68094B1A60084BB0
:1013A0004FF000029A60064B4FF014029A61044A13
:1013B000034B5A61024B5A69014B1A61704700BFD7
:1013C000B40D0020AFF30080AFF30080AFF30080D6
:1013D00000B585B00190019B93F82030002B04D01C
:1013E000019B93F820300E2B02D11348FFF7F8FE33
:1013F000019B4FF0000283F82020104B0393039BC6
:101400001B680393039B9A68019B9B689A42F6D2E0
:10141000019B039A1A60039B5A68019B5A60019BC7
:101420005B68039A01995160039A52681A60019BA4
:10143000184605B000BD00BFF0630008B40D0020E1
:1014400000B585B003468DF80730FFF769FE164BEF
:10145000DB690393039B9DF8072083F82020124B40
:101460004FF014029A611048FFF76AFF02460E4BD4
:10147000DA610D4BDB694FF0010283F820200398FD
:10148000FFF776FE6B46A3F12402039BDB699A42C9
:1014900002D20648FFF7A4FE034BDB691846039906
:1014A000FFF71EFC05B000BDB40D00200464000869
:1014B00000B585B00190019B0393039B93F8203006
:1014C0000D2B28D801A252F823F000BF27150008E1
:1014D000171500081715000805150008171500084E
:1014E0001115000817150008171500081715000832
:1014F000171500081715000817150008171500081C
:1015000011150008039B9B6A9A6802F101029A6018
:101510000398FFF72DFF039B4FF0FF329A62039869
:10152000FFF756FF00E000BF05B000BDAFF300803D
:1015300000B589B0034600918DF80730FFF7F0FD44
:10154000009BB3F1FF3F14D00F4BDB6903AA104699
:1015500000990E4AFFF76CFE9DF807301846FFF71A
:101560006FFF069B002B09D003AB1846FFF7B0FEB8
:1015700004E09DF807301846FFF762FF024BDB6975
:101580009B6A184609B000BDB40D0020B1140008D4
:1015900000B585B001900091FFF7C2FD019B009A54
:1015A0009A62019B9A68174BDB699B689A4203D841
:1015B0000198FFF70DFF22E0124BDB691846FFF799
:1015C00007FF03900F4B4FF014029A610D4B019AE5
:1015D000DA61019B4FF0010283F820200398FFF7A6
:1015E000C7FD6B46A3F12402039BDB699A4202D23A
:1015F0000548FFF7F5FD01980399FFF771FB05B06A
:1016000000BD00BFB40D002004640008AFF30080EB
:1016100000B583B0154B4FF014029A61134BDB6990
:1016200001931248FFF78CFE0246104BDA610F4B14
:10163000DB694FF0010283F820200198FFF7C8FE14
:101640000198FFF795FD6B46A3F12402019BDB692E
:101650009A4202D20648FFF7C3FD044BDB691846E5
:101660000199FFF73DFB03B000BD00BFB40D0020A2
:1016700004640008AFF30080AFF30080AFF3008094
:1016800084B00190019B1B680393039B1A68019B24
:101690001A60039B184604B0704700BFAFF3008088
:1016A00082B001900091019B009A9A60019B4FF0DB
:1016B000020283F82020019B4FF0000283F82120D2
:1016C000019B009A5A64019B4FF000021A64019B2F
:1016D0004FF00002DA63019B4FF000025A62019B57
:1016E0004FF000029A61144A019B1A61124B5A6929
:1016F000019B5A61019B5B690F4A019951610E4A36
:1017000052691A61019B03F12C031A46019BDA62AC
:10171000019B03F130031A46019B5A63019B5A6BEC
:10172000019B1A63019B03F14802019BDA61019B53
:10173000184602B0704700BFB40D0020AFF3008020
:1017400084B00390029113468DF8073007E0039BA5
:101750009DF807201A70039B03F101030393039A7A
:10176000029B9A42F3D304B0704700BFAFF30080EE
:1017700000B587B00390029101920093039B0593FB
:10178000FFF7B6FC039B002B08D0029BAF2B05D9BB
:10179000019B7F2B02D8009B002B02D10E48FFF744
:1017A0001FFD039A029BA3F12403D218059BDA6064
:1017B000059BDB68009A1A60059BDB68089A5A60F3
:1017C000059BDB68054A1A6205980199FFF768FFD7
:1017D0000346184607B000BD20640008010D00084C
:1017E00000B589B00590049103920293059A059B78
:1017F00003F14803104619464FF0FF02FFF7A0FF20
:10180000059B03F148020599049BCB181046194625
:101810004FF05502FFF794FF4FF0200383F3118838
:10182000FFF7B6FB0A9B009305980499039A029B65
:10183000FFF79EFF079007984FF00001FFF7A8FE03
:10184000FFF7BEFB4FF0000383F31188079B184698
:1018500009B000BDAFF30080AFF30080AFF30080AC
:1018600000B583B00190019B002B02D10A48FFF71D
:10187000B7FC4FF0200383F31188FFF789FB4FF08B
:1018800006000199FFF754FEFFF79AFB4FF00003A3
:1018900083F3118803B000BD60640008AFF30080DB
:1018A00000B583B001904FF0200383F31188FFF758
:1018B0006FFB019800F004F803B000BDAFF30080A7
:1018C00000B585B00190194BDB690393039B019A26
:1018D0009A6209E0039B03F12C031846FFF7D0FE40
:1018E00003461846FFF774FD039BDA6A039B03F176
:1018F0002C039A42EED1039B93F8213003F00303AB
:10190000002B09D1039B5B69039A12691A61039B3F
:101910001B69039A52695A614FF00E00FFF790FD60
:101920000348FFF75DFC05B000BD00BFB40D00200B
:1019300070640008AFF30080AFF30080AFF3008065
:1019400084B001900091009B0393039B1B68039359
:10195000009B039A9A4205D0039B9A68019B9B685F
:101960009A42F2D2019B039A1A60039B5A68019B28
:101970005A60019B5B68039A01995160039A52680F
:101980001A6004B0704700BFAFF30080AFF300806F
:1019900084B00190019B1B680393039B1A68019B11
:1019A0001A60019B1B68019A5A60039B184604B099
:1019B000704700BFAFF30080AFF30080AFF300804B
:1019C00082B00190019B5B68019A12681A60019BCA
:1019D0001B68019A52685A60019B184602B0704712
:1019E00000B583B00190019B002B02D10848FFF79E
:1019F000F7FB019B1A46019B5A60019B5A68019BA9
:101A00001A60019B4FF000029A6003B000BD00BF56
:101A1000B0640008AFF30080AFF30080AFF3008044
:101A200000B583B001904FF0200383F31188FFF7D6
:101A3000AFFA019800F00CF8FFF7C2FA4FF000037C
:101A400083F3118803B000BDAFF30080AFF30080D3
:101A500000B585B001903C4BDB690293FFF760FB5A
:101A6000019B002B02D13948FFF7BAFB019B9B6811
:101A7000002B5CD0019B9B68039335E0029B9A6826
:101A8000039B9A60039B93F82030042B04D0052B12
:101A900011D0002B1AD02DE00398FFF791FF0246DA
:101AA000039B9B6A10461946FFF74AFF039B9B6AFC
:101AB0009B68039318E00398FFF782FF0246039B9D
:101AC0009B6A10461946FFF73BFF0CE0039B4FF063
:101AD000010283F820200398FFF772FF034618469F
:101AE000FFF776FC00BF05E0039B9A68029B9B68AA
:101AF0009A42C3D3019B02981946FFF721FF029B2C
:101B0000019A9A624FF00400FFF79AFC019B9A68D1
:101B1000029B9A4202D00E48FFF762FB029B1A6CAE
:101B2000019B9A420DD00B48FFF75AFB09E0019B3D
:101B3000029A9A60029B1A6C019BDA60029B019ADE
:101B40001A6405B000BD00BFB40D0020C0640008D9
:101B5000D0640008E4640008AFF30080AFF30080B5
:101B600000B587B0334BDB6903934FF0200383F359
:101B70001188FFF70DFA039B1B6C002B02D12E4836
:101B8000FFF72EFB039B1B6C9A68039B9A4202D0C3
:101B90002A48FFF725FB039B1B6C0293029BDA6824
:101BA000039B1A64029B1A68029B9A4233D0039BE0
:101BB0005B6C0493039B1B6C059311E0059B1A68F7
:101BC000059B9A4209D0059B1B689A68049B9A4220
:101BD00003D9059B1B689B680493059BDB680593F1
:101BE000059B002BEAD1039B049A9A60029B18463E
:101BF000FFF7CEFE0190029B019A9A60019B1A6C3E
:101C0000029BDA60019B029A1A6401984FF000016E
:101C1000FFF7BEFC03E0029B4FF000029A60FFF763
:101C2000CFF94FF0000383F31188029B184607B0E9
:101C300000BD00BFB40D00200C6500082065000841
:101C400000B583B001900091FFF752FA019B002B81
:101C500002D11648FFF7C4FA019BDA6B009B1A43C6
:101C6000019BDA63019B93F82030082B07D1019B7D
:101C7000DA6B019B9B6A02EA0303002B0DD1019BE7
:101C800093F82030092B0FD1019BDA6B019B9B6AE3
:101C90001A40019B9B6A9A4206D10198FFF798FB74
:101CA00003464FF000029A6203B000BD9C65000835
:101CB00000B585B001900091FFF71AFA019B002B47
:101CC00002D10D48FFF78CFA019B1B6803930DE0CE
:101CD000039B5A68039B9968009B41EA03031046E3
:101CE0001946FFF7ADFF039B1B680393019B039A03
:101CF0009A42EDD105B000BDB0650008AFF3008099
:101D000082B001900091009A019B1A60009B5A6872
:101D1000019B5A60019B5B68009A01995160009A8F
:101D200052681A6002B07047AFF30080AFF30080D2
:101D300084B00190019B1B680393039B1A68019B6D
:101D40001A60019B1B68019A5A60039B184604B0F5
:101D5000704700BFAFF30080AFF30080AFF30080A7
:101D600000B583B001900091009B002B02D14FF091
:101D7000FF3310E0094BDB69019A9A62074BDA697D
:101D8000019B10461946FFF7BBFF4FF00D0000996D
:101D9000FFF7CEFB0346184603B000BDB40D00208C
:101DA00084B00390029101920093039B1A46039B17
:101DB0005A60039B5A68039B1A60039B4FF0000212
:101DC0009A60039B029A5A61039B5A69039B9A612A
:101DD000039B9A69039BDA60029A019BD218039BCA
:101DE0001A61039B009ADA6104B07047AFF3008078
:101DF00000B583B001900B468DF80330FFF778F9FA
:101E0000019B5A69019B9B699A4206D1019B9B6881
:101E1000002B02D06FF003032BE0019B9B6803F1C2
:101E20000102019B9A60019B5B699DF803201A7077
:101E300003F10102019B5A61019B5A69019B1B69D5
:101E40009A4203D3019BDA68019B5A61019B1A688D
:101E5000019B9A420BD0019B1846FFF769FF03468E
:101E60001846FFF7B5FA03464FF000029A624FF0AA
:101E70000003184603B000BDAFF30080AFF300804D
:101E800000B585B0019000914FF0200383F31188D5
:101E9000FFF77EF8019BDB69002B14D0019BDB6907
:101EA0000198984710E001980099FFF759FF0390B7
:101EB000039B002B08DAFFF783F84FF0000383F34E
:101EC0001188039B25E000BF019B9B68002BEAD093
:101ED000019B9B6803F1FF32019B9A60019B9B6908
:101EE0001A788DF80B2003F10102019B9A61019B86
:101EF0009A69019B1B699A4203D3019BDA68019B93
:101F00009A61FFF75DF84FF0000383F311889DF8A5
:101F10000B30184605B000BDAFF30080AFF3008072
:101F200000B587B00390029101920093039BDB6997
:101F300004934FF000030593019B002B02D12F481F
:101F4000FFF74EF94FF0200383F31188FFF720F8D5
:101F5000049B002B12D0049B039898470FE0039832
:101F60000099FFF7FDFE0346002B08D0FFF728F885
:101F70004FF0000383F31188059B3BE000BF039BF8
:101F80009B68002BEBD0039B9B6803F1FF32039B04
:101F90009A60039B9B691978029A1170029A02F168
:101FA0000102029203F10102039B9A61039B9A6969
:101FB000039B1B699A4203D3039BDA68039B9A61D4
:101FC000FEF7FEFF4FF0000383F31188059B03F13A
:101FD00001030593019B03F1FF330193019B002B48
:101FE00001D1059B06E04FF0200383F31188FEF733
:101FF000CFFFADE7184607B000BD00BFF065000891
:1020000084B00390029101920093039B1A46039BB4
:102010005A60039B5A68039B1A60039B019A9A605B
:10202000039B029A5A61039B5A69039B9A61039B23
:102030009A69039BDA60029A019BD218039B1A618A
:10204000039B009ADA6104B0704700BFAFF30080D1
:1020500000B587B003900B4601928DF80B304FF01E
:10206000200383F31188FEF793FF0FE00398019993
:10207000FFF776FE0590059B002B07DAFEF7A0FF21
:102080004FF0000383F31188059B2CE0039B9B68B2
:10209000002BEBD0039B9B6803F1FF32039B9A60FC
:1020A000039B5B699DF80B201A7003F10102039BEF
:1020B0005A61039B5A69039B1B699A4203D3039B92
:1020C000DA68039B5A61039BDB69002B03D0039BF7
:1020D000DB6903989847FEF773FF4FF0000383F323
:1020E00011884FF00003184607B000BDAFF3008021
:1020F00000B585B00190FEF7FBFF019B5A69019B7B
:102100009B699A4206D1019B9B68002B02D06FF01D
:1021100002032BE0019B9B6803F10102019B9A6083
:10212000019B9B691A788DF80F2003F10102019B36
:102130009A61019B9A69019B1B699A4203D3019B97
:10214000DA68019B9A61019B1A68019B9A420BD045
:10215000019B1846FFF7ECFD03461846FFF738F9D8
:1021600003464FF000029A629DF80F30184605B002
:1021700000BD00BFAFF30080AFF30080AFF300807D
:1021800000B587B00390029101920093039BDB6935
:1021900004934FF000030593019B002B02D12F48BD
:1021A000FFF71EF84FF0200383F31188FEF7F0FECF
:1021B0000EE003980099FFF7D3FD0346002B07D0EC
:1021C000FEF7FEFE4FF0000383F31188059B41E00C
:1021D000039B9B68002BECD0039B9B6803F1FF32B1
:1021E000039B9A60039B5B69029A12781A7003F151
:1021F0000102039B5A61029B03F101030293039BBB
:102200005A69039B1B699A4203D3039BDA68039BB9
:102210005A61049B002B02D0049B03989847FEF759
:10222000CFFE4FF0000383F31188059B03F10103F8
:102230000593019B03F1FF330193019B002B01D117
:10224000059B07E04FF0200383F31188FEF7A0FE03
:1022500000BFBDE7184607B000BD00BF0466000818
:10226000074B03F1070323F007031A46054B1A60D7
:10227000054B23F007031A46044B1A60704700BF52
:10228000E81C0020D40D002000500020D80D0020B4
:1022900008B500F0E5FD084802F09AFC00F010F8DF
:1022A00000F0CEF800F064F900F0E2FA00F090FBE4
:1022B00002F05EFD08BD00BFF06C0008AFF30080C7
:1022C00008B500F0D5FF08BDAFF30080AFF3008084
:1022D00082B00190019B4FF001021A70019B4FF0F8
:1022E00000025A6002B07047AFF30080AFF3008085
:1022F00000B583B001900091019B002B02D0009BA0
:10230000002B02D11248FEF76BFF4FF0200383F33E
:102310001188FEF73DFE019B1B78012B06D0019B27
:102320001B78022B02D00B48FEF75AFF019B009A44
:102330005A60019800F0A4FF019B4FF002021A704E
:10234000FEF73EFE4FF0000383F3118803B000BD9B
:102350002066000830660008AFF30080AFF300800D
:1023600000B583B001900091019B002B09D0009B28
:10237000122B06D8019B5B68009A53F83230002B71
:1023800002D10E48FEF72CFF4FF0200383F3118893
:10239000FEF7FEFD019B1B78022B02D00848FEF7DA
:1023A0001FFF0198009901F043F8FEF709FE4FF076
:1023B000000383F3118803B000BD00BF5C66000812
:1023C00074660008AFF30080AFF30080AFF30080C5
:1023D00000B583B001900091019B002B09D0009BB8
:1023E000122B06D8019B5B68009A53F83230002B01
:1023F00002D10E48FEF7F4FE4FF0200383F311885C
:10240000FEF7C6FD019B1B78022B02D00848FEF7A1
:10241000E7FE0198009901F05BF8FEF7D1FD4FF05F
:10242000000383F3118803B000BD00BF8C66000871
:10243000A4660008AFF30080AFF30080AFF3008024
:1024400008B501F0BDF808BDAFF30080AFF3008020
:1024500082B00190019B4FF001021A70019B4FF076
:1024600000025A6002B07047AFF30080AFF3008003
:1024700000B583B001900091019B002B02D0009B1E
:10248000002B02D11248FEF7ABFE4FF0200383F37E
:102490001188FEF77DFD019B1B78012B06D0019B67
:1024A0001B78022B02D00B48FEF79AFE019B009A84
:1024B0005A60019801F094F8019B4FF002021A70E3
:1024C000FEF77EFD4FF0000383F3118803B000BDDB
:1024D000C0660008CC660008AFF30080AFF3008050
:1024E00000B583B001900B46ADF802304FF02003E9
:1024F00083F31188FEF74CFDBDF8023001981946B0
:1025000000F00EF8FEF75CFD4FF0000383F3118836
:1025100003B000BDAFF30080AFF30080AFF30080E5
:1025200000B583B001900B46ADF80230FEF7E0FD38
:10253000019B002B02D10B48FEF752FE019B1B783A
:10254000022B02D00848FEF74BFE019B4FF003021E
:102550001A70BDF802300198194601F0A1F803B0D5
:1025600000BD00BFF866000810670008AFF30080E8
:1025700008B501F095FD08BDAFF30080AFF3008012
:1025800082B00190019B4FF001021A70019B4FF045
:1025900000025A6002B07047AFF30080AFF30080D2
:1025A00000B583B001900091019B002B02D0009BED
:1025B000002B02D11448FEF713FE019B1B78012B60
:1025C0000AD0019B1B78022B06D0019B1B78052BA0
:1025D00002D00E48FEF704FE4FF0200383F311886B
:1025E000FEF7D6FC019B009A5A60019801F078FD35
:1025F000019B4FF002021A70FEF7E2FC4FF000035D
:1026000083F3118803B000BDA0670008B06700081D
:1026100000B58BB00790059204930B46ADF81A30C5
:10262000079B002B15D0BDF81A30002B11D0049B4E
:10263000002B0ED0059B002B0BD00D9B002B05D043
:102640000D9B002B05D00C9B002B02D00E9B002B6A
:1026500002D11F48FEF7C4FD079B1B78022B02D056
:102660001C48FEF7BDFD4FF0200383F31188FEF7F1
:102670008FFC079B4FF000029A60079B4FF003020C
:102680001A70BDF81A300C9A00920D9A01920E9AA7
:10269000029207981946059A049B01F0C1FD099022
:1026A000099BB3F1FF3F04D1079B4FF005021A705D
:1026B00003E0079B4FF002021A70FEF781FC4FF017
:1026C000000383F31188099B18460BB000BD00BFBF
:1026D000F067000810680008AFF30080AFF30080D7
:1026E00000B585B0039002910192039B03F1300382
:1026F00018460299019A4FF0FF33FFF741FD034658
:10270000184605B000BD00BFAFF30080AFF30080F6
:1027100000B585B0039002910192039B03F1100371
:1027200018460299019A4FF0FF33FFF7F9FB034671
:10273000184605B000BD00BFAFF30080AFF30080C6
:1027400082B00190019B9B6B002B14BF00230123DF
:10275000184602B0704700BFAFF30080AFF30080AF
:1027600082B00190019B9B69002B14BF00230123C1
:10277000184602B0704700BFAFF30080AFF300808F
:1027800000B585B003900B4601928DF80B30039B8A
:1027900003F130029DF80B3010461946019AFFF7FD
:1027A00057FC0346184605B000BD00BFAFF30080DC
:1027B00000B583B001900091019B03F1100318460E
:1027C0000099FFF75DFB0346184603B000BD00BF4C
:1027D00000B585B00390029101920093039B03F131
:1027E000300318460299019A009BFFF7C9FC034683
:1027F000184605B000BD00BFAFF30080AFF3008006
:1028000000B585B00390029101920093039B03F100
:10281000100318460299019A009BFFF781FB0346BB
:10282000184605B000BD00BFAFF30080AFF30080D5
:1028300000B585B001904FF0200383F31188FEF7B7
:10284000A7FB019B9B680393019B4FF000029A60DA
:10285000FEF7B6FB4FF0000383F31188039B184685
:1028600005B000BDAFF30080AFF30080AFF3008090
:1028700008B501F035FF08BDAFF30080AFF300806D
:1028800000B585B0039002910192039B154A1A602E
:10289000039B03F104031A46039B5A60039B4FF00A
:1028A00000029A60039B4FF001021A73039B03F12D
:1028B0001002039B03F15003104619464FF40072B7
:1028C000029BFFF76DFA039B03F13002039B03F5B4
:1028D0001473104619464FF40072019BFFF790FBEA
:1028E00005B000BD306C0008AFF30080AFF300808E
:1028F00000B583B001900091019B002B02D11248DA
:10290000FEF76EFC4FF0200383F31188FEF740FBC7
:10291000019B1B7B012B06D0019B1B7B022B02D052
:102920000A48FEF75DFC0198009901F001FF019B48
:102930004FF002021A73FEF743FB4FF0000383F3DC
:10294000118803B000BD00BF706800087C680008F3
:1029500000B583B001900B468DF80330FEF7C8FB3D
:10296000019B002B02D11848FEF73AFC019B9B69A2
:10297000002B0DD1019B9B6843F00402019B9A60E0
:10298000019B03F1040318464FF00001FFF790F993
:10299000019B03F110029DF8033010461946FFF722
:1029A00027FA0346002B0DDA019B9B6843F0800257
:1029B000019B9A60019B03F1040318464FF000014C
:1029C000FFF776F903B000BDA8680008AFF30080F8
:1029D00008B501F055FF08BDAFF30080AFF30080EC
:1029E00082B00190019B4FF001021A70019B4FF0E1
:1029F00000025A6002B07047AFF30080AFF300806E
:102A000000B583B001900091019B002B02D0009B88
:102A1000002B02D11248FEF7E3FB4FF0200383F3B3
:102A20001188FEF7B5FA019B1B78012B06D0019B9C
:102A30001B78022B02D00B48FEF7D2FB019B009AB9
:102A40005A60019801F05CFF019B4FF002021A707E
:102A5000FEF7B6FA4FF0000383F3118803B000BD10
:102A6000D0680008E0680008AFF30080AFF3008092
:102A700000B583B0FEF7ECFA0C4B1B6803F00F03B4
:102A800001930A4B4FF00F025A60094B1B68002B51
:102A900006D0074B1B68064A5268104601999847B2
:102AA000FEF7FEFAFEF7C4F803B000BD00000240D6
:102AB000E00D0020AFF30080AFF30080AFF30080A3
:102AC00000B583B0FEF7C4FA0D4B1B684FEA131331
:102AD00003F00F0301930A4B4FF0F0025A60094BC9
:102AE0009B68002B06D0074B9B68064AD2681046AD
:102AF00001999847FEF7D4FAFEF79AF803B000BDA3
:102B000000000240E00D0020AFF30080AFF3008032
:102B100000B583B0FEF79CFA0D4B1B684FEA1323F8
:102B200003F00F0301930A4B4FF470625A60094B94
:102B30001B69002B06D0074B1B69064A52691046D9
:102B400001999847FEF7ACFAFEF772F803B000BDA2
:102B500000000240E00D0020AFF30080AFF30080E2
:102B600000B583B0FEF774FA0D4B1B684FEA1333C0
:102B700003F00F0301930A4B4FF470425A60094B64
:102B80009B69002B06D0074B9B69064AD269104609
:102B900001999847FEF784FAFEF74AF803B000BDA2
:102BA00000000240E00D0020AFF30080AFF3008092
:102BB00000B583B0FEF74CFA0D4B1B684FEA134388
:102BC00003F00F0301930A4B4FF470225A60094B34
:102BD0001B6A002B06D0074B1B6A064A526A104636
:102BE00001999847FEF75CFAFEF722F803B000BDA2
:102BF00000000240E00D0020AFF30080AFF3008042
:102C000000B583B0FEF724FA0D4B1B684FEA13534F
:102C100003F00F0301930A4B4FF470025A60094B03
:102C20009B6A002B06D0074B9B6A064AD26A104665
:102C300001999847FEF734FAFDF7FAFF03B000BD9B
:102C400000000240E00D0020AFF30080AFF30080F1
:102C500000B583B0FEF7FCF90D4B1B684FEA136318
:102C600003F00F0301930A4B4FF070625A60094B57
:102C70001B6B002B06D0074B1B6B064A526B104692
:102C800001999847FEF70CFAFDF7D2FF03B000BD9B
:102C900000000240E00D0020AFF30080AFF30080A1
:102CA00082B0144B4FF000021A604FF00003019302
:102CB00016E01149019A13464FEA43039B184FEA65
:102CC0008303CB181B684FF000021A600B4B019A6C
:102CD0004FF0000143F83210019B03F1010301930F
:102CE000019B062BE5DD064B4FF0FF325A6002B028
:102CF000704700BFDC0D0020606C0008E00D002074
:102D000000000240AFF30080AFF30080AFF300801B
:102D100000B585B00390029101920093039B002BB4
:102D200002D13148FEF75CFA039B5B7A4FF0010257
:102D300002FA03F31A462D4B1B6802EA0303002B29
:102D400002D04FF001034BE0039B5B7A1A46284BFD
:102D5000019943F83210039B5B7A254A4FEAC3037B
:102D6000D318009A5A60039B5B7A4FF0010202FA73
:102D700003F31A461D4B1B681A431C4B1A601B4B6E
:102D80001B6803F07F03002B05D01A4B194A5269C8
:102D900042F001025A61039B1B68039A1268126891
:102DA00022F001021A60039B5B68039A127A4FF0CB
:102DB0000F0101FA02F21A60039B1B684FF0000238
:102DC0001A60019B002B09D0039B9B7A1A46029B39
:102DD0004FEA031310461946FDF7A2FF4FF0000318
:102DE000184605B000BD00BF006A0008DC0D0020D9
:102DF000E00D002000100240AFF30080AFF3008030
:102E0000134B134A126842F480721A60114B1B6A0A
:102E100003F44073B3F5407F07D00E4B4FF480327C
:102E20001A620C4B4FF000021A620A4B1B6A03F441
:102E30000043002B0BD1074B064A126A42F4407242
:102E40001A62044B034A126A42F400421A62704743
:102E50000070004000100240AFF30080AFF300802C
:102E600008B51E4B1B691D4B4FF0FF321A611B4BFF
:102E70004FF000021A61194BDB68184B4FF0FF321C
:102E8000DA60164B4FF00002DA60154B154A5A60B3
:102E9000134B4FF000029A60114B4FF007021A607B
:102EA000114B114AD26842F08072DA600F4B0F4A20
:102EB000126842F001021A60084B084AD26942F0D7
:102EC0008052DA61054B054AD26942F00062DA614C
:102ED000FFF796FFFFF7E4FE08BD00BF00100240B9
:102EE00010E000E07F320200F0ED00E0001000E0B2
:102EF000294B294A126842F001021A6000BF264B92
:102F00001B6803F00203002BF9D0234B224A1268FE
:102F100002F0F9021A60204B4FF000025A6000BF25
:102F20001D4B5B6803F00C03002BF9D11A4B1A4AB6
:102F3000126842F480321A6000BF174B1B6803F41A
:102F40000033002BF9D0144B134A526842F4E812B4
:102F50005A60114B104A126842F080721A6000BF2A
:102F60000D4B1B6803F00073002BF9D00A4B0B4A82
:102F70005A600B4B4FF012021A60074B064A526818
:102F800042F002025A6000BF034B5B6803F00C037F
:102F9000082BF9D1704700BF0010024000641D00EB
:102FA00000200240AFF30080AFF30080AFF3008059
:102FB00008B5FEF74DF8084B4FF001025A61074B78
:102FC0005B685B6805484FF000019847FEF768F8BA
:102FD000FDF72EFE08BD00BF00040140180E0020C2
:102FE00008B5FEF735F8084B4FF002025A61074B5F
:102FF0005B68DB6805484FF001019847FEF750F821
:10300000FDF716FE08BD00BF00040140180E0020A9
:1030100008B5FEF71DF8084B4FF004025A61074B44
:103020005B685B6905484FF002019847FEF738F886
:10303000FDF7FEFD08BD00BF00040140180E002092
:1030400008B5FEF705F8084B4FF008025A61074B28
:103050005B68DB6905484FF003019847FEF720F8ED
:10306000FDF7E6FD08BD00BF00040140180E00207A
:1030700008B5FDF7EDFF084B4FF010025A61074B02
:103080005B685B6A05484FF004019847FEF708F853
:10309000FDF7CEFD08BD00BF00040140180E002062
:1030A00000B583B0FDF7D4FF244B5B6903F478735C
:1030B0000193224B019A5A61019B03F02003002BDC
:1030C00006D01F4B5B68DB6A1D484FF0050198472F
:1030D000019B03F04003002B06D0194B5B685B6B30
:1030E00017484FF006019847019B03F08003002B1F
:1030F00006D0134B5B68DB6B11484FF00701984714
:10310000019B03F48073002B06D00D4B5B685B6C56
:103110000B484FF008019847019B03F40073002B04
:1031200006D0074B5B68DB6C05484FF009019847F8
:10313000FDF7B6FFFDF77CFD03B000BD00040140C4
:10314000180E0020AFF30080AFF30080AFF30080D3
:1031500000B583B0FDF77CFF2A4B5B6903F47C4329
:103160000193284B019A5A61019B03F48063002B61
:1031700006D0254B5B685B6D23484FF00A019847EA
:10318000019B03F40063002B06D01F4B5B68DB6DD3
:103190001D484FF00B019847019B03F48053002B0F
:1031A00006D0194B5B685B6E17484FF00C019847CF
:1031B000019B03F40053002B06D0134B5B68DB6EBE
:1031C00011484FF00D019847019B03F48043002BF9
:1031D00006D00D4B5B685B6F0B484FF00E019847B4
:1031E000019B03F40043002B06D0074B5B68DB6FA9
:1031F00005484FF00F019847FDF752FFFDF718FD06
:1032000003B000BD00040140180E0020AFF30080A1
:1032100008B5FDF71DFF084B4FF480325A61074B8C
:103220005B68D3F8843005484FF010019847FDF7EC
:1032300037FFFDF7FDFC08BD00040140180E00201B
:1032400008B5FDF705FF084B4FF480225A61074B84
:103250005B68D3F8943005484FF012019847FDF7AA
:103260001FFFFDF7E5FC08BD00040140180E00201B
:1032700008B50248FFF72CF808BD00BF180E002063
:1032800000B589B00190019B1B78012B3BD14FF019
:1032900006004FF06001FDF743FD4FF007004FF0CF
:1032A0006001FDF73DFD4FF008004FF06001FDF7B4
:1032B00037FD4FF009004FF06001FDF731FD4FF091
:1032C0000A004FF06001FDF72BFD4FF017004FF0A3
:1032D0006001FDF725FD4FF028004FF06001FDF77C
:1032E0001FFD4FF001004FF06001FDF719FD4FF099
:1032F00029004FF06001FDF713FD4FF02A004FF059
:103300006001FDF70DFD4FF000030393039B049351
:10331000049B0593059B06934FF0000307934DE034
:10332000019B5B68079A53F8323003F00403002BCB
:1033300040D0019B5A68079B4FEAC303D3185B68D0
:10334000002B09D0079B4FF0010202FA03F3069A03
:1033500042EA0303069308E0079B4FF0010202FADA
:1033600003F3059A42EA03030593019B5B68079AFE
:1033700053F8323003F00103DBB2002B08D0079B77
:103380004FF0010202FA03F3049A42EA03030493A2
:10339000019B5B68079A53F8323003F00203002B5D
:1033A00008D0079B4FF0010202FA03F3039A42EAA6
:1033B00003030393079B03F101030793079B122B5E
:1033C000AED9164B019A5268B2F898209A60134B06
:1033D000019A5268B2F89A20DA60104B019A52684A
:1033E000B2F89C201A610D4B019A5268B2F89E20E7
:1033F0005A610B4B4FF000021A61094B049A9A6014
:10340000074B039ADA60064B064A5A61044B059A49
:103410005A60034B069A1A6009B000BD00000140D3
:1034200000040140FFFF0700AFF30080AFF300800E
:1034300082B001900091019B5A68009B4FEAC30340
:10344000D3185B68002B0BD0204B204A1168009AE0
:103450004FF0010000FA02F241EA02021A600AE0AB
:103460001A4B1A4A5168009A4FF0010000FA02F212
:1034700041EA02025A60019B5B68009A53F83230BD
:1034800003F00103DBB2002B0AD0104B0F4A916806
:10349000009A4FF0010000FA02F241EA02029A603B
:1034A000019B5B68009A53F8323003F00203002B53
:1034B0000AD0064B054AD168009A4FF0010000FA85
:1034C00002F241EA0202DA6002B0704700040140F1
:1034D00082B0019000911E4B1D4A1168009A4FF076
:1034E000010000FA02F26FEA020201EA02021A6027
:1034F000174B174A5168009A4FF0010000FA02F288
:103500006FEA020201EA02025A60114B104A916806
:10351000009A4FF0010000FA02F26FEA020201EA9B
:1035200002029A600A4B0A4AD168009A4FF00100E1
:1035300000FA02F26FEA020201EA0202DA60044BC8
:10354000009A4FF0010101FA02F25A6102B070478D
:1035500000040140AFF30080AFF30080AFF30080C0
:1035600000B583B00190019BDB684FF000021A8226
:10357000019B1B78042B06D1019B4FF002021A70AD
:10358000019800F0B5F8019B5B685B68019898476B
:1035900003B000BDAFF30080AFF30080AFF3008055
:1035A00008B5FDF755FD0448FFF7DAFFFDF778FD94
:1035B000FDF73EFB08BD00BF200E0020AFF30080EA
:1035C00008B5034B034ADA600148FEF741FF08BD26
:1035D000200E0020002C0140AFF30080AFF30080EC
:1035E00000B585B00190019B1B78012B1CD1019A7D
:1035F000264B9A4218D1264B254A926942F4006222
:103600009A61234B224AD26842F40062DA60204B6E
:103610004FF00002DA604FF019004FF07001FDF733
:103620007FFB019B1B4A9A60019B9A68019B5B6828
:103630001B68B2FBF3F39BB203F1FF33ADF80E301E
:10364000BDF80E3003F10103019A5268126802FBC3
:1036500003F2019B9B689A4202D00F48FDF7C0FD20
:10366000019BDB684FF000021A80019BDB684FF082
:1036700008029A80019BDB68BDF80E201A85019B29
:10368000DB684FF000029A8105B000BD200E0020DB
:103690000010024000A24A04406A0008AFF3008014
:1036A00082B001900B46ADF80230019BDB68BDF89B
:1036B000022002F1FF32DA62019BDB684FF0010267
:1036C0009A82019BDB684FF000025A62019BDB6823
:1036D0004FF000021A82019BDB684FF001029A81D1
:1036E000019BDB684FF005021A8002B0704700BFF3
:1036F00082B00190019BDB684FF000021A80019BB1
:10370000DB684FF000021A82019BDB684FF0000279
:103710009A8102B0704700BFAFF30080AFF3008022
:1037200084B00190019B1B6A0393039B4FF40042FA
:103730001A80039B4FF000021A80039B4FF0000297
:103740009A80039B4FF000029A82019BDB691B6801
:10375000019AD2691268126822F001021A60019B74
:10376000DB695B68019AD269127A4FF00F0101FAA6
:1037700002F21A60019B9B691B68019A92691268A8
:10378000126822F001021A60019B9B695B68019A32
:103790009269127A4FF00F0101FA02F21A6004B036
:1037A000704700BFAFF30080AFF30080AFF300803D
:1037B00000B585B00190019B0393039BDB68002B50
:1037C00010D0039BDB6802930398FFF7A9FF039BCC
:1037D0004FF00002DA60029B4FF0FF329A620298CB
:1037E000FDF7F6FD05B000BDAFF30080AFF300803C
:1037F00000B587B00190019B1B6A0493019B5B6835
:103800005B680393019B5B681B7A8DF80B30019B0F
:10381000002B06D0039B002B03DD039A6E4B9A42CC
:1038200002DD6E48FDF7DCFC049B9B889BB223F015
:103830003F039AB2049B9A80049B9B889BB243F0FF
:1038400024039AB2049B9A804FF00003ADF816301F
:1038500040F6FF73ADF81430039A614B9A4236DCA0
:103860009DF80B30012B02D05E48FDF7B9FC039B9D
:103870004FEA43025C4B93FBF2F102FB01F29B1A0D
:10388000002B02D05948FDF7ABFC039B4FEA4303E2
:10389000554A92FBF3F3ADF81430BDF81430032B06
:1038A00002D85348FDF79CFCBDF814304FEA03538F
:1038B0004FEA13539AB2BDF8163042EA03039BB2A3
:1038C000ADF81630049B4FF025021A8475E0039A78
:1038D000484B9A4271DC9DF80B30022B06D09DF8C4
:1038E0000B30032B02D04448FDF77AFC9DF80B30D7
:1038F000022B1AD1039A13464FEA43039A183A4B04
:1039000093FBF2F102FB01F29B1A002B02D03B4821
:10391000FDF766FC039A13464FEA43039B18324AAD
:1039200092FBF3F3ADF8143029E09DF80B30032B34
:1039300025D1039A13464FEA83039B184FEA83026B
:103940009A18294B93FBF2F102FB01F29B1A002B10
:1039500002D02B48FDF744FC039A13464FEA830339
:103960009B184FEA83029B181F4A92FBF3F3ADF8B2
:103970001430BDF8163043F48043ADF81630BDF86E
:103980001430002B02D11F48FDF72AFCBDF814307B
:103990004FEA03534FEA13539BB26FEA43436FEA74
:1039A00053439AB2BDF8163042EA03039BB2ADF816
:1039B0001630049B4FF00B021A84BDF8142040F619
:1039C000FF739A4202D91048FDF70AFC049BBDF828
:1039D00016209A8307B000BD00093D00606A000808
:1039E000A0860100786A000800512502906A00084C
:1039F000A86A0008801A0600C06A0008D86A000891
:103A0000F06A0008086B0008206B0008AFF3008024
:103A100086B00190019B1B6A0493019B5B681B7835
:103A20008DF80F30049B1B88ADF816309DF80F30D1
:103A3000022B0AD0032B15D0012B1AD1BDF816305A
:103A400023F00A03ADF8163013E0BDF8163043F04A
:103A50000203ADF81630BDF8163023F00803ADF8B8
:103A6000163006E0BDF8163043F00A03ADF8163004
:103A700000BF049BBDF816201A8006B0704700BF37
:103A800000B587B00190019B1B6A0493049B1B8BBC
:103A90009BB20393049B9B8A9BB20593019B93F873
:103AA0002430002B40F0B280039B4FEA0342059B79
:103AB00042EA030323F07F43504A934212D04F4A15
:103AC000934203D84E4A934207D08DE04D4A934229
:103AD00031D04D4A934241D086E0019B1A8A049B23
:103AE0001A8281E0049B9B889BB223F400739AB2F4
:103AF000049B9A80019B9B691B68019A92691268DA
:103B0000126842F001021A60049B9B889BB243F446
:103B100080539AB2049B9A80019B9B691B685B68E7
:103B2000012B60D8049B1B889BB223F480639AB25C
:103B3000049B1A8058E0049B9B889BB223F400737B
:103B40009AB2049B9A80019BDB691B68019AD26937
:103B50001268126842F001021A6045E0019B9B69FD
:103B60001B685B68002B0FD0019B1B8A43F001038D
:103B70009AB2019B1A82049B1B889BB243F4A063F8
:103B80009AB2049B1A80BDE0049B9B889BB223F4ED
:103B900000739AB2049B9A80049B1B889BB243F4E7
:103BA00000739AB2049B1A804FF0200383F31188AC
:103BB000FDF71EFA019BDB68002B0DD0019BDB6833
:103BC0000293019B4FF00002DA60029B4FF000026B
:103BD0009A620298FDF7FCFBFDF722FA4FF0000312
:103BE00083F3118800E000BF059B03F00A03002B5C
:103BF00000F08880049B1B8B84E000BF0200030060
:103C0000010003008200070084000700059B03F009
:103C10000A03002B0FD0019B4FF000021A63019B97
:103C20004FF000021A64049B9B8A9BB20593049B8D
:103C30001B8B9BB20393059B03F08003002B16D0D4
:103C4000019B9A6B019B1B6CD21812781146049A47
:103C5000118203F10102019B1A64019B1A6B019B03
:103C6000DB6B9A4203D3019B4FF000021A64059B61
:103C700003F04003002B17D0019B9A6A019B1B6B3A
:103C8000D2180499098A89B2C9B2117003F10102EC
:103C9000019B1A63019B1A6B019BDB6A9A4203D357
:103CA000019B4FF000021A63059B03F01003002BE9
:103CB00013D0049B9B8A9BB20593049B1B889BB2E9
:103CC00043F001039AB2049B1A80019B5B6B002BAB
:103CD00003D0019B5B6B01989847059B03F48063BD
:103CE000002B0FD0049B9B8A9BB223F480639AB273
:103CF000049B9A82019B5B6C002B03D0019B5B6C45
:103D00000198984707B000BDAFF30080AFF3008083
:103D100000B585B001900091019B1B6A0393009B45
:103D200003F00803002B01D0FCF72AFF019B9B69DD
:103D30001B68019A92691268126822F001021A60E7
:103D4000019B9B695B68019A9269127A4FF00F019F
:103D500001FA02F21A60019B93F82430002B35D14E
:103D6000039B9B889BB223F480539AB2039B9A8057
:103D7000039B1B889BB223F480639AB2039B1A8037
:103D8000039B1B889BB243F400739AB2039B1A8077
:103D90004FF0200383F31188FDF72AF9019BDB68BC
:103DA000002B0DD0019BDB680293019B4FF00002BA
:103DB000DA60029B4FF000029A620298FDF708FB5E
:103DC000FDF72EF94FF0000383F3118805B000BD15
:103DD00000B585B001900091019B1B6A0393009B85
:103DE00003F00803002B01D0FCF7CAFE019BDB693E
:103DF0001B68019AD2691268126822F001021A60E7
:103E0000019BDB695B68019AD269127A4FF00F015E
:103E100001FA02F21A60039B9B889BB243F4007381
:103E20009AB2039B9A8005B000BD00BFAFF300803B
:103E300000B587B00190019B1B6A04934FF02003EB
:103E400083F31188FDF7D4F8019BDB691B68019AA5
:103E5000D2691268126822F001021A60019BDB69C4
:103E60005B68019AD269127A4FF00F0101FA02F2EF
:103E70001A60019B9B691B68019A9269126812681B
:103E800022F001021A60019B9B695B68019A9269AA
:103E9000127A4FF00F0101FA02F21A60FDF7C0F832
:103EA0004FF0000383F311884FF000030593049B48
:103EB0009B8A9BB203F48073002B0BD0049B9B8ADC
:103EC0009BB223F480739AB2049B9A82059B43F0C1
:103ED00001030593049B9B8A9BB203F40073002BA0
:103EE0000BD0049B9B8A9BB223F400739AB2049B71
:103EF0009A82059B43F002030593019B93F82430BB
:103F0000002B23D1049B9B8A9BB203F48063002B7C
:103F10002CD0049B9B8A9BB223F480639AB2049BAF
:103F20009A82049B9B889BB223F400739AB2049BF1
:103F30009A80049B1B889BB243F400739AB2049B43
:103F40001A80059B43F0040305930FE0049B9B8AB2
:103F50009BB223F480639AB2049B9A82019B5B6CB0
:103F6000002B03D0019B5B6C01989847049B9B8AB4
:103F70009BB203F40063002B0BD0049B9B8A9BB283
:103F800023F400639AB2049B9A82059B43F00803D2
:103F90000593049B9B8A9BB203F48053002B0BD0A8
:103FA000049B9B8A9BB223F480539AB2049B9A820F
:103FB000059B43F010030593049B9B8A9BB203F47B
:103FC0008043002B0BD0049B9B8A9BB223F480433D
:103FD0009AB2049B9A82059B43F020030593049BAD
:103FE0009B8A9BB29BB21BB2002B0DDA049B9B8A6F
:103FF0009BB24FEA43434FEA53439AB2049B9A82DF
:10400000059B43F040030593059B002B20D0019BAB
:10401000059A9A604FF0200383F31188FCF7E8FFBC
:10402000019BDB68002B0DD0019BDB680393019B98
:104030004FF00002DA60039B6FF001029A6203986E
:10404000FDF7C6F9FCF7ECFF4FF0000383F311888E
:1040500007B000BDAFF30080AFF30080AFF3008086
:1040600008B5FCF7F5FF0448FFF70AFDFDF718F85F
:10407000FCF7DEFD08BD00BF300E0020AFF300806E
:1040800008B5FCF7E5FF0448FFF7D2FEFDF708F896
:10409000FCF7CEFD08BD00BF300E0020AFF300805E
:1040A00008B50848FEF76CFA064B4FF00002DA60DC
:1040B000044B054A1A62034B044A9A61014B044AB5
:1040C000DA6108BD300E002000540040A86C0008E2
:1040D0009C6C0008AFF30080AFF30080AFF300806A
:1040E00000B585B00190019B1B6A0393019B4FF0C3
:1040F0008A025A61019B1B78012B47D1019A3F4BE1
:104100009A4243D13E4B3E4A126942F400121A6170
:104110003B4B4FF000021A61019B9A69394B1046E4
:104120004FF00A011A46019BFEF7F2FD0290029B36
:10413000002B02D03448FDF753F8019BDA69334B6A
:1041400010464FF00A011A46019BFEF7E1FD02906E
:10415000029B002B02D02E48FDF742F8284B284A3C
:10416000D26942F40012DA614FF01F004FF0A00153
:10417000FCF7D6FD4FF020004FF0A001FCF7D0FD7A
:10418000019B5B6943F48052019B5A61019BDB698F
:104190001B68019A526942F010021A60019B9B69E8
:1041A0001B68019A52691A60019B9B691B68039AFC
:1041B00002F110029A60019BDB691B68039A02F10D
:1041C00010029A60039B4FF400421A80039B4FF049
:1041D00000021A80039B4FF410629A800198FFF747
:1041E00007FB0198FFF714FC039B1B889BB243F06D
:1041F00001039AB2039B1A8005B000BD300E002067
:1042000000100240113D0008386B0008D13D000845
:104210004C6B0008AFF30080AFF30080AFF3008079
:1042200000B58BB00390019200930B46ADF80A30B5
:10423000039B1B6A09930D9B002B08D00D9B012B40
:1042400002D90C9B002B02D14A48FCF7C9FF0E9BF8
:10425000B3F1FF3F06D004AB18460E99464A039BC4
:10426000FCF7E6FFFCF7ACFE4FF0000383F3118888
:10427000BDF80A304FEA43039AB2039B1A82039BAC
:104280004FF000029A60039BDB691B68019ADA60B9
:10429000039BDB691B68009A5A60039B9B691B6840
:1042A0000C9ADA60039B9B691B680D9A5A6015E0B3
:1042B0004FF0200383F31188FCF76AFE0E9BB3F1E5
:1042C000FF3F05D0079B002B02D14FF0FF334EE09C
:1042D000FCF776FE4FF0000383F31188099B1B8BDC
:1042E0009BB203F00203002BE2D1099B1B889BB217
:1042F00003F40073002BDBD14FF0200383F311880C
:10430000FCF746FE0E9BB3F1FF3F05D0079B002B49
:1043100002D14FF0FF332AE0039B4FF0000283F8F5
:104320002420099B9B889BB243F400739AB2099B9B
:104330009A80099B1B889BB243F480739AB2099BB5
:104340001A800E4BDA69039BDA604FF00200FDF72A
:1043500077F80E9BB3F1FF3F06D0079B002B03D0ED
:1043600004AB1846FCF7B4FF044BDB699B6A1846A4
:104370000BB000BD846B0008B1370008B40D0020FD
:1043800084B001900091019BD3F850340393019BBA
:10439000D3F850241A4B9A4208D1009B1B68194A43
:1043A000B2FBF3F39AB2039B1A8107E0009B1B68F0
:1043B000144AB2FBF3F39AB2039B1A81009B9B88C9
:1043C00043F4045343F02C039AB2039B9A81009B5D
:1043D000DB8843F040039AB2039B1A82009B1B893F
:1043E00043F001039AB2039B9A82039B4FF00002B1
:1043F0001A80039B1B88039B9B8804B0704700BFF7
:104400000038014000512502AFF30080AFF3008077
:1044100000B585B001900B46ADF802304FF00003B7
:104420000393BDF8023003F00803002B03D0039B75
:1044300043F080030393BDF8023003F00103DBB2C5
:10444000002B03D0039B43F020030393BDF80230FD
:1044500003F00203002B03D0039B43F040030393BC
:10446000BDF8023003F00403002B03D0039B43F498
:10447000807303934FF0200383F31188FCF7B8FD9A
:10448000019B9A68039B1A43019B9A60019B03F16D
:10449000040318464FF00001FDF70AFCFCF7C0FDCD
:1044A0004FF0000383F3118805B000BDAFF3008027
:1044B00000B587B00190019BD3F850340593059B5C
:1044C0009B89ADF81230059B1B88ADF81030059B19
:1044D0009B88ADF80E30BDF8103003F00F03002BB1
:1044E00005D0BDF8103001981946FFF791FFBDF8CF
:1044F000103003F48073002B21D04FF0200383F39E
:104500001188FCF775FD019B9B6843F40072019BC9
:104510009A60019B03F1040318464FF00001FDF778
:10452000C7FBFCF77DFD4FF0000383F31188059B6B
:104530001B889BB223F480739AB2059B1A80BDF846
:10454000103003F02003002B12D04FF0200383F330
:104550001188FCF74DFDBDF80E30DBB2019819460D
:10456000FEF7F6F9FCF75CFD4FF0000383F31188CA
:10457000BDF8123003F08003002B39D0BDF81030A5
:1045800003F08003002B33D04FF0200383F3118816
:10459000FCF72EFD019B03F130031846FDF7A8FD43
:1045A0000290029B002B19DA019B9B6843F00802E2
:1045B000019B9A60019B03F1040318464FF0000130
:1045C000FDF776FBBDF8123023F0C0039BB243F039
:1045D00040039BB29AB2059B9A8103E0029B9AB278
:1045E000059B9A80FCF71CFD4FF0000383F31188B4
:1045F000BDF8103003F04003002B28D04FF020030B
:1046000083F31188FCF7F4FC019B9B6843F01002D4
:10461000019B9A60019B03F1040318464FF00001CF
:10462000FDF746FBFCF7FCFC4FF0000383F3118819
:10463000BDF8123023F040039AB2059B9A81059B86
:104640001B889BB223F040039AB2059B1A8007B0E7
:1046500000BD00BFAFF30080AFF30080AFF3008078
:1046600082B00190044B044A928992B242F08002D7
:1046700092B29A8102B0704700380140AFF30080D7
:1046800082B00190044B044A928992B242F08002B7
:1046900092B29A8102B0704700440040AFF30080AC
:1046A00008B5FCF7D5FC0448FFF702FFFCF7F8FC5F
:1046B000FCF7BEFA08BD00BF780E0020AFF3008003
:1046C00008B5FCF7C5FC0448FFF7F2FEFCF7E8FC70
:1046D000FCF7AEFA08BD00BFCC120020AFF300809B
:1046E00008B50A484FF00001094AFEF7C9F8074B20
:1046F000084AC3F8502408484FF00001074AFEF763
:10470000BFF8054B064AC3F8502408BD780E0020B8
:104710006146000800380140CC12002081460008A4
:1047200000440040AFF30080AFF30080AFF300809F
:1047300000B583B001900091009B002B01D1164B76
:104740000093019B1B7B012B1FD1019A134B9A42B3
:104750000BD1134B124A926942F480429A614FF096
:1047600025004FF0C001FCF7DBFA019A0D4B9A428D
:104770000BD10B4B0A4AD26942F40032DA614FF096
:1047800026004FF0C001FCF7CBFA01980099FFF723
:10479000F7FD03B000BD00BFC06C0008780E00201C
:1047A00000100240CC120020AFF30080AFF3008075
:1047B00000B583B001900091009B03F00803002B2B
:1047C00001D0FCF7DDF9019B1B691B68019A126996
:1047D0001268126822F001021A60019B1B695B6873
:1047E000019A1269127A4FF00F0101FA02F21A606F
:1047F000019BDB681B68019AD2681268126822F07C
:1048000001021A60019BDB685B68019AD268127A28
:104810004FF00F0101FA02F21A60019B5B681B68FE
:10482000002B11D0019B4FF004021A70019B5B68B2
:104830001B6801989847019B1B78042B08D1019BAA
:104840004FF002021A7003E0019B4FF002021A704F
:1048500003B000BDAFF30080AFF30080AFF3008082
:1048600000B583B001900091009B03F00803002B7A
:1048700001D0FCF785F903B000BD00BFAFF30080A5
:1048800008B5164B4FF6FF721A801548FEF7A8F8C8
:10489000134B144A9A60124B134ADA60104B134AB6
:1048A0001A610F4B41F20A025A610D4B41F2180294
:1048B0009A610F48FEF794F80D4B0E4A9A600C4B24
:1048C0000D4ADA600A4B0D4A1A61094B41F20A029D
:1048D0005A61074B41F218029A6108BD581700202F
:1048E00020170020003001406C6C0008786C000834
:1048F0003C17002000380040846C0008906C0008D1
:1049000000B585B00190019B1B78012B67D1019AFE
:10491000544B9A4227D1019BDA68534B10464FF013
:104920000A011A46019BFEF7F3F90390039B002B43
:1049300002D04E48FCF754FC019B1A694C4B1046C0
:104940004FF00A011A46019BFEF7E2F90390039B20
:10495000002B02D04748FCF743FC474B464A92697C
:1049600042F480529A61019A444B9A4227D1019BAA
:10497000DA683D4B10464FF00A011A46019BFEF7DC
:10498000C7F90290029B002B02D03D48FCF728FC9F
:10499000019B1A69364B10464FF00A011A46019BDB
:1049A000FEF7B6F90290029B002B02D03548FCF7C7
:1049B00017FC314B304AD26942F48042DA61019BE4
:1049C000DB681B68019A926802F10C029A60019BF5
:1049D0001B691B68019A926802F10C029A60019BA4
:1049E0005B685B8903F40063002B0CD1019B5B695E
:1049F00023F44062019B5A61019B9B6923F440624E
:104A0000019B9A610FE0019B5B6923F4506343F4BF
:104A1000A062019B5A61019B9B6923F4506343F49C
:104A2000A062019B9A61019B9B684FF000021A8073
:104A3000019B9B68019A5268528942F4417292B27A
:104A40001A80019B9B684FF007029A80019B9B682C
:104A5000019A9268128892B242F0400292B21A8091
:104A600005B000BD20170020B1470008B06B00085A
:104A700061480008C46B0008001002403C17002089
:104A8000D86B0008EC6B0008AFF30080AFF3008038
:104A900082B00190019B5B685B68019A5268128941
:104AA0004FF0010101FA02F25A6102B0704700BFF3
:104AB00082B00190019B5B685B68019A5268128921
:104AC0004FF0010101FA02F21A6102B0704700BF13
:104AD00084B0039002910192039BDB681B681A4A21
:104AE000DA60039BDB681B68029A5A60039BDB68F1
:104AF0001B68039A52691A60039B1B691B68019A21
:104B0000DA60039B1B691B68029A5A60039B1B694E
:104B10001B68039A926942F080021A60039BDB686B
:104B20001B68039AD2681268126842F001021A6088
:104B3000039B1B691B68039A12691268126842F092
:104B400001021A6004B070475A170020AFF30080CA
:104B500084B0039002910192039BDB681B68019A69
:104B6000DA60039BDB681B68029A5A60039BDB6870
:104B70001B68039A526942F080021A60039B1B690A
:104B80001B68114ADA60039B1B691B68029A5A6012
:104B9000039B1B691B68039A92691A60039BDB687D
:104BA0001B68039AD2681268126842F001021A6008
:104BB000039B1B691B68039A12691268126842F012
:104BC00001021A6004B0704758170020AFF300804C
:104BD00082B00190214B214A926942F07D029A6194
:104BE0001F4B019A1268DA601D4B019A92685A6055
:104BF0001B4B019A52681A601A4B019AD268DA600C
:104C0000184B019A52695A60164B019A12691A6040
:104C1000154B019A9269DA60134B019A126A5A6035
:104C2000114B019AD2691A60104B019A526ADA60EC
:104C30000E4B019AD26A5A600C4B019A926A1A6022
:104C40000B4B019A126BDA60094B019A926B5A6016
:104C5000074B019A526B1A6002B070470010024075
:104C600000080140000C0140001001400014014008
:104C700000180140AFF30080AFF30080AFF3008075
:104C80008AB0039002910192019B032B03D1039BF5
:104C9000029A1A6105E0019B042B02D1039B029A40
:104CA0005A612E4A019BD3181B7804934FF00003DE
:104CB0000693069B0793079B0893089B09934FF065
:104CC0000003059335E0089B4FEA03130893099B03
:104CD0004FEA03130993069B4FEA03130693079BBE
:104CE0004FEA03130793029B03F08003002B04D1C8
:104CF000089B43F00F03089304E0069A049B42EAE2
:104D000003030693029B03F40043002B04D1099B89
:104D100043F00F03099304E0079A049B42EA03035C
:104D20000793029B4FEA43030293059B03F10103A0
:104D30000593059B072BC6D9039B5A68099B1A400C
:104D4000079B1A43039B5A60039B1A68089B1A40EF
:104D5000069B1A43039B1A600AB07047D06C000888
:104D600008B5FEF7C5F808BDAFF30080AFF30080CB
:104D7000704700BFAFF30080AFF30080AFF3008057
:104D800008B5FDF785FAFCF75BF800F011FE01F0BD
:104D900007F800F00DFC01F0FBF900F009F801F054
:104DA0001FFA00F0BDFB00F02BF8FCE7AFF300802A
:104DB00008B511484FF400714FF01002FFF760FF83
:104DC0000D484FF480614FF00202FFF759FF0A4887
:104DD0004FF400614FF01002FFF752FF06484FF406
:104DE00080514FF00202FFF74BFF04484FF00001E3
:104DF000FDF77EFD08BD00BF00080140780E0020D1
:104E000000B583B02D484FF0FF31FDF739F8019020
:104E1000019BB3F1FF3F03D0019B13F1020F02D1BD
:104E20004FF0010301E04FF000038DF803309DF8CF
:104E30000330002B3FD1019B8DF80230204B1B78B3
:104E4000002B22D19DF80230002B0AD11D4B1B688C
:104E50001D48194600F03CF81A4B4FF000021A604A
:104E600021E09DF802305C2B0AD0164B1B68164AD5
:104E70009DF80210D15403F10102124B1A6012E0A6
:104E80000F4B4FF001021A700DE00D4B4FF0000276
:104E90001A700C4B1B680C4A9DF80210D15403F198
:104EA0000102084B1A60074B1B68202BB4BF1A463F
:104EB0002022044B1A6003B000BD00BF880E002002
:104EC0009C170020A01700205C170020AFF3008083
:104ED00000B587B001900091019B1B788DF81330CD
:104EE000019B03F1010303939DF81330012B02D0C2
:104EF000022B17D019E04FF0000305930BE0059B40
:104F0000039AD3181A780A49059BCB181A70059B87
:104F100003F101030593009B03F1FF32059B9A42C5
:104F2000EDDC02E000F00CF800BF07B000BD00BFF0
:104F30007C170020AFF30080AFF30080AFF3008058
:104F400000B583B00B4B5B7801934FF010030093D7
:104F5000019A009B9A4201DA019B01E04FF00003A5
:104F60000193054B019A53F822300448984703B047
:104F700000BD00BF5C170020000800207C17002047
:104F800010B588B001900F4B02AC0FCB84E80F0036
:104F90004FF00F0306934FF0000307930AE002AAB5
:104FA000079BD3181B78184600F042FA079B03F1C1
:104FB00001030793079A069B9A42F0DB00F058FA28
:104FC00008B010BD006C0008AFF30080AFF30080A4
:104FD00000B587B00190114A02AB92E80300186057
:104FE00003F1040319804FF0050304934FF000030D
:104FF00005930AE002AA059BD3181B78184600F017
:1050000017FA059B03F101030593059A049B9A4245
:10501000F0DB00F02DFA07B000BD00BF106C0008F7
:1050200000B583B00190019B1B78184600F0A8FAE8
:1050300003B000BDAFF30080AFF30080AFF300809A
:1050400000B585B00190019B1B781A46019B03F1C6
:1050500001031B784FEA0323D3180393019B03F149
:1050600002031B781A46019B03F103031B784FEAE6
:105070000323D31802930398029900F061FF05B04F
:1050800000BD00BFAFF30080AFF30080AFF300803E
:1050900000B585B00190019B1B781A46019B03F176
:1050A00001031B784FEA0323D3180393019B03F1F9
:1050B00002031B781A46019B03F103031B784FEA96
:1050C0000323D31802930398029900F051FF05B00F
:1050D00000BD00BFAFF30080AFF30080AFF30080EE
:1050E00000B589B0019002AB184600F0F9FD4FF011
:1050F0000003079341E0079B4FEA830308AAD318F4
:1051000053F8183C8DF81B309DF81B30184600F002
:105110008FF9079B4FEA830308AAD31853F8183C6A
:105120004FEA23238DF81B309DF81B30184600F002
:105130007FF9079B4FEA830308AAD31853F8183C5A
:105140004FEA23438DF81B309DF81B30184600F0C2
:105150006FF9079B4FEA830308AAD31853F8183C4A
:105160004FEA23638DF81B309DF81B30184600F082
:105170005FF9079B03F101030793079B032BBADD3C
:1051800000F076F909B000BDAFF30080AFF3008006
:1051900000B585B00190019B1B788DF80F309DF80C
:1051A0000F30184600F0CCFD05B000BDAFF3008015
:1051B00000B585B00190019B1B780393019B03F11F
:1051C00001031B784FEA0323039AD3180393019B2F
:1051D00003F101031B784FEA0343039AD3180393A7
:1051E000019B03F101031B784FEA0363039AD31871
:1051F0000393039800F0BCFD05B000BDAFF3008041
:1052000000B58BB0019000F03BFD06904FF02003FD
:1052100083F31188FBF7BCFE069B9A681F4BA3FB28
:1052200002134FEAD3030593FBF7CAFE4FF00003C6
:1052300083F311884FF00003099327E04FF0000338
:1052400008931CE04FF00003079311E006984FF01D
:10525000FF31FCF715FE0490049B8DF80F309DF88C
:105260000F30184600F0E4F8079B03F101030793A1
:10527000079B022BEAD9089B03F101030893089BC3
:10528000032BDFD9099B03F101030993099A059BBD
:105290009A42D3D300F0ECF80BB000BDABAAAAAA97
:1052A00000B585B0019001F033F80346ADF80E303B
:1052B000BDF80E304FEA13239BB28DF80D309DF8E8
:1052C0000D30184600F0B4F8BDF80E308DF80D30F2
:1052D0009DF80D30184600F0ABF800F0C9F805B0A5
:1052E00000BD00BFAFF30080AFF30080AFF30080DC
:1052F00000B583B00190019B1B78184600F080FA3E
:1053000003B000BDAFF30080AFF30080AFF30080C7
:1053100000B589B001904FF000038DF81F3020E0F8
:105320009DF81F309DF81F204FEA420201998A180C
:1053300012784FEA02219DF81F204FEA420202F143
:1053400001020198821812788A184FEA830308A98B
:10535000CB1843F8142C9DF81F3003F101038DF88E
:105360001F309DF81F30032BDAD903AB184600F02D
:105370004FF909B000BD00BFAFF30080AFF300806C
:1053800000B585B00190019B1B784FEA0362019B39
:1053900003F101031B784FEA0343D218019B03F189
:1053A00002031B784FEA0323D218019B03F1030386
:1053B0001B78D3180393019B03F104031B784FEA76
:1053C0000362019B03F105031B784FEA0343D218E4
:1053D000019B03F106031B784FEA0323D218019BBC
:1053E00003F107031B78D31802930398029900F086
:1053F0002FF905B000BD00BFAFF30080AFF3008010
:1054000082B0019002B07047AFF30080AFF300802C
:1054100082B0019002B07047AFF30080AFF300801C
:1054200082B0019002B07047AFF30080AFF300800C
:1054300000B583B003468DF807309DF80730002B88
:1054400003D09DF807305C2B06D108484FF05C0173
:105450004FF0FF32FCF7FCFD9DF80730034819467A
:105460004FF0FF32FCF7F4FD03B000BDA80E0020A2
:1054700008B504484FF000014FF0FF32FCF7E8FD9B
:1054800008BD00BFA80E0020AFF30080AFF300807E
:1054900000B583B001901B4BDB691B4A9A611B4826
:1054A000FCF7BEFA1A4B1A681A4B1A60194B1B68A4
:1054B00003F00103DBB2002B06D0174B164AD2686B
:1054C00082F48042DA6003E0134B4FF480425A6169
:1054D000104B1B6803F00203002B06D00E4B0E4A44
:1054E000D26882F40052DA6003E00B4B4FF40052B2
:1054F0005A61FCF735FB4FF0FA00FCF7B1F900F008
:10550000B7FECCE7B40D0020206C0008A4170020E3
:10551000B41700206819002000100140AFF300808C
:1055200000B583B0124B4FF480425A61104B4FF4D8
:1055300000525A610E484FF480414FF00602FFF7C7
:105540009FFB0B484FF400514FF00602FFF798FB0A
:105550000848FCF745FA4FF00003009306484FF463
:10556000D8714FF04002054BFCF73AF903B000BD8B
:1055700000100140A4170020B81700209154000823
:1055800000B583B001900548FCF74AFA044B019A34
:105590001A60FCF7E5FA03B000BD00BFA4170020B5
:1055A000B4170020AFF30080AFF30080AFF30080AA
:1055B00008B50E4B4FF000021A700D4B4FF0000271
:1055C0001A700C480C494FF4A0724FF00003FCF71E
:1055D000E7FB0A480A494FF002024FF00003FCF7CC
:1055E0000FFD08480849FCF783FE08BD241B002076
:1055F000251B00206C1900208C190020CC1A0020DB
:10560000EC1A0020180E0020306D0008AFF3008067
:1056100082B00190019B1A680A4B1A60019B03F14A
:1056200004031A68074B5A60019B03F108031A68C8
:10563000044B9A60019B03F10C031A68014BDA607A
:1056400002B07047001B0020AFF30080AFF3008072
:1056500082B001900091044B009A1A60034B019AAA
:105660001A6002B0704700BF101B00201C1B0020F6
:10567000F0B58BB0594B1B78002B00F0AA80584B2B
:105680001B6803F10102564B1A60554B1A68554BC3
:105690001B689A4230DB00F0DBF8534B1B6803F1C8
:1056A0000102514B1A60514B1B6818464FEAE371D7
:1056B0004D4B1B681A464FEAE37302FB01F400FBF3
:1056C00003F56419A0FB0223E4182346484909683E
:1056D0004FEA410101F1FF310C464FEAE1751046F6
:1056E000194622462B46FAF703FD02460B46CDE942
:1056F0000623069A3B4B1A603D4B1B684FEA430258
:10570000394B1B689A425DDD354B1A68374B1B6875
:105710009A4207DB354B1B684FEA4302304B1B684C
:10572000D31A01E02E4B1B6805934FF000038DF850
:10573000273042E09DF827202E4B53F822301E469A
:105740004FEAE3779DF827202B4B53F822209DF852
:105750002710284B53F82130D31A18464FEAE3712B
:10576000059B1A464FEAE37302FB01F400FB03F5C5
:105770006419A0FB0223E41823461D4909680C465E
:105780004FEAE1751046194622462B46FAF7B0FC5F
:1057900002460B46921943EB0703CDE90223029B15
:1057A00001939DF827301846019900F069FB9DF898
:1057B000273003F101038DF827309DF82730032BA4
:1057C000B8D906E0054B4FF000021A704FF0000305
:1057D00001E04FF0010318460BB0F0BD241B002080
:1057E000141B0020181B0020201B0020101B002071
:1057F0001C1B0020F01A0020001B0020AFF30080CB
:1058000000B583B003468DF807300C4800F0A0FCCB
:105810000B4B9DF807201A709DF80730002B05D020
:1058200008484FF00101FCF79BFD04E005484FF0EC
:105830000101FCF7CDFD03B000BD00BFF01A002050
:10584000251B0020180E0020AFF30080AFF300806E
:1058500000B587B04B4B1B691A464A4BDB68D31A1D
:105860001A46484B9B68D31A0B2B40F288806B4634
:10587000184600F035FA009B0593059B8DF8133010
:105880009DF813303F481946FCF7B2FA059B4FEAE2
:1058900023238DF813309DF813303A481946FCF74E
:1058A000A7FA059B4FEA23438DF813309DF8133078
:1058B00034481946FCF79CFA019B0593059B8DF82B
:1058C00013309DF813302F481946FCF791FA059BC9
:1058D0004FEA23238DF813309DF8133029481946D9
:1058E000FCF786FA059B4FEA23438DF813309DF8A9
:1058F000133024481946FCF77BFA029B0593059B5D
:105900008DF813309DF813301E481946FCF770FAD5
:10591000059B4FEA23238DF813309DF81330194867
:105920001946FCF765FA059B4FEA23438DF81330BF
:105930009DF8133013481946FCF75AFA039B059358
:10594000059B8DF813309DF813300E481946FCF76F
:105950004FFA059B4FEA23238DF813309DF813303F
:1059600008481946FCF744FA059B4FEA23438DF893
:1059700013309DF8133003481946FCF739FA07B085
:1059800000BD00BF6C190020AFF30080AFF30080B2
:1059900000B583B001900091044B1B78002B02D01E
:1059A000FFF756FF00E000BF03B000BD251B00203D
:1059B00008B51C481C494FF4A0724FF00003FCF7D7
:1059C000EFF91A484FF001014FF00602FFF758F9BE
:1059D00016484FF002014FF00602FFF751F9134845
:1059E0004FF020014FF01002FFF74AF90F484FF037
:1059F00040014FF01002FFF743F90C484FF010013F
:105A00004FF00602FFF73CF9084B4FF010021A6105
:105A1000074B1B68184600F03BF906480649FCF79F
:105A2000EFFF08BD281B0020481B00200008014094
:105A30008C1C002020170020D06D0008AFF30080E0
:105A400008B50748FFF724F8054B4FF003021A701A
:105A500003484FF00301034AFFF77AF808BD00BF7F
:105A600020170020881C0020AFF30080AFF30080D7
:105A700000B587B001904FF0200383F31188FBF746
:105A8000B7FA764B1B680593744B1B6803F1010250
:105A9000734B02EA0303002B05DA03F1FF3363F0D3
:105AA000030303F101031A466C4B1A606B4B1B682E
:105AB000184600F0EDF86B48FEF7FAFF6A4B9B784A
:105AC0001A46694B5B784FEA0323D218664B1B7862
:105AD0004FEA0343D3180493049B4FEA63034FEA4E
