:020000040800F2
:1050000000040020315B0008115D0008115D0008FC
:10501000115D0008115D0008115D0008115D0008B8
:10502000115D0008115D0008115D0008415D000878
:10503000115D0008115D0008115D0008215E000887
:10504000115D0008B17A0008115D0008115D0008CB
:10505000115D0008115D000881780008B178000832
:10506000E1780008117900084179000831740008DE
:1050700061740008A1740008E1740008217500083B
:1050800061750008A1750008115D0008115D000838
:10509000115D0008115D0008115D000871790008BC
:1050A000115D0008617D0008115D0008115D0008B8
:1050B000115D0008115D0008115D0008A17F000866
:1050C00061810008115D0008115D0008115D000894
:1050D000115D00080189000821890008115D0008A0
:0C50E000017A0008115D0008F17A000858
:1050F00008B501F0A5FE00F01BFF05F041F805F032
:105100005FF904F0EDFB05F09BFA04F019FA05F0E5
:10511000AFFA04F005FB05F03BFB032004F030FB85
:1051200004F036FA04F034FAFAE700BFAFF3008077
:1051300073B96AB9002908BF0028BCBF00204FF02E
:105140000041C4BF6FF000414FF0FF3000F040B8A5
:1051500082B0EC462DE9005000F00AF8DDF804E0DA
:1051600002B00CBC704700BF00000000000000004F
:105170002DE970431E4614468046894600F030F8FB
:10518000A4FB002304FB01F400FB0644E318069C87
:10519000B8EB020269EB0303C4E90023BDE87083A6
:1051A000F8B5144606460F461D4600F0D1F900FB3F
:1051B00005F5A0FB042304FB0154E318069CB21A76
:1051C00067EB0303C4E90023F8BD00BF0000000043
:1051D000704700BF00000000000000000000000059
:1051E00000292DE9F04F1C4685B0A8BF4FF00008FC
:1051F000C0F2C980002CC0F2C0800F46944614460D
:1052000005460E46002B4BD1BA426AD9B2FA82F358
:1052100053B1C3F1200107FA03F620FA01F20CFAA8
:1052200003F4164300FA03F54FEA144930464946A1
:10523000A7B200F02DFB49468246304600F056FCEE
:10524000280C07FB0AF340EA014B5B450BD91BEB2B
:10525000040B0AF1FF3205D25B4584BFAAF1020AB2
:10526000A34400D89246C3EB0B0B49465846ADB257
:1052700000F00EFB49460646584600F037FC07FB97
:1052800006F745EA0145AF4206D9731E2D1902D231
:10529000023EAF4200D81E4646EA0A46002703E017
:1052A000BB420CD900273E4630463946B8F1000FC4
:1052B00002D0404261EB410105B0BDE8F08FB3FA86
:1052C00083F4002C40F0B280BB422CBF00270127A2
:1052D000824298BF47F00107002FE4D027460126FD
:1052E000E2E722B90120114600F0D2FA0446B4FAEE
:1052F00084F3002B4DD1361B4FEA14490127A3B28A
:1053000002934946304600F0C3FA49468246304689
:1053100000F0ECFB02982A0C00FB0AF342EA014B76
:105320005B450CD91BEB040B0AF1FF3280F0FF80C8
:105330005B4584BFAAF1020AA34440F2F880C3EBA4
:105340000B0B4946584600F0A3FA49460646584614
:1053500000F0CCFB029B1FFA85FC03FB06F34CEA32
:105360000145AB4206D9721E2D1902D2023EAB4254
:1053700000D8164646EA0A4696E7524263EB4303D4
:105380006FEA080839E7404261EB41014FF0FF380E
:1053900030E79C40C3F1200126FA01F706FA03FA30
:1053A0004FEA144925FA01F23846494642EA0A0B07
:1053B0009D4000F06DFA4946A6B28246384600F09C
:1053C00095FB4FEA1B4706FB0AF3029647EA0146A4
:1053D000B3420BD936190AF1FF3280F0B080B342E4
:1053E00084BFAAF1020A361940F2A980F61A49468A
:1053F000304600F04DFA49460746304600F076FB4D
:10540000029B1FFA8BF003FB07F340EA0146B3420D
:1054100008D97A1E361980F08C80B34240F2898018
:10542000023F3619F61A47EA0A476AE7C4F1200B29
:1054300003FA04F922FA0BF327FA0BFA43EA0909F3
:1054400020FA0BF107FA04F650464FEA194B41EAED
:105450000607594602FA04FE0397CDF808E000F06B
:1054600017FA59460746504600F040FB039A1FFAC8
:1054700089F3160C03FB07F246EA014A524507D9A5
:10548000791E1AEB090A58D2524556D9023FCA442E
:10549000C2EB0A0A59465046019300F0F9F9594601
:1054A0000646504600F022FB019B039A03FB06F3DD
:1054B00090B240EA0142934207D9711E12EB0902F1
:1054C00039D2934237D9023E4A44029846EA074607
:1054D000D21AB3B2370C1FFA80FE4FEA104C0EFB03
:1054E00003F90EFB07F00CFB03010CFB07FE01EBBD
:1054F0001941884288BF0EF5803E0EEB114C624583
:1055000012D34FEA01411FFA89F914BF002701277E
:1055100005FA04F401EB090294422CBF002707F0BE
:105520000107002F3FF4C0AE013E0027BCE69246C3
:1055300005E7174676E70E46C7E70F46A8E7924607
:1055400054E700BF00000000000000000000000061
:105550002DE9F04F054683B00C46174680468B4632
:10556000002B52D18A4264D9B2FA82F353B1C3F10B
:10557000200401FA03F120FA04F29F4042EA010BF1
:1055800000FA03F83C0C58462146BEB200F080F900
:1055900021468146584600F0A9FA4FEA184006FB1A
:1055A00009F340EA014A53450BD91AEB070A09F1FE
:1055B000FF3205D2534584BFA9F10209BA4400D88D
:1055C0009146C3EB0A0A2146504600F061F9214694
:1055D0000546504600F08AFA1FFA88F306FB05F6E6
:1055E00043EA0148464508D96B1E18EB070880F0CE
:1055F0002E81023D464540F22A8145EA09450026B2
:105600003146284603B0BDE8F08F8B425AD8B3FA32
:1056100083F6002E59D18B422CBF002401248242F4
:105620008CBF254644F00105002D40F016812E4622
:10563000E6E722B90120114600F02AF90746B7FA39
:1056400087F3002B40F0BD80E41B4FEA174B1FFA95
:1056500087F901265946204600F01AF959460546B1
:10566000204600F043FA4FEA184009FB05F340EAF0
:10567000014A534507D96A1E1AEB070A02D253455D
:1056800000F201811546C3EB0A0A5946504600F064
:10569000FFF859460446504600F028FA1FFA88F3EE
:1056A00009FB04F943EA0148C14508D9631E18EB18
:1056B000070880F0CE80023CC14540F2CA8044EA2F
:1056C00005459DE7002635469AE7C6F1200E03FA08
:1056D00006F722FA0EFC21FA0EFB4CEA070720FA25
:1056E0000EFA01FA06F358464FEA17484AEA030150
:1056F0000191414602FA06F4009400F0C9F84146CF
:10570000BCB28246584600F0F1F9019804FB0AF356
:10571000020C42EA014B5B4506D91BEB070B0AF171
:10572000FF32C0F0A4809246C3EB0B0B41465846B3
:1057300000F0AEF841468146584600F0D7F901988E
:1057400004FB09F482B242EA01439C4205D9DB1909
:1057500009F1FF32C0F083809146009F49EA0A496F
:105760001C1B1FFA89F31FFA87FE3A0C4FEA1947F0
:105770000EFB03FC0EFB07F002FB030102FB07FE1E
:1057800001EB1C41884288BF0EF5803E0EEB1143B1
:105790009C4212D34FEA01411FFA8CF205FA06F53A
:1057A00014BF002001208E18B5422CBF002600F047
:1057B00001064D46002E3FF423AF09F1FF350026C8
:1057C0001EE79F40C3F1200124FA01F904FA03F215
:1057D0004FEA174B25FA01F64846594646EA020AAF
:1057E00005FA03F800F054F859464FEA1A45064600
:1057F000484600F07BF91FFA87F909FB06F345EAF2
:105800000144A34206D9721EE41938D2A34236D904
:10581000023EE419E41A5946204600F039F8594688
:105820000546204600F062F91FFA8AF409FB05F3E9
:1058300044EA0144A34206D96A1EE41921D2A342D4
:105840001FD9023DE419E41A45EA064602E71D465F
:10585000D3E61C4644EA0545D2E60125D0E69C4243
:1058600084BFA9F10209DB193FF677AF74E75B4506
:1058700084BFAAF1020ABB443FF656AF53E716466F
:10588000C8E71546DFE7023DBA44FCE60000000029
:105890004A1E08BF7047C0F02481884240F216813A
:1058A000114200F01781B0FA80F3B1FA81F2A2EB55
:1058B0000303C3F11F0304A202EB03134FF0000222
:1058C0009F4600BFAFF30080B0EBC17F00BF42EB4B
:1058D000020228BFA0EBC170B0EB817F00BF42EB9A
:1058E000020228BFA0EB8170B0EB417F00BF42EB0A
:1058F000020228BFA0EB4170B0EB017F00BF42EB7A
:10590000020228BFA0EB0170B0EBC16F00BF42EBF9
:10591000020228BFA0EBC160B0EB816F00BF42EB79
:10592000020228BFA0EB8160B0EB416F00BF42EBE9
:10593000020228BFA0EB4160B0EB016F00BF42EB59
:10594000020228BFA0EB0160B0EBC15F00BF42EBD9
:10595000020228BFA0EBC150B0EB815F00BF42EB59
:10596000020228BFA0EB8150B0EB415F00BF42EBC9
:10597000020228BFA0EB4150B0EB015F00BF42EB39
:10598000020228BFA0EB0150B0EBC14F00BF42EBB9
:10599000020228BFA0EBC140B0EB814F00BF42EB39
:1059A000020228BFA0EB8140B0EB414F00BF42EBA9
:1059B000020228BFA0EB4140B0EB014F00BF42EB19
:1059C000020228BFA0EB0140B0EBC13F00BF42EB99
:1059D000020228BFA0EBC130B0EB813F00BF42EB19
:1059E000020228BFA0EB8130B0EB413F00BF42EB89
:1059F000020228BFA0EB4130B0EB013F00BF42EBF9
:105A0000020228BFA0EB0130B0EBC12F00BF42EB78
:105A1000020228BFA0EBC120B0EB812F00BF42EBF8
:105A2000020228BFA0EB8120B0EB412F00BF42EB68
:105A3000020228BFA0EB4120B0EB012F00BF42EBD8
:105A4000020228BFA0EB0120B0EBC11F00BF42EB58
:105A5000020228BFA0EBC110B0EB811F00BF42EBD8
:105A6000020228BFA0EB8110B0EB411F00BF42EB48
:105A7000020228BFA0EB4110B0EB011F00BF42EBB8
:105A8000020228BFA0EB0110B0EBC10F00BF42EB38
:105A9000020228BFA0EBC100B0EB810F00BF42EBB8
:105AA000020228BFA0EB8100B0EB410F00BF42EB28
:105AB000020228BFA0EB4100B0EB010F00BF42EB98
:105AC000020228BFA0EB0100104670470CBF012066
:105AD00000207047B1FA81F2C2F11F0220FA02F0F1
:105AE000704708B14FF0FF30FFF772BB0029F8D0C4
:105AF0002DE90340FFF7CCFEBDE8064002FB00F3B2
:105B0000A1EB0301704700BF00000000000000008F
:105B1000704700BFAFF30080AFF30080AFF30080A9
:105B2000FEE700BFAFF30080AFF30080AFF300806B
:105B300072B640F60001C2F2000181F30988022327
:105B400083F31488BFF36F8F40F2000240F20044E9
:105B5000C2F20002C2F20004A24217D213464FF072
:105B60005530D64343F8040BA519A342C5F380056D
:105B70000CD225B1186002F10803A34206D21A46DE
:105B800042F8040B5860131DA342F8D340F20042C0
:105B9000C2F200028A4217D213464FF05530D54365
:105BA00043F8040B4C198B42C4F380040CD224B18B
:105BB000186002F108038B4206D21E4646F8040B19
:105BC0005860331D8B42F8D303F09AF940F6440431
:105BD00040F60001C2F20001C2F20004A14225D247
:105BE0004BF24830C0F60000024652F8046B0B46F8
:105BF000CD4343F8046B04EB050CA342CCF38005C2
:105C000014D23DB1166800F108021E6001F10803CC
:105C1000A3420BD2114651F8046B1846526840F863
:105C2000046B5A60031D0A1DA342F3D340F64802D9
:105C300041F6D060C2F20002C2F20000824217D2E6
:105C400000211346D44343F8041B00EB040E8342A7
:105C5000CEF380040CD224B1196002F10803834210
:105C600006D21D4645F8041B59602B1D8342F8D30C
:105C700045F2EC0545F2EC06C0F60005C0F600065C
:105C8000FFF746FFB54219D22C4654F8043BE943CE
:105C900077189847B442C7F380070FD22FB1236813
:105CA00005F108049847B44208D2254655F8042B5C
:105CB000904760682C1D8047B442F6D345F2EC054E
:105CC00045F2EC06C0F60005C0F60006FFF710FA34
:105CD000B5421AD22C46EF4354F8043B06EB070CAE
:105CE000CCF380079847B4420FD22FB1226805F158
:105CF00008049047B44208D2254655F8040B804763
:105D000061682C1D8847B442F6D3FFF709FF00BF36
:105D1000FEE700BFAFF30080AFF30080AFF3008079
:105D200072B6FEE7AFF30080AFF30080AFF3008000
:105D300000F08EF900F044FC00F0AAF900DF00BF8B
:105D4000EFF30983203383F30988002383F3118859
:105D5000704700BFAFF30080AFF30080AFF3008067
:105D600008B500224FF46D43CEF20003C0F2FA52A0
:105D70004FF4A041996007201021DA6000F0A8F8E4
:105D80000A204FF4007100F0A3F80B208021BDE839
:105D9000084000F09DB800BFAFF30080AFF3008073
:105DA000202383F311884FF46D40CEF20000436846
:105DB00013F400631FD0EFF30982A2F1200C8CF3DF
:105DC000098840F67453C2F2000399694FF080705D
:105DD00042F8040C91B11868DB6981689B689942AC
:105DE00094BF002301239BB145F63151C0F6000159
:105DF00042F8081C704783F3118870471868DB6904
:105E000081689B68994234BF00230123002BEBD1AA
:105E100045F63C53C0F6000342F8083C704700BF0B
:105E200008B500F09DF9202383F3118800F050F9A4
:105E300000F0BEF800F06CF9002383F3118800F045
:105E4000B7F9BDE80840FFF7ABBF00BFAFF3008074
:105E50002DE9F04FC1F80CD0D0F80CD0BDE8F08F90
:105E600008B500F015F9002383F311882846A047F0
:105E700000F0E6FC08BD00BFAFF30080AFF3008088
:105E800000F00302F0B4FF23D60003FA06FC00F092
:105E90001F0401FA06F1012505FA04F586084FF4FE
:105EA0006144CEF20004C03654F82670400927EA57
:105EB0000C0242EA010300F1600744F8263044F87E
:105EC000275044F82050F0BC704700BFAFF300806B
:105ED00000F0030310B4FF22DC0002FA04FC01FA14
:105EE00004F180084FF46D44CEF20004063054F8FB
:105EF000203023EA0C0242EA010344F8203010BCAF
:105F0000704700BFAFF30080AFF30080AFF30080B5
:105F100040F67450C2F20000C2694AF64003C0F66F
:105F200000039361FEE700BFAFF30080AFF3008092
:105F300030B583B0FFF714FF00F052FA00F0E0F93B
:105F400000F066FF00F09CF940F648004021C2F2E4
:105F5000000000F05DFB40F6745540F20043C2F2D1
:105F60000003C2F200050124E86180F82040C3610B
:105F700000F04EF8002383F3118862B64AF6480217
:105F8000E969C0F600021D4640F6900045F611731F
:105F90008A61C0F60003C0212246C2F200000095CB
:105FA00000F0BEFB03B030BDAFF30080AFF3008064
:105FB00038B500F025F940F67453C2F200039A692F
:105FC000002A01DD013A9A61DB6940F66454586A9F
:105FD000C2F20004421C5A62E1682368481CA342D2
:105FE000E0600ED09D68013D9D6055B91968DA6882
:105FF0001869DD604C60216090472368996800292A
:10600000F4D038BDAFF30080AFF30080AFF3008071
:1060100040F65010C2F2000003682BB940F65C5203
:10602000C2F20002116859B140F6605C4AF66000A5
:10603000C2F2000CC0F60000CCF80000FFF770BE02
:10604000704700BFAFF30080AFF30080AFF3008074
:1060500040F65010C2F20000036810B540F65C54E0
:10606000C2F200040BB9216859B140F6605C4AF6EF
:106070006802C2F2000CC0F60002CCF80020FFF764
:106080004FFE0123236010BDAFF30080AFF300800B
:1060900040F65010C2F20000036810B540F65C54A0
:1060A000C2F200042BB92168002902DD002323601D
:1060B00010BD40F6605C4AF67002C2F2000CC0F6F9
:1060C0000002CCF80020FFF72BFE0023236010BD58
:1060D00040F65010C2F20000036810B5002B40F6E5
:1060E0005C54C2F2000401DD216859B140F6605CE5
:1060F0004AF67802C2F2000CC0F60002CCF800208A
:10610000FFF70EFE0123236010BD00BFAFF3008038
:1061100040F65010C2F20000036810B5002B40F6A4
:106120005C54C2F2000405DD2168002902DD002371
:10613000236010BD40F6605C4AF68002C2F2000C9B
:10614000C0F60002CCF80020FFF7EAFD0023236030
:1061500010BD00BFAFF30080AFF30080AFF300804D
:1061600010B5202383F3118840F65014C2F20004C6
:106170002368002B05DB40F65C50C2F20000026889
:106180005AB140F660534AF68801C2F20003C0F6E5
:1061900000011960FFF7C4FD23685A1C2260002328
:1061A00083F3118810BD00BFAFF30080AFF3008010
:1061B00010B5202383F3118840F65014C2F2000476
:1061C0002368002B05DD40F65C50C2F20000026837
:1061D0005AB140F660534AF69001C2F20003C0F68D
:1061E00000011960FFF79CFD23685A1E22600023FE
:1061F00083F3118810BD00BFAFF30080AFF30080C0
:1062000040F65010C2F200000368002B07DB40F696
:106210005C52C2F200021168002900DD704740F6AE
:10622000605C4AF69800C2F2000CC0F60000CCF8A0
:106230000000FFF775BD00BFAFF30080AFF3008033
:1062400040F65010C2F2000003683BB940F65C52C1
:10625000C2F200021168002900DD704740F6605C60
:106260004AF6A000C2F2000CC0F60000CCF8000014
:10627000FFF756BDAFF30080AFF30080AFF30080AF
:1062800040F65413C2F200031A46402142F8081B9C
:106290005A607047AFF30080AFF30080AFF3008027
:1062A00010B440F6541340F6645140F6745CC2F2E8
:1062B0000003C2F20001C2F2000C5A68CC68DCF89C
:1062C0001C1014605160846A02F11001946090F80F
:1062D000204003F581608142147328BF03F1080256
:1062E000596028BF5A6010BC704700BFAFF30080F0
:1062F00040F66053C2F200031860FFF711BD00BF03
:1063000040F66453C2F200034FF0FF3000225B609E
:106310001B609860DA607047AFF30080AFF30080D5
:10632000F8B5044615461F460E46FFF769FFD4F13F
:10633000010338BF0023002D08BF43F00103EBB970
:10634000E6B140F66451C2F200010B6827619A6819
:10635000E560964204D91B68B61A9A68B242FAD32D
:106360005A68A6608B4262602360146018BF9A6806
:106370005C601CBFC6EB02069E60F8BD4AF6B0002A
:10638000C0F60000FFF7B4FFDBE700BFAFF300800B
:1063900010B50446FFF734FF9CB1E368C3B123682E
:1063A00040F66452C2F2000293421FBF9868A2688E
:1063B00082189A606268002113602068E160426080
:1063C00010BD4AF6C000C0F60000FFF791FFE4E7F9
:1063D0004AF6D000C0F60000FFF78AFFDFE700BFF3
:1063E00040F67453C2F20003002014225B601B606D
:1063F00098609A615B611B61704700BFAFF30080DA
:1064000010B5044690F82000D0F1010238BF0022F8
:106410000E2814BF134642F0010393B940F674539B
:106420000020A16884F82000C2F200031B689A686B
:106430008A42FBD25968236061600C605C60204630
:1064400010BD4AF6F000C0F60000FFF751FFE5E787
:1064500090F820300D2B11D8DFE803F0151010074D
:10646000100B101010101010100B816A8B685A1C42
:106470008A6090E80C001A60026853604FF0FF31A8
:106480008162FFF7BDBF7047AFF30080AFF30080BC
:1064900070B540F67454C2F200040646FFF7D0FE11
:1064A0002368E5691A6814200121A06185F820603D
:1064B000546083F8201028462260E361FFF7F0FE65
:1064C000EA69ADF124039A4205D94AF60410C0F6F0
:1064D0000000FFF70DFFE0692946BDE87040FFF7B7
:1064E000B7BC00BFAFF30080AFF30080AFF3008014
:1064F00070B50E4686B00546FFF7A2FE731C18D095
:1065000040F67454C2F2000446F25142E369314647
:10651000C0F6000201A8FFF703FF2846FFF7B8FF07
:10652000049B13B101A8FFF733FFE069806A06B04E
:1065300070BD284640F67454FFF7AAFFC2F200046B
:10654000F3E700BFAFF30080AFF30080AFF300804C
:1065500070B540F67455C2F2000504460E46FFF7CA
:106560006FFEE869A2688368A6629A4215D9FFF7B0
:1065700047FF01231422064684F82030AA61EC610B
:10658000FFF78EFEF069ADF1240188420AD820465B
:106590003146BDE87040FFF75BBC2046BDE8704067
:1065A000FFF72EBF4AF60410C0F60000FFF7A0FE6A
:1065B000EDE700BFAFF30080AFF30080AFF30080E2
:1065C00038B540F67454C2F200042368E5691A68CD
:1065D00001211420A06183F8201054602846226015
:1065E000E361FFF70DFF2846FFF75AFEEA69ADF1B8
:1065F00024039A4205D94AF60410C0F60000FFF7BA
:1066000077FEE0692946BDE83840FFF721BC00BFAE
:106610002DE9F00140F67454C2F2000465690022CD
:1066200000F1300600F12C0C00F148074FF0020891
:1066300004618160456180F82080606180F82120DC
:1066400041640264C263426282612861C0F82CC066
:1066500046630663C761BDE8F0017047AFF3008091
:106660002DE9F84F0446884699461546FFF7C8FDC0
:10667000D4F1010338BF0023B8F1AF0F98BF43F046
:1066800001034BB97F2D94BF00230123B9F1000F03
:1066900008BF43F001032BB14AF62010C0F60000FA
:1066A000FFF726FEA8F1240840F6745604EB08070D
:1066B000C2F2000645F66161D6F814C0C0F60001CA
:1066C000E76044F80890DDF828803962002204F180
:1066D000300304F12C0A04F1480B0221C7F80480AE
:1066E00020462661A560C4F814C084F820107461A7
:1066F00084F8212065642264E2636262A261CCF8BE
:106700001040C4F82CA063632363C4F81CB0BDE838
:10671000F88F00BFAFF30080AFF30080AFF30080CD
:10672000F0B504460D461F4600F1480E431C83B0E9
:1067300016464930FF211A4603F8011C02F8011BD6
:10674000531C8342F7D16019864517D255217346F1
:106750006FEA0E0203F8011B00EB020C83420CF0FF
:1067600001020BD01AB103F8011B834206D01A466E
:1067700002F8011B5970531C8342F8D1202383F384
:106780001188FFF765FC2046089C3B4632462946A7
:106790000094FFF765FF00210446FFF7D9FEFFF7DD
:1067A00077FC002383F31188204603B0F0BD00BFBF
:1067B00010B5044628B94AF66010C0F60000FFF78D
:1067C00097FD202383F31188FFF742FC2146062022
:1067D000FFF78EFEFFF75CFC002383F3118810BDEA
:1067E00038B540F67453C2F20003DC69254655F80B
:1067F0002C3FA062AB4207D01A681846E262FFF74E
:10680000FFFDE36AAB42F7D194F82110880701BF7E
:10681000226960690261226908BF50610E20FFF79A
:1068200037FE4AF67010C0F60000BDE83840FFF7AA
:106830005FBD00BFAFF30080AFF30080AFF3008017
:1068400010B52023044683F31188FFF701FC20468E
:10685000BDE81040FFF7C4BFAFF30080AFF3008086
:1068600010B5044620B1002364602460A36010BD0D
:106870004AF6B010C0F60000FFF73AFD002364604E
:106880002460A36010BD00BFAFF30080AFF30080B1
:10689000F8B540F674530546C2F20003DC69FFF711
:1068A000CFFC002D71D0A86800283CD0A268816878
:1068B000914208D290F820308260042B4BD0052BF7
:1068C00036D0002B24D02B461B689D4203D09868FD
:1068D000A2689042F8D259682360616004205C602D
:1068E0000C60A562FFF7D4FDAB68A34205D04AF661
:1068F000D010C0F60000FFF7FBFC206CA84216D0B9
:106900004AF6E410C0F60000BDE8F840FFF7F0BC1E
:1069100090E80C001A600268012180F82010536092
:10692000FFF76EFDCFE7226CAC60EA602564F8BD2E
:1069300041680768866A0F600768334679601B689C
:106940009E4202D099689142F9D25A68036042602F
:1069500010605860B7E741680768866A0F6007688B
:10696000334679601B689E420DD099689142F9D2F6
:106970005A680360426010605860B068A26883681B
:10698000934297D39FE73346F2E74AF6C010C0F62A
:106990000000FFF7ADFC86E7AFF30080AFF30080A7
:1069A00010B52023044683F31188FFF751FB2046DE
:1069B000FFF76EFFFFF76CFB002383F3118810BD18
:1069C00040F67453C2F2000370B5DD69202383F3EF
:1069D0001188FFF73DFB2C6C002C36D0A068A84234
:1069E00006D04AF62020C0F60000FFF781FC2C6C90
:1069F0002368E268A3422A641ED0686C4AB1116819
:106A0000914203D08968884238BF0846D268002A7C
:106A1000F5D11A681E6CA8600021226018465460E7
:106A2000A360E6601C64FFF793FDFFF731FB0023D2
:106A300083F31188204670BD0023A360FFF728FB75
:106A4000002383F31188204670BD4AF60C20C0F65F
:106A50000000FFF74DFC2C6CC0E700BFAFF30080D7
:106A600038B504460D46FFF7CBFBBCB1E26B94F89A
:106A700020301543082BE5630CD0092B00D038BD1E
:106A8000A06A0540A842FAD12046FFF7B9FC0021D0
:106A9000816238BDA36A1D42F6D138BD4AF68C200A
:106AA000C0F60000FFF724FCE0E700BFAFF3008072
:106AB00070B505460E46FFF7A3FB5DB12C68A542F5
:106AC00007D0A16860683143FFF7CAFF2468A54278
:106AD000F7D170BD4AF6B020C0F60000FFF708FC01
:106AE000ECE700BFAFF30080AFF30080AFF30080AE
:106AF00010B4024671B140F67450C2F20000C3698E
:106B00000D209A62546883E814005360236010BC1F
:106B1000FFF7EEBC4FF0FF3010BC7047AFF30080C2
:106B200010B48A1800244060006084604161816173
:106B3000C1600261C36110BC704700BFAFF3008049
:106B400038B504460D46FFF75BFBA26963699342C3
:106B5000A26818D0511CA16003F8015B2069636131
:106B6000834228BFE368206828BF6361A04208D041
:106B7000026822605460FFF743FC002383621846DA
:106B800038BD002038BD002AE4D06FF0030038BDC6
:106B9000F8B504460D46202383F31188FFF758FA11
:106BA000E3690BB120469847A6682046294656B9A6
:106BB000FFF79EFF071EF7DAFFF76AFA334683F303
:106BC00011883846F8BDA369013EA66013F8017B21
:106BD0002269A361934224BFE368A361FFF758FAD7
:106BE000002383F311883846F8BD00BFAFF300805F
:106BF0002DE9F0470446904689461D46C769002A9C
:106C000037D0202383F31188FFF722FA00260FB133
:106C10002046B847D4F808A020462946BAF1000F0C
:106C20000BD1FFF765FF0028F4D0FFF731FA534688
:106C300083F311883046BDE8F087A3690AF1FF317C
:106C4000A16013F8010B09F806002269A3619342C1
:106C500024BFE368A361FFF71BFA002383F31188C5
:106C600001364645E6D0202383F31188FFF7F0F97B
:106C7000CDE74AF6F020C0F60000FFF739FBC0E789
:106C800010B48C1840600060826041618161C16015
:106C90000461C36110BC7047AFF30080AFF30080A4
:106CA0002DE9F041202304460D46164683F3118852
:106CB000FFF7CEF9A7682046314667B9FFF718FFFE
:106CC000B0F10008F6DAFFF7E3F93B4683F31188E9
:106CD0004046BDE8F0816369013FA76003F8015BAE
:106CE00022696361934224BFE3686361E3690BB186
:106CF00020469847FFF7CCF9002383F31188984684
:106D00004046BDE8F08100BFAFF30080AFF30080E4
:106D100038B50446FFF774FA6269A3699A42A2681B
:106D200016D0511CA16013F8015B2069A361834256
:106D300028BFE368206828BFA361A04206D002688C
:106D400022605460FFF75CFB00238362284638BD55
:106D5000002AE6D06FF0020038BD00BFAFF300801C
:106D60002DE9F047044615460E469946D0F81C809A
:106D7000002A40D0202383F31188FFF769F9002708
:106D8000D4F808A020460AF1FF33BAF1000F24D04E
:106D9000A3603178636903F8011B22696361934240
:106DA00024BFE3686361B8F1000F00D0C047FFF76C
:106DB0006FF9002383F311880137013D18D00136A4
:106DC000202383F31188FFF743F9D4F808A0204665
:106DD0000AF1FF33BAF1000FDAD120464946FFF736
:106DE00087FE0028CCD0FFF753F9534683F3118870
:106DF0003846BDE8F0874AF60430C0F60000FFF7D9
:106E000077FAB7E7AFF30080AFF30080AFF300800D
:106E1000094945F2000C40F6985240F69453C2F2EC
:106E2000000C21F00700C2F20002C2F200032CF0B5
:106E30000701106019607047D71E0020AFF3008073
:106E400008B500F065FC4BF2A010C0F6000001F0A0
:106E500067FF00F00DF800F0ABF800F021F900F04A
:106E60001FFA00F0A5FABDE8084002F051B800BFD3
:106E700000F05EBEAFF30080AFF30080AFF30080A0
:106E80000121002301704360704700BFAFF3008011
:106E900038B5D0F1010338BF0023002908BF43F003
:106EA000010304460D46DBB9202383F31188FFF765
:106EB000CFF82278511EC8B2012805D94AF63030E1
:106EC000C0F60000FFF714FA2046656000F038FEB7
:106ED00002232370FFF7DCF8002383F3118838BD09
:106EE0004AF62030C0F60000FFF702FADCE700BFE8
:106EF00038B5D0F1010338BF0023122988BF43F011
:106F0000010304460D46DBB9426852F83100B8B1BE
:106F1000202383F31188FFF79BF82178022905D0FD
:106F20004AF67430C0F60000FFF7E2F92046294621
:106F300000F0BEFEFFF7ACF8002383F3118838BDE4
:106F40004AF65C30C0F60000FFF7D2F9E0E700BF78
:106F500038B5D0F1010338BF0023122988BF43F0B0
:106F6000010304460D46DBB9426852F83100B8B15E
:106F7000202383F31188FFF76BF82178022905D0CD
:106F80004AF6A430C0F60000FFF7B2F920462946C1
:106F900000F0CEFEFFF77CF8002383F3118838BDA4
:106FA0004AF68C30C0F60000FFF7A2F9E0E700BF18
:106FB00000F0F6BEAFF30080AFF30080AFF30080C7
:106FC0000121002301704360704700BFAFF30080D0
:106FD00038B5D0F1010338BF0023002908BF43F0C2
:106FE000010304460D46DBB9202383F31188FFF724
:106FF0002FF82278511EC8B2012805D94AF6CC30A4
:10700000C0F60000FFF774F92046656000F0D8FE76
:1070100002232370FFF73CF8002383F3118838BD67
:107020004AF6C030C0F60000FFF762F9DCE700BFA7
:1070300038B504460D46FFF7E3F884B12378022BF8
:1070400005D04AF61040C0F60000FFF751F90320C2
:10705000207029462046BDE8384000F0F1BE4AF6CF
:10706000F830C0F60000FFF743F9E7E7AFF3008020
:1070700038B505460C46202383F31188FEF7E8FF58
:1070800028462146FFF7D4FFFFF702F8002383F3D9
:10709000118838BDAFF30080AFF30080AFF30080FC
:1070A00001F026B9AFF30080AFF30080AFF30080AA
:1070B0000121002301704360704700BFAFF30080DF
:1070C00038B5D0F1010338BF0023002908BF43F0D1
:1070D000010304460D4613BB21784B1E481FDAB24C
:1070E00018BF0120012A94BF002000F0010028B140
:1070F0004AF6B040C0F60000FFF7FAF8202383F309
:107100001188FEF7A5FF2046656001F009F902200D
:107110002070FEF7BDFF002383F3118838BD4AF6C7
:10712000A040C0F60000FFF7E3F8D5E7AFF300801A
:107130002DE9F04F8846D0F1010138BF002185B01C
:10714000B8F1000F08BF41F00101044691461E4608
:10715000DDF838B00F9FDDF840A049B9D2F1010346
:1071600038BF0023002E08BF43F00103002B32D0AC
:107170004AF6F040C0F60000FFF7BAF8207802287F
:1071800005D04AF61050C0F60000FFF7B1F82023F2
:1071900083F31188FEF75CFF002503212170A560B1
:1071A000334641464A462046CDF800B00197CDF817
:1071B00008A001F03DFAB0F1FF3F0CBF052202220A
:1071C00022700646FEF764FF2B4683F31188304693
:1071D00005B0BDE8F08F17B1BBF1000FC8D0BAF110
:1071E000000FCBD1C4E700BFAFF30080AFF3008046
:1071F000806BD0F1010038BF00207047AFF30080F2
:107200008069D0F1010038BF00207047AFF30080E3
:1072100070B52023044683F311880026FEF718FF7B
:10722000A568A660FEF734FF334683F3118828462D
:1072300070BD00BFAFF30080AFF30080AFF30080FC
:107240001030FFF7D5BC00BFAFF30080AFF3008074
:1072500010304FF0FF33FFF7CBBC00BFAFF300801F
:107260003030FFF77DBD00BFAFF30080AFF300808B
:1072700030304FF0FF33FFF773BD00BFAFF3008036
:107280001030FFF785BC00BFAFF30080AFF3008084
:107290003030FFF705BD00BFAFF30080AFF30080D3
:1072A00001F04EBBAFF30080AFF30080AFF300807E
:1072B00070B504464AF6D0502646C0F6000046F89F
:1072C000040B66600026A66001260B46154604F1F5
:1072D000100004F150014FF400722673FFF720FCF8
:1072E00004F1300004F514714FF400722B46BDE830
:1072F0007040FFF7C5BC00BFAFF30080AFF3008064
:1073000038B504460D46D8B1202383F31188FEF723
:107310009FFE217B481EC3B2012B05D94AF67C5043
:10732000C0F60000FEF7E4FF2046294601F030FBDE
:1073300002222273FEF7ACFE002383F3118838BDCE
:107340004AF67050C0F60000FEF7D2FFDCE700BF3F
:1073500038B504460D46FEF753FF002C21D0A16935
:1073600039B104F110002946FFF7EAFB00280EDBD3
:1073700038BDA268201D42F00403A360FFF798FB0C
:1073800004F110002946FFF7DBFB0028F0DAA368C0
:10739000201D43F08001A1600021BDE83840FFF7C7
:1073A00087BB4AF6A850C0F60000FEF7A1FFD6E75B
:1073B00001F07EBBAFF30080AFF30080AFF300803D
:1073C0000121002301704360704700BFAFF30080CC
:1073D00038B5D0F1010338BF0023002908BF43F0BE
:1073E000010304460D46DBB9202383F31188FEF721
:1073F0002FFE2278511EC8B2012805D94AF6106026
:10740000C0F60000FEF774FF2046656001F090FBB7
:1074100002232370FEF73CFE002383F3118838BD5E
:107420004AF60060C0F60000FEF762FFDCE700BF2E
:1074300010B5FEF795FE40F69C52C2F20002002005
:107440001368C4F202000F240168446013B150684D
:1074500021409847FEF7ACFEBDE81040FEF7A0BC07
:1074600010B5FEF77DFE40F69C52C2F200020020ED
:107470009368C4F20200F024016844601BB1D06834
:10748000C1F303119847FEF793FEBDE81040FEF7E5
:1074900087BC00BFAFF30080AFF30080AFF3008084
:1074A00010B5FEF75DFE40F69C52C2F200020020CD
:1074B0001369C4F202004FF47064016844601BB1A8
:1074C0005069C1F303219847FEF772FEBDE81040F2
:1074D000FEF766BCAFF30080AFF30080AFF300802F
:1074E00010B5FEF73DFE40F69C52C2F200020020AD
:1074F0009369C4F202004FF47044016844601BB108
:10750000D069C1F303319847FEF752FEBDE8104041
:10751000FEF746BCAFF30080AFF30080AFF300800E
:1075200010B5FEF71DFE40F69C52C2F2000200208C
:10753000136AC4F202004FF47024016844601BB166
:10754000506AC1F303419847FEF732FEBDE8104090
:10755000FEF726BCAFF30080AFF30080AFF30080EE
:1075600010B5FEF7FDFD40F69C52C2F2000200206D
:10757000936AC4F202004FF47004016844601BB1C6
:10758000D06AC1F303519847FEF712FEBDE81040E0
:10759000FEF706BCAFF30080AFF30080AFF30080CE
:1075A00010B5FEF7DDFD40F69C52C2F2000200204D
:1075B000136BC4F202004FF07064016844601BB1A9
:1075C000506BC1F303619847FEF7F2FDBDE8104030
:1075D000FEF7E6BBAFF30080AFF30080AFF30080AF
:1075E0002DE9F003002040F6D4514FF0080940F691
:1075F0009C524FF01C084FF0300C442758266C2545
:1076000080240346C2F20002C2F20001C4F2020961
:10761000C4F20208C4F2020CC4F20207C4F2020669
:10762000C4F20205C4F202040B60C4F20200C9F8FD
:1076300000301360C8F800309360CCF8003013615C
:107640003B609361336013622B609362236013632A
:107650004FF0FF334360BDE8F0037047AFF30080A5
:107660002DE9F041044684B0002840D0677A01201B
:1076700000FA07FC40F6D456C2F2000635681CEA50
:10768000050F31D14CEA05055FEA456C18BF4FF490
:10769000805C40F69C50C2F20000356018BFC4F216
:1076A000020C00EBC70840F8372018BFDCF81400C4
:1076B000C8F8043018BF40F00100236818BFCCF8A8
:1076C00014001F68606827F001051D60267A0F27E7
:1076D00007FA06F6002506601D60104622B1A07A62
:1076E0000901FEF7CDFB284604B0BDE8F0814AF65B
:1076F0003070C0F60000039102920193FEF7F8FD8E
:10770000019B029A0399B1E7AFF30080AFF30080C9
:107710004FF4805370B4C4F2020300214FF0FF35E0
:107720004EF2100243F27F201C69CEF200021D616E
:10773000C0F202001961DE684EF6F05CDD60D960CF
:10774000506007209160CEF2000C1060DCF80C4015
:107750004FF4805044F08072CCF80C20CEF2000040
:1077600004684FF4E04C44F001040460DA69C4F2A8
:10777000000C42F08050D861DA6942F00060D861B4
:10778000DCF8002042F48070CCF800001A6A02F4A1
:107790004070B0F5407F1EBF4FF480301862196210
:1077A0004FF48053C4F202031A6A120407D4196A10
:1077B00041F4407018621A6A42F40041196270BCC8
:1077C000FFF70EBFAFF30080AFF30080AFF3008090
:1077D0004FF48053C4F202031868194640F00102C6
:1077E0001A600A684FF480539007C4F20203F8D578
:1077F0001A68002002F0F9011960194658604868BB
:107800004FF4805310F00C0FC4F20203F7D1186844
:10781000194640F480321A600A684FF4805392038C
:10782000C4F20203F8D55A68194642F4E8105860C9
:107830001A6842F08070186008684FF48053800125
:10784000C4F20203F8D54FF4C8424FF4005CC0F212
:107850001D021221C4F2020C5A60CCF800105868C4
:107860001A4640F002015960506800F00C03082BE2
:10787000FAD17047AFF30080AFF30080AFF3008020
:1078800010B5FEF76DFC40F6D850C2F20000426819
:107890004FF4806CC4F2010C01240021CCF8144098
:1078A00053689847FEF784FCBDE81040FEF778BAAD
:1078B00010B5FEF755FC40F6D850C2F20000426801
:1078C0004FF4806CC4F2010C02240121CCF8144066
:1078D000D3689847FEF76CFCBDE81040FEF760BA2D
:1078E00010B5FEF73DFC40F6D850C2F200004268E9
:1078F0004FF4806CC4F2010C04240221CCF8144033
:1079000053699847FEF754FCBDE81040FEF748BAAB
:1079100010B5FEF725FC40F6D850C2F200004268D0
:107920004FF4806CC4F2010C08240321CCF81440FD
:10793000D3699847FEF73CFCBDE81040FEF730BA2B
:1079400010B5FEF70DFC40F6D850C2F200004268B8
:107950004FF4806CC4F2010C10240421CCF81440C4
:10796000536A9847FEF724FCBDE81040FEF718BAAA
:1079700010B5FEF7F5FB4FF48063C4F201035A69BA
:1079800002F478745C61930630D4600625D4210635
:107990001AD4E2050FD4A30507D540F6D850C2F299
:1079A00000004168CA6C09219047FEF701FCBDE860
:1079B0001040FEF7F5B940F6D850C2F20000436817
:1079C00008215A6C9047E6E740F6D850C2F2000012
:1079D0004168CB6B07219847DBE740F6D850C2F2ED
:1079E000000042680621536B9847D0E740F6D85014
:1079F000C2F200004168CA6A05219047C5E700BF8E
:107A000010B5FEF7ADFB4FF48063C4F201035A6971
:107A100002F47C4451055C613BD4220530D4E3047C
:107A200025D4A0041AD461040FD4220407D540F64B
:107A3000D850C2F2000042680F21D36F9847FEF77A
:107A4000B7FBBDE81040FEF7ABB940F6D850C2F224
:107A5000000041684A6F0E219047E6E740F6D85093
:107A6000C2F2000043680D21DA6E9047DBE740F672
:107A7000D850C2F2000041684B6E0C219847D0E705
:107A800040F6D850C2F2000042680B21D36D9847EF
:107A9000C5E740F6D850C2F2000041684A6D0A219D
:107AA0009047BAE7AFF30080AFF30080AFF30080F8
:107AB00010B5FEF755FB40F6D850C2F20000426800
:107AC0004FF4806CC4F2010C4FF480341021CCF8D8
:107AD0001440D2F884309847FEF76AFBBDE81040A6
:107AE000FEF75EB9AFF30080AFF30080AFF3008024
:107AF00010B5FEF735FB40F6D850C2F200004268E0
:107B00004FF4806CC4F2010C4FF480241221CCF8A5
:107B10001440D2F894309847FEF74AFBBDE8104075
:107B2000FEF73EB9AFF30080AFF30080AFF3008003
:107B300040F6D850C2F20000FFF7A2B9AFF30080C0
:107B40002DE9F84305780446012D00F08280626833
:107B500000261368012459073746B44635460AD52E
:107B60005168002918BF254608BFA446D90700D58B
:107B700001279B076BD40123082130E004FA03F8A6
:107B800045EA080510F0010F1CBF04FA03F847EAA4
:107B90000807800744BF04FA03F006430831505831
:107BA000013310F0040F16D002EB0109D9F804805C
:107BB000B8F1000F46D004FA03F845EA080510F0C2
:107BC000010F1CBF04FA03F847EA0807800744BF07
:107BD00004FA03F0064301330831132B0FD0505839
:107BE00010F0040FDAD002EB0109D9F80480B8F1E3
:107BF000000FC3D104FA03F84CEA080CC2E7B2F84C
:107C00009890B2F89A80B2F89C40B2F89E00002298
:107C1000C4F201024FF480634FF6FF71C2F808907E
:107C2000C4F20103C2F80C80C0F207011461506174
:107C300000221A619F60DE605961C3F804C01D60B4
:107C4000BDE8F88304FA03F84CEA080CB7E701260C
:107C500091E706206021FEF713F907206021FEF767
:107C60000FF908206021FEF70BF909206021FEF7CB
:107C700007F90A206021FEF703F917206021FEF7BB
:107C8000FFF860212820FEF7FBF828466021FEF768
:107C9000F7F829206021FEF7F3F82A206021FEF78B
:107CA000EFF854E7AFF30080AFF30080AFF300804C
:107CB000436810B403EBC1046268012000FA01F0CC
:107CC000002A28D04FF4806CC4F2010CDCF800408C
:107CD0002043CCF8000053F83130DA070CD50124EA
:107CE00004FA01F24FF4806CC4F2010CDCF8084095
:107CF00042EA0400CCF808009B070AD5012303FAE6
:107D000001F04FF48063C4F20103DA6840EA020133
:107D1000D96010BC70474FF48062C4F2010254680D
:107D200020435060D7E700BFAFF30080AFF300807F
:107D3000012202FA01F34FF48062C4F201021168D9
:107D4000D843014011605168014051609168014081
:107D50009160D1680840D06053617047AFF30080F4
:107D600008B5FEF7FDF940F6E053C2F200031978BA
:107D7000DA6800200429108204D1022119701080D1
:107D8000108290815A6840F6E050C2F200005368B9
:107D90009847FEF70DFABDE80840FEF701B800BFAE
:107DA00040F6E053C2F200034FF43052C4F2010235
:107DB0001846DA60FFF704B9AFF30080AFF3008034
:107DC00038B503780446012B19D06268A16813689E
:107DD000B1FBF3F0451EADB205FB033C614505D098
:107DE0004AF6D070C0F60000FEF782FAE36800227F
:107DF000082000211A8098801D85998138BD40F6A1
:107E0000E051C2F200018842DFD14FF48055C4F244
:107E10000205AA6942F40060A861E968002241F401
:107E200000631920EB607021EA60FEF729F84FF437
:107E30002240C0F24A40A060C7E700BFAFF3008015
:107E4000C368012200200139D9629A8258621882DF
:107E50009A8105221A807047AFF30080AFF300804B
:107E6000C269036A30B40021146848F200051D801D
:107E700019809980998223680F2123F001032360E0
:107E800092F808C0836901FA0CF450681A6804601B
:107E90001468586824F0010414601B7A01FA03F195
:107EA000016030BC704700BFAFF30080AFF30080CB
:107EB00038B5C46805465CB1FFF7D2FF0020E86022
:107EC0004FF0FF332046A362BDE83840FEF798BA72
:107ED00038BD00BFAFF30080AFF30080AFF3008088
:107EE00038B50B070546046A01D5FDF719FFEB69A4
:107EF0001A685968106820F00100106093F808C0F3
:107F00000F2303FA0CF20A60A18888B240F40073D0
:107F1000A38038BDAFF30080AFF30080AFF30080E3
:107F20000A0770B50446056A36D4A66932687168D6
:107F3000106820F001031360307A0F2202FA00F378
:107F40000B6094F8246006B170BDB5F804E02023FE
:107F50002EF480510804020CAA80B5F800C02CF45D
:107F600080610804020C2A80B5F800E01FFA8EFC3C
:107F70004CF40071298083F31188FEF7A9F8E368B7
:107F800023B1E66018469E62FEF73AFAFEF7C0F8A3
:107F9000002383F3118870BDFDF7C2FEC5E700BF63
:107FA000F8B540F6F054C2F20004FEF7D9F8256A9D
:107FB00094F824302A8BAE8AB6B2D3B9022046EAAE
:107FC000024222F07F42C0F2030082427CD060D89D
:107FD0000123C0F203039A4201D1238A2B8216F0B7
:107FE0000A0F18BF2B8BFEF7E3F8BDE8F840FDF74A
:107FF000D7BE16F00A0F05D0AE8A00232A8BB6B280
:108000002363236432060FD5226CA76B206BE16BD0
:10801000BF5C40F6F053013288422F82C2F2000367
:10802000226401D300201864730610D5226BB5F8C2
:1080300010C0A06A40F6F05300F802C0E16A0132B5
:108040008A422263C2F2000301D300211963F006C1
:108050000ED5AE8A2888636B82B242F0010EB6B2AA
:10806000A5F800E023B140F6F050C2F200009847B6
:108070007105B8D5A98A636C21F480600204110CE3
:10808000A982002BAFD040F6F050C2F20000984712
:10809000A9E78221C0F207018A4234D08423C0F2CA
:1080A00007039A429BD1A06907687F68002F37D0E9
:1080B0002988228A8BB242F0010C43F4A06EA4F806
:1080C00010C0A5F800E08EE7B5F804C0A0692CF454
:1080D0000072110400680B0CAB80016841F00102D2
:1080E0000260AB881FFA83FE4EF4805CA5F804C0E2
:1080F0004368012B3FF673AF288820F480610B049E
:108100001B0C2B806BE7A988E26921F4007318042B
:108110001268010CA980136843F0010313605EE745
:10812000B5F804E020232EF4007001040A0CAA80A4
:10813000B5F800C01FFA8CFE4EF40070288083F35F
:108140001188FDF7C5FFE06818B18762E760FEF7A8
:1081500057F9FDF7DDFF002383F311883FE700BFE8
:10816000F8B540F6F055C2F20005FDF7F9FF2C6AAC
:10817000202383F31188FDF7ABFFEA69AB6992E82E
:10818000410007680F2127F00107076092F808C037
:108190001A6801FA0CF030601668586826F001067B
:1081A00016601B7A01FA03F10160FDF7B1FF0023AD
:1081B00083F31188A68A16F4807606D0A08A012659
:1081C00020F480721304190CA182A18A890507D5B5
:1081D000A18A46F0020621F400700204130CA38267
:1081E00095F8243040F6F050C2F20000002B38D150
:1081F000A28A520540D4B4F814C05FEA0C5307D5E4
:10820000A18A46F0080621F400621004030CA38240
:10821000B4F814E05FEACE4007D5A18A46F0100614
:1082200021F480521004030CA382B4F814C05FEA56
:108230004C4107D5A18A46F0200621F48042100463
:10824000030CA382B4F814C00FFA8CFEBEF1000F29
:1082500028DB002E2CD1FDF7ABFFBDE8F840FDF781
:108260009FBDA18A436C21F4806211040A0CA28292
:10827000002BC0D09847BEE7A18A46F0040621F43F
:1082800080600204130CA382A18821F40070020410
:10829000130CA380B4F800E01FFA8EF141F40070D3
:1082A0002080A8E7A28A46F040065004430CA3822F
:1082B00040F6F054AE60C2F20004202383F311882C
:1082C000FDF706FFE86830B16FF00103002183621B
:1082D000E160FEF795F8FDF71BFF002383F311889B
:1082E000B9E700BFAFF30080AFF30080AFF30080C9
:1082F00010B540F6F054C2F200042046FEF7D8FE56
:10830000064B4FF4A842C4F20002A3F10C01002076
:10831000E0602262A361E16110BD00BFB8AF000858
:1083200002788A23012A2DE9F04104464361056A57
:1083300000F0B9802F464FF09A081A46A669606887
:10834000E36931681B68466805F1100CC3F80080CA
:1083500090F808800A60C1F808C048F20002C3F82B
:1083600008C000234FF4106C002E2A802B80A5F843
:1083700004C069DD4FF41062C0F23D02964263DC36
:10838000BA8848F2A06122F03F031804020CBA80B8
:10839000BB88C0F201011FFA83FC4CF024008E421E
:1083A000B88058DCB8F1010F05D04BF23000C0F6B0
:1083B0000000FDF79DFF4FF4A2417600C0F2252199
:1083C00091FBF6F206FB02F34FF4A240C0F2252027
:1083D000C11A002940F0BA804FF4A240C0F2252013
:1083E00090FBF6F81FFA88F6032E40F2A2802521B2
:1083F0003205B6F5805F39844FEA125805D34BF247
:10840000C000C0F60000FDF773FF6368216AA7F89B
:108410001C801A780888022A83B202BF43F0020245
:108420004FF6F773134006D0032A08BF43F00A0340
:1084300001D0012A2AD00B802B881FFA83FC4CF034
:1084400001012980BDE8F0814BF21800C0F6000060
:10845000FDF74EFF94E74FF4D450C0F20600864279
:10846000C8BF4FF00008D0DCA8F102035FFA83FC1C
:10847000BCF1010F7CD94BF27800C0F60000FDF78B
:1084800037FF48F6FF780B213984BEE723F00A0056
:108490000204130C0B802B881FFA83FC4CF00101A3
:1084A0002980BDE8F08140F6F056C2F20006B042E5
:1084B0007FF440AF4FF48053C4F202031A690021E5
:1084C00042F4001747F621721F618069C0F600026E
:1084D00019610A212346FFF7C3F8002840F09F8066
:1084E00047F6E16240F6F053F0690A21C0F6000257
:1084F000C2F20003FFF7B4F8002840F089804FF47F
:108500008058C4F20208D8F81C101F2041F400174C
:10851000C8F81C70A021FDF7B3FC2020A021FDF7B6
:10852000AFFC7069376A40F48052726142F0100803
:1085300004E74BF26000C0F60000FDF7D9FE4FEAF9
:10854000065825234FEA18583B845EE74BF2480053
:10855000C0F60000FDF7CCFE4FF4A240C0F225208B
:1085600090FBF6F81FFA88F6032E3FF640AFE0E7DF
:10857000B8F1020F21D14FF4A24C06EB4606C0F22F
:10858000252C9CFBF6F806FB08F04FF4A241C0F244
:1085900025210A1A52B94FF4A242C0F2252292FBB9
:1085A000F6F66FEA46436FEA53486CE74BF29000E9
:1085B000C0F60000FDF79CFEEDE7B8F1030F18BF11
:1085C00048F6FF787FF45FAF06EB86064FF4A241D2
:1085D00006EB8606C0F2252191FBF6F206FB02F3BC
:1085E0004FF4A240C0F22520C11A51B94FF4A24263
:1085F000C0F2252292FBF6F36FEA83406FEA9048BF
:1086000041E74BF2A800C0F60000FDF771FEEDE770
:108610004BF20400C0F60000FDF76AFE6FE74AF671
:10862000F070C0F60000FDF763FE59E7AFF300807D
:108630002DE9F04F87B0119F0646884691469A462D
:10864000DDF840B0129D046A4FB1DBF1010338BF81
:108650000023012F98BF43F00103002B63D1681C56
:1086600008D047F6B16201A82946C0F60002334699
:10867000FDF756FEFDF70CFD002383F31188F26928
:10868000B069116802684FEA4808A6F81080B36024
:10869000C1F80C90C1F804A0C2F80CB0576004E017
:1086A000FDF7F6FC002383F31188218B20238A0732
:1086B00003D4278817F400770DD083F31188FDF7D2
:1086C000C7FC691CECD0049B002BE9D14FF0FF30B4
:1086D00007B0BDE8F08F83F31188FDF7B9FC6B1C80
:1086E00028D004980028F1D086F82470A38840F69A
:1086F000745599B241F40072A280B4F800E0C2F25D
:108700000005EB691FFA8EFC4CF48070208002207B
:10871000F360FDF7BDFE049911B101A8FDF738FE25
:10872000EA69906AD4E74BF2FC00C0F60000FDF75E
:10873000DFFD94E786F82470A38840F6745598B25C
:1087400040F40071A1802288C2F20005EB691FFA93
:1087500082FE4EF4807CA4F800C00220F360FDF796
:1087600097FEDDE7AFF30080AFF30080AFF300804A
:108770004FF46053C4F20103998988B240F080023B
:108780009A817047AFF30080AFF30080AFF30080B1
:108790004FF48843C4F20003998988B240F0800204
:1087A0009A817047AFF30080AFF30080AFF3008091
:1087B0002DE9F843D0F850640546B7893488BFB234
:1087C000A4B22307B6F8048022D014F0080918BF19
:1087D0004FF08009E00748BF49F02009A10748BFD2
:1087E00049F04009620748BF49F48079202383F3A8
:1087F0001188FDF76DFCA968281D41EA0903AB60EB
:108800000021FEF755F9FDF783FC002383F311885F
:10881000E30537D4A00625D4390601D522064AD46B
:1088200063061DD5202383F31188FDF751FCA96849
:10883000281D41F01002AA600021FEF739F9FDF76A
:1088400067FC002383F311884FF6BF7007EA00032B
:10885000B381B6F800C02CF040021104080C30803F
:10886000BDE8F883202383F31188FDF731FC284607
:108870005FFA88F1FEF76CFDFDF74AFC002383F3F5
:108880001188C9E7202383F31188FDF721FCAB6829
:10889000281D43F400720021AA60FEF709F9FDF7D4
:1088A00037FC002383F31188318821F480731A0484
:1088B000100C3080AEE7202383F31188FDF708FC0D
:1088C00005F13000FEF724FA0028A8BFB08005DBD0
:1088D000FDF71EFC002383F31188A1E7AB68281D78
:1088E00043F008020021AA60FEF7E2F827F0C00179
:1088F00041F04000B081EBE7AFF30080AFF30080C0
:1089000008B5FDF72DFC40F63860C2F20000FFF715
:108910004FFFFDF74DFCBDE80840FDF741BA00BF31
:1089200008B5FDF71DFC41F28C20C2F20000FFF7F4
:108930003FFFFDF73DFCBDE80840FDF731BA00BF41
:1089400038B540F63865C2F2000548F27172284623
:108950000021C0F6000241F28C24FEF7A9FCC2F20D
:1089600000044FF4605348F29172C4F201032046B0
:108970000021C0F60002C5F85034FEF799FC4FF410
:108980008843C4F20003C4F8503438BDAFF300800C
:1089900038B54BF22014037BC0F60004002918BF41
:1089A0000C46012B05461ED022684FF4A240D5F894
:1089B0005034C0F22520B0FBF2F11981A288B4F83E
:1089C00006C0218942F4045040F02C024CF04000D3
:1089D0009A8141F0010C18820020A3F814C018807D
:1089E0001A889B8838BD40F63861C2F2000188427F
:1089F00014D041F28C21C2F200018842D4D14FF44C
:108A0000805EC4F2020EDEF81C30262043F40032F1
:108A1000CEF81C20C021FDF733FAC5E74FF4805C87
:108A2000C4F2020CDCF81830252043F48042CCF864
:108A30001820C021FDF724FAB6E700BFAFF300808D
:108A40000B0700D47047FDF76BB900BFAFF3008090
:108A50000A0770B5044625D42269E36892E821002C
:108A600006680F2126F00106066092F808C01A6811
:108A700001FA0CF028601568606825F001051560A2
:108A80001D7A5A6801FA05F1036811603BB10422AE
:108A90002270204698472178042906D070BD022014
:108AA000207070BDFDF73CF9D6E70223237070BD3E
:108AB0002DE9F04141F2E46541F2E068C2F20005BF
:108AC000C2F200084FF0FF37154EA8F80070284694
:108AD00041F20074FEF774FCC2F200044FF44052FD
:108AE000C4F2010206F10C0141F20A0841F2180732
:108AF0002046AA60EE602961C5F81480AF61FEF7D8
:108B00005FFC4FF4605306F11802C4F200032436F0
:108B1000A360E2602661C4F81480A761BDE8F0811B
:108B20007CAF0008AFF30080AFF30080AFF30080AC
:108B300038B503780446012B18BF836824D06268D7
:108B40006069B2F80AC0A1691CF4006F1BBF20F471
:108B5000506021F4506120F4406040F4A0600CBFEC
:108B600021F4406141F4A0616061A1614CF4417065
:108B7000002207211A80188099801A881FFA82FC27
:108B80004CF04000188038BD41F2E465C2F20005A7
:108B9000A8420FD041F20075C2F20005AC422AD0C3
:108BA000E1682269A3680868116803F10C02826019
:108BB0008A60C4E748F65122C0680721C0F6000267
:108BC0002346FEF74DFD00283ED148F6412241F2F2
:108BD000E46328690721C0F60002C2F20003FEF731
:108BE0003FFD50BB4FF48053C4F20203986940F438
:108BF00080529A61CEE748F65122E0680721C0F61C
:108C000000022346FEF72CFD60BB48F6412241F2EC
:108C1000007328690721C0F60002C2F20003FEF7C4
:108C20001FFDC0B94FF4805CC4F2020CDCF81C20BC
:108C300042F48041CCF81C10B2E74BF24410C0F66D
:108C40000000FDF755FBCDE74BF23010C0F60000F9
:108C5000FDF74EFBB9E74BF26C10C0F60000FDF7D4
:108C600047FBDFE74BF25810C0F60000FDF740FB72
:108C7000CBE700BFAFF30080AFF30080AFF300801D
:108C8000426801211089536801FA00F25A61704765
:108C9000426801211089536801FA00F21A61704795
:108CA00070B40369C4688669246845691B6841F229
:108CB0001C70C2F2000046F08006E0606160256032
:108CC000DA6059601E60226842F001012160186874
:108CD00040F001021A6070BC704700BFAFF3008023
:108CE00070B400F10C0470CC2B682468856941F2E3
:108CF000E060C2F2000046F08006E260616026603B
:108D0000D86059601D60226842F001012160186836
:108D100040F001021A6070BC704700BFAFF30080E2
:108D20004FF48051C4F2020110B48C694FF4006C0E
:108D300044F07D028A610368C4F2010CCCF80C3067
:108D400084684FF44063CCF804404168C4F20103E6
:108D5000CCF80010C2684FF48051DA604469C4F264
:108D600001015C6002694FF4A05C1A608369C4F27F
:108D7000010CCB60046A4FF4C0534C60C469C4F268
:108D800001030C60416ACCF80C10C26ACCF80420D4
:108D9000816ACCF80010026BDA60816B5960426B1B
:108DA0001A6010BC704700BFAFF30080AFF30080C3
:108DB000032AF0B408BF016102D0042A08BF416150
:108DC0004BF28017C0F6000717F802C00F2611F00B
:108DD00080071CBF674600260F2511F400421CBF08
:108DE000624600254B00340139012E01150113F0B4
:108DF000800F0CBF44F00F0441EA0C0113F4004F44
:108E000014BF45EA0C0546F00F065A00360123014F
:108E100009012D0112F0800F0CBF43F00F0341EA4E
:108E20000C0112F4004F0CBF46F00F0645EA0C058A
:108E300052001C01090133012D0112F0800F14BFF3
:108E400041EA0C0144F00F0412F4004F14BF45EA4C
:108E50000C0543F00F0352001E012D010B012401EC
:108E600012F0800F14BF43EA0C0344F00F0412F415
:108E7000004F14BF45EA0C0546F00F0652001901D9
:108E800024012B01360112F0800F14BF41EA0C01BE
:108E900044F00F0412F4004F14BF43EA0C0346F0F1
:108EA0000F0652001D0124013601090112F0800F46
:108EB00014BF41EA0C0144F00F0412F4004F14BF38
:108EC00045EA0C0546F00F0653002401360109015E
:108ED0002D0113F0800F0CBF44F00F0441EA0C0188
:108EE0001A04426854BF46F00F0645EA0C051640C6
:108EF0003543456003681C4021430160F0BC704766
:108F0000FEF766BCAFF30080AFF30080AFF30080E4
:108F1000704700BFAFF30080AFF30080AFF3008075
:108F20002DE9F04F0678047943794578864690F824
:108F300002B090F806A037061A04280421069EF80D
:108F400008609EF80A509EF80C409EF80E309EF87D
:108F500009909EF80B809EF80DC038184FEA0B2B35
:108F60009EF8037089184FEA0A2A9EF807209EF897
:108F70000FE085B05844514436022D0224021B02F2
:108F80004E444544644473448918C0196A460096A7
:108F900001950294039300F01BFF05B0BDE8F08F2C
:108FA000D0F1010338BF00235C2808BF43F0010360
:108FB00010B504462BB107485C214FF0FF32FDF796
:108FC0006FFE044821464FF0FF32BDE81040FDF728
:108FD00067BE00BF680E0020AFF30080AFF30080D3
:108FE000024800214FF0FF32FDF75ABE680E002004
:108FF00008B500F0D5FEFFF7D3FFBDE80840FFF746
:10900000EFBF00BFAFF30080AFF30080AFF300808D
:1090100000B54BF2402383B0C0F6000393E8030091
:109020000090C0B2ADF80410FFF7BAFF9DF8010040
:10903000FFF7B6FF9DF80200FFF7B2FF9DF80300AF
:10904000FFF7AEFF9DF80400FFF7AAFF03B05DF83D
:1090500004EBFFF7C5BF00BFAFF30080AFF30080A4
:1090600010B54BF2482384B004ACC0F600030FCB1C
:1090700004E90F009DF80000FFF792FF9DF8010042
:10908000FFF78EFF9DF80200FFF78AFF9DF80300AF
:10909000FFF786FF9DF80400FFF782FF9DF80500AB
:1090A000FFF77EFF9DF80600FFF77AFF9DF80700A7
:1090B000FFF776FF9DF80800FFF772FF9DF80900A3
:1090C000FFF76EFF9DF80A00FFF76AFF9DF80B009F
:1090D000FFF766FF9DF80C00FFF762FF9DF80D009B
:1090E000FFF75EFF9DF80E00FFF75AFF04B0BDE8E2
:1090F0001040FFF775BF00BFAFF30080AFF30080F3
:10910000007800F035BE00BFAFF30080AFF3008001
:1091100008B56F20FFF744FF6B20FFF741FFFFF713
:109120005FFFFA20FDF744FBBDE8084001F068BB93
:10913000007801F04DBB00BFAFF30080AFF30080BB
:1091400070B500F00DFE2023044683F31188FCF770
:109150007FFFA2684AF6AB20CAF6AA20A0FB021342
:10916000DD08FCF795FF002383F31188002D63D001
:109170001E464FF0FF312046FDF70AFDC0B2FFF753
:109180000FFF4FF0FF312046FDF702FDC0B2FFF7A1
:1091900007FF4FF0FF312046FDF7FAFCC0B2FFF7A2
:1091A000FFFE4FF0FF312046FDF7F2FCC0B2FFF7A3
:1091B000F7FE4FF0FF312046FDF7EAFCC0B2FFF7A3
:1091C000EFFE4FF0FF312046FDF7E2FCC0B2FFF7A3
:1091D000E7FE4FF0FF312046FDF7DAFCC0B2FFF7A3
:1091E000DFFE4FF0FF312046FDF7D2FCC0B2FFF7A3
:1091F000D7FE4FF0FF312046FDF7CAFCC0B2FFF7A3
:10920000CFFE4FF0FF312046FDF7C2FCC0B2FFF7A2
:10921000C7FE4FF0FF312046FDF7BAFCC0B2FFF7A2
:10922000BFFE4FF0FF312046FDF7B2FC0136C0B261
:10923000FFF7B6FEAE429CD1BDE87040FFF7D0BE4E
:1092400008B500F065FDFFF7ABFEBDE80840FFF78D
:10925000C7BE00BFAFF30080AFF30080AFF3008064
:10926000007800F02DBD00BFAFF30080AFF30080A9
:1092700070B406784278017943798578847912044C
:1092800009061B043606B61801EB030CC278C37935
:109290002D02240270190CEB04018018C91870BC4F
:1092A00000F06EBBAFF30080AFF30080AFF300803F
:1092B000F0B504788178027983794778C678457962
:1092C000C07985B02402090212021B021B18E4199E
:1092D000891952196846009401910292039300F093
:1092E0003FFB05B0F0BD00BFAFF30080AFF30080DF
:1092F000007800F025BD00BFAFF30080AFF3008021
:1093000010B501F035FA0446C0F30720FFF748FE18
:10931000E0B2FFF745FEBDE81040FFF761BE00BFB9
:1093200070B500F095FF2023044683F31188FCF705
:109330008FFEA2684AF6AB20CAF6AA20A0FB021351
:10934000DD08FCF7A5FE002383F31188002D63D010
:109350001E464FF0FF312046FDF71AFCC0B2FFF762
:109360001FFE4FF0FF312046FDF712FCC0B2FFF7A1
:1093700017FE4FF0FF312046FDF70AFCC0B2FFF7A1
:109380000FFE4FF0FF312046FDF702FCC0B2FFF7A1
:1093900007FE4FF0FF312046FDF7FAFBC0B2FFF7A2
:1093A000FFFD4FF0FF312046FDF7F2FBC0B2FFF7A3
:1093B000F7FD4FF0FF312046FDF7EAFBC0B2FFF7A3
:1093C000EFFD4FF0FF312046FDF7E2FBC0B2FFF7A3
:1093D000E7FD4FF0FF312046FDF7DAFBC0B2FFF7A3
:1093E000DFFD4FF0FF312046FDF7D2FBC0B2FFF7A3
:1093F000D7FD4FF0FF312046FDF7CAFBC0B2FFF7A3
:10940000CFFD4FF0FF312046FDF7C2FB0136C0B261
:10941000FFF7C6FDAE429CD1BDE87040FFF7E0BD4E
:109420004378027819041802411888181B06C018DE
:1094300000F056BFAFF30080AFF30080AFF30080C1
:10944000007800F035BF00BFAFF30080AFF30080BD
:1094500000B585B0684600F003FF9DF80000FFF7F7
:109460009FFD9DF80100FFF79BFD9DF80200FFF7AF
:1094700097FD9DF80300FFF793FD9DF80400FFF7AB
:109480008FFD9DF80500FFF78BFD9DF80600FFF7A7
:1094900087FD9DF80700FFF783FD9DF80800FFF7A3
:1094A0007FFD9DF80900FFF77BFD9DF80A00FFF79F
:1094B00077FD9DF80B00FFF773FD9DF80C00FFF79B
:1094C0006FFD9DF80D00FFF76BFD9DF80E00FFF797
:1094D00067FD9DF80F00FFF763FDFFF781FD05B005
:1094E00000BD00BFAFF30080AFF30080AFF300809A
:1094F00010B44278C3788178047812021B02A01855
:10950000C91810BC00F0CCBFAFF30080AFF30080EF
:1095100010B44278C3788178047812021B02A01834
:10952000C91810BC00F0ACBFAFF30080AFF30080EF
:10953000007800F025B900BFAFF30080AFF30080E2
:1095400010B54FF40064C4F20104102220464FF419
:109550000071FFF72DFC204602224FF48061FFF7D7
:1095600027FC204610224FF40061FFF721FC204623
:109570004FF480510222FFF71BFC40F63860C2F224
:1095800000000021BDE81040FDF7BABEAFF3008037
:1095900070B544484FF0FF31FDF7FAFA831C012BF8
:1095A00017D941F22473C2F200031A78C0B28AB903
:1095B00020BB41F22871C2F200010B7841F2207405
:1095C000C2F20004012B22682AD0022B56D00023BD
:1095D000236070BD41F22074C2F20004216841F2A0
:1095E000287C4D1C0026C2F2000C1E70202DB4BF3A
:1095F0002B4620230CF801002360EAE741F2207497
:109600005C28C2F2000430D0216841F228724B1C61
:10961000C2F20002202BA8BF202350542360D8E7B9
:10962000012AD4DD0B464E1E13F8015FB618C8435D
:1096300041F248728019C2F20002B342157000F084
:109640000100C4D030B193F801E08B1CB34202F8A2
:1096500001EFBCD013F8015F13F8011F5570917032
:109660000232B342F6D10023B2E72068012119701B
:109670002028B4BF034620232360AAE791F801E025
:109680004BF2E01CBEF1140FC8BF4FF0000EC0F645
:10969000000C41F248705CF82E30C2F2000098478E
:1096A000002395E7480E0020AFF30080AFF3008061
:1096B00040F67450C2F20000F8B5C2694BF2602364
:1096C000C0F6000341F278754FF480549361C2F202
:1096D0000005C4F201044FF480474FF4005641F2F4
:1096E0006870C2F20000FDF75BF92B68DA0749BF2A
:1096F000E268676182F48042E260990749BFE168ED
:10970000666181F40051E160FDF75AF9FA20FDF736
:109710004FF800F0EDFFE2E7AFF30080AFF3008019
:1097200030B54FF48054C4F201044FF480414FF43B
:10973000005583B06161062265612046FFF738FB62
:10974000294606222046FFF733FB41F26870C2F239
:109750000000FDF785F841F2807049F2B163002402
:109760004FF4D8714022C0F60003C2F2000000940A
:10977000FCF7D6FF03B030BDAFF30080AFF300803D
:1097800010B5044641F26870C2F20000FDF708F916
:1097900041F27873C2F200031C60BDE81040FDF78F
:1097A0000FB900BFAFF30080AFF30080AFF30080CC
:1097B00041F6404CC2F2000C10B5DCF81000DCF8A9
:1097C0000C10DCF80820401A831A0B2B88B001D843
:1097D00008B010BD41F6B824C2F20004684600F09B
:1097E00057FD2378009C002B5FD141F64040E1B249
:1097F000C2F20000FDF7A4F941F64040C4F307218E
:10980000C2F20000FDF79CF941F64040C4F3074165
:10981000C2F20000FDF794F9019C41F64040E1B22C
:10982000C2F20000FDF78CF941F64040C4F3072175
:10983000C2F20000FDF784F941F64040C4F307414D
:10984000C2F20000FDF77CF9029C41F64040E1B213
:10985000C2F20000FDF774F941F64040C4F307215D
:10986000C2F20000FDF76CF941F64040C4F3074135
:10987000C2F20000FDF764F9039C41F64040E1B2FA
:10988000C2F20000FDF75CF941F64040C4F3072145
:10989000C2F20000FDF754F941F64040C4F307411D
:1098A000C2F20000FDF74CF992E704A800F0A8FE10
:1098B000059C079A0094019297E700BFAFF30080E0
:1098C00008B5202383F31188FCF702FCFFF770FF33
:1098D000FCF71EFC002383F3118808BDAFF3008062
:1098E000F8B541F660470024C2F2000741F6B826F9
:1098F00041F6A0254FF4905E41F6404041F630110C
:10990000C0F27A0E2346C2F20006C2F20005C2F28D
:109910000000C2F200014FF4A0723C70C5F800E0F4
:109920003470FDF7FDF841F6802041F6BC21C2F20B
:109930000000C2F200014FF4C0722346FDF7A0F907
:1099400040F6D8504BF27021C2F20000C0F6000180
:10995000BDE8F840FDF79CBAAFF30080AFF300809C
:10996000016841F6A823C2F20003196042685A60F8
:1099700081689960C268DA60704700BFAFF3008009
:1099800041F6A02241F6A423C2F20002C2F2000373
:1099900011601860704700BFAFF30080AFF3008024
:1099A0002DE9F84341F66045C2F200052B780446E4
:1099B000002B29D041F66447002853D041F6A02659
:1099C000C2F20007C2F200063968D6F80090894555
:1099D0005DDD41F6702541F6A82CC2F2000CC2F202
:1099E00000055CF8243055F824504A46581B80FB8B
:1099F00001014FEAE973FBF79BFB2E183146204625
:109A0000BDE8F84300F09CBC41F68026C2F2000697
:109A100006F1080126C9A81A451A002D20DD304696
:109A200001246F1EFDF774F9A54207F0010700F04D
:109A3000418137B130460224FDF76AF9A54200F0B2
:109A40003B8141F68020C2F20000FDF761F941F64A
:109A50008020C2F200000234FDF75AF9A542F0D18D
:109A6000BDE8F883C2F2000741F668483968C2F2DF
:109A70000008D8F800000131814239602DDA41F642
:109A8000A026C2F20006D6F800908945A1DC41F676
:109A9000A824C2F200040020216800F051FC01203B
:109AA000616800F04DFC41F680280220A16800F0BA
:109AB00047FCC2F200080320E16800F041FCD8F83E
:109AC0001010D8F80C30D8F80820C81A811A1729B5
:109AD00024DC00232B70BDE8F88341F6A426FFF7B1
:109AE00067FEC2F2000641F63C4CC2F2000C32683E
:109AF00041F6A026DCF80030C2F20006D6F800904D
:109B000003F1010E013A89FB0E01D317CCF800E0F6
:109B1000FBF70EFB3968C8F8000058E741F6684CBF
:109B200041F63C4EC2F2000EC2F2000C002541F696
:109B30007020CEF80050CCF80050C2F200003D601A
:109B400000F05EFD4046FDF7E3F841F6A425C2F2C1
:109B50000005010629604046FDF7DAF82B68C2B21D
:109B60001004C11829604046FDF7D2F82B68C2B234
:109B70001002C11829604046FDF7CAF82A685FFA4A
:109B800080FC0CEB02032B604046FDF7C1F8010698
:109B900031604046FDF7BCF83368C2B21004C1180A
:109BA00031604046FDF7B4F83368C2B21002C11804
:109BB00031604046FDF7ACF832685FFA80FC0CEB90
:109BC000020333604046FDF7A3F8010621604046DA
:109BD000FDF79EF82368C2B21004191821604046B0
:109BE000FDF796F82368C2B21002191821604046AA
:109BF000FDF78EF822685FFA80FC02EB0C0323600D
:109C00004046FDF785F8010661604046FDF780F8A3
:109C10006368C2B21004191861604046FDF778F815
:109C20006368C2B21002191861604046FDF770F80F
:109C300062685FFA80FC02EB0C0363604046FDF74C
:109C400067F80106A1604046FDF762F8A368C2B25A
:109C500010041918A1604046FDF75AF8A368C2B273
:109C600010021918A1604046FDF752F8A2685FFA89
:109C700080FC02EB0C03A3604046FDF749F80106A7
:109C8000E1604046FDF744F8E368C2B210041918D9
:109C9000E1604046FDF73CF8E368C2B210021918D3
:109CA000E1604046FDF734F8E268C3B2D018E060E6
:109CB000BDE8F883BDE8F883BDE8F883AFF3008022
:109CC00010B50446B8B141F6A820C2F2000000F079
:109CD00077FC41F664424FF6F07041F668434FF668
:109CE000FE71C2F20002CEF6FF70C2F20003CEF6A1
:109CF000FF711060196041F6604CC2F2000C8CF8E4
:109D0000004010BDAFF30080AFF30080AFF30080E0
:109D100010B5202383F31188FCF79AF941F66043CC
:109D2000C2F200031C78003418BF0124FCF7B0F91C
:109D3000002383F31188204610BD00BFAFF30080DD
:109D400030B940F6D850C2F200000121FDF700B949
:109D500040F6D850C2F200000121FDF7C9B800BF9B
:109D600041F64040C2F20000704700BFAFF30080F0
:109D700010B52023044683F31188FCF769F941F6F6
:109D8000B823C2F200031C70FCF782F9002383F3AE
:109D9000118810BDAFF30080AFF30080AFF30080F7
:109DA00010B5202383F31188FCF752F941F6B8234C
:109DB000C2F200031C78FCF76BF9002383F31188CF
:109DC000204610BDAFF30080AFF30080AFF30080FA
:109DD0002DE9F041202307460E46154683F31188EE
:109DE00041F68024C2F20004FCF732F9D4F808806E
:109DF000FCF74EF9002383F31188B8F1170F02DC4A
:109E00000120BDE8F081390E4FF0FF322046FCF70B
:109E100047FFC7F307414FF0FF322046FCF740FFF2
:109E2000C7F307214FF0FF322046FCF739FFF9B2A4
:109E30004FF0FF322046FCF733FF310E4FF0FF3278
:109E40002046FCF72DFFC6F307414FF0FF322046B6
:109E5000FCF726FFC6F307214FF0FF322046FCF740
:109E60001FFFF1B24FF0FF322046FCF719FFE978EF
:109E70004FF0FF322046FCF713FFA9784FF0FF3276
:109E80002046FCF70DFF69784FF0FF322046FCF7C3
:109E900007FF29784FF0FF322046FCF701FFE979F0
:109EA0004FF0FF322046FCF7FBFEA9794FF0FF325E
:109EB0002046FCF7F5FE69794FF0FF322046FCF7AB
:109EC000EFFE29794FF0FF322046FCF7E9FEE97AF0
:109ED0004FF0FF322046FCF7E3FEA97A4FF0FF3245
:109EE0002046FCF7DDFE697A4FF0FF322046FCF792
:109EF000D7FE297A4FF0FF322046FCF7D1FEE97BEE
:109F00004FF0FF322046FCF7CBFEA97B4FF0FF322B
:109F10002046FCF7C5FE697B4FF0FF322046FCF778
:109F2000BFFE2046297B4FF0FF32FCF7B9FE002030
:109F3000BDE8F081AFF30080AFF30080AFF30080A5
:109F40002DE9F047202383F3118841F6345AC2F2F9
:109F5000000AFCF7BDF8DAF800504FF400696A1CFB
:109F6000D617B70FD01900F00303DC1B0121C4F290
:109F70000109E0074FF40066CAF800404FF0020202
:109F80004CBFC9F81010C9F81410C4F2010614F03F
:109F9000020F41F2E46014BF32617261C2F200004C
:109FA000FEF776FE41F66C425FFA85FEC2F20002D1
:109FB00041F63058C2F2000812F80E4098F801003D
:109FC00046F26767661C98F802C098F80030C6F23F
:109FD0006667010287FB06070CEB010A1B040EEB08
:109FE0008E0041F6E04180000AEB0309C2F2000155
:109FF0000B18C9F34F0843F824807F0841F67044DA
:10A00000C2F2000407EB870A51F80090DF68D3F82A
:10A010000480D3F808C0CAEB06062318002144F8D0
:10A02000009002F80E60DF60C3F80480C3F808C037
:10A030000F467C1CE7B25A5853F8270007F001047A
:10A04000824202DA585043F82720781CC2B2042A10
:10A0500023D85CB153F822405858A042BCBF5C5092
:10A0600043F82200541CE2B2042A16D853F82260A6
:10A070005C58501CB442B8BF5E50C0B2B8BF43F881
:10A0800022405A5853F82040A24202DA5C5043F86A
:10A090002020421CD2B2042AE8D90431042FC8D1AE
:10A0A00040F600049968C2F20004032D44F82E1013
:10A0B00006D0FCF72DF8002383F31188BDE8F08764
:10A0C00041F63853C2F2000340F6140E1868C2F28B
:10A0D000000EDEF80010421C8A421A60E9DB41F6ED
:10A0E000C045C2F2000505F1080C9CE8C100BE1B8A
:10A0F000521A311A0B291A60DBD926682846F1B2A8
:10A10000FCF71EFDC6F307212846FCF719FDC6F330
:10A1100007412846FCF714FD66682846F1B2FCF7B3
:10A120000FFDC6F307212846FCF70AFDC6F30741D9
:10A130002846FCF705FDA6682846F1B2FCF700FDAD
:10A14000C6F307212846FCF7FBFCC6F30741284667
:10A15000FCF7F6FCE4682846E1B2FCF7F1FCC4F336
:10A1600007212846FCF7ECFC2846C4F30741FCF71E
:10A17000E7FC9EE7AFF30080AFF30080AFF3008011
:10A1800010B541F6C04041F63C514FF40064C4F2B2
:10A1900001040023C2F20000C2F200014FF4A072D9
:10A1A000FCF7BEFC012106222046FEF701FE2046F8
:10A1B00002210622FEF7FCFD204620211022FEF798
:10A1C000F7FD204640211022FEF7F2FD2046102127
:10A1D0000622FEF7EDFD41F6345CC2F2000CDCF81D
:10A1E0000000102121610122C1074CBF2261626180
:10A1F0004FF4006310F0020F4BF2103141F2E460B3
:10A20000C4F201034FF00202C2F20000C0F60001E6
:10A2100014BF1A615A61BDE81040FDF7D9B800BFFC
:10A2200010B541F2E464C2F200042046FEF728FDB6
:10A23000032341F6305220461946C2F20002237031
:10A24000BDE81040FEF74CBDAFF30080AFF30080D7
:10A2500041F6C040C2F20000704700BFAFF300807B
:10A2600010B52023044683F31188FBF7F1FE34B1C7
:10A2700040F60003C2F200030FCB84E80F00FBF7A7
:10A2800007FF002383F3118810BD00BFAFF30080E8
:10A2900010B450B140F60003C2F200031C68191D4F
:10A2A0000EC9046041608260C36010BC704700BF8B
:10A2B00010B52023044683F31188FBF7C9FE40F64E
:10A2C0001003C2F200031C60FBF7E2FE002383F3DD
:10A2D000118810BDAFF30080AFF30080AFF30080B2
:10A2E00010B52023044683F31188FBF7B1FE40F636
:10A2F0001403C2F200031C60FBF7CAFE002383F3C1
:10A30000118810BDAFF30080AFF30080AFF3008081
:10A3100008B5202383F31188FBF7DAFE41F20070C1
:10A32000C2F20000FEF7B4FCFBF7F2FE002383F359
:10A33000118808BDAFF30080AFF30080AFF3008059
:10A34000C3179A0F00EB020C40F628030CF0030031
:10A35000C2F20003821A43F822107047AFF3008064
:10A36000F8B506460D46202383F3118841F6846430
:10A37000C2F20004FBF76CFEA768FBF789FE00231E
:10A3800083F31188022F01DC0120F8BDF1B24FF0F8
:10A39000FF322046FCF784FCE9B24FF0FF32204642
:10A3A000FCF77EFC2046C5F307214FF0FF32FCF797
:10A3B00077FC0020F8BD00BFAFF30080AFF3008052
:10A3C000F8B541F6846041F6A4614FF4406400237F
:10A3D000C4F201041822C2F20000C2F20001FCF72C
:10A3E0004FFC102220464FF40051FEF7E1FC2046BE
:10A3F00010224FF40041FEF7DBFC4FF480674FF46E
:10A4000000714FF400664FF48055216106222761E8
:10A41000204626612561FEF7CBFC20463946062200
:10A42000FEF7C6FC204631460622FEF7C1FC062296
:10A4300020462946FEF7BCFC41F2007040F6380188
:10A44000C2F20000C2F20001FCF7C2FF47F6FF7142
:10A450000020FFF785FF47F6FF710120FFF780FF1F
:10A4600047F6FF710220FFF77BFF032047F6FF71DD
:10A47000BDE8F840FFF774BFAFF30080AFF3008092
:10A4800038B503460D4600201946FFF769FF2946F7
:10A4900004460120FFF764FF001938BDAFF30080C8
:10A4A00038B503460D4602201946FFF759FF2946E5
:10A4B00004460320FFF754FF001938BDAFF30080B6
:10A4C000F8B541F68465C2F200052969EC68AA680E
:10A4D000081B831A022B40DC41F67C64C2F20004A4
:10A4E000237840F6280CC2F2000C5CF8231040F6EA
:10A4F0001802C2F2000252F82300884224D0032B33
:10A500000AD8DFE803F0464D540240F6380CC2F298
:10A51000000C0C25ACF8085041F2007541F680663D
:10A52000C2F20005C2F200060F1242F823102846BC
:10A5300071703770FEF7A4FB03232B7028460221AD
:10A540003246FEF7ADFB23781846FFF729FA20784C
:10A55000421C02F003012170F8BD2846FCF7D8FB2D
:10A5600041F67C64C2F2000420702846FCF7D0FB60
:10A5700006462846FCF7CCFB2378020240F628006A
:10A5800003F00303B118C2F20000237040F8231057
:10A59000ADE740F63806C2F2000609253581BBE773
:10A5A00040F63807C2F200070A203881B4E740F6C7
:10A5B000380EC2F2000E0B26AEF80860ACE700BF02
:10A5C00010B52023044683F31188FBF741FD40F6C4
:10A5D0001800C2F20000036823604168616082686D
:10A5E000A260C368E360FBF753FD002383F3118887
:10A5F00010BD00BFAFF30080AFF30080AFF3008069
:10A6000040F61801C2F200010A6802604B6843601C
:10A610008A688260CB68C360704700BFAFF3008078
:10A6200008B5202383F31188FBF752FDFFF7F8FDEF
:10A63000FFF746FFFBF76CFD002383F3118808BD8D
:10A6400010B540F6E054C2F200044BF2203120462F
:10A65000C0F60001FCF7BCFC20466421BDE81040B8
:10A66000FCF706BDAFF30080AFF30080AFF30080CE
:10A6700070B541F6C06086B0C2F2000040F6F054FA
:10A68000FCF7EEF8C2F20004FCF70AFD4FF4406557
:10A690004BF230312046C4F20105C0F60001FCF750
:10A6A0000FFD402111222846FEF782FB8021112256
:10A6B0002846FEF77DFB3220FCF77AF84AF6300395
:10A6C000C0F600031E88002520464821322405AA32
:10A6D0000223ADF81460009501950294FCF728FD63
:10A6E00006B070BDAFF30080AFF30080AFF3008021
:10A6F00010B5002486B08DF810408DF811408DF80B
:10A70000124005AC40F6F050009402240194C2F2CD
:10A7100000003224482104AA01230294FCF708FD1A
:10A72000A0B99DF814409DF8152041F6C0602102A3
:10A73000C2F200008C18FCF733F941F6BC60C2F29B
:10A7400000000480FCF73CF906B010BD41F6C06083
:10A75000C2F20000FCF724F941F6BC63C2F2000328
:10A760004FF0FF321A80FCF72BF9EDE7AFF30080D2
:10A7700041F6C06010B5C2F20000FCF711F941F6D5
:10A78000BC63C2F200031C88FCF71AF9204610BD16
:10A7900038B54FF480504FF44064C4F201004FF4D8
:10A7A0000041C4F201044FF48075416106226561E5
:10A7B000FEF7FEFA204629460622BDE83840FEF79D
:10A7C000F7BA00BFAFF30080AFF30080AFF30080B3
:10A7D0004FF480524FF4406310B4C4F201024FF4BE
:10A7E0000044C4F201034FF480710128546159619F
:10A7F00008BF146102D0022808BF196110BC70475D
:10A80000BFF34F8F4FF46D42CEF20002D3680420A5
:10A8100003F4E061C0F2FA5041EA0003D360BFF3F1
:10A820004F8FFEE7AFF30080AFF30080AFF30080FF
:10A830000380000000000000000000000000000095
:10A8400069646C65000000006D61696E00000000C5
:10A8500053562331000000005356233200000000FD
:10A8600053562333000000005356233400000000E9
:10A8700053562335000000005356233600000000D5
:10A8800053562337000000005356233800000000C1
:10A890005356233900000000535623313000000086
:10A8A000535623313100000000000000000000007A
:10A8B0002263685654536574492228290000000019
:10A8C0002263685654526573657449222829000032
:10A8D0006368565452657365744928292C202331C6
:10A8E0000000000000000000000000000000000068
:10A8F000636853636852656164794928292C202371
:10A9000031000000737461636B206F766572666C52
:10A910006F77000000000000000000000000000051
:10A92000226368546864437265617465492228290A
:10A9300000000000226368546864536574507269B3
:10A940006F726974792228290000000063685468D6
:10A9500064526573756D6528292C20233100000031
:10A96000226368546864536C65657022282900006E
:10A970006368546864457869745328292C2023310E
:10A9800000000000226368546864576169742228DB
:10A990002900000063685468645761697428292C91
:10A9A0002023310000000000000000000000000033
:10A9B0002263684D7478496E69742228290000006A
:10A9C0002263684D74784C6F636B53222829000012
:10A9D00063684D74784C6F636B5328292C202331A6
:10A9E0000000000063684D74784C6F636B53282936
:10A9F0002C202332000000002263684D74785472CA
:10AA0000794C6F636B5322282900000063684D74F2
:10AA100078556E6C6F636B28292C20233100000061
:10AA200063684D7478556E6C6F636B28292C2023F6
:10AA30003200000063684D7478556E6C6F636B5321
:10AA400028292C202331000063684D7478556E6CE2
:10AA50006F636B5328292C20233200000000000074
:10AA600022636845767452656769737465724D61D7
:10AA7000736B222829000000226368457674556EA6
:10AA800072656769737465722228290022636845BC
:10AA900076745369676E616C4922282900000000B2
:10AAA0002263684576745369676E616C22282900B9
:10AAB00022636845767442726F6164636173744D9A
:10AAC00061736B49222829002263684576744469C2
:10AAD00073706174636822282900000063684576FA
