:020000040800F2
:10000000000400201101000801020008010200089C
:1000100001020008010200080102000801020008B4
:100020000102000801020008010200085102000854
:100030000102000801020008010200082102000874
:100040000102000801020008010200080102000884
:100050000102000801020008010200080102000874
:10006000010200080102000801020008D11A00087C
:10007000311B0008911B0008F11B0008511C0008EF
:10008000B11C0008111D000801020008010200084F
:100090000102000801020008010200080102000834
:1000A0000102000801020008010200080102000824
:1000B0000102000801020008010200080102000814
:1000C0000102000801020008010200080102000804
:1000D00001020008010200080102000801020008F4
:0C00E000010200080102000801020008F3
:1000F000704700BFAFF30080AFF30080AFF3008024
:10010000FEE700BFAFF30080AFF30080AFF30080E5
:1001100072B640F60004C2F2000484F309884FF07E
:10012000020484F31488BFF36F8F40F20004C2F21C
:10013000000440F20045C2F2000504E04FF05533E0
:10014000236004F10404AC42F8D340F20044C2F24C
:10015000000440F60005C2F2000504E04FF05533FC
:10016000236004F10404AC42F8D302F021FB43F213
:100170001005C0F6000540F60004C2F2000405E0D8
:100180002B68236004F1040405F1040540F6000324
:10019000C2F200039C42F3D340F60004C2F2000412
:1001A00041F2E055C2F2000504E04FF00003236085
:1001B00004F10404AC42F8D3FFF79AFF40F2EC04D8
:1001C000C0F6000403E02368984704F1040440F2F9
:1001D000EC03C0F600039C42F5D302F089FB40F229
:1001E000EC04C0F6000403E02368984704F104041B
:1001F00040F2EC03C0F600039C42F5D3FFF780FF0A
:10020000FEE700BFAFF30080AFF30080AFF30080E4
:1002100072B6FEE7AFF30080AFF30080AFF300806B
:1002200008B500F0E5FA4FF0200383F3118800F0E1
:100230009FFA00F0CDF900F0BBFA4FF0000383F312
:10024000118800F005FB00F043F808BDAFF3008013
:1002500010B483B0EFF309840194019B03F12003F0
:100260000193019B83F309884FF0000383F3118806
:1002700003B010BC704700BFAFF30080AFF3008045
:1002800008B54FF46D43CEF200034FF000029A60C0
:100290004FF46D43CEF200034FF44072C0F2FA52B5
:1002A000DA604FF007004FF0100100F0F1F84FF066
:1002B0000A004FF0200100F0EBF84FF00B004FF078
:1002C000800100F0E5F808BDAFF30080AFF30080D7
:1002D00010B483B04FF0200383F311884FF46D43C3
:1002E000CEF200035B6803F40063002B49D0EFF308
:1002F00009840194019BA3F120030193019B4FF01A
:100300008072DA61019B83F3098840F65053C2F290
:1003100000039B6993F82330002B11D040F6505313
:10032000C2F200031B689A6840F65053C2F2000301
:100330009B699B689A4294BF00230123DBB210E0C3
:1003400040F65053C2F200031B689A6840F65053BF
:10035000C2F200039B699B689A4234BF00230123C9
:10036000DBB2002B06D0019A40F29133C0F60003B5
:1003700093610AE0019A40F29C33C0F60003936156
:1003800003E04FF0000383F3118803B010BC704703
:1003900000F0AEF900F03CFE00F0CAF900DF00BF4B
:1003A00003460A462DE9F04FC2F80CD0D3F80CD022
:1003B000BDE8F08FAFF30080AFF30080AFF30080B3
:1003C00008B500F0B5F94FF0000383F31188284613
:1003D000A04700F05DFF08BDAFF30080AFF30080E1
:1003E00084B001900091019B03F003034FEAC30323
:1003F00003934FF46143CEF20003019A4FEA920057
:100400004FF46142CEF2000201994FEA910101F1ED
:10041000C00152F82110039A4FF0FF0C0CFA02F2BF
:100420006FEA020201EA0201039ADDF800C00CFA49
:1004300002F241EA020100F1C00243F822104FF437
:100440006143CEF20003019A4FEA5212019901F082
:100450001F014FF0010000FA01F102F1600243F8C0
:1004600022104FF46143CEF20003019A4FEA521278
:10047000019901F01F014FF0010000FA01F143F86A
:10048000221004B0704700BFAFF30080AFF30080CC
:1004900084B001900091019B03F003034FEAC30372
:1004A00003934FF46D43CEF20003019A4FEA92009A
:1004B0004FF46D42CEF2000201994FEA910101F131
:1004C000060152F82110039A4FF0FF0C0CFA02F2C9
:1004D0006FEA020201EA0201039ADDF800C00CFA99
:1004E00002F241EA020100F1060243F8221004B0D0
:1004F000704700BFAFF30080AFF30080AFF3008020
:1005000082B0019040F65053C2F200039A6942F65D
:10051000E013C0F600039361FEE700BFAFF3008075
:1005200000B583B0FFF7ACFE00F04AFB00F060FAC4
:1005300001F086F801F0F4F800F0EAF940F6E00086
:10054000C2F200004FF0400100F082FD024640F68A
:100550005053C2F200039A6140F65053C2F20003B6
:100560009B694FF0010283F8202040F65053C2F2FD
:1005700000039A6940F20043C2F20003D36100F025
:100580009FF84FF0000383F3118862B640F6505392
:10059000C2F200039A6942F61073C0F60003936139
:1005A00040F20153C0F600034FF00002009240F603
:1005B0000000C2F200004FF0E0014FF0010200F035
:1005C00007FE03B000BD00BFAFF30080AFF30080B3
:1005D00000B583B000F06CF940F65053C2F200034E
:1005E0009B6993F82330002B0BD040F65053C2F296
:1005F00000039B6993F8232002F1FF32D2B283F803
:10060000232040F65053C2F200039B695A6A02F15C
:1006100001025A6240F64053C2F20003DB6803F164
:10062000010240F64053C2F20003DA6040F6405344
:10063000C2F200031B681A4640F64053C2F20003A0
:100640009A4239D040F64053C2F200031B689A68C0
:1006500002F1FF329A6025E0019BDB680093019B69
:100660004FF00002DA60019B1A6840F64053C2F274
:1006700000035360019B1A6840F64053C2F2000326
:100680001A6000F095F84FF0000383F31188019B86
:100690001A69009B104698474FF0200383F3118896
:1006A00000F066F840F64053C2F200031B68019365
:1006B000019B9B68002BCFD003B000BDAFF300803F
:1006C00008B540F62C13C2F200031B68002B06D1BC
:1006D00040F63013C2F200031B68002B05D042F62F
:1006E0000020C0F6000000F073F908BDAFF30080F1
:1006F00008B540F62C13C2F200031B68002B06D18C
:1007000040F63013C2F200031B68002B05D042F6FE
:100710000820C0F6000000F05BF940F63013C2F28A
:1007200000034FF001021A6008BD00BFAFF3008064
:1007300008B540F62C13C2F200031B68002B06D14B
:1007400040F63013C2F200031B68002B05DC42F6B2
:100750001020C0F6000000F03BF940F63013C2F262
:1007600000034FF000021A6008BD00BFAFF3008025
:1007700008B540F62C13C2F200031B68002B06DDFF
:1007800040F63013C2F200031B68002B05D042F67E
:100790001820C0F6000000F01BF940F63013C2F23A
:1007A00000034FF001021A6008BD00BFAFF30080E4
:1007B00008B540F62C13C2F200031B68002B06DDBF
:1007C00040F63013C2F200031B68002B05DC42F632
:1007D0002020C0F6000000F0FBF840F63013C2F213
:1007E00000034FF000021A6008BD00BFAFF30080A5
:1007F00008B54FF0200383F3118840F62C13C2F2A2
:1008000000031B68002B06DB40F63013C2F2000326
:100810001B68002B05D042F62820C0F6000000F02F
:10082000D7F840F62C13C2F200031B6803F1010253
:1008300040F62C13C2F200031A604FF0000383F35A
:10084000118808BDAFF30080AFF30080AFF30080E4
:1008500008B54FF0200383F3118840F62C13C2F241
:1008600000031B68002B06DD40F63013C2F20003C4
:100870001B68002B05D042F63020C0F6000000F0C7
:10088000A7F840F62C13C2F200031B6803F1FF32F5
:1008900040F62C13C2F200031A604FF0000383F3FA
:1008A000118808BDAFF30080AFF30080AFF3008084
:1008B00008B540F62C13C2F200031B68002B06DBC0
:1008C00040F63013C2F200031B68002B05DC42F631
:1008D0003820C0F6000000F07BF808BDAFF30080C0
:1008E00008B540F62C13C2F200031B68002B06D19A
:1008F00040F63013C2F200031B68002B05DC42F601
:100900004020C0F6000000F063F808BDAFF300809F
:1009100040F63413C2F200034FF040021A6040F672
:100920003413C2F20003014A5A6070473C090020A8
:1009300082B0019040F63413C2F200035A6840F6C8
:100940004053C2F20003DB68136040F63413C2F276
:1009500000035A6840F65053C2F200039B6953608B
:1009600040F63413C2F200035B68019A926A9A60FF
:1009700040F63413C2F200035B68019A92F820201B
:100980001A7340F63413C2F200035B6803F11002DD
:1009900040F63413C2F200035A6040F63413C2F238
:1009A00000035A68054B9A4205D340F63413C2F24D
:1009B0000003034A5A6002B0704700BF3C0D00209C
:1009C0003C090020AFF30080AFF30080AFF300805C
:1009D00000B583B0019040F63C53C2F20003019A87
:1009E0001A60FFF715FC03B000BD00BFAFF3008035
:1009F00040F64052C2F2000240F64053C2F20003F9
:100A00005A6040F64053C2F200035A6840F6405321
:100A1000C2F200031A6040F64053C2F200034FF0E6
:100A2000FF329A6040F64053C2F200034FF00002DA
:100A3000DA607047AFF30080AFF30080AFF300805F
:100A400000B587B00390029101920093FFF730FF49
:100A5000039B002B05D0019B002B02D0029B002B97
:100A600005D142F65020C0F60000FFF7B1FF039B0E
:100A7000009A1A61039B019ADA6040F64053C2F271
:100A800000031B68059308E0059B9B68029AC3EB73
:100A900002030293059B1B680593059B9A68029BC2
:100AA0009A42F1D3039B059A1A60039B1B685A680C
:100AB000039B5A60039B5B68059A03995160059AF2
:100AC00052681A60039B029A9A60059A40F6405356
:100AD000C2F200039A4206D0059B9A68029BC3EBC0
:100AE0000202059B9A6007B000BD00BFAFF3008013
:100AF00000B583B00190FFF7DBFE019B002B05D111
:100B000042F66020C0F60000FFF762FF019BDB6841
:100B1000002B05D142F67020C0F60000FFF758FF09
:100B2000019B1A6840F64053C2F200039A4208D073
:100B3000019B1B68019A12689168019A92680A44A5
:100B40009A60019B5B68019A12681A60019B1B689E
:100B5000019A52685A60019B4FF00002DA6003B0BC
:100B600000BD00BFAFF30080AFF30080AFF30080A3
:100B700084B00190019B1B680393039B1A68019B3F
:100B80001A60019B1B68019A5A60039B184604B0C7
:100B9000704700BFAFF30080AFF30080AFF3008079
:100BA00082B00190019B5B68019A12681A60019BF8
:100BB0001B68019A52685A60019B184602B0704740
:100BC00040F65052C2F2000240F65053C2F2000307
:100BD0005A6040F65053C2F200035A6840F6505330
:100BE000C2F200031A6040F65053C2F200034FF005
:100BF00000029A6040F65052C2F2000240F6505392
:100C0000C2F200035A6140F65053C2F200035A691F
:100C100040F65053C2F200031A617047AFF30080F0
:100C200000B585B00190FFF743FE019B93F820309B
:100C3000002B04D0019B93F820300E2B05D142F6F7
:100C40009020C0F60000FFF7C3FE019B4FF00002AA
:100C500083F8202040F65053C2F200030393039B15
:100C60001B680393039B9A68019B9B689A42F6D288
:100C7000019B039A1A60039B5A68019B5A60019B6F
:100C80005B68039A01995160039A52681A60019B4C
:100C9000184605B000BD00BFAFF30080AFF3008081
:100CA00000B585B003468DF80730FFF719FE40F612
:100CB0005053C2F200039B690393039B9DF80720E6
:100CC00083F82020039B4FF0140283F8232040F682
:100CD0005050C2F20000FFF74BFF024640F650535F
:100CE000C2F200039A6140F65053C2F200039B69BE
:100CF0004FF0010283F820200398FFF719FE6B469E
:100D0000A3F12402039BDB699A4205D242F6A42098
:100D1000C0F60000FFF75CFE40F65053C2F200033D
:100D20009B6918460399FFF73BFB05B000BD00BF68
:100D300000B585B00190019B03934FF0200383F32E
:100D40001188FFF715FD039B93F820300D2B2FD84A
:100D500001A252F823F000BF910D0008B10D000868
:100D6000B10D00089F0D0008B10D0008AB0D000883
:100D7000B10D0008B10D0008B10D0008B10D00085B
:100D8000B10D0008B10D0008B10D0008AB0D000851
:100D9000FFF70EFD4FF0000383F3118815E0039B6E
:100DA0009B6A9A6802F101029A600398FFF7F8FEC5
:100DB000039B4FF0FF329A620398FFF731FFFFF772
:100DC000F7FC4FF0000383F3118805B000BD00BFAE
:100DD00000B589B0034600918DF80730FFF780FD1C
:100DE000009BB3F1FF3F1AD040F65053C2F200030C
:100DF0009B6903AA1046009940F63152C0F60002E2
:100E0000FFF71EFE9DF807301846FFF749FF069BC7
:100E1000002B0AD003AB1846FFF76AFE06E09DF8E8
:100E200007301846FFF73CFF00E000BF40F6505384
:100E3000C2F200039B699B6A184609B000BD00BF5F
:100E400000B585B001900091FFF74AFD019B009A23
:100E50009A62019B9A6840F65053C2F200039B6964
:100E60009B689A4203D80198FFF7DAFE28E040F623
:100E70005053C2F200039B691846FFF7D1FE0346A8
:100E8000039340F65053C2F20003019A9A61019B0A
:100E90004FF0010283F820200398FFF749FD6B46CD
:100EA000A3F12402039BDB699A4205D242F6A420F7
:100EB000C0F60000FFF78CFD01980399FFF770FA68
:100EC00005B000BDAFF30080AFF30080AFF300804A
:100ED00000B583B040F65053C2F200039B69019302
:100EE00040F65050C2F20000FFF742FE024640F6C4
:100EF0005053C2F200039A6140F65053C2F200030D
:100F00009B694FF0010283F82020019B4FF01402EF
:100F100083F823200198FFF783FE0198FFF708FD6F
:100F20006B46A3F12402019BDB699A4205D242F68B
:100F3000A420C0F60000FFF74BFD40F65053C2F26C
:100F400000039B6918460199FFF72AFA03B000BD18
:100F500000B583B040F65053C2F200039B69009382
:100F600040F65050C2F20000FFF702FE024640F683
:100F70005053C2F200039A6140F65053C2F200038C
:100F80009B694FF0010283F82020009B4FF0000284
:100F900083F8202040F65053C2F200030193019BD6
:100FA0001B680193019B9A68009B9B689A42F6D844
:100FB000009B019A1A60019B5A68009B5A60009B33
:100FC0005B68019A00995160019A52681A60009812
:100FD000FFF7AEFC6B46A3F12402009BDB699A424B
:100FE00005D242F6A420C0F60000FFF7F1FC40F65F
:100FF0005053C2F200039B6918460099FFF7D0F9DD
:1010000003B000BDAFF30080AFF30080AFF300800A
:1010100008B540F65053C2F200039B6993F82330A1
:10102000002B02D1FFF754FF01E0FFF791FF08BD4D
:1010300084B00190019B1B680393039B1A68019B7A
:101040001A60039B184604B0704700BFAFF30080DE
:1010500082B001900091019B009A9A60019B4FF031
:10106000020283F82020019B4FF0000283F8212028
:10107000019B4FF0140283F82320019B009A5A64CD
:10108000019B4FF000021A64019B4FF00002DA63EB
:10109000019B4FF000025A62019B4FF0010283F85E
:1010A0002220019B4FF000029A6140F65053C2F299
:1010B0000003019A136140F65053C2F200035A69CB
:1010C000019B5A61019B5A6940F65053C2F20003DA
:1010D0000199596140F65053C2F200035B691361F4
:1010E000019B03F12C031A46019BDA62019B03F179
:1010F00030031A46019B5A63019B5A6B019B1A638A
:10110000019B03F14C02019BDA61019B184602B07E
:10111000704700BFAFF30080AFF30080AFF30080F3
:1011200084B00390029113468DF8073007E0039BCB
:101130009DF807201A70039B03F101030393039AA0
:10114000029B9A42F3D304B0704700BFAFF3008014
:1011500000B587B00390029101920093039B059321
:10116000FFF7A6FB039B002B08D0029BCF2B05D9D2
:10117000019B7F2B02D8009B002B05D142F6C0209B
:10118000C0F60000FFF724FC039A029BA3F124039E
:101190001A44059BDA60059BDB68009A1A60059B80
:1011A000DB68089A5A60059BDA6840F2C133C0F6E2
:1011B0000003136205980199FFF74AFF034618469A
:1011C00007B000BDAFF30080AFF30080AFF3008045
:1011D00000B589B00590049103920293059A059B8E
:1011E00003F14C03104619464FF0FF02FFF798FF3A
:1011F000059B03F14C020599049B0B4410461946CC
:101200004FF05502FFF78CFF4FF0200383F3118856
:10121000FFF76EFA0A9B009305980499039A029BC4
:10122000FFF796FF0346079307984FF00001FFF77B
:1012300007FEFFF77DFA4FF0000383F31188079B49
:10124000184609B000BD00BFAFF30080AFF30080C7
:1012500000B583B00190019B002B05D142F6003010
:10126000C0F60000FFF7B4FB4FF0200383F31188B2
:10127000FFF73EFA4FF006000199FFF7A9FDFFF7CF
:1012800057FA4FF0000383F3118803B000BD00BF8D
:1012900000B583B001904FF0200383F31188FFF76E
:1012A00027FA019800F004F803B000BDAFF3008006
:1012B00000B585B0019040F65053C2F200039B691F
:1012C0000393039B019A9A6209E0039B03F12C03A9
:1012D0001846FFF7ADFE03461846FFF7A1FC039B37
:1012E000DA6A039B03F12C039A42EED1039B93F835
:1012F000213003F00303002B09D1039B5B69039AA0
:1013000012691A61039B1B69039A52695A614FF073
:101310000E00FFF7C5FC42F61030C0F60000FFF7E4
:1013200057FB05B000BD00BFAFF30080AFF30080F6
:1013300084B001900091009B0393039B1B6803936F
:10134000009B039A9A4205D0039B9A68019B9B6875
:101350009A42F2D2019B039A1A60039B5A68019B3E
:101360005A60019B5B68039A01995160039A526825
:101370001A6004B0704700BFAFF30080AFF3008085
:1013800084B00190019B1B680393039B1A68019B27
:101390001A60019B1B68019A5A60039B184604B0AF
:1013A000704700BFAFF30080AFF30080AFF3008061
:1013B00082B00190019B5B68019A12681A60019BE0
:1013C0001B68019A52685A60019B184602B0704728
:1013D00000B583B00190019B002B05D142F660302F
:1013E000C0F60000FFF7F4FA019B1A46019B5A6011
:1013F000019B5A68019B1A60019B4FF000029A60A2
:1014000003B000BDAFF30080AFF30080AFF3008006
:1014100000B583B001904FF0200383F31188FFF7EC
:1014200067F9019800F00CF8FFF782F94FF000031C
:1014300083F3118803B000BDAFF30080AFF30080E9
:1014400000B585B0019040F65053C2F200039B698D
:101450000293FFF745FA019B002B05D142F670304D
:10146000C0F60000FFF7B4FA019B9B68002B62D026
:10147000019B9B68039335E0029B9A68039B9A60EB
:10148000039B93F82030042B04D0052B11D0002BA4
:101490001AD02DE00398FFF78BFF0246039B9B6A4F
:1014A00010461946FFF744FF039B9B6A9B68039312
:1014B00018E00398FFF77CFF0246039B9B6A1046E7
:1014C0001946FFF735FF0CE0039B4FF0010283F84C
:1014D00020200398FFF76CFF03461846FFF7A0FB98
:1014E00000BF05E0039B9A68029B9B689A42C3D3A6
:1014F000019B02981946FFF71BFF029B019A9A6213
:101500004FF00400FFF7CCFB019B9A68029B9A42C4
:1015100005D042F68030C0F60000FFF759FA029B72
:101520001A6C019B9A4210D042F69430C0F600002B
:10153000FFF74EFA09E0019B029A9A60029B1A6C2F
:10154000019BDA60029B019A1A6405B000BD00BFDE
:1015500000B587B040F65053C2F200039B69039375
:101560004FF0200383F31188FFF7C2F8039B1B6C35
:10157000002B05D142F6BC30C0F60000FFF728FA78
:10158000039B1B6C9A68039B9A4205D042F6D030AD
:10159000C0F60000FFF71CFA039B1B6C0293029B32
:1015A000DA68039B1A64029B1A68029B9A4234D041
:1015B000039B5B6C0493039B1B6C059311E0059BE1
:1015C0001A68059B9A4209D0059B1B689A68049B80
:1015D0009A4203D9059B1B689B680493059BDB68B3
:1015E0000593059B002BEAD1039B049A9A60029B0A
:1015F0001846FFF7C5FE03460193029B019A9A60C5
:10160000019B1A6C029BDA60019B029A1A64019892
:101610004FF00001FFF714FC03E0029B4FF00002C3
:101620009A60FFF785F84FF0000383F31188029B5F
:10163000184607B000BD00BFAFF30080AFF30080D5
:1016400041F2E053C2F2000303F1070323F0070362
:101650001A4640F66C53C2F200031A6045F20003CA
:10166000C2F2000323F007031A4640F67053C2F299
:1016700000031A60704700BFAFF30080AFF3008033
:1016800000B585B001904FF0200383F31188FFF778
:101690002FF8019800F00CF803460393FFF748F881
:1016A0004FF0000383F31188039B184605B000BD7B
:1016B00000B585B00190FFF7FBF8019B03F107032C
:1016C00023F00703019340F67053C2F200031B6836
:1016D0001A4640F66C53C2F200031B68C3EB0203C8
:1016E0001A46019B9A4202D24FF0000312E040F6E4
:1016F0006C53C2F200031B68039340F66C53C2F2B2
:1017000000031A68019B1A4440F66C53C2F20003AE
:101710001A60039B184605B000BD00BFAFF3008000
:1017200008B540F67853C2F2000341F28162C0F678
:1017300000021A6040F67853C2F200034FF0000234
:101740009A6040F67853C2F200034FF00002DA606C
:101750000148FFF73DFE08BD880D0020AFF3008073
:1017600008B500F0D5FB00F073F942F6B070C0F692
:10177000000000F0EDFC00F003F801F021F808BDD6
:1017800008B500F05DFE08BDAFF30080AFF3008048
:1017900000B583B00190019B4FF001021A70019BCC
:1017A0004FF000025A60019B4FF000029A60019BCB
:1017B00003F10C031846FFF70BFE03B000BD00BF9A
:1017C00000B583B001900091019B002B02D0009BDB
:1017D000002B05D142F61040C0F60000FFF7F8F8E4
:1017E0004FF0200383F31188FEF782FF019B1B78E3
:1017F000012B09D0019B1B78022B05D042F620401B
:10180000C0F60000FFF7E4F8019B009A5A600198C7
:1018100000F07EFE019B4FF002021A70FEF788FF77
:101820004FF0000383F3118803B000BDAFF30080D5
:1018300000B583B00190019B002B05D142F64C40CE
:10184000C0F60000FFF7C4F84FF0200383F31188BF
:10185000FEF74EFF019B1B78022B05D042F65C4041
:10186000C0F60000FFF7B4F8019800F041FFFEF762
:101870005FFF4FF0000383F3118803B000BD00BF8A
:1018800000B583B00190019B002B05D142F66C405E
:10189000C0F60000FFF79CF84FF0200383F3118897
:1018A000FEF726FF019B1B78022B05D042F67C40F9
:1018B000C0F60000FFF78CF8019800F029FFFEF752
:1018C00037FF4FF0000383F3118803B000BD00BF62
:1018D00000B585B0039002910192039B002B05D0C7
:1018E000029B002B02D0019B002B05D142F6E85051
:1018F000C0F60000FFF76CF84FF0200383F3118867
:10190000FEF7F6FE039B1B78022B05D042F6F8503B
:10191000C0F60000FFF75CF8039B5B681B68002BB8
:1019200005D042F60C60C0F60000FFF751F8039BAB
:101930004FF003021A7003980299019A00F0F8FE22
:10194000039B9B68002B05D042F67450C0F6000044
:10195000FFF73EF840F65053C2F200039A69039B2A
:101960009A604FF00200FFF79BF9FEF7E1FE4FF09F
:10197000000383F3118805B000BD00BFAFF3008002
:1019800000B583B00190019B002B05D142F6206089
:10199000C0F60000FFF71CF8019B03F10C0318468A
:1019A000FFF736FD03B000BDAFF30080AFF300805A
:1019B00000B583B00190019B002B05D142F6346045
:1019C000C0F60000FFF704F8FFF7C2FD03B000BD4A
:1019D00082B001904FF48053CEF200035A68019B0D
:1019E0009A6002B0704700BFAFF30080AFF3008091
:1019F00084B001904FF48053CEF200035B680393F0
:101A0000019B9B68039AC3EB020240F69853C2F213
:101A100000031B68C3EB0202019B9A60019B9A685A
:101A2000019BDB689A4204D9019B9A68019BDA60AA
:101A300009E0019B9A68019B1B699A4203D2019BB2
:101A40009A68019B1A6104B0704700BFAFF3008031
:101A500000B587B040F69853C2F200034FF0000281
:101A60001A6001AB184600F013F8019B01AA10465A
:101A70009847029B01AA10469847039A40F698534C
:101A8000C2F200031A6007B000BD00BFAFF30080D0
:101A900082B00190019A41F6D113C0F600031360A1
:101AA000019A41F6F113C0F600035360019B4FF019
:101AB00000029A60019B4FF00002DA60019B4FF038
:101AC000FF321A6102B07047AFF30080AFF30080BD
:101AD00000B583B0FEF78CFE4FF00003C4F20203A2
:101AE0001B6803F00F0301934FF00003C4F20203DD
:101AF000019A5A6040F6A053C2F200031B68002B03
:101B00000CD040F6A053C2F200031A6840F6A0536E
:101B1000C2F200035B68184601999047FEF798FEF1
:101B2000FEF7D6FB03B000BDAFF30080AFF300803B
:101B300000B583B0FEF75CFE4FF00003C4F2020371
:101B40001B684FEA131303F00F0301934FF00003D8
:101B5000C4F20203019A4FEA02125A6040F6A053FF
:101B6000C2F200039B68002B0CD040F6A053C2F2D7
:101B700000039A6840F6A053C2F20003DB681846DF
:101B800001999047FEF764FEFEF7A2FB03B000BD8B
:101B900000B583B0FEF72CFE4FF00003C4F2020341
:101BA0001B684FEA132303F00F0301934FF0000368
:101BB000C4F20203019A4FEA02225A6040F6A0538F
:101BC000C2F200031B69002B0CD040F6A053C2F2F6
:101BD00000031A6940F6A053C2F200035B6918467D
:101BE00001999047FEF734FEFEF772FB03B000BD8B
:101BF00000B583B0FEF7FCFD4FF00003C4F2020312
:101C00001B684FEA133303F00F0301934FF00003F7
:101C1000C4F20203019A4FEA02325A6040F6A0531E
:101C2000C2F200039B69002B0CD040F6A053C2F215
:101C300000039A6940F6A053C2F20003DB6918461C
:101C400001999047FEF704FEFEF742FB03B000BD8A
:101C500000B583B0FEF7CCFD4FF00003C4F20203E1
:101C60001B684FEA134303F00F0301934FF0000387
:101C7000C4F20203019A4FEA02425A6040F6A053AE
:101C8000C2F200031B6A002B0CD040F6A053C2F234
:101C900000031A6A40F6A053C2F200035B6A1846BA
:101CA00001999047FEF7D4FDFEF712FB03B000BD8B
:101CB00000B583B0FEF79CFD4FF00003C4F20203B1
:101CC0001B684FEA135303F00F0301934FF0000317
:101CD000C4F20203019A4FEA02525A6040F6A0533E
:101CE000C2F200039B6A002B0CD040F6A053C2F254
:101CF00000039A6A40F6A053C2F20003DB6A18465A
:101D000001999047FEF7A4FDFEF7E2FA03B000BD8B
:101D100000B583B0FEF76CFD4FF00003C4F2020380
:101D20001B684FEA136303F00F0301934FF00003A6
:101D3000C4F20203019A4FEA02625A6040F6A053CD
:101D4000C2F200031B6B002B0CD040F6A053C2F272
:101D500000031A6B40F6A053C2F200035B6B1846F7
:101D600001999047FEF774FDFEF7B2FA03B000BD8B
:101D700082B040F69C53C2F200034FF000021A609A
:101D80004FF0000301931CE042F63072C0F60002EF
:101D900001990B464FEA43030B444FEA8303134474
:101DA0001B684FF000021A6040F6A053C2F2000315
:101DB000019A4FF0000143F83210019B03F1010337
:101DC0000193019B062BDFDD4FF00003C4F20203F9
:101DD0004FF0FF325A6002B0704700BFAFF300808F
:101DE00000B585B00390029101920093039B002BF4
:101DF00005D142F65060C0F60000FEF7E9FD039BF6
:101E00005B7A4FF0010202FA03F31A4640F69C5344
:101E1000C2F200031B6802EA0303002B02D04FF05A
:101E2000010361E0039B5B7A1A4640F6A053C2F2BD
:101E30000003019943F83210039B5B7A40F6A052ED
:101E4000C2F200024FEAC3031344009A5A60039B94
:101E50005B7A4FF0010202FA03F31A4640F69C53F4
:101E6000C2F200031B6842EA030240F69C53C2F22E
:101E700000031A6040F69C53C2F200031B6803F093
:101E80007F03002B0BD04FF48053C4F202034FF4B6
:101E90008052C4F20202526942F001025A61039B6D
:101EA0001B68039A1268126822F00F021A60039BE3
:101EB0005B68039A127A4FF00F0101FA02F21A607E
:101EC000039B1B684FF000021A60019B002B09D096
:101ED000039B9B7A1A46029B4FEA0313104619464E
:101EE000FEF77EFA4FF00003184605B000BD00BFB4
:101EF0004FF4E043C4F200034FF4E042C4F20002A6
:101F0000126842F480721A60704700BFAFF300801D
:101F100008B54FF48053C4F202031B694FF4805399
:101F2000C4F202034FF0FF321A614FF48053C4F23F
:101F300002034FF000021A614FF48053C4F202030F
:101F4000DB684FF48053C4F202034FF0FF32DA60D3
:101F50004FF48053C4F202034FF00002DA604EF2F5
:101F60001003CEF2000341F63F12C0F201025A60A4
:101F70004EF21003CEF200034FF000029A604EF2D0
:101F80001003CEF200034FF007021A604EF6F05332
:101F9000CEF200034EF6F052CEF20002D26842F0CA
:101FA0008072DA604FF48053CEF200034FF4805217
:101FB000CEF20002126842F001021A604FF4805320
:101FC000C4F202034FF48052C4F20202D26942F01A
:101FD0008052DA614FF48053C4F202034FF480520E
:101FE000C4F20202D26942F00062DA61FFF780FFB8
:101FF000FFF7BEFE08BD00BFAFF30080AFF3008067
:102000004FF48053C4F202034FF48052C4F2020230
:10201000126842F001021A6000BF4FF48053C4F20C
:1020200002031B6803F00203002BF6D04FF4805329
:10203000C4F202034FF48052C4F20202526822F04A
:1020400003025A604FF48053C4F202034FF48052EB
:10205000C4F2020252685A6000BF4FF48053C4F2C7
:1020600002035B6803F00C03002BF6D14FF480539E
:10207000C4F202034FF48052C4F20202126802F06A
:10208000F9021A604FF48053C4F202034FF00002C9
:102090005A604FF48053C4F202034FF48052C4F2EA
:1020A0000202126842F480321A6000BF4FF480537B
:1020B000C4F202031B6803F40033002BF6D04FF484
:1020C0008053C4F202034FF48052C4F202025268F9
:1020D00042F4E8125A604FF48053C4F202034FF402
:1020E0008052C4F20202126842F080721A6000BF8D
:1020F0004FF48053C4F202031B6803F00073002BFB
:10210000F6D04FF48053C4F202034FF4C842C0F239
:102110001D025A604FF40053C4F202034FF0120242
:102120001A604FF48053C4F202034FF48052C4F299
:102130000202526842F002025A6000BF4FF480531C
:10214000C4F202035B6803F00C03082BF6D170475E
:1021500082B001904FF48053C4F202034FF48052D6
:10216000C4F20202926942F07D029A614FF4006368
:10217000C4F20103019A1268DA604FF40063C4F2FA
:102180000103019A92685A604FF40063C4F201039C
:10219000019A52681A604FF44063C4F20103019A35
:1021A000D268DA604FF44063C4F20103019A5269C5
:1021B0005A604FF44063C4F20103019A12691A6035
:1021C0004FF48053C4F20103019A9269DA604FF42C
:1021D0008053C4F20103019A126A5A604FF480538B
:1021E000C4F20103019AD2691A604FF4A053C4F2F9
:1021F0000103019A526ADA604FF4A053C4F201035A
:10220000019AD26A5A604FF4A053C4F20103019AB2
:10221000926A1A604FF4C053C4F20103019A126B20
:10222000DA604FF4C053C4F20103019A926B5A6012
:102230004FF4C053C4F20103019A526B1A6002B00A
:10224000704700BFAFF30080AFF30080AFF30080B2
:102250008AB0039002910192019B032B03D1039B4F
:10226000029A1A6105E0019B042B02D1039B029A9A
:102270005A6142F69073C0F60003019A13441B782A
:1022800004934FF000030693069B0793079B089364
:10229000089B09934FF00003059335E0089B4FEA34
:1022A00003130893099B4FEA03130993069B4FEA14
:1022B00003130693079B4FEA03130793029B03F054
:1022C0008003002B04D1089B43F00F03089304E024
:1022D000069A049B42EA03030693029B03F400431D
:1022E000002B04D1099B43F00F03099304E0079AE4
:1022F000049B42EA03030793029B4FEA43030293C2
:10230000059B03F101030593059B072BC6D9039B8E
:102310005A68099B02EA0302079B42EA0302039BF5
:102320005A60039B1A68089B02EA0302069B42EA72
:102330000302039B1A600AB0704700BFAFF300802E
:1023400000B585B001900091009B03F00803002BBD
:1023500001D0FDF75DFF019B5B6A1B68019A526A21
:102360001268126822F00F021A60019B5B6A5B68B8
:10237000019A526A127A4FF00F0101FA02F21A60C2
:10238000019B1B6A1B68019A126A1268126822F08C
:102390000F021A60019B1B6A5B68019A126A127A2B
:1023A0004FF00F0101FA02F21A60019B5B681B6893
:1023B000002B11D0019B4FF004021A70019B5B6847
:1023C0001B6801989847019B1B78042B08D1019B3F
:1023D0004FF002021A7003E0019B4FF002021A70E4
:1023E0004FF0200383F31188FEF7C2F9019B9B682D
:1023F000002B0DD0019B9B680393019B4FF00002C3
:102400009A60039B4FF000029A620398FEF708FC63
:10241000FEF7CEF94FF0000383F3118805B000BD3D
:1024200000B583B001900091009B03F00803002BDE
:1024300001D0FDF7EDFE03B000BD00BFAFF300809B
:1024400008B540F63863C2F200034FF6FF721A80F7
:1024500040F6D850C2F20000FFF79AF940F6D85380
:10246000C2F200034FF44052C4F20102DA6140F6B6
:10247000D853C2F20003204A1A6240F6D853C2F27F
:1024800000031E4A5A6240F6D853C2F2000341F2DA
:102490000A029A6240F6D853C2F2000341F21802CF
:1024A000DA6240F60860C2F20000FFF771F940F608
:1024B0000863C2F200034FF46052C4F20002DA6112
:1024C00040F60863C2F200030D4A1A6240F6086340
:1024D000C2F200030B4A5A6240F60863C2F20003DC
:1024E00041F20A029A6240F60863C2F2000341F226
:1024F0001802DA6208BD00BF3C2F0008482F000810
:10250000542F0008602F0008AFF30080AFF3008065
:1025100000B585B00190019B1B78012B40F09E8097
:10252000019A40F6D853C2F200039A423FD1019B70
:102530001A6A42F24133C0F6000310464FF00A0116
:102540001A46019BFFF74CFC03468DF80F309DF8AF
:102550000F30002B05D042F6A060C0F60000FEF759
:1025600037FA019B5A6A42F22143C0F60003104633
:102570004FF00A011A46019BFFF732FC03468DF823
:102580000F309DF80F30002B05D042F6B460C0F636
:102590000000FEF71DFA4FF48053C4F202034FF41B
:1025A0008052C4F20202926942F480529A61019A06
:1025B00040F60863C2F200039A423FD1019B1A6AB7
:1025C00042F24133C0F6000310464FF00A011A46AA
:1025D000019BFFF705FC03468DF80E309DF80E3089
:1025E000002B05D042F6C860C0F60000FEF7F0F9F7
:1025F000019B5A6A42F22143C0F6000310464FF095
:102600000A011A46019BFFF7EBFB03468DF80E30DB
:102610009DF80E30002B05D042F6DC60C0F60000BD
:10262000FEF7D6F94FF48053C4F202034FF4805200
:10263000C4F20202D26942F48042DA61019B1B6A51
:102640001B68019AD26902F10C029A60019B5B6AD5
:102650001B68019AD26902F10C029A60019B5B68C7
:102660005B8903F40063002B0CD1019B9B6A23F46C
:102670007062019B9A62019BDB6A23F47062019B8A
:10268000DA620FE0019B9B6A23F4706343F4A0625B
:10269000019B9A62019BDB6A23F4706343F4A0629E
:1026A000019BDA62019BDB694FF000021A80019BFB
:1026B000DB69019A5268528942F4417292B21A80DF
:1026C000019BDB694FF007029A80019BDB69019A4D
:1026D000D269128892B242F0400292B21A8005B0DA
:1026E00000BD00BFAFF30080AFF30080AFF3008008
:1026F00082B00190019B5B685B68019A5268128905
:102700004FF0010101FA02F25A6102B0704700BFB6
:1027100082B00190019B5B685B68019A52681289E4
:102720004FF0010101FA02F21A6102B0704700BFD6
:1027300084B0039002910192039B1B6A1B68019A6B
:10274000DA60039B1B6A1B68029A5A60039B1B6A30
:102750001B68039A926A42F080021A60039B5B6ACC
:102760001A6840F63863C2F20003D360039B5B6AC9
:102770001B68029A5A60039B5B6A1B68039AD26AC1
:102780001A60039B1B6A1B68039A126A126812681C
:1027900042F001021A60039B5B6A1B68039A526A4B
:1027A0001268126842F001021A6004B0704700BF5C
:1027B00008B5FFF725FC08BDAFF30080AFF300803C
:1027C000704700BFAFF30080AFF30080AFF300802D
:1027D00000B583B0019040F65053C2F200039A69ED
:1027E00042F6F063C0F60003936140F6D850C2F29F
:1027F0000000FFF7C5F84FF48053C4F201034FF413
:1028000080425A6140F6D850C2F2000042F6F071A0
:10281000C0F60001FEF7D4FF40F6D850C2F2000027
:10282000FFF706F840F6D850C2F200004FF003015F
:1028300041F23C02C2F20002FFF74AF840F6D850DB
:10284000C2F20000FFF71CF840F6D850C2F20000B8
:10285000FFF7AEF8C9E700BFAFF30080AFF3008029
:1028600000B583B0019040F65053C2F200039A695C
:1028700042F60073C0F60003936140F6D850C2F2EE
:102880000000FFF77DF84FF48053C4F201034FF4CA
:1028900080421A6140F6D850C2F2000043F20001B3
:1028A000C0F60001FEF78CFF40F6D850C2F20000DF
:1028B000FEF7BEFF40F6D850C2F200004FF0030111
:1028C00041F23C02C2F20002FFF702F840F6D85093
:1028D000C2F20000FEF7D4FF40F6D850C2F200006A
:1028E000FFF766F8C9E700BFAFF30080AFF30080E1
:1028F00000B585B0FEF734FFFDF712FE4FF400601F
:10290000C4F201004FF020014FF01002FFF7A0FCCD
:102910004FF40060C4F201004FF040014FF010028C
:10292000FFF796FC4FF40060C4F201004FF0800105
:102930004FF01002FFF78CFC4FF40060C4F201006E
:102940004FF010014FF00602FFF782FC4FF40063D6
:10295000C4F201034FF010021A614FF00003039319
:102960000CE0039BDAB240F63C63C2F20003039929
:102970000B441A70039B03F101030393039A40F283
:10298000FF139A42EDD94FF00003009341F240202B
:10299000C2F200004FF4E8714FF0410242F2D173ED
:1029A000C0F60003FEF714FC4FF00003009341F261
:1029B0001040C2F200004FF4E8714FF0410242F6BD
:1029C0006103C0F60003FEF703FC4FF4FA70FEF754
:1029D0003FFCFAE7AFF30080AFF30080AFF3008075
:1029E00069646C6500000000000000000000000049
:1029F00053562331000000005356233200000000DC
:102A000053562333000000005356233400000000C7
:102A100053562335000000005356233600000000B3
:102A2000535623370000000053562338000000009F
:102A30005356233900000000535623313000000064
:102A40005356233131000000000000000000000058
:102A500022636856545365744922282900000000F7
:102A60002263685654526573657449222829000010
:102A70006368565452657365744928292C202331A4
:102A80000000000000000000000000000000000046
:102A9000636853636852656164794928292C20234F
:102AA00031000000737461636B206F766572666C31
:102AB0006F77000000000000000000000000000030
:102AC00022636854686443726561746549222829E9
:102AD0000000000022636854686453657450726992
:102AE0006F726974792228290000000063685468B5
:102AF00064526573756D6528292C20233100000010
:102B0000226368546864536C65657022282900004C
:102B10006368546864457869745328292C202331EC
:102B200000000000226368546864576169742228B9
:102B30002900000063685468645761697428292C6F
:102B40002023310063685468645761697428292C14
:102B50002023320000000000000000000000000000
:102B60002263684D7478496E697422282900000038
:102B70002263684D74784C6F636B532228290000E0
:102B800063684D74784C6F636B5328292C20233174
:102B90000000000063684D74784C6F636B53282904
:102BA0002C202332000000002263684D7478547298
:102BB000794C6F636B5322282900000063684D74C1
:102BC00078556E6C6F636B28292C20233100000030
:102BD00063684D7478556E6C6F636B28292C2023C5
:102BE0003200000063684D7478556E6C6F636B53F0
:102BF00028292C202331000063684D7478556E6CB1
:102C00006F636B5328292C20233200000000000042
:102C100022737069537461727422282900000000C5
:102C2000737069537461727428292C202331000059
:102C30002273706953746F7022282900737069536E
:102C4000746F7028292C20233100000022737069D2
:102C500053656C6563742228290000007370695302
:102C6000656C65637428292C2023310022737069F8
:102C7000556E73656C6563742228290073706955FD
:102C80006E73656C65637428292C20233100000065
:102C900022737069537461727449676E6F72652232
:102CA00028290000737069537461727449676E6FEC
:102CB000726528292C2023310000000022737069DE
:102CC000537461727445786368616E676522282960
:102CD0000000000073706953746172744578636812
:102CE000616E676528292C202331000022737069EA
:102CF000537461727453656E6422282900000000C9
:102D0000737069537461727453656E6428292C2042
:102D100023310000227370695374617274526563C9
:102D2000656976652228290073706953746172742D
:102D30005265636569766528292C202331000000DF
:102D40002273706949676E6F7265576169742228D2
:102D50002900000073706949676E6F726528292C1D
:102D60002023310073706949676E6F726528292CC2
:102D7000202332005F7370695F7761697428292CA2
:102D8000202331002273706945786368616E67653E
:102D90002228290073706945786368616E67652829
:102DA000292C202331000000737069457863686125
:102DB0006E676528292C2023320000002273706979
:102DC00053656E642228290073706953656E642808
:102DD000292C20233100000073706953656E64282C
:102DE000292C20233200000022737069526563652C
:102DF00069766522282900007370695265636569E8
:102E0000766528292C202331000000007370695258
:102E100065636569766528292C202332000000004F
:102E200022737069416371756972654275732228F6
:102E3000290000002273706952656C6561736542F8
:102E40007573222829000000000000000000000027
:102E500022646D6153747265616D416C6C6F636166
:102E6000746522282900000022646D615374726524
:102E7000616D52656C656173652228290000000050
:102E8000646D6153747265616D52656C65617365E3
:102E900028292C2023310000000000000000000041
:102EA0007370695F6C6C645F737461727428292C31
:102EB000202331007370695F6C6C645F737461729E
:102EC0007428292C202332007370695F6C6C645F56
:102ED000737461727428292C202333007370695F26
:102EE0006C6C645F737461727428292C2023340025
:102EF00053504920746872656164203100000000FD
:102F000053504920746872656164203200000000EB
:102F10006D61696E0016891104044C080C101418B8
:102F20001C202122232400000000000000000000DB
:102F3000080002400400024000000B001C00024098
:102F40000400024004010C00300002400400024072
:102F500008020D0044000240040002400C030E0071
:102F6000580002400400024010040F006C000240B0
:102F700004000240140510008000024004000240DA
:102F80001806110000000000000000000000000012
:102F900004020408080003070808080808080808CD
:102FA0000B0F000000000000000000000000000007
:102FB000FFFFFFFF4444444444444444FFFFFFFFF9
:102FC0004444444444444444FFFFFFFF44444444D5
:102FD00044444444FFFFFFFF4444444444444444C5
:102FE000FFFFFFFF888888888888888800000000A5
:102FF0000000000000080140040000000000000084
:0C30000000000000000801400400300047
:0400000508000111DD
:00000001FF
